:020000040800F2
:1060000008040020ABC80008B5AC0008B5AC000817
:10601000F9660008B5AC0008B5AC0008B5AC0008DE
:10602000B5AC0008B5AC0008B5AC0008510C0308CD
:10603000B5AC000854370308F50B03082B2C0308F4
:1060400031030108B5AC0008B5AC0008B5AC0008D8
:10605000B5AC0008B5AC0008B5AC0008B5AC00089C
:10606000B5AC0008F5450208B5AC0008B5AC0008B1
:10607000B5AC0008B5AC0008B5AC0008B5AC00087C
:10608000B5AC0008B5AC0008B59E0008B5AC00087A
:10609000B5AC0008B5AC000805030208B5AC0008B3
:1060A000B5AC0008B5AC000839AD000815AD000866
:1060B000B5AC0008B5AC00087DD7020839E202088B
:1060C0008903030885030308EDD902089F03030829
:1060D0008D03030809E20208910303089DE2020808
:1060E000D5E20208B5AC0008B5AC0008B5AC0008B4
:1060F000B5AC000801850008B5AC0008B5AC0008D7
:10610000B5AC0008B5AC0008B5AC0008B5AC0008EB
:10611000B5AC0008B5AC0008F1430208B5AC000806
:10612000B5AC0008B5AC0008B5AC0008B5AC0008CB
:10613000B5AC0008B5AC0008B5AC0008B5AC0008BB
:10614000B5AC0008B5AC0008B5AC0008098A000879
:10615000B5AC0008B5AC0008B5AC0008C1BF02087A
:10616000B5AC0008B5AC0008790303087F03030849
:10618000F0B5114A114C124E00F00105E3695F07AA
:1061900013D40DB9334213D103EA00078F4207D15C
:1061A0000B4A1A40002A0CBF00206FF00100F0BD1E
:1061B000013AEBD16FF00200F9E74FF0FF30F6E75C
:1061C0006FF00100F3E700BF8096980000000350D5
:1061D000020001002DE9F84F16464FF48032274B9C
:1061E000274D9A66EB69074603EA020841F67133C8
:1061F0000122EB63234BDFF89490DA600EB930464E
:1062000029E007F5005404EA09046F61E41BEB6917
:10621000B44228BF34465B072DD48B465BF8043B61
:1062200001EB040AAB61D3450ED1042300212120E8
:106230002B61FFF7A5FF70B92120FFF7A1FF50B92F
:1062400059462744361BD9E708210846FFF798FF2F
:1062500068B104232B6101220B4BDA60B8F1000F07
:1062600003D00022A3F50053DA63BDE8F88F5BF892
:10627000043BAB61D7E74FF0FF30ECE700900050F4
:1062800000000350001003500020035000E0FFFF07
:1062900000000000000000000000000000000000FE
:1062A00022000000498701081900000031C30108DD
:1062B0001500000091D00108100000000DD0010869
:1062C00012000000F1A6010813000000599E010809
:1062D0001100000041AC01080E00000065C2010879
:1062E0000D000000C9D101080500000059B80108DF
:1062F00004000000E9B801080F00000061850108F2
:106300001A00000021E201080B0000006D8C01085A
:106310000A00000069BF01080900000025B001085B
:1063200008000000F1DF0108030000002DD401087F
:1063300002000000618C01080600000005FB010856
:1063400007000000CDEE01080100000001FB01087C
:1063500023000000F1FA010828000000DBFA010820
:1063600027000000D9FA0108260000005D8C010812
:1063700020000000CDCF01081F000000A9D30108B4
:106380001600000005BC010828000000E7FA01081B
:1063900027000000DDFA0108260000005F8C0108DC
:1063A0002A0000007F85010802000000678C0108B8
:1063B000290000007D8501082300000001910108EB
:1063C0000100000003FB0108030000007B850108B9
:1063D0000000000079850108D800000071C700089E
:1063E000D700000035C70008DF0000009DD6000878
:1063F000DE00000079D60008BF000000B3AC000842
:10640000A8000000B1AC000849000000AFAC0008D3
:106410000A000000ADAC00086B000000C9C600080F
:106420006A000000D5E2000869000000F9D5000804
:10643000D600000079E200083C00000039E90008BD
:1064400027000000EDBE00081C00000085C6000803
:1064500098000000D1D50008650000007FC6000844
:10646000D400000079C60008D3000000B1B50008D0
:10647000D200000051C60008BD000000BDD50008D4
:106480000B00000059E3000808000000BDBE000832
:1064900006000000BDB700086000000051D50008EC
:1064A00005000000F5E60008E800000015E9000816
:1064B000E700000041D50008DD00000081BE0008B3
:1064C000DC000000B9E80008DB00000041C600085D
:1064D000DA00000025E80008C0000000FBC5000845
:1064E0000200000069E70008A5000000EBC50008F5
:1064F000A600000011E20008BE000000C9D4000898
:10650000A400000095E10008A000000081C100087F
:10651000A200000061D400080300000071C300085D
:10652000090000006DB7000815000000D113010834
:1065300093000000E1E00008920000002DE0000858
:106540009000000045BE0008800000002DC3000838
:106550006300000029D400086200000099DF0008F1
:106560006100000015DF0008560000003DB700087C
:106570005400000095D300085700000021D3000804
:1065800055000000A1D2000858000000FDD100080D
:106590005100000069D1000847000000F9D0000850
:1065A0004F00000061D0000846000000E5CF000861
:1065B0005F000000ADCF00085E00000075CF00084E
:1065C0005000000015DE00084D000000E1BD00088D
:1065D0003F00000085BD00084B00000045BD0008DD
:1065E0004A00000019C000084200000095BC0008E5
:1065F00041000000F1C2000868000000C1DD000891
:106600004800000015DD00085300000021CF0008FD
:10661000280000006BC200082A0000003BDB0008D5
:106620002C00000001DB000829000000ABAC0008D2
:106630003D00000049C200082E0000000FC2000803
:1066400024000000C1CE000823000000D7DA0008B3
:1066500022000000A1CE000821000000A5DA0008F9
:1066600020000000F5B600086C0000002DBF0008F7
:10667000AC000000D5CD0008AB00000079CC0008CC
:10668000A9000000D1CB00081600000049BC00089A
:10669000140000001DCB00081300000091CA000880
:1066A000120000001DCA000810000000ADDC000848
:1066B0003A00000099B6000839000000E9C9000856
:1066C0003B0000001DBF00083800000011B60008A4
:1066D00037000000F9BB0008D90000009DC9000880
:0866E00007000000F9B70008F3
:1066F000013800D0FCE77047BFF34F8F0549064BC8
:10670000CA6802F4E0621343CB60BFF34F8F00BF4F
:10671000FDE700BF00ED00E00400FA056FF01B008C
:10672000704770479A4238BF8854704770472DE9C8
:10673000F84F9846DDE90B490D9B15469A0706462A
:106740000F4623D02A460A9B03EB040A1444A242B4
:1067500020D10D9B9B0705D5A2EB050AD14505EB82
:106760000A0420D82046BDE8F88F43463946202049
:10677000B0470AF1010ACA450AEB0B02F5D3A9EBAF
:1067800004024C4588BF00222A44DCE7A246A5EB60
:10679000040BF0E702F1010B434639461AF8010DEC
:1067A000B0475A46D3E74346224639462020B047F1
:1067B0000AF1010AD2E72DE9F0479E46DDE90D3CDA
:1067C000DDE90874DDE90B651CF0020F9DF82880F7
:1067D0001FD10CF001094BB1B9F1000F06D0B8F18F
:1067E000000F02D11CF00C0F00D0013B4FF0300A1B
:1067F00002E007F804A00134A54201D9202CF8D109
:10680000B9F1000F05D04FF03009A34201D9202C77
:106810001BD11CF0100F15D01CF4806F32D1C4B105
:10682000AC4201D09C422DD1651E12D0102E36D123
:106830001CF0200FA4F1020456D178263E553026D4
:106840006C1C7E55202C36D00DE007F804900134E6
:10685000DBE7102E10D11CF0200F26D178243C70DD
:1068600030247C700224B8F1000F31D02D253D5525
:10687000013421E06224F2E7022EFBD030243C7088
:106880000124F0E7102E12D11CF0200F2AD1202C69
:1068900011D07826651C3E55202D0CD0CFE7022E56
:1068A000CDD162247C550135F6E75824D7E7022E76
:1068B0000CD1202C08D12024CDE90A3CCDE9087464
:1068C0007346BDE8F04732E72546EAE72546E3E7A9
:1068D0001CF0040F01D02B25C9E71CF0080FEBD0EA
:1068E0002025C4E7202CE6D05826651CD3E72DE9E7
:1068F000F04391B0189E1A9F1D9C002E38D124F0B1
:10690000100C14F4806421D11CF0200F14BF4FF040
:10691000410E4FF0610E00260DF12008AEF10A0E77
:10692000B4FBF7F907FB19495FFA89F5B9F1090FCB
:1069300094BF30357544EDB2BC4208F8015B06F1F6
:106940000106B4FBF7F501D3202E14D11C9CCDF821
:1069500018C005941B9CCDE903749DF86440CDE9F3
:10696000016408AC0094FFF726FF11B0BDE8F08386
:10697000A4463446C8E72C46D2E72DE9F04F95B03F
:10698000CDE90A23DDE91E65DDE9228B56EA050221
:10699000CDE90801269B39D15A0523F010093AD4D4
:1069A00019F0200F14BF4123612300240DF1300A98
:1069B000A3F10A07294642465B46304628F07AF999
:1069C000D2B2092A94BF3032D2194645D2B275EB01
:1069D0000B0504F101040AF8012B01D3202C17D177
:1069E000259BCDF818900593249BDDE90801CDE99E
:1069F00003839DF88030CDE901430CAB0093DDE9C2
:106A00000A23FFF7D8FE15B0BDE8F08F9946C7E717
:106A100006460D46CEE70024E2E72DE9F04F93B09D
:106A2000CDE90A32DDE91C530E9353EC102BCDE96E
:106A30000801104619468DED060B1E9E28F0EEFE4D
:106A400080B1DDE906014FF0FF32C54B28F00EFFA3
:106A500040B9DDE906014FF0FF326FF4801328F0F2
:106A6000E7FE68B1DDE908019DED060B0E9B1E9661
:106A7000CDE91C53DDE90A3213B0BDE8F04F84E1E3
:106A80000022DDE90601002328F0D2FE002800F0F4
:106A90003381DDE906A303F1004BCBF30A5016F472
:106AA0008063A0F2FF3008BF06250F9328F0E4FBB7
:106AB0009BA3D3E9002328F049FC9BA3D3E900233F
:106AC00028F08EFACBF31304894644F07F518046B8
:106AD0000022A44B504641F4401128F07FFA94A3C1
:106AE000D3E9002328F032FC02460B4640464946D3
:106AF00028F076FA28F0C4FE044628F0BDFB8EA3E9
:106B0000D3E900238046894628F020FC0022964BDA
:106B100028F066FA28F0B4FE89A3D3E900230746DB
:106B20004946404628F012FC80463846894628F0FF
:106B3000A3FB85A3D3E9002328F008FC02460B46FB
:106B40004046494628F04AFA02460B46CDE90C2356
:106B500028F0FCFBDDE90C238046894610461946E7
:106B600028F03EFA0022CDE91001804B404649460C
:106B700028F016FD00227E4B28F032FA02460B4622
:106B80004046494628F00CFD00227A4B28F028FAAE
:106B900002460B464046494628F002FDDDE90C233B
:106BA0008046894600204FF0804128F017FA0246BF
:106BB0000B464046494628F013FA02460B46DDE9EB
:106BC000100128F0EDFC07F2FF3700226A4B28F095
:106BD00007FA00223B0528F0B9FB52465B46804687
:106BE000894628F043FE002840F08980CDE90C89D1
:106BF00004F16303C72B34BF0427052731051BD5D8
:106C000053A3D3E900235046594628F025FE002817
:106C10007FD051A3D3E900235046594628F008FEFF
:106C2000002876D00027A542C6BF2C1B04F1FF35F3
:106C300000253C4646F480660E9B9F422CBF4FF0D9
:106C40000008A3EB070816F0020903D0002F18BFB5
:106C50004FF000083CB1DDE90C235046594628F0BE
:106C60009FFC82468B46DDE906010022002328F0C6
:106C7000DFFD10B10BF100439B46DDE9080126F46E
:106C80000063CDE90183DDE90A324BEC10AB0095DE
:106C900000F07BF802465FB3DDE9091316F0200F20
:106CA00000F10105089E0CBF65204520B047DDE9D5
:106CB00008010523002205930A23002CCDE90232A6
:106CC00007F1FF374FEAD473B8BF64422A460193F5
:106CD00004970A9B0094FFF70AFE0246B9F1000FE1
:106CE00006D00B9BC41A0B9B1A190E9BA34245D8C6
:106CF000104613B0BDE8F08FDDE906ABCDE600220B
:106D0000404649461A4B28F04BFC013CCDE90C01AA
:106D10006EE7002D90D00F9B002B8DD0013D8BE7AF
:106D2000FB799F501344D33FB3C8608B288AC63F7A
:106D300061436F63A787D23F71A379094F930A40DC
:106D40001655B5BBB16B0240EF39FAFE422EE63F55
:106D50002D431CEBE2361A3F0000000080842E41D8
:106D6000FFFFEF7F0000F83F0000E03F00002C40F5
:106D700000002440000018400000F03F2020DDE922
:106D80000913089DA8470134ADE72DE9F04F5BECEE
:106D900010AB97B0CDE90501DDE92057CDE9072318
:106DA000504652465B465946229E28F037FD70B940
:106DB0000323CDE902760193AF4B0093DDE9050192
:106DC000DDE90723FFF7B3FC17B0BDE8F08F4FF004
:106DD000FF326FF480135046594628F029FD28B140
:106DE0000423CDE902760193A44BE6E74FF0FF328E
:106DF00050465946A24B28F039FD68B1A14A06F029
:106E00000403002B08BF03229F4B1CBF1346042220
:106E1000CDE902760192D0E7504693A3D3E900234F
:106E2000594628F023FD38B991A3D3E900235046F1
:106E3000594628F0FDFC60B1DDE90723DDE90501D5
:106E40004BEC10ABCDE92176209517B0BDE8F04FA3
:106E5000E3E5002200235046594628F0E9FC0028CB
:106E600000F09A805B4652460020002128F0B6F8D8
:106E7000012382468B46099316F4806400F08E80CD
:106E8000092D40F28E80002430210EABA5F10902BD
:106E90000134202C03F8011BA5EB040901D0944216
:106EA000F6D15946504628F0EBFC784B054603EBEB
:106EB000C90393ED007B8DED0A7B28F0DDF90246D6
:106EC0000B465046594628F089F8DDE90A2328F098
:106ED0003DFA02460B46CDE90C2328F0F9FC80462A
:106EE00028F0BAF902460B46DDE90C0128F076F8E5
:106EF00002460B46CDE90C230022654B28F0B6FC78
:106F0000002851D008F10108404628F0A5F90246B2
:106F10000B46DDE90A0128F095FC10B14FF000089E
:106F20000135B9F1000F50D1284628F0A5F90246E5
:106F30000B465046594628F051F80022544B8046E3
:106F4000894628F075FC30B1002240464946504B36
:106F500028F08CFC10B1E80700D501350A210EABF2
:106F60001A19202C0AD095FBF1F001FB1055303591
:106F700002F8015B013405460028F2D106F0030255
:106F8000012A57D1002F55D0099A12B916F00C0FCB
:106F900000D0013F302245E009906DE74FF006092F
:106FA0007FE7A94600247CE70022DDE90C01384B8D
:106FB00028F03EFC0028B4D1B8F1000F02D018F040
:106FC000010FAED008F10108ABE70A210EAB234454
:106FD000202C0ED0B8FBF1F001FB1082B8F1090FA4
:106FE00002F1300209F1FF3904F1010403F8012B29
:106FF00011D83021A1440EAA202CAFD0A14504F114
:1070000001030AD11C4609F158030DEB03092E2395
:1070100009F8203CA2E78046DAE7A1541C46EBE7DA
:107020001A550134A74205D9202CF9D1CDE90276B1
:107030000194C2E6202CF9D0099A3AB12D2104F12D
:1070400058026A4402F8201C0134EFE7710704D5A6
:1070500004F158022B216A44F4E73207E6D504F123
:10706000580220216A44EDE70000000065CDCD41C3
:107070000000000065CDCDC1B1370308B537030866
:10708000FFFFEF7FA8370308AD370308E037030899
:107090000000E03F2DE9F04F984691B00B1E0A9397
:1070A000AF4B914614BF83469B4600241A9E98F826
:1070B000000070B94C4538BF22464B464FF00000E7
:1070C0000A9928BF09F1FF32D847204611B0BDE820
:1070D000F08F252808F1010806D022464B460A9970
:1070E000651CD8472C46E2E700230DE02D2A2AD064
:1070F000302A06D0303A092A4FF0000711D80A2565
:1071000032E043F001038846414611F8012B2B2A57
:107110001CD0EBD8202A1CD0232A1DD02A2A2BD001
:10712000002798F800202E2A64D198F8011008F161
:107130000102A1F13000092843F4806350D80025F2
:107140004FF00A0C26E043F00203DCE743F00403AF
:10715000D9E743F00803D6E743F01003D3E78846A6
:1071600005FB0722A2F13007414611F8012BA2F1DD
:1071700030000928F3D9D4E756F8047B8846002F5D
:10718000BCBF43F002037F42CBE702460CFB051174
:10719000A1F13005104610F8011BA1F1300EBEF12F
:1071A000090FF2D99046424612F8011B6C292AD0E9
:1071B00022D8682930D06A2939D018F8010B6728FD
:1071C0007AD857284FD8452807D086D9462800F0C6
:1071D0003681472881D143F4006343F0200344E122
:1071E0002A2906D156F8045B08F1020825EAE5755C
:1071F000D9E790460025D6E7742901D07A29DCD159
:1072000043F480730EE098F801106C29F8D143F430
:10721000407308F10208D0E798F80110682903D0FC
:1072200043F080039046C8E743F0C003F1E743F41E
:107230000073F7E70A2A00F06381072A7FF44DAF55
:1072400043F0210305930823CDE903531023CDE92F
:10725000011356F8043B2246009358464B460A99C0
:10726000FFF745FBFBE0A0F158020F2A3FF635AFD0
:1072700001A151F822F000BFE9720008DB7000089C
:10728000DB700008DB700008DB700008DB700008B2
:10729000DB700008DB700008DB700008DB700008A2
:1072A000E972000889740008E97200086374000834
:1072B0004374000863740008A0F16902D2B20F2A77
:1072C0003FF60BAF012149F2410C914011EA0C014C
:1072D000B0D0782803F4806125D1002900F0908097
:1072E00023F00D02102307E0622803F4806227D107
:1072F000B2B923F00C02022312F4007100F0838073
:10730000CDE907720022CDE9043206F1070A2AF01E
:10731000070A06950292FAE80223CDE900233DE030
:1073200023F00D02E7E76F2812D0692823F010023E
:1073300040D023F01C0209B123F01D020A23DBE731
:1073400058280FD19ABB23F00C0242F02002C9E763
:1073500019B923F00C020823CEE723F00D02FAE757
:107360002D67000842BB23F01002930527D507368E
:1073700026F00706B24671685AF8083B0A26CDE99E
:1073800007720027CA0F0029CDE90467069502920B
:1073900002DA5B4261EB4101CDE900314B46224606
:1073A00058460A99FFF7E9FA044656467FE623F065
:1073B0000D02CAE70029D8D023F01102D5E7D00585
:1073C00006F1040A01D5336802E0510613D533787B
:1073D000CDE904720A22002B02924FEAD372039580
:1073E0000192B8BF5B4200934B46224658460A9929
:1073F000FFF77DFAD8E71306E5D5B6F90030E7E7E1
:1074000023F00C026EE7D00506F1040A06D5CDE99B
:107410000472CDE9023501913368E4E7510608D5DD
:107420003178CDE902350023CDE90472CDE90013AE
:10743000DAE7316812F0800F18BF89B2F1E743F044
:107440002003CDE90173073626F007060095B6EC58
:10745000020B4B46224658460A99FFF796FC044613
:1074600025E6672801D143F40063CDE901730736AF
:1074700026F007060095B6EC020B4B46224658460E
:107480000A99FFF7CAFAEAE713F0020523D04FF092
:10749000010A631C0B9322464B460A9916F8040B0B
:1074A000D8475DB354460B9A1EE04B4620200A99FC
:1074B000D8470AEB04020AF1010A5745F5D8002F14
:1074C00007F1FF3308BF002307F1010A1C4408BF7E
:1074D0004FF0020ADDE7AA46EBE7551C4B46202099
:1074E0000A99D8472A460134BC42F6D3A7EB0A03CF
:1074F000574538BF00230B9A1A440B920B9CD6E5D4
:107500003246002D52F8046B14BF29464FF0FF316C
:107510000B9232463144107808B18A4211D1A2EB65
:10752000060A13F480620C9202D0AA4528BFAA462C
:1075300013F002030D931BD1AAEB040322460F9311
:1075400008E00132E7E7531C0E9320204B460A99CE
:10755000D8470E9A0F9BD3189F42F4D8A7EB0A0383
:10756000574538BF00230AF101021C4403EB020A0D
:10757000A31B0E9304E01D464B4622460A99D847AA
:107580000E9BF41816F8010B28B10C9B002BF3D0BE
:107590006B1E002DEFD10D9B93B12246AAEB040583
:1075A00005E0561C4B4620200A99D847324653190D
:1075B0009F42F6D8A7EB0A03574538BF00231C4467
:1075C0000B9E74E5064B1B684BB11B78032B01BF68
:1075D000044AD2F8243143F00043C2F82431704702
:1075E00094130020000003507047704708B538B16D
:1075F0002BF046FC002814BF6FF01D00002008BDD2
:107600006FF01B00FBE7034B4FF48071D3F80405C8
:107610002BF070B8045400202DE9F04FBBB0E022ED
:10762000002102A828F0B4F9814B824F1B68824EDA
:107630000193019B02A958682BF060FC012802D03D
:107640003BB0BDE8F08F9DF80830822B00F08880B9
:10765000862B00F09080812BEBD1784A9DF8D48066
:1076600092F80090BDF8DE10B9F1020F9DF8DE40EF
:10767000BDF8DC209DF8DC0086F8008057D14FF083
:10768000060A090A120A7170B470F27030719DF81E
:10769000D350CAF1A804AA2D28BFAA25E4B2A54256
:1076A00028BF254606EB0A002A465FFA85FB0DF146
:1076B000290100F801BC29F07FF818F0080F3DD02F
:1076C0000AEB0B04E4B2C4F1A803DBB21D2B33D8E0
:1076D000C4F1A70414F0FF040AD0621E5544725589
:1076E000013503A9701929F067F8A3445FFA8BF4F8
:1076F0009DF8E02006EB0A03B9F1020F1A550ED1EE
:107700009DF8E110621CD2B29954A21C9DF8E410BD
:10771000D2B2995403349DF8E520E4B21A550AF127
:107720000103E118C9B2A8201BF0C0F881E74FF0AF
:10773000040A7470B070AAE71E24CEE7AC429EBF64
:10774000CAF1A704E4B225464FF00003554488BFB0
:107750000BF1010BEDB288BF5FFA8BF47355C7E7ED
:107760009DF81030BDF80E109DF80C000DF11102BF
:1077700005F0B2FF5DE79DF8B930072B56D19DF8B3
:107780000E409C2C52D82D4BBDF80C201B782A4D56
:10779000022B18BF03469DF80C1008BF120A03F114
:1077A000010006BF69702A70297022465FFA80FACC
:1077B0000DF10F0155FA80F09DF8C190EC5428F0BE
:1077C000FBFF072304EB0A01C9B26B54DDF8BA00D2
:1077D0004B1CDAB2A850BDF8BE2055FA83F39A804C
:1077E0009DF8C020C9F300099A7101F10803DBB2CA
:1077F00005F8039001F1090297F80835D2B2AB54AD
:10780000FF22B3FBF2F2C2EB02229B1A0A310133D0
:107810006C20C9B287F808351BF048F810300121F8
:107820008140D7F804052AF065FF02E71020F6E74B
:107830005C120020045400201F1000206D920020D4
:107840000BF02ABD2DE9F341264DD5F80C45B5F8CE
:107850000A7524BA631E03330AD905F20C501BF0D3
:1078600087F90121044605F20C5012F05FF9012757
:107870001D4EA5F80A75C5F81845A5F816750BF044
:107880008DFD73684FF4800293F800800023A5F803
:107890002075C5F82445CDE90023F06828F08DFE59
:1078A00095F85035012B0BD1FF21F06828F0FCFF33
:1078B00055222146F06802B0BDE8F04129F002B837
:1078C0003946F06828F0F0FF73681B78012BEFD081
:1078D00042463946204619F075F9F56802462146B8
:1078E0002846E8E70454002078930020AAE7002304
:1078F00007B50193104B114A5B68FE28C3F30803D8
:107900000CBF4FF480414FF40051D2F8040523B965
:1079100003B05DF804EB2AF0EDBE01AA2BF032F8BB
:10792000019B2BB14FF0E0234FF08052C3F8042DA0
:1079300003B05DF804FB00BF00ED00E0045400203C
:10794000002307B50138019307280CD8DFE800F0C1
:10795000190B040B160B0B1C012101AA0C4BD3F8BD
:1079600004052BF00FF8019B2BB14FF0E0234FF0F3
:107970008052C3F8042D03B05DF804FB402101AA36
:10798000ECE7042101AAE9E74FF4004101AAE5E789
:1079900004540020002307B502380193052818D8A5
:1079A000DFE800F01C171E17031520210D4B01AA5C
:1079B000D3F804052AF0E6FF019B2BB14FF0E0233A
:1079C0004FF08052C3F8042D03B05DF804FB102182
:1079D000ECE7054B054A5A6219F05EFB0221E5E728
:1079E0000821E3E7045400200000085001001D03B3
:1079F00008B5024A024B5A6219F04EFB02001D0301
:107A000000000850074B93F8543513F0300F07D19E
:107A1000B0F57A6F04D80122022110461DF0B2BDE4
:107A2000704700BF045400200BF086BC08B500204E
:107A30000CF0B4FE044B4FF40071D3F80405BDE81C
:107A400008402AF057BE00BF0454002001200CF06B
:107A5000A5BE02200CF0A2BE08B519F00BFE1AF06C
:107A6000F3FFBDE8084002200CF098BE37B5294C62
:107A7000E06828F011FEC307054602D5E06828F04B
:107A80002AFE15F4881F42D04FF0FF33CDE90033B2
:107A9000214B93F8553503F0FF0543B1002019F051
:107AA000A2FC0022E068114628F0DFFE0125D4E99F
:107AB000021028F0E0FE23780A3B012B08D80022B0
:107AC000E068114628F0A0FC6946E06826F0D0FE88
:107AD00000220121E06828F097FC01A9E06826F067
:107AE000C7FE00980D4B18600199596019F0E8FD28
:107AF000002019F078FC55B1636818781AF062FF1D
:107B00000122E068114628F0B0FE1CF0E7FE03B049
:107B100030BD00BF789300200454002000000850BE
:107B200037B51F4DD5F8580558B10378DA060AD590
:107B300000217F2381731A4601900093084613F0B9
:107B400017FC03B030BD448963051DD5837BDBB1D1
:107B5000013B837319F09AFDA0B14FF47A72114B77
:107B60005B689B88B3FBF2F303339BB2B5F85C15FB
:107B70000D48C1F1C801C91A89B203B0BDE830404F
:107B80001BF03ABC0323F1E724F48C63438100210A
:107B90000CF0EAFED5F8583524F480645C81D0E717
:107BA0000454002078930020645900202DE9F04F00
:107BB000664E8FB01422002103A827F0E9FE0221AF
:107BC000F06803AA28F0A3FD0446002846D0604DC3
:107BD00005F2A157D5F8443513B19A6801329A607D
:107BE0001822002108A8BDF80EA027F0D1FE2146DA
:107BF000F06808AA28F08DFDF8B995F8A0259DF841
:107C00003310B36802EB4200C2EB801007F800A00B
:107C10000B44197E9146032907EB000821D8013156
:107C2000C9B203291FD004290CBFBE2140215FFA2D
:107C30008AF38B4219D900233B544FF000082146A8
:107C4000F06828F06AFD0221F06803AA28F05FFDC1
:107C50000446B8F1000F72D10028BBD10FB0BDE8C7
:107C6000F08F4021E3E7AA21E1E70132D2B2032AF3
:107C700028BF002285F8A02500220092214608F1A5
:107C80000102F06828F05BFD9DF83330FE2B04BF45
:107C9000337C8DF8333019F0F8FB9DF833B058453C
:107CA000CBD9B3682B4A5B441B7E5846032B8EBF4F
:107CB00000230133DBB202F8393002EBC90A19F0B4
:107CC00079FC73688AF801001B7863B1012B0AD034
:107CD000022B32D1BBF1020F94BF4FF0000B4FF0DB
:107CE000010B4FEA4B038AF802309DF82E30D5F88D
:107CF00024258AF80330089BCAF80430D8F80130EC
:107D00001BBA934211D0D5F8443513B15A690132E8
:107D10005A610338C3B2012B07D8182303FB005064
:107D2000D0F804380133C0F8043841465046D5F83D
:107D30004C3598474FF0010881E70223D3E700282C
:107D40008CD00120D5F83435984787E77893002008
:107D500004540020E25B0020114321F0F8014904A3
:107D6000034B490C41F44021063043F82010704782
:107D700000800350021E30B54FF000000CBF0C25F0
:107D8000042547F60774084952B9831D51F823307A
:107D9000234023B101308542F6D14FF0FF3030BD92
:107DA00000F11203F2E700BF008003503AB122F065
:107DB000030202F1A04202F5603209B91060704777
:107DC0000002FBE74FF48032064B5A6603F5E623C8
:107DD0009B69C3F38512827003F03F021B0B427054
:107DE00003707047009000500020704747F6FF7303
:107DF0009A42F0B56BD009296BD8374B0B4493F8F6
:107E00005030032B65D8354DDE0005EBC30415F863
:107E10003330A178012B13D10025E078401A854238
:107E200002D30844C0B2F0BD431B6668A0EB530305
:107E300036F913609642D4BF1D4603F1FF30EEE7DA
:107E400060680028EFD0B0F90040A24204DCB0F92D
:107E500002409442B8BF144683883544FF2B19BFB3
:107E6000C8232827B0F90630B0F90870A3EB040343
:107E70000CBF0122002293FBF7F36E7813441BB270
:107E80009E4201DD002B01DA731E1BB24FF47A7C97
:107E900000EBC305EA88AD685F1C14FB02521D4667
:107EA00022EAE2723BB25C329E42B2FBFCF204DD9B
:107EB00000EBC307BF88BA42EAD900EBC503988834
:107EC000904228BF1046884238BF0846AAE7FF20E4
:107ED000A9E70020A7E700BFE0370308441B002004
:107EE0000929F0B557D82D4B0B4493F850000328BF
:107EF00051D82B4C04EBC00114F830004B6801281A
:107F00000FD1C8788C78904294BFC4EB0001C4EBC9
:107F10000201001BCAB28242C8BF002233F912001C
:107F2000F0BD002B37D08878904202D3B3F902001D
:107F3000F6E7CC78B3F900009442F1D94C789988EF
:107F4000013CA1F1FF06714203F10405E4B2714165
:107F500003F10C07CEB2B44216D805EBC1014FF4C1
:107F60007A756A43B1F902404968521A04EBD47138
:107F700002EB610292FBF4F29042D1DBB3F9020012
:107F80009042CDDC10B2CBE737F831C04E1C94459F
:107F9000E3D33146DEE70348C2E700BFE03703081A
:107FA000441B00200080FFFF0028ACBF00F16040B0
:107FB000064B4FEA0111C9B2ABBF00F5614000F0BA
:107FC0000F0080F800131954704700BF14ED00E053
:107FD0002DE9F74F002800F0EE807849D1F83C48B1
:107FE000D1F840E8EFF3118B302383F3118810F8B8
:107FF000086C30F806CCF30702D5BCF1000F07D1AE
:108000008BF31188BFF36F8F012003B0BDE8F08FB1
:10801000D1F83038D1F83898A3EBCC0330F8048C81
:108020000093C1F8303809F10103A0F108050CF103
:108030000102C1F83838B8F1000F3BD0A5EBC803F6
:10804000DF88B3F802A001971F7806F00206FF0749
:1080500025D42EBB019EA6EB0A06012E2AD1009E36
:108060000CF10202A6F108075244C1F83898C1F891
:10807000307830F8028CB8F1000F1DD110F8085C90
:1080800020F8068C68F3000500F8085C013A5A8075
:108090001A7868F300021A700022DA8041E04EB1CB
:1080A00010F8086C42446FF3410600F8086C002693
:1080B0009E80DEE72B46DCE7D1F82868D1F82C78E3
:1080C00005EBC8093744B9450ED310F8085C013AEE
:1080D0006FF3000500F8085C002520F8065C5A8064
:1080E0001A7865F30002D6E715F838504E4615F0B9
:1080F000010532D010F8085C013A6FF3000500F872
:10810000085C002592B220F8065C5A801A7865F364
:1081100000021A70C3F107023244C2F3CF02DA80C0
:10812000B280002C45D09C4243D86288002A08BF08
:108130001C46BEF1000F06D09E4504D3BEF80220B7
:10814000002A18BF7346C1F83C48C1F840388BF389
:108150001188BFF36F8F002057E7A8EB0C08B8F128
:10816000010FC7D1B9F80270A9F802501744B9F845
:108170000620E2B109EBC2060025D1F83828013A01
:10818000C1F83828D1F83028083AC1F8302810F85A
:10819000082C20F8065C6FF3000200F8082C1A780F
:1081A0005F8065F300021A70002EB3D174E71646A3
:1081B000E2E71C46BDE7222027E700BF0454002069
:1081C000FEE7002307B5084601A901931AF000F85D
:1081D000019803B05DF804FB0846F9E6002313B5E7
:1081E00001936AB161B102FB01F401A9204619F0C3
:1081F000EFFF014620B9019810B1224627F0C8FBD5
:10820000019802B010BD002303604360704730B591
:10821000D0E9054553B394420FD0E2B9046974B96B
:10822000036983B3002918BF0D462B78DB0714D5EB
:10823000AB8843B3A5EBC305F7E704698CB141B93B
:1082400004682378DB070CD5E3884BB104EBC30447
:10825000F7E70C46F5E79542E2D0C0E9054530BDA9
:108260001C469542DCD0002ADAD0F6E7944208D0CA
:108270008C4228BF0C46954207D08D4238BF0D4630
:10828000EBE70C46F7E71D46E7E70D46E5E7002379
:108290002DE9F3478B4E0193D6F82C380C469A42C1
:1082A000104604D239B912B101A919F091FF019811
:1082B00002B0BDE8F0871AB90846FFF789FEF6E775
:1082C000EFF31187302383F3118834F8063C07302D
:1082D0004FEAC30820F00705A845A1F108017ED2A6
:1082E00034F8020C002868D0C21A012A65D101EBCB
:1082F000C00211F83000C0075FD4B2F802C0A8EB8A
:10830000050919EBCC0958D4B9F11F0F38DDC5F3B5
:10831000CF03611924F8063C0133084624F8023CD7
:10832000FFF771FF34F8020C4FEAD9038880D08838
:108330004B8010B3B2F802C0A0EB0C0C1CFA83F314
:108340009BB202EBC000CB80838000235E48FFF726
:108350005EFF1046FFF757FFD6F83038D6F83428BE
:108360002B44A3EB080393420194C6F8303833D86A
:1083700087F31188BFF36F8F99E70023CB80E4E781
:10838000D6F8380801330138C6F83808D088634475
:1083900024F8063C68B1B2F802C0A0EB0C0C1CFA41
:1083A00083F39BB202EBC00024F8023C83800123DC
:1083B000CCE7002324F8023CF9E7284601A919F08C
:1083C00007FF0028D4D142462146019828F0F4F94D
:1083D0002046FFF7FDFDCBE7C6F83438C8E76ED975
:1083E00034F8020CA8EB050900F1FF3AAAEB030AE6
:1083F000002839D011F8303001EBC002DB0734D44B
:10840000BAF1000F31D1C5F3CF03611924F8063C4E
:108410000133084624F8023CFFF7F5FE508800EBD4
:10842000D90334F8020C4B808880D088D0B1B2F8E0
:1084300002C0A0EB0C0C1CFA83F39BB202EBC00051
:10844000CB80838020480023FFF7E1FE1046FFF732
:10845000DAFED6F8303801941D44A5EB0805C6F8BD
:10846000305885E7C880EDE70246B9F1270FF0D90B
:10847000C5F3CF03611924F8063C0133084624F8FC
:10848000023CFFF7C0FE34F8020C09F1FF33DB08B1
:108490004B8088808AB10AF1010A1AFA83F39BB2F1
:1084A000CB809380D6F8383807480133C6F838387F
:1084B00000231A46FFF7ABFECBE7CA80F2E7019430
:1084C00056E700BF045400202C5C0020BFF35F8FF0
:1084D000074B5A6A22F480325A62D3F8942022F071
:1084E0000102C3F89420BFF34F8FBFF36F8F704723
:1084F00000ED00E00122014B1A7070470454002087
:10850000364B70B51D6F15F001013CD0012203F50B
:108510000053334C1A6794F8643813B328F07CFC8A
:10852000D4F86838C01AC4F86C08D4F86C380BB1A9
:10853000D4F86C18C4F86C184FF41671D4F86C3871
:10854000284BD4F86C281B684B43274903F5742348
:1085500003F23F23B3FBF1F3934220D2002384F8CC
:10856000643894F8713873B194F872385BB128F0BC
:10857000F7FB002384F8723884F87338012384F8F9
:10858000743884F8753815F000521CBF174B1A6701
:10859000002DBEBF4FF00042144B1A6770BD94F817
:1085A00070381348D4F86C1850F82320114E511A23
:1085B0003268521AD4F86C18326040F823100A213D
:1085C0000932B2FBF1F20C480133DBB20260B3FBBB
:1085D000F1F201FB123384F87038BFE70040005A13
:1085E000045400205017002040420F000060005A41
:1085F0005C170020581700205417002013B50446BC
:1086000028F00AFC0D4AD2F87C38D2F884189C4233
:1086100028BF1C46D2F88038421A63439A4238BFBA
:10862000C9184FF0000334BF091A0121CDE9003306
:10863000034A044828F0CCFB02B010BD04540020CB
:108640002D8B00088C5C002010B5044628F0C6F97C
:108650000C4BA0F57A729A4212D84FF47A73B0FBA1
:10866000F3F05C43084BB3FBF0F3B4FBF3F00228E8
:1086700006D9BDE810400323B0FBF3F0FEF738B88D
:1086800010BD00BFFFC99A3B40420F0013460A4687
:1086900001460248006818F093BD00BF081400208E
:1086A00013460A4601460248006818F02FBE00BF74
:1086B00008140020EFF305830F2B84BF034A9B5C53
:1086C0004FF0E023D3F80C3D704700BFF0E300E02B
:1086D000002307B50193054B5B692AF094FA019BCF
:1086E000002BFCD003B05DF804FB00BF78930020A2
:1086F0002DE9F84F1D4B1B784BB312261C4B1D4D1B
:10870000D3F8F874DFF87080A5F16304C8F85070EE
:10871000A5F1330915F8013FB3B1D4F834A0DAF864
:108720002CB0BBF1000F07D028F0E0FD9BF82830FB
:10873000DB070ED428F018FE4FF0FF33F21C1F2A7F
:1087400098BF48F8223001360434A145E2D1BDE893
:10875000F88F28F009FEDAF82C305B689F42A3EB13
:10876000070388BF03F1FF33E8E700BF441300208D
:1087700004540020071300200000085010B50446E0
:10878000FFF7B6FF94F83030044A1C3352F8233018
:108790001BB12046BDE81040184710BDA4120020B0
:1087A00010B598B1016E21F001042AF0E0F968B922
:1087B00001290BD9204628F0B7F928F0B5F994F82B
:1087C00046301BB9BDE810402AF073BA10BD2DE940
:1087D000F0473B4C08F034FED4F8C0582AF0C7F9F3
:1087E000002847D1002D45D0364F3B689D421AD016
:1087F00028F07CFDD5F828A0D4F8B4986E69D4F898
:10880000B88828F0B1FD04F15C039A450BD04E45C1
:1088100009D0464507D004F17C039E4224D1AB6ABF
:108820000BB995F85C302E1D28F060FD30462AF01B
:10883000B7FBAB6A1BB105F118002AF0B1FBD4F805
:10884000D8380133C4F8D8383B689D42D4F8AC38E6
:1088500012D0A36F013BA36728F06CFC28F084FDC5
:1088600028462AF031FA1EE004F6C4039E4201D0E5
:10887000002ED8D1BDE8F087002BEAD0D4F8C83854
:108880009A68AB60EA6056609E600F4B6B61D4F8EB
:10889000C4380133C4F8C438D4F8DC380133C4F820
:1088A000DC3828F061FDD4F8AC38002BE2D03B680E
:1088B0009D42DFD1BDE8F047044B1B682AF082B926
:1088C0000454002064120020C85C00200C14002016
:1088D0002DE9F74F0121856B90F83030286A9940D7
:1088E00028F058FB036802690B4303600023DFF89C
:1088F0001091414C00F10C080193904503680FD191
:10890000019A23EA0203036028F072FD012195F821
:108910002C30286B994003B0BDE8F04F29F0EABE37
:10892000D2E900C72CF07F411CF0806F01EA030EF2
:1089300004D1BEF1000F03D13A46DEE77145FBD109
:108940001CF0807F18BF019E43F002431CBF0E4302
:108950000196D9F80010D2E9031CDCF8046013601A
:108960009368B242BB605F6008BFCCF8043000235C
:108970001361DCF80030013BCCF8003028F0DAFB62
:10898000D1E9023E4A69C3F808E0CEF804305368E2
:1089900001F1040C6345136808BFC2F804E0013B11
:1089A0001360CA6AD4F890309A424FF0140302FB65
:1089B00003F304EB030EDEF898A088BFC4F8902000
:1089C000DAF808B0C1F808A0C1F80CB0CBF804C0C0
:1089D000CAF808C0DFF82CC063444B61DEF894305D
:1089E0000133CEF89430054B1B68DB6A9A4284BF92
:1089F00001232367A0E700BF045400206412002075
:108A00000C140020985400204FF098435B6C13B571
:108A1000D9021CD528F022FB0238012817D8174BA1
:108A2000D3F840499CB12AF0A2F80346F8B10023DC
:108A3000204601A9019328F067FC012807D1019B7A
:108A40002BB14FF0E0234FF08052C3F8042D4FF0CC
:108A500098435A6CD202FCD55B6D094A03F470232B
:108A600093610822074BC3F8882102B010BD02466B
:108A70000146204628F078FDE9E700BF04540020B5
:108A80007893002000E100E070B5064628F0E6FA91
:108A900002280C46154610D021464FF06043184876
:108AA0002544A94212D1002428F0D8FA022802D184
:108AB000306828F039FE204670BD306829F06AFD24
:108AC0000028E9D00630E7D00124F4E7D3F8802E5F
:108AD000D20712D511F8014BD0F8FC2042F0807279
:108AE000C0F8FC20D3F8002E42F00102C3F8002E9B
:108AF0001A68002AF0D01C70D3E71124D4E700BF15
:108B000000ED00E007B5074B07480193C0F848396E
:108B1000002301A91A46D0F84C0928F025FD03B01E
:108B20005DF804FBCD960108045400202DE9F843BC
:108B300028F072F980462AF066F8114E074696F83A
:108B4000784A6CB9D6F88458D6F88098A8EB050313
:108B50004B450AD20CB12AF035F80120FFF74EFD43
:108B60003846BDE8F8432AF059B828F0F5FA4D44E4
:108B7000044314BF01240024C6F88458E2E700BF70
:108B800004540020EFF3148010F0010F14BF0020F4
:108B900001207047EFF3148040F0010080F3148847
:108BA000704710B5044650B150238065C365184422
:108BB0002AF0F6F82066B0FA80F0400910BD0120D6
:108BC000FCE7EEE7334B2DE9F3419B6928F046FAC9
:108BD0000128074630D929F0DFFF061E04DA0124F8
:108BE000204602B0BDE8F0812B4890F8793A002B7E
:108BF0004CD100F67C20FFF7D4FF0446B0B9002327
:108C0000254DC5F8E038C5F8E438502305F50F6167
:108C1000C5F8E818C5F8EC3829F0A9FF0446C0B13A
:108C200000230124C5F84039012FD9D930462AF054
:108C30001EF80028D4DAD2E7174890F8793A3BBBFF
:108C400000F67C20FFF7ADFF04460028C8D1064699
:108C5000D5E70323024600930B460146012029F085
:108C60004BFF80460028DBD0D5F8E01809B127F08B
:108C70003DFF01214320C5F84089FFF795F90822FF
:108C8000064B9A60012385F8793ACDE70024CDE7B9
:108C90000024A5E7789300200454002000E100E0C0
:108CA000F8B50D4E0D4C0E4D33680E489847677859
:108CB0002B680C48984733680B489847022F08D117
:108CC0002478E31F5C425C412B68074898472046A4
:108CD000F8BD0024F8E700BF0C930020B418002072
:108CE000109300204C180020E81700200CB41FB58A
:108CF00006AC54F8043B0A46009401460448039429
:108D0000FEF7C8F904B0BDE8104002B0704700BFDC
:108D1000256700081FB5034600914FF0FF3203A9F5
:108D20000248FEF7B7F905B05DF804FB959D000811
:108D300007B5009313460A4601460348FEF7AAF911
:108D400003B05DF804FB00BF2567000803681BB192
:108D5000406800B118471847704703461A6808462C
:108D600022B15B680BB11846104710477047F0B549
:108D7000A7B08822002104A826F00AFE444B454DE6
:108D80001C68454E454FE06804A92AF0B7F8012851
:108D900001D027B0F0BD9DF81030C02B08D19DF850
:108DA00018302BB1059B1BB19DF8190007A99847F6
:108DB0009DF81030DB2BE6D8D02B07D8C32B21D061
:108DC000C42BE0D13648FFF7C1FFDCE7D13B0A2BCB
:108DD000D9D801A252F823F0678E0008878D0008C9
:108DE000878D0008878D0008878D0008878D000813
:108DF000418E0008878D0008878D00082B8E0008A3
:108E0000118E00089DF814102648FFF7A6FFBAE758
:108E10003A78002AB7D09DF81410234B632059707C
:108E200002211A7019F076FDADE73278002AAAD037
:108E30009DF814101C4B612059701A700221F1E743
:108E40009DF8183001A88DF80430BDF819305BBAD0
:108E5000ADF806309DF81B308DF80C3007AB02934F
:108E600002F034FE8FE7287800288CD0BDF8191066
:108E7000BDF81B200C4B9DF818C049BA52BA1870A7
:108E80009970A420042183F801C0DA70CAE700BFFA
:108E90005C1200201914002018140020DE1300209A
:108EA00064130020101400201F10002059B1E8297D
:108EB0000AD80139C1F3CC02012301F007018B402C
:108EC000815C0B4383547047A1F5807189B2B1F581
:108ED000806FF8D2CA08EFE710B569B160B1E82930
:108EE0000BD80139C1F3CC040122035D01F0070165
:108EF0008A4023EA0203035510BDA1F5807189B2AF
:108F0000B1F5806FF8D2CC08EEE7C0B14B1E9BB232
:108F1000E72B07D8DA08805C03F00703184100F05C
:108F200001007047A1F5807189B2B1F5806F05D25B
:108F3000CB08C05C01F007010841F0E70020704752
:108F40000A46002126F024BD03460144002030B526
:108F50008B4200D130BD002413F8012B651C12B9DF
:108F60002044C0B2F4E7541E22402C46F6E7E7281E
:108F700001D9002008E0C308CB5C00F007021341D0
:108F80000130DB0780B2F2D5704710B5044680B1DE
:108F9000006870B1002328F0E7FA012801460AD1E1
:108FA000A06808B9002010BD2379994029F0A2FBE0
:108FB000F8E70220F7E70120F5E770B5C46A054637
:108FC000ACB128F093F994F8286028F0CDF9AB6B98
:108FD00095F830401D6A28F089F92D6828F0C4F909
:108FE000012000FA04F42C4200D1304070BD20462C
:108FF000FCE7F8B5046A054628F078F926680127E9
:1090000006F07F43236028F0AFF9002495F8243060
:10901000A34200D8F8BD07FA04F3334205D0AB6A87
:1090200053F82400C36B03B198470134EEE70148BD
:10903000DFE700BFA412002038B5056A0C4628F00F
:1090400055F9012303FA04F12B6823EA01032B608D
:10905000BDE8384028F088B92DE9F347D1F83880C9
:1090600005460C4616461F46B8F1000F40D190F851
:10907000243090F825209A423CD9172B3AD82C233B
:109080000193019B019B0223DFF86CA0DFF86C9039
:1090900081F828300EB328F03BFD0123C4E90638DF
:1090A00094F82830C4F800A043F00403C4F82090DA
:1090B000C4F8148084F828300020C4E90E57E46214
:1090C00095F8243084F83030AA6A42F823400133FE
:1090D00085F8243002B0BDE8F08728F019FD01239F
:1090E000C4F800A0C4E90636C4F820906661E3E73E
:1090F0000220EFE70120EDE7803D0308D18800085A
:1091000038B5264CD4F85835002B44D140B194F8EA
:109110005535012B02D001201BF0F6FB012038BD94
:1091200018F0A8FAD4F804550DB91D4B1D6828F0A5
:10913000DDF895F85C30022B04BF002385F85C3025
:1091400028F012F9D4F80405012129F05DFBD4F8C8
:109150000405042129F058FBD4F80405402129F026
:1091600053FBD4F80405022129F04EFBD4F8040582
:10917000082129F049FBD4F80405102129F044FB0B
:10918000D4F80405202129F03FFB0BF098FA0020C9
:109190001AF0C3FBC2E70020C1E700BF045400205F
:1091A0006412002028B9074B93F8542512F03002BE
:1091B00004D00022022101201CF0E4B90221012088
:1091C0001BF08FBD045400202DE98048AA4BAB4C06
:1091D0001B68C3B0C4F80435054619F0CDFD002363
:1091E000C4F8E03AC4F8E43AC4F8E83A94F8EC3A3F
:1091F0000BB919F0C1FD0023A14AA24952F8040B92
:10920000884206D0002840F0AB8004EB8303C3F80B
:10921000F01A0021D4F8080B042308AAC4F80C0B98
:10922000089117F0CDFF089B002800F09E8019F0F0
:1092300069FD0026DFF868823346C146924FD4F8B4
:109240000CAB07F1680B1693BAF1000F00F0E88041
:109250005046396816AA18F0ADF80023002840F0EF
:10926000E2807968169A91421CBF032001260837D4
:10927000BB4509F8010BE6D1002E40F0D78000274E
:1092800016230421814AD4F80C0B17F099FF1D23F3
:1092900005217F4AD4F80C0B17F092FF1D230B21F8
:1092A0007C4AD4F80C0B17F08BFF80230C217A4AF0
:1092B000D4F80C0B17F084FF4FF4A072FF2177480D
:1092C00026F066FB4FF0FF334FF4A0593E46DFF81F
:1092D000C481C4F8173DC4F81B3D08F19D0B1FFA6B
:1092E00087FA0AF101039BB2194640460293FFF741
:1092F0000CFE48B9029B41461846FFF738FE48B3BA
:1093000007F10803984225DCA319304683F8179D1E
:1093100010F066FA06EB860250234946D4F80C0B8F
:109320000BEB021217F04CFF002800F0BB8001236A
:109330000AEB0301404689B20293FFF7CDFD029B81
:109340000133092BF4D11D2342460B21D4F80C0B19
:1093500017F0DCFF0837E82F09F10109BFD1A6E0BB
:109360000133062B7FF44AAF53E7B3F1A06FBFF48C
:1093700060AF1BF079FB4FF480474FF0B00A002636
:10938000B022FF2116A826F003FBB1464FF0160BC2
:109390000AFB07F8A8F53018162200210DA826F0C0
:1093A000F7FACDF800B00321D4F80C0B06EB080354
:1093B0000DAA1BF00DFBC8B99DF83430B3B116AB44
:1093C0000DAA33440DF1440E9446BCE80300F44565
:1093D00018605960624603F10803F5D14FF00109A6
:1093E000DCF800001860BCF804209A801636B02E15
:1093F000D2D1B9F1000F06D033463946D4F80C0B60
:1094000016AA17F083FF44F2080301379F42B6D132
:109410000321D4F80C0B19F03FFB19F031FB08E7DE
:109420000126304623E70220012620E74FF00009FD
:1094300001264F46144B53F839A018F8013B022B74
:109440000DD126B10021504610F0C6FB064606F0AD
:10945000010609F10109B9F10D0FEBD10FE7032B5B
:10946000F7D15146D4F80C0B16AA169717F0A2FFA5
:10947000002EECD01699E6E7641200200454002078
:10948000F45E002090380308983803089493002075
:10949000215F00203E5F00205B5F0020DB5F00203B
:1094A000145F00200136F6B2042E7FF453AF1D2363
:1094B0000621A64AD4F80C0B17F082FE1D230721C3
:1094C000A34AD4F80C0B17F07BFE1D230821A14AF8
:1094D000D4F80C0B17F074FE1D2309219E4AD4F812
:1094E0000C0B17F06DFE1D230A219C4AD4F80C0BBF
:1094F00017F066FE1D232021994AD4F80C0B17F0B3
:109500005FFE1D232121974AD4F80C0B17F058FE5B
:1095100080232221944AD4F80C0B17F051FE8023AB
:109520002321924AD4F80C0B17F04AFE1D22002189
:109530008F4826F02DFA8C22002116A826F028FA52
:109540000026012700234FEA860B0DF1580A1FFA67
:109550008BFB0BEB07091FFA89F94846029310F0C1
:1095600093FE029B804680B13BB98C23D4F80C0B50
:1095700016AA06F5007117F023FE9AF80210484665
:1095800001F0010110F01CF943460137052F0AF1E3
:10959000230ADED101363A2ED3D17649764BD5F85F
:1095A00008A00B630C334B664FF40051A4F8301F36
:1095B0007249D4F8043501F13400C4F8340FC4F80A
:1095C0003C3F072020230022012684F8380F079310
:1095D000081D079B84F8072FC4F80C2F84F8086F28
:1095E00029F07FFAC4F82C1F84F8286F0BF067F875
:1095F000DAF808301B7813EA060106D1980600F164
:10960000A28013F0100118BF03215D4FDAF80C207F
:10961000F869137AC4F80C05388C8DF85910A4F841
:109620000A05002097F83110FF2B08BF0023091A04
:1096300018BF01218DF85B100421524E8DF858306F
:10964000C4F8C06F504E8DF85C10CDF87D00CDF899
:1096500079002090C4F8C40FC4F8CC0FC4F8C86FC8
:10966000107803F0FD038DF85D005088092BADF8EC
:109670005E009088ADF86000D088ADF86200434885
:10968000199043481A9043481B9043481C90434804
:109690001D90507A8DF87800927A8DF8802097F896
:1096A00030208DF85A200ED1013A012A0BD901231E
:1096B000D4F80C0B8DF85A3087F8303007F11C02C3
:1096C000162317F023FE16A80FF0EEFF00228DF8E8
:1096D0005C001146324819F0D4FD324B1F939DF8BF
:1096E000583003F0FD03092B04D19DF85B300BB11A
:1096F0001AF0ECFD2C4826F0A2FE142200210EA840
:1097000026F046F9294B2A4E0D932A4B00221B883E
:109710002948ADF844304FF48063ADF846304FF43B
:109720008073ADF84830254B0DA91B681393A6F143
:10973000BC03149306F55173159324F04DFE804637
:1097400000283DD0FEE702215FE700BF2361002033
:10975000406100205D6100207A6100209761002057
:10976000B4610020D1610020EE6100206E62002013
:10977000EE620020B4160020AC930020106300209D
:1097800078930020D5250108B533010841790008F8
:1097900095790008297A0008EF780008D463002042
:1097A00000640020E9360108690345EC7D4D02089C
:1097B000FC640020189C0308849300201C9C030870
:1097C000DFF82CC40DF1580EBEE80F00ACE80F0016
:1097D000BEE80F00ACE80F009EE80700DFF8149425
:1097E0008CE807000121F8681DF072FAB9F8203101
:1097F00008A9F868ADF8203026F0C5FE08A9F86879
:1098000026F0D7FE0122F868114626F0F9FEF6A3ED
:10981000D3E90023CDE90023F8684FF0FF324FF081
:10982000FF3326F0CAFE41464FF0FF3094F848B5AA
:1098300027F018F828B9BBF1000F40F0F08186F846
:1098400044B494F8283594F82905D3490293B4F91F
:109850002E35DFF8A483B4F930250593023894F847
:109860002C35A1F1280C012888BF6146D8F80C00DE
:109870000492039326F04CF88346002855D1049AAD
:10988000059BDFF82093D221D8F80C00A9F84624D4
:10989000A9F84834A9F84A3426F006F9D8F80C009B
:1098A0001DF000FAC728D4BF8C22C822B4F9323583
:1098B00059469342A8BF13465846A7F84C20A4F82F
:1098C000323517F021FEDDE9020117F08BFED7E9F2
:1098D000021026F0D0FF17F09FFE7B689A88A7F849
:1098E00056205A8887F85320187819F06BF8AB4B3C
:1098F000AB4A5B6823F0404323F440031B0C1B047A
:10990000934212D0322708A88DF820701BF02AF855
:109910009DF82030B3FBF7F207FB1233B9F8462469
:109920003A4452FA83F3A9F84634D8F804300027B1
:10993000187819F047F80122D8F80C00114626F0E3
:1099400094FFDFF8B89209F1040B17F09EFD8742EF
:109950004FF00003C0F08A81924FD4F8F83407F238
:109960005C40C7F858341AF0FDFF0122DAF80810FD
:10997000DAF8000087F85D2414F011FA12F0DEFB2B
:1099800000230DA9B4F80A050D938DF8383010F0B6
:10999000CFFFD8F804209DF8363012789907A2F14D
:1099A000020200F16981012A0CD843F00203B4F8E5
:1099B0000A050DA98DF8363011F0A8FA40F2FF40E3
:1099C00011F04CFEFDF73EFF09F0B6FC94F854355B
:1099D000D80702D50120FFF793FB092287F85E2400
:1099E0000022714B87F85F242B62A3F52C63AB62D6
:1099F0006E4B87F860246E4AEB6202332B636A6217
:109A000009F024FD94F8142500280CBF2E2396237A
:109A1000510700F037810C3B9BB2A4F81C3594230E
:109A20004FF00008A6F86234624BF82103F15002AF
:109A30000520CDF8008029F05FF85F4BDFF8C0917A
:109A4000D3F800A00923C6F89009C6F8940986F84F
:109A50009839C6F89CA9C5F81090A82109F10C0303
:109A600009F15C020220CDF8008029F045F80A23B4
:109A700086F8443B09F5D673C6F8400BAB61C6F8CF
:109A800048AB882109F5DC7309F502720420CDF892
:109A9000008029F031F82A686B79C6F8BC0DC6F849
:109AA000C00DC6F8C82D86F8C43DE861E02109F56F
:109AB000876309F591620220CDF8008029F01CF837
:109AC0002B792A6886F8E43FAB6AC6F8E82FC6F817
:109AD000F03F96F8F43F394A102B4FF0100387BF40
:109AE000C6F8F82F86F8F43FC6F8F82F86F8F43F4A
:109AF000C6F8DC0FC6F8E00FC6F8EC5F0026686118
:109B00002F4D31462F4AA5F1F800C7F8FC6F19F028
:109B1000B8FB31462C4AA5F1B80019F0B2FB31462A
:109B20002A4AA5F1780019F0ACFB94F8543545E9C0
:109B30000E66DB0710D50522022130461BF022FD00
:109B40000121A5F13000224A19F09BFB4FF47A71F4
:109B5000A5F1300019F050FC00240020FFF722FB93
:109B60001C4B214645F8383C1B4B1C4AD3F8F834B3
:109B70001B4845F8344C2C616B6119F082FBFF23C4
:109B80001694184C8DF834300421012320680DAA56
:109B900017F016FB36E000BF683803080080E00FBE
:109BA00000001703FC640020D46300205E690020DD
:109BB0001839030864690020641200202039030862
:109BC000F4750020B133020819390208353802084B
:109BD0004178000807760008045400204934020840
:109BE0000C76002094130020088D015522020000FD
:109BF0002C590020E03703087893002048690020A2
:109C0000906E00209DF83430FF2B42D0FDF7DAFC37
:109C10002C4B2D4C5B68204618F0A8FEFBE70DF19D
:109C2000200E09F5927CBCE80F00AEE80F00DCF8CE
:109C300000304FF0FF30CEF8003008A926F00FFEBC
:109C400020B10020214B83F84404FAE506214FF0AF
:109C5000FF3026F04BFC0028F3D101214FF0FF30FC
:109C600026F000FEB0FA80F04009EBE709F8013B6E
:109C70002BF8023B013768E6012A7FF6A3AE23F0FA
:109C8000020394E612067FF5C8AE143B9BB25B005C
:109C9000C2E620210E4818F00CFF18F0EFFE20233A
:109CA00002210B4A206817F031FB20230321094AC7
:109CB000206817F02BFB01230421206816AA17F057
:109CC00025FBA3E70080E00FF0740020FC64002077
:109CD0004C7600206C760020034B4FF48051D3F873
:109CE000040528F007BD00BF045400200A4BD3F838
:109CF000E02A32B1D3F8E42A4AB1D3F8E82A42B9CB
:109D0000022203EB8203C3F8E00A0120704701221C
:109D1000F7E70020704700BF0454002008B538B1B1
:109D200029F08FF8002814BF6FF01D00002008BD37
:109D30006FF01B00FBE770B50D461646044678B978
:109D4000EFF3108072B628F08EFE0A4B1B68EFF31B
:109D5000108072B6084BD3F8984028F084FE3CB1CE
:109D600063682BB1324629462068BDE87040184729
:109D7000232070BD64120020F475002007B5012275
:109D80008DF807000DF107010020FFF7D4FF03B0A5
:109D90005DF804FB00B1F1E7704738B5441E14F8D4
:109DA000015F25B90A20FFF7E9FF284638BD28469C
:109DB000FFF7E4FFF3E703464160EFF3108072B66C
:109DC000034AD2F850181960C2F8503828F04BBE38
:109DD000045400207FB54FF06042D2F8003E134C8F
:109DE00043F00103C2F8003E04F1A00302935023A4
:109DF000002503930E4B68460093019528F0D0FF91
:109E00000C4B04F19C06C4F89C001E60EFF310801C
:109E100072B6C4F8983028F026FE04F1F000064926
:109E2000FFF7C9FF284604B070BD00BFF4750020DD
:109E3000BF37030854930020D49300200146EFF36A
:109E4000108072B6084AD2F8503802F505622BB17C
:109E5000994205D10B68136000230B6028F003BE04
:109E60001A461B68F3E700BF045400200246EFF3D4
:109E7000108072B60E4991F8F930FF2B02D1A2B1D1
:109E800028F0F1BD1BB9002AFAD0012203E0002A14
:109E90000CBFFF2201221344DBB281F8F930B3FA80
:109EA00083F35B0981F8FA30EAE71A46F3E700BF6B
:109EB000F47500202DE9F84FEFF31187302383F379
:109EC0001188584B58495B6903F0010213F0020FE7
:109ED00003F003034B6110D14AB1544AD2F8343134
:109EE0000133C2F8343127F039F828F057F887F3F6
:109EF0001188BFF36F8FBDE8F88F4AB14B4AD2F893
:109F000034310133C2F8343127F028F828F046F80C
:109F1000EFF3118A302585F311884FF0000B27F0FD
:109F20001DF85E46DFF8FC90414B9C680CB16369FC
:109F3000B3B100223D4B012E83F8382104D11BF030
:109F4000020F18BF83F8386128F028F8222802BFD2
:109F50000222354B9A618AF31188BFF36F8FC6E7EF
:109F600023465A693AB91A792179914288BF1C4629
:109F70009B68002BF5D18AF31188BFF36F8FD4F85B
:109F800010B0BBF1000F1BD0D9F82020A369A2EBC1
:109F9000030A4FEAEA72DA4572F1000211DB5B4410
:109FA000A361E36813B1204621689847B4F806B06E
:109FB0000136EFF3118A85F3118826F0CFFFB3E75E
:109FC000DA46EFF3118885F31188204626F070FDFC
:109FD00088F31188BFF36F8F2369002BE1D0A38B27
:109FE000BBEB0A0133B1E28B13449BB2B3F57A7F2A
:109FF00010D2E383EFF3118A85F31188204627F00E
:10A0000087FFA36922691344A3618AF31188BFF310
:10A010006F8FC6E7A3F57A73E383A3690139013B28
:10A02000A361E7E70040065000600650F475002089
:10A03000045400202DE9F843EFF31188302383F313
:10A040001188314F97F83931002B56D12F4A304CB7
:10A050003048C2F8A8389360C7F8343128F0AFFF11
:10A0600063680BB106F0E6F901222B4B5A60656874
:10A0700015F00205FBD103220126274BDFF8A8903B
:10A08000A5606562C9F804609A615A6106F0D2F968
:10A090000223E360256206F0CDF9E66006F0CAF916
:10A0A000E66006F0C7F94FF480221C4BC3F880210C
:10A0B0001A60C9F81860EFF31184302383F3118814
:10A0C0004FF4F06006F076FB024684F31188BFF38C
:10A0D0006F8F134B186030B988F31188BFF36F8FFF
:10A0E0002320BDE8F8832B4640F2E7310D4824F0E9
:10A0F000E1FD87F83961C7F83C0188F31188BFF3A7
:10A100006F8F0020EDE700BFF4750020045400209D
:10A1100000400650603903080060065000E100E08E
:10A120005017002018FCFFFF00500650002380B598
:10A13000B448B54AB54C121A88B0C4F82808C4F817
:10A140002C2884F84438C4F84C38C4F83C08C4F8C7
:10A150004008FEF758F80123013AD2084280C4F8BB
:10A16000383808234FF48030A949AA4AC4F8303857
:10A17000C4F834384B6E5066486E4FF000414AF6D2
:10A18000CD355166A44903F480334A6C0D6402F066
:10A1900001024D6BEE07FCD40125A0494D60A1F5ED
:10A1A00000510D6BED07FCD50AB19D4A0A640028E9
:10A1B000A2BF4FF000419B4A51661BB94FF4803259
:10A1C000984B5A66984828F0FAFE26F025FE974BE1
:10A1D0001860EFF31183302282F31188944D95F8C3
:10A1E0004021002A40F08183012285F8402183F339
:10A1F0001188BFF36F8F6FF0040210460132052102
:10A2000052B2FDF7D1FE4C2AF7D14FF00043814FF7
:10A2100007227B664AF6CD337F4E0B20D6F844806A
:10A220003364844BDA6306F027FD7368002023F45F
:10A23000F87343F48073736040F20913B36040F223
:10A24000031333611AF076F818F0010F18BF744B3E
:10A250004FF0800018BF33646D4BD3F864804FF02B
:10A2600000437B664AF6CD33776C336406F004FD19
:10A27000336AFF0723F00F0343F00603336248BF3E
:10A28000674B6D4848BF3364B8F1000FA2BF4FF071
:10A290000042644B5A6628F092FE684AD2F84C316C
:10A2A00013F4802300F026834FF07E6292F89C30F6
:10A2B00092F99C20002AB8BF26234FF40001554A8A
:10A2C000022051664FF4D15102F5B83251625C4917
:10A2D0004F2B486028BF4F23012001F58051DBB28E
:10A2E0004860116911F48031FBD143F480735361EC
:10A2F00040F201439360514B5160D3F84C2110035D
:10A3000040F1FB82A3F5FE431F88B7F5807F28BF8D
:10A310006A274C4BDFF8509193F900804A4BB844C0
:10A32000C9F800303A4B88F308081B6F03F00703A5
:10A33000032B01D126F052FB17F0CAFE032852D09E
:10A340004FF48012334B414E5A6645F60E034FF0E0
:10A35000A062C6F880303E4B9A624FF4803203F51B
:10A3600080539A62B36DD903FCD4B36D5A00FCD408
:10A37000384B4FF400623361B3694FF4406103F02E
:10A38000004343EA084343EA072343F0007343F0E2
:10A390003C03B361304806F057F8336A2F4923F085
:10A3A0000F033362B26A2E4B134043F48033274AC3
:10A3B000B362936D31EA0303FBD14FF080712448FF
:10A3C0008162136923F4700343F4401313614FF067
:10A3D00000434FF480328361224B99629A621B4A98
:10A3E000936D5B00FCD44FF4C022144BD3F89860FB
:10A3F000084B5A6603F598335A68012A00F08182A7
:10A4000034E000BF98950020000001200454002093
:10A41000008000500090005000400950006009503A
:10A420003254FFFF00A000506039030874930020ED
:10A43000F475002000400050643903080080E00FEC
:10A4400000100250EC920020C01753020040005A46
:10A450000050005A2008C00B3840005A0300010089
:10A46000C7FFFEFE0060005AE892002017F030FEA1
:10A4700005280CD10021C74806F074FBC64A136FAB
:10A4800043F4806313674FF48032C44B1A67DFF8DC
:10A490005C83C34BD8F8007026F040769F4202D808
:10A4A000BC481CF071F9BF4BDA6812F0060FFBD103
:10A4B0009A689E6099684E4016F4F81F0BBFB54B22
:10A4C0009A60C8F80030B84608BF984617F000FEFA
:10A4D00005280FD126F082FA064606F059F8012821
:10A4E000D4BF01210021304606F03CFB06F086FB7C
:10A4F00006F028FBB84502D800201CF045F94FF4BF
:10A500000022A94BA54FD3F8C0307A664FF0B44271
:10A51000A14E23F040739360A44828F050FD06F04C
:10A520004DFB336F002023F0070343F00303336731
:10A5300006F07AFB336F23F4744333679C4BD3F8F4
:10A54000FC2012F0807240F0E281C7F88020924B2C
:10A550004FF48031D3F82021964822F0070242F0D0
:10A560000202C3F82021D3F8282122F0070242F08A
:10A570000202C3F82821D3F8802122F0030242F01E
:10A580000102C3F88021D3F8902222F0030242F0A6
:10A590000102C3F89022D3F8402122F0030242F0D6
:10A5A0000202C3F84021D3F8602122F0030242F0F6
:10A5B0000202C3F86021D3F8402222F0030242F0E5
:10A5C0000202C3F84022D3F8002222F0070242F030
:10A5D0000202C3F80022D3F8082222F0070242F058
:10A5E0000202C3F80822D3F8502222F0030242F0FC
:10A5F0000202C3F85022D3F8702222F0030242F084
:10A600000102C3F87022D3F8202222F0070242F0A0
:10A610000102C3F82022614A5E6E5166426A22F04E
:10A6200001024262F0035CBF634A51664FF0E021D1
:10A630000A6942F004020A61D3F8602222F007029C
:10A6400042F00102C3F86022EFF3108872B65B4853
:10A6500028F0B5FC95F84131594E002B40F07A8135
:10A66000FFF7E8FC0746002800F06181404628F02B
:10A67000FAF9FFF7DFFCFDF729FF4D4A5149D2F8FF
:10A68000C03023F0FF0343F0A003C2F8C0304E4BAC
:10A6900099424E4940F0FE810B684D48C2F898300F
:10A6A000C2F89C004B48C2F8A00001330B60BFF316
:10A6B0005F8F05223E4BC3F894205A6A42F48032E1
:10A6C0005A62BFF34F8FBFF36F8FBFF34F8FBFF34C
:10A6D0006F8F28F04CFA40B926F0AEFC012804D167
:10A6E000D6F8B0380BB9C6F8B0080023059328F0A7
:10A6F0003EFA074600BB4FF4805028F02CFB05467D
:10A70000D0B1602028F027FB0446002800F0E38148
:10A710006022394625F03CF905AB256301933623C9
:10A720002D4800934FF480623B462C49029427F059
:10A7300063FF204627F074F9059BC6F8C03828F05F
:10A7400016FA0446002840F0CF8026F075FC012858
:10A7500040F0CA80D6F8B038012B40F0C580022303
:10A7600005AA11461E48C6F8B03810F8015B02F879
:10A77000015B002DF9D11B4FA02207F16003CDE949
:10A78000005319482B46029728F0B8FA002800F029
:10A79000A9802DE000B4C404008000500090005057
:10A7A000FFB3C404000001500080E00F68390308C3
:10A7B00000ED00E000C0075000A000507C35030809
:10A7C000045400206092002040910020D814002002
:10A7D0000300002001000120CF870008803D03080E
:10A7E000D23703084077002061240308E492002058
:10A7F00027F08EF9D6F87839002B73D007F5387327
:10A800000293372307F550770093A0222B46B849CF
:10A81000B848019728F072FA002863D028F0F3F9BD
:10A820004FF0FF33C6F8F43401234FF07F42C6F8EF
:10A83000AC384FF0E023C6F8F8540595C3F81C2D4A
:10A84000D3F81C3D1B0E8DF813309DF813309DF886
:10A8500013309DF8133013F0800F059B40F03F81BB
:10A86000082B18BF059CA44B18BFC4F10704240291
:10A8700004F4E064C3F80C474FF0E023D3F8202D34
:10A88000002442F47F02C3F8202DD3F8202D214666
:10A8900042F07F42C3F8202D4FF47A726FF004002B
:10A8A000C3F81C4DFDF780FB944B1B6803F2E733A4
:10A8B000B3FBF2F34FF0FF32C6F88038B2FBF3F38C
:10A8C0000A3BC6F87C3826F0A7FAC6F884080120AF
:10A8D000FDF794FE8A4B5C6126F0F8FC26F062FBE3
:10A8E000FDF7F6FE864B9B6EFEE783F31188BFF300
:10A8F0006F8F8AE4D2F85021DFE4D3F85071FFB2B1
:10A9000007E580494A605A689707FCD4AEE5D3F85A
:10A91000FC2022F08072C3F8FC200022C7F88020BF
:10A92000D3F8FC2042F08072C3F8FC200FE6AFF3AE
:10A930000080724BC5F8FC701B68C4F85078C5F8ED
:10A940004431714B5A6F42F001025A67DA6E22F0BD
:10A950003002DA664FF0000A504685F848A11BF035
:10A9600013FF6749D5F8447191F864308BB166489C
:10A970006268436F23F440734367BB01634803F588
:10A98000742303F23F23B3FBF0F31344636081F8B5
:10A9900064A04FF480115E4BD3F800215D4A5166EC
:10A9A0004FF4003151661A6F5B4902F00702C4F898
:10A9B00058288969032A01F00200C1F3400184F894
:10A9C00055180BD0D3F8202102F00702022A05D037
:10A9D000D3F8282102F00702022A1FD10123237095
:10A9E00040BBD5F844314949C3EB431202F5742208
:10A9F00002F23F22B2FBF1F26068024462604FF45F
:10AA0000C872534303F5742303F23F23B3FBF1F3FE
:10AA1000C5F80431012385F8413127E60022227070
:10AA20000028DED0D3F8003103F003035A1E53424E
:10AA300053412370364BD3F8003103F00303022B4C
:10AA400023D0032B24D0012BCBD1D9F80020002A0E
:10AA5000C7D0314BDFF8B490DB68501EC3F30B0C4A
:10AA6000002319460CF1010C0CEB8C0CECFB0901DA
:10AA700024F020F9784300F5742000F23F20B0FB69
:10AA8000F9F0736818447060ABE74FF40042E0E7F8
:10AA9000224ADEE723F01F03203BB3F1005F0BD314
:10AAA00008681F4CC2F8980043F001030130C2F857
:10AAB0009C40C2F8A03008601A4A0B681A4822F07D
:10AAC0001F0242F00302C0F89830C0F89C20174AD9
:10AAD000C0F8A020E9E5284628F0EBF82CE6013381
:10AAE00005939DF813305B00DBB28DF81330B0E6B0
:10AAF000D7370308691B0308F4750020501700209E
:10AB00007893002000E001500040005040420F00C8
:10AB1000008000500090005000C0015080D54302DA
:10AB2000030000207F92002000ED00E0E1FF002004
:10AB30000348044B834202D0034B03B118477047CC
:10AB4000949500209495002000000000064B0749D2
:10AB5000C91A891048BF0131491003D0044B0BB109
:10AB600001481847704700BF949500209495002035
:10AB70000000000010B5064C237843B9FFF7D8FF5A
:10AB8000044B13B10448AFF300800123237010BDC0
:10AB90000491002000000000209C030808B5054B2C
:10ABA0001BB105490548AFF30080BDE80840FFF739
:10ABB000CDBF00BF00000000E8530020209C030828
:10ABC000A3F5803A704700BF174B002B08BF134B0B
:10ABD0009D46FFF7F5FF00218B460F461348144AA8
:10ABE000121A24F0D5FE0E4B002B00D098470D4BC7
:10ABF000002B00D098470020002104000D000D48D4
:10AC0000002802D00C48AFF3008000F029F82000A3
:10AC10002900FFF78BFA00F011F800BF00000800D0
:10AC200000000000000000000804002008040020CC
:10AC300040910020000000000000000008B5064B15
:10AC4000044613B10021AFF30080044B1B6803B12D
:10AC50009847204603F0DDFE00000000005400206D
:10AC600070B50D4D00260D4C641BA410A64209D1F1
:10AC70000B4D00260B4C28F0B3F9641BA410A64220
:10AC800005D170BD55F8043B01369847EEE755F8FD
:10AC9000043B01369847F2E78C9500208C95002004
:10ACA0008C95002090950020704770477047704742
:10ACB00070477047FEE72DE9F04104460C264FF03F
:10ACC0000108134D0CB314F001000BD0002024F048
:10ACD000010406FB00525768002FF3D09168C0B200
:10ACE000B847EFE72246013020284FEA520201D050
:10ACF000D307F8D508FA00F20F2824EA0204E8D9AD
:10AD0000103806FB0052B432E5E7BDE8F08100BF21
:10AD100008040020074BD3F82404D3F8202403F5BB
:10AD20000053104000F0553020F05020C3F82004AC
:10AD3000C1E700BF00C00350074BD3F82404D3F889
:10AD4000202403F50053104000F0AA3020F0A0208A
:10AD5000C3F82004AFE700BF00C0035010B503786C
:10AD6000CBB15A1ED2B2022A14D80C4931F81220A3
:10AD70004078C240D2070DD5EFF31184302282F320
:10AD8000118801215343064A8140D15084F3118830
:10AD9000BFF36F8F10BD40F2FF72E9E7C0320308C6
:10ADA00040F0035002461378002030B50BB3591E13
:10ADB000C9B2022918D8104C34F811105478E14067
:10ADC000C90711D5EFF31185302181F311884B4369
:10ADD00003F1A04303F570331B6CE34003F0010063
:10ADE00085F31188BFF36F8F93780BB980F0010062
:10ADF00030BD40F2FF71E1E7C03203084369426CA5
:10AE0000D91C143AB1FBF2F103EBC1000330B0FBE3
:10AE1000F2F00230704738B505460C46FFF7EEFFFA
:10AE20006A6CE31D143AB3FBF2F3013304EBC30481
:10AE300002FB004038BD73B506460D460024F36B97
:10AE400001225B6901A928199847019B013309D1A7
:10AE5000736C043462196A405B421A42EFD0204698
:10AE600002B070BD0024FAE72DE9F341154690F8D1
:10AE700042201E46012A0CBF022304235D43CF7DDE
:10AE80002C1D844605F00205BFB915B1012724F039
:10AE90000304486808342044DCF83C30012A5B692C
:10AEA00027D101A9984717B1BDF806300193BDF825
:10AEB0000430336002B0BDE8F08155B124F00304E2
:10AEC00000230D7E01F1200ED8B2854203D8002068
:10AED000E2E72F46F4E73EF8330003F10108A04211
:10AEE00004D901EBC303D8690834D4E74346241AD4
:10AEF000EAE70122314602B0BDE8F0411847D01E12
:10AF0000009B42424241187E824211D11A688A4215
:10AF10000ED85A688A420BD35A6901325A61D3E972
:10AF2000030282423FBF986840F8221001321A6142
:10AF30000120704700234FF0FF3230B544689C4237
:10AF400002D10023037230BD016801EBC30541F853
:10AF500033206A600133F2E70023F0B545689D4273
:10AF600010D00468DF0054F8332004EBC306B2F1BC
:10AF7000FF3F08D0C2F31302914204D14FF0FF33D8
:10AF8000E3517360F0BD0133E9E710B5032A029C79
:10AF900007D1A26A5340626C5242134201D1FFF7BB
:10AFA000DBFF012010BD0023F0B545689D4202D1B2
:10AFB0004FF0FF300EE00468DE0054F83340671CA9
:10AFC00009D0C4F31307B94205D1240D14700368E6
:10AFD00033445868F0BD0133E8E773B5164600F115
:10AFE00008040D46204609680DF10702FFF7DBFF54
:10AFF000032E05D16B68834202D12046FFF7ACFFD8
:10B00000012002B070BD00BF2DE9F043466886B351
:10B01000056898464FF0000CA946AE4655F83C40EE
:10B020000CF1010CC4F31307013401D0B94217D05D
:10B0300066450EF1080EF1D12F46002403E0A6422A
:10B0400007F1080712D055F8343001340133F6D136
:10B05000C1F3130141EA0851C7E90012BDE8F083CA
:10B0600041EA0851CEE90012BDE8F083B8F1030FC0
:10B0700003D101230372BDE8F083002303E09E4265
:10B0800009F10809F5D055F833400133C4F30754EA
:10B09000032CF4D1C1F3130343EA0853C9E9003286
:10B0A000BDE8F08308B508301346D1E90012FFF778
:10B0B000ABFF012008BD00BF2DE9F0410646406806
:10B0C00082B0C0B10F4690460024336853F8345024
:10B0D00003EBC403C5F30752C5F31301013504F1B3
:10B0E000010406D05B683046CDF80080B84710B147
:10B0F00070688442E9D302B0BDE8F0814FF4803239
:10B10000064B00209A6641F6713203F51C33DA6370
:10B11000012203F50053DA60704700BF0090005031
:10B1200041F671320121064BDA6303F50052D1601A
:10B130000022DA634FF48032A3F518339A66704721
:10B1400000000350704737B5054601F10C04436910
:10B1500001A9012220469847BDF80430012200933E
:10B1600069462046AB69984703B030BD202A0B687A
:10B170001EBF4FF0FF3191408B43590801F055310C
:10B180005B1A03F033319B0803F033330B4401782F
:10B1900003EB13130A444FF0013103F00F334B4319
:10B1A000A2EB13620270704737B5044600251B22DC
:10B1B000011D0DF107008DF80750FFF7D7FF6368F9
:10B1C0009DF80720B2EBD36F03D123F0784003B092
:10B1D00030BD1B2204F108018DF80750FFF7C6FFB0
:10B1E000A0689DF80730B3EBD06F0ABFC0434FF0A3
:10B1F000FF3020F07840EAE74BF29A22036810B55E
:10B20000B2EB134F044613D19BB2012B15D1FFF7BC
:10B21000CBFF013011D04FF6FF72E068B2EB104F58
:10B220004FEA10430BD180B2C01A18BF012010BDE5
:10B23000013314BF04200320F9E70420F7E70220BC
:10B24000F5E7F0B50546002687B0EC69013CB4424D
:10B2500003D80C46204607B0F0BD01B14C1E6F6C00
:10B260002868EB6B05225B6901A907FB040098477E
:10B2700001A8FFF7C1FF0128ECD921460136E4E718
:10B2800070B50025044686B00562E369AB4202D87A
:10B29000206A06B070BD666C2068E36B05225B69AE
:10B2A00006FB050001A9984701A8FFF7A5FF0128A3
:10B2B00098BF236A05F101059CBF01332362E4E7CF
:10B2C000F0B504460D46466CE36B006887B0052276
:10B2D0005B6901A906FB0500984701A8FFF78CFFF1
:10B2E000012804D801A8FFF75FFF07B0F0BD294689
:10B2F0002046FFF7A6FF0646676C2068E36B052231
:10B300005B6901A907FB0600984701A8FFF74CFFFE
:10B31000431CEAD0B54238BF0130E6E72DE9F043DF
:10B320000646994689B0036908460F4690469847F5
:10B330000446002867D1D9F804305B0A012B224665
:10B340004FEA530304F10104F8D899F8035099F82F
:10B3500002302D03DB0203F4006305F480551D4326
:10B36000B9F800304FF00009C3F30A0352032B442D
:10B3700092B29D18294B0DF107001B2228F078444A
:10B3800002A9039302948DF80790FFF7EFFE9DF852
:10B3900007306FEA054544EAC36404946FEA080481
:10B3A0001B2224F0784402A902948DF80790FFF73D
:10B3B000DDFE9DF807306FEA154544EAC3644FF09F
:10B3C000FF3301220594069307A9B369079507F196
:10B3D0001000984701220446B36905A907F1080047
:10B3E00098470122484518BF0446B36904A9381D8F
:10B3F00098470122484518BF0446B369384603A957
:10B40000984728B1044639463046FFF79CFE01E0D4
:10B41000002CF8D1204609B0BDE8F08301009AB2B3
:10B4200038B50446456C006804F1400305FB010192
:10B43000E06BFFF773FF05462046FFF721FF284624
:10B4400038BD4FF480322DE9F843214B4FF001080D
:10B450009A6641F671331F4D0446EF69EB631E4B4C
:10B460000021C3F80C800223686121202B61174062
:10B4700027F0C6FDDFF86890064640B1C9F80C8099
:10B4800007B1E96301360CD16E20BDE8F8832120B5
:10B4900027F0B6FDC9F80C8007B1EE63431CF3D06A
:10B4A00008B17120F1E70D4B9A6801230A3202F0CE
:10B4B0001F02934023F0030323449C4201D1002048
:10B4C000E3E754F8042B0132F7D03E20DDE700BF5C
:10B4D0000090005000000350001003500080E00F67
:10B4E0000020035038B5202204460D460C300021C0
:10B4F00024F04EFA4FF0FF33C4E90035A36038BDA5
:10B5000038B5064D04462B78834206D0044B0421FF
:10B51000D3F8680127F0EEF82C7038BD6C9200204B
:10B52000080400200B4A92F86E3183B1013B82F887
:10B530006E3192F86C310133DBB2082B28BF002347
:10B5400082F86C310023012082F8BF36D8E792F8E8
:10B550006D31F5E7080400200B4A92F8C23683B13A
:10B56000013B82F8C23692F8C0360133DBB2082BB9
:10B5700028BF002382F8C0360023012082F8BF369E
:10B58000BEE792F8C136F5E70804002010B5074C75
:10B59000C378084484F8133C0379012084F8143CF0
:10B5A000FFF7AEFF002384F8153C10BD080400200F
:10B5B000094B5A69002A09DB5A6AD207FCD40122D6
:10B5C000064B5A60044A53689B07FCD40022044B84
:10B5D000012083F8162C93E70040005B0060005BBD
:10B5E0000804002008B5131E40F2FF7218BF0A4677
:10B5F00001211BF037F9BDE80840022080E7034B2A
:10B60000024603F6174193F89F0DEBE7080400206C
:10B61000204BD3F8542E12699169080E83F8170C49
:10B62000080C83F8180C83F81A1C080AD16983F8EF
:10B63000190C080E83F81B0C080C83F81C0C83F8FB
:10B640001E1C080A116A83F81D0C080E83F81F0CD3
:10B65000080C83F8200C83F8221C080A516A83F82E
:10B66000210C926A080E83F8230C080C83F8240C32
:10B6700083F8261C080A110E83F8271C110C83F886
:10B68000250C83F8281C1420110A83F8291C83F840
:10B690002A2CB4E708040020154BD3F8542E126965
:10B6A0001168090A83F8171C116883F8181C51687F
:10B6B000080A83F81A1C916883F8190C83F81C1C7B
:10B6C000080AD16883F81B0C83F81E1C080A11694C
:10B6D000526983F81D0C080A83F81F0C83F8201C9C
:10B6E0000C20110A83F8211C83F8222C87E700BF65
:10B6F000080400200F4BD3F8542E9269D188926829
:10B70000100E83F8170C100C83F8180C83F81A2C01
:10B71000100A094A83F8190C5278022A09BF052039
:10B7200004200A0A83F81B2C0344013083F8171CF9
:10B7300065E700BF080400206C920020094B0A480E
:10B74000D3F8542E4078916902284A88897809BF35
:10B75000120A012083F8172C83F8181C18BF83F8ED
:10B76000171C4CE7080400206C920020114BD3F802
:10B77000542E03F61D435269917903F8061CD178C3
:10B7800003F8051C1179527903F8041C03F8032C03
:10B79000AB2203F8022CCD2203F8012C064A02F159
:10B7A000100152F8040B8A4243F8040BF9D1162019
:10B7B00025E700BF08040020C63203080A210D4B0C
:10B7C000D3F80C2DB2FBF1F283F8172CD3F8542DDB
:10B7D000B2FBF1F283F8182C027902EB82025200DC
:10B7E000C3F80C2D4279022002EB82025200C3F80A
:10B7F000542D04E708040020F0B401260F4A104D30
:10B800001049AA420DD3104B10491A6BB2F5803F74
:10B8100082BFDA7B42F02002DA73C0782822F0BCC3
:10B82000E0E612F8083B013BDC100F5D03F0070374
:10B8300006FA03F33B430B55E3E700BFD863000868
:10B84000E8660008769200206C9200206E9200203C
:10B850002F4C83B5054601224FF4967004F65861CB
:10B86000FCF714FF94F8583E022B03D884F8593E95
:10B8700018F0AAFD274ED4F85C7E274BA0220021A9
:10B880003046C4F86871C4F8607EC4F8545EC4F8E9
:10B89000983E24F07DF80C2384F8C13E06F1340371
:10B8A000C4F8C43E052384F8C83E20230025C4F80C
:10B8B000CC7E01270193301D019B84F83C5F27F06B
:10B8C00010F92A462946284684F8B87EC4F8BC6E8A
:10B8D00019F058FE2A462946384619F053FE94F8C6
:10B8E000403F0020062B4FF006030C4A87BF84F828
:10B8F000403FC4F8442FC4F8442F84F8403FC4F8B4
:10B90000480FFFF7FDFD064C204617F02FF8FBE728
:10B9100008040020A4120020B4920020F032030892
:10B9200048130020054B022193F84C2F83F8180C84
:10B93000122083F8172C16F0EDBF00BF080400207A
:10B9400010B4304C84F8182C94F84D2F84F8171C40
:10B95000002A54D0002B52D00A211A68B2FBF1F20F
:10B96000120A84F8192C1A68B2FBF1F284F81A2C26
:10B970001A791A2184F81B2C5A7984F81C2C9A798C
:10B9800084F81D2CDA7984F81E2C1A7A84F81F2C7E
:10B990005A7A84F8202C9A7A84F8212CDA7A84F85E
:10B9A000222C1A7B84F8232C5A7B84F8242C9A7B33
:10B9B00084F8252CDA7B84F8262C1A7C84F8272C32
:10B9C0005A7C84F8282C9A7C84F8292CDA7C84F818
:10B9D0002A2C1A7D84F82B2C5A7D84F82C2C9A7DE5
:10B9E00084F82D2CDA7D84F82E2C1A7E5B7E84F868
:10B9F0002F2C84F8303C5DF8044B16F08BBF0221ED
:10BA0000F9E700BF080400200B460349024691F8FD
:10BA10004E1F132094E700BF080400200B46034983
:10BA2000024691F84E1FA9208AE700BF08040020B3
:10BA30000B460349024691F84F1FAC2080E700BF38
:10BA400008040020054B022193F8512F83F8180CAD
:10BA5000142083F8172C16F05DBF00BF08040020E7
:10BA6000054B022193F8512F83F8180CAB2083F873
:10BA7000172C16F04FBF00BF08040020054B022111
:10BA800093F8522F83F8180C482083F8172C16F0DF
:10BA900041BF00BF08040020054B022193F8532F3B
:10BAA00083F8180C682083F8172C16F033BF00BFFA
:10BAB00008040020044B012193F8542F422083F8FE
:10BAC000172C16F027BF00BF0804002070B4214BCC
:10BAD00093F8142C002A3BD0017883F8172C83F8B4
:10BAE000151C1D490278497883F8182C02290CBFCF
