:020000040800F2
:100000000810002071010008FD2600085B28000888
:10001000FD260008FD260008FD260008FD26000834
:10002000FD260008FD260008CC3F0008FD2600083C
:10003000FD2600087C3F0008FD260008FD2600087C
:10004000FD260008FD260008FD260008FD26000804
:10005000FD260008FD260008FD260008FD260008F4
:10006000FD260008FD260008FD260008FD260008E4
:10007000FD260008FD260008FD260008FD260008D4
:10008000FD260008FD260008FD260008FD260008C4
:10009000FD260008FD260008FD260008FD260008B4
:1000A000FD260008FD260008FD260008FD260008A4
:1000B000FD260008FD260008FD260008FD26000894
:1000C000FD260008FD260008FD260008FD26000884
:1000D000FD260008FD260008FD260008FD26000874
:1000E000FD260008FD260008FD260008FD26000864
:1000F000FD260008FD260008FD260008FD26000854
:10010000FD260008FD260008FD260008FD26000843
:10011000FD260008FD260008FD260008FD26000833
:10012000FD260008FD260008FD260008FD26000823
:10013000FD260008FD260008FD260008FD26000813
:10014000FD260008FD260008FD260008FD26000803
:10015000FD260008FD260008FD260008FD260008F3
:10016000FD260008FD260008FD260008FD260008E3
:1001700008B50B4B83F30A880A4B07A1D1E90001AC
:10018000C3E9000100F07EF800F0D4FC00F054F860
:1001900000F066F800F060FCA5EDF5FEA5EDF5FEBB
:1001A00008000020081000200348044B834202D0BE
:1001B000034B03B1184770479C6000209C600020EF
:1001C00000000000064B0749C91A891048BF0131D9
:1001D000491003D0044B0BB101481847704700BFCA
:1001E0009C6000209C6000200000000010B5064CC0
:1001F000237843B9FFF7D8FF044B13B10448AFF39A
:1002000000800123237010BDAE5D002000000000BF
:100210003841000808B5054B1BB105490548AFF347
:100220000080BDE80840FFF7CDBF00BF0000000020
:100230001010002038410008064B0748DA1C121A3B
:10024000C11E22F00302994288BF0022034903F035
:1002500064BD00BF9C600020346000204441000861
:10026000064B0748DA1C121AC11E22F003029942FB
:1002700088BF0022002103F048BD00BF3460002089
:1002800010100020044B054A9A60D3F8882042F4ED
:100290007002C3F88820704700ED00E000000008FD
:1002A0000023024A1370024A13707047B05D0020A9
:1002B000AF5D002038B503780446042B0D463FD0CF
:1002C00009D8012B0BD0032B4FF018033CD040F67C
:1002D00003102B7038BD182B36D0432BF4E7224B7C
:1002E0004278197801BB012A03D0152340F6041087
:1002F000EFE71A70A3781344FF2BF6D10022802178
:10030000E01C03F018FC94F88320C0F30F239A42FA
:1003100021D194F88430C0B2834220D1134B62784B
:1003200000201A700623D4E7104B1B7893420ED09E
:100330000133DBB29342DDD0152340F60510C8E748
:10034000062340F60710C4E740F60810C1E706236D
:1003500040F60610BDE7152340F60210B9E7152355
:1003600040F60110B5E700BFAF5D0020B05D002092
:1003700010B590B02C22002105A803F0C6FC054B57
:1003800001AC0FCB84E80F00214605A800F03AF835
:1003900010B010BD983E000810B592B04722184921
:1003A000684603F0BAFC02F035FA0A22C0F3036390
:1003B000092B8CBF373330338DF81430C0F303432F
:1003C000B3FBF2F102FB113300F00F0030338DF874
:1003D0001730B0FBF2F302FB130001F130043030B0
:1003E00003F130018DF819108DF81A000122472110
:1003F00068468DF8164000F09BFD002012B010BD3D
:10040000A83E00082DE9F04F0024ADF5257D4FF4FE
:100410009472054688465AA821468DF80B4003F091
:1004200074FC2146682204A803F06FFC2146682270
:100430001EA803F06AFC3C2700F054FC01264FF094
:10044000FF34DFF81C93DFF81CA3DFF81CB3731E26
:10045000052B09D8DFE813F00C001E0041005B00FB
:100460005001C0000426F2E7FFF796FF0126EEE7F1
:100470004FF47A7103A802F062FA38B99DF80C3093
:10048000312B05D0322B0CBF052600263C27DEE79A
:100490000226FBE701221121AD4800F049FD2C2284
:1004A0000021284603F031FC20231EAA04A95AA8E3
:1004B00001F0A2F80026FF23012105206B706E8059
:1004C00000F036FC00F080FD18B10121304600F04C
:1004D000F1FDFFF7E5FE0326B9E7432002F03CF902
:1004E00000214FF47A7000F023FC00F06DFD18B984
:1004F00000F044FC0028F8D000F066FD0028B1D1DF
:10050000013FA4D1182002F027F900269FE700211F
:1005100085220DF1E10003F0F8FB002140F6B83030
:1005200000F006FC00F050FD88B34FF47A7300939E
:10053000012303AA19460DF1E10000F069FD9DF8C1
:10054000E130012B0DD140F6B832842100920DF13B
:10055000E20003AA00F05CFD039B0446842B1AD141
:10056000D8B90DF10B010DF1E100FFF7A3FE40F644
:100570000713984204461AD1AB78A3B1EB7893B134
:1005800006269DF80B00182808BF062608E000F094
:10059000F5FB0028C6D040F2047415208DF80B003E
:1005A00002F0DAF853E718238DF80B30E8E700285B
:1005B000E7D19DF8E130012BE3D180232946CDF826
:1005C000008039AA5AA801F053F804460028D8D070
:1005D00018238DF80B30D4E70121002000F06AFDCC
:1005E00001210A2000F0A4FB9DF80B300122062B0C
:1005F0000BBF1B211A215046584600F099FC9DF86C
:100600000B30062B81D0A4F51063B3F5E06F4FF0EB
:10061000010213D211214F4800F08AFC40F6061364
:100620009C4213DCB4F5106F10D0A4F60213042B17
:100630004ED8DFE803F04F474B5153001021464896
:1006400000F076FC40F606139C421ADC9DF80B3055
:100650009F2B4FEA13108CBF3730303000F0A0FCD6
:100660009DF80B0000F00F0009288CBF37303030A8
:1006700000F096FC0D2000F093FC0A2000F090FCA6
:1006800043E7A4F58053013B092BDFD8A4F5805341
:10069000013B092BDAD801A252F823F0F106000839
:1006A0004D0600084D060008F5060008E50600089E
:1006B000ED060008F1060008E9060008E10600085A
:1006C000F106000821238DF80B30BFE72223FAE75B
:1006D0002323F8E72423F6E72523F4E72723F2E78B
:1006E0004123F0E74323EEE74423ECE74523EAE721
:1006F0004F23E8E75023E6E7AB781BB3EB780BB367
:100700002B785A0707D5A86A02F089F818B1134860
:1007100000F032F9F9E62B789B0709D56E6802F0F4
:1007200079F8864204D9696A0C4800F0DBF8ECE6F7
:1007300040F2012000F076FA01221321484600F031
:10074000F7FBE2E640F2032000F06CFADDE600BFC2
:10075000583F0008123F0008023F000800800008D0
:10076000EF3E00083D3F0008233F0008B0F5EC2FA6
:1007700070B50E46144619D2C0F5EC2300F10065A1
:10078000934205F5004511D348B94FF000639B6AC9
:10079000074A5969914202D9186900F06DFA224658
:1007A00031462846BDE8704001F0E7BF70BD00BF8C
:1007B000008000087FB56FF0006200F1784191423F
:1007C000034619D26D460D4A02F110062C461068F8
:1007D0005168083203C4B2422546F7D15A1E04A913
:1007E0000F3311F8014D12F8010F844204D19A42DF
:1007F000F7D1012004B070BD0020FBE7693F00087D
:10080000F0B50368044603F16043B3F5803F9FB041
:1008100031D84FF00067BB6A42681E6996422AD8F9
:100820002E4B9A4227D8456B06F14002AA4252D875
:100830009D4250D82846FFF7BDFF00284BD02846E0
:1008400001F0CEFF80B16B6973B1022B0ED1AB69A1
:10085000C4F1040119444FF0FF32204601F0C0FA00
:100860001F4BC31A584258411FB0F0BD7F6B38462A
:10087000FFF7A0FF08B90020F6E7A6F150039F425A
:10088000F9D8284603A901F0B2FF0028F3D0039D50
:10089000AE42F0D8AC42EED8104B9D42EBD804A843
:1008A00001F062FB21462A1B04A803F062F904A8A8
:1008B00003F061F901F068FB044601F083FB234675
:1008C0000090294605F1200204A801F0CDFAB0FA03
:1008D00080F04009C8E70120C6E700BF0000080813
:1008E000E320BBDE70B54FF0FF3292B005460C46F8
:1008F00001F076FA1C4B984232D14FF480621B4BC8
:1009000000219A6601A8202203F0FFF9184B29461E
:100910006846043C009303F081FA2146684603F0E0
:100920007DFA684603F083FA03F038FA0646B8B950
:1009300040F2022000F06AF9202231460AA803F0B2
:10094000E4F90C4B294609A8099303F067FA09A8B2
:10095000214603F063FA09A803F069FA03F01EFACE
:10096000002012B070BD00BFE320BBDE009000404D
:1009700001000543010006434FF4806230B5044690
:10098000154B93B09A660021202201A803F0BDF90F
:10099000124B21466846009303F040FA684603F084
:1009A00046FA03F0FBF9054698B940F2022000F040
:1009B0002DF9202229460AA803F0A7F9084B09A817
:1009C0002146099303F02AFA09A803F030FA03F04C
:1009D000E5F9002013B030BD009000400000024354
:1009E000000003434FF4806210B50F4B8CB00446F7
:1009F0009A660021202204A803F087F90B4B00948B
:100A00000393012301930A4B694603A8029303F061
:100A10002BFA03A803F00BFA03F0C0F9B0FA80F048
:100A200040090CB010BD00BF00900040000008431A
:100A300004000020004870470080000840B139B130
:100A400000230B60034B03600B6843F400030B604F
:100A5000704700BF0C1200084FF480302F49304A15
:100A60004B6E10B55066486E4FF000414AF6CD34DB
:100A700051662C4903F480334A6C0C6402F0010285
:100A80004C6BE407FCD4012427494C60A1F50051CC
:100A90000C6BE407FCD50AB1244A0A640028A2BF03
:100AA0004FF00041224A51661BB94FF48032204B6F
:100AB0005A664FF04023D3F88420110606D44FF431
:100AC00000621A67D3F88420D206FBD401F0B7FE87
:100AD00000F086F801F03BFE01F03BFE18B14FF448
:100AE000017000F09FF8FFF743FC044601F033FE6D
:100AF00034B940F2012000F095F84FF4017009E09C
:100B000040F203739C42F4D0A4F20574012CF4D893
:100B100040F2032000F086F8002010BD0080004065
:100B20000090004000400940006009403254FFFF3F
:100B300000A00040012307B58DF806308DF807307E
:100B40004FF04023D3F894305A060FD500F07EF8CA
:100B5000A0F2022080B2072808D8C923C340DB07CF
:100B600042BF00238DF806308DF80730194B5B68C3
:100B7000013308D14FF4027000F048F800238DF8DB
:100B800006308DF807309DF807305BB11148FFF74C
:100B900037FE8DF806009DF806301BB94FF4027041
:100BA00000F034F89DF8063083B14FF4803307210C
:100BB000094A0848936602F52032C2F82011A2F5CE
:100BC0001C329366054B986001F03DFE03B05DF862
:100BD00004FB00BF006000080090004000ED00E052
:100BE0004CF23C32014B5A80704700BF000000209D
:100BF0004AF6C030044B5B8823F00F039BB21B1AEC
:100C000058425841704700BF00000020044A08B510
:100C10001080FFF7EDFF10B94FF20F03538008BDAE
:100C20000000002008B5FFF7F1FFBFF34F8F054923
:100C3000054BCA6802F4E0621343CB60BFF34F8FE9
:100C400000BFFDE700ED00E00400FA054FF20F01E0
:100C5000084B5A888A4201D1188870473AB91B88D4
:100C600040F20220012B18BF4FF4007070474FF480
:100C700000707047000000204FF4803208B5044B2C
:100C80009A6601F045FBB0FA80F0400908BD00BF4C
:100C900000900040072BF8B506460F4614461D4647
:100CA00001D90020F8BD0121202001F0ADFA012179
:100CB000212001F0A9FA8CB144EA06039B07F0D188
:100CC0004FF48032064B31469A66284623463A4610
:100CD00001F046FBB0FA80F04009E3E70120E1E7CC
:100CE000009000401FB510220E4B5A6600F000FA2B
:100CF0004FF47A23B0FBF3F00B4B0F221860002166
:100D00000DF1010003F001F801238DF8003040F2ED
:100D1000FF3369460548ADF8023002F062FF05B0C6
:100D20005DF804FB00900040281000200080044083
:100D300030B50D4D0D4A2D68536A15FB00F515FAB7
:100D400083F09CB280B2A0422CBF00240124084B47
:100D50001880084B1C7011B1536A8342FCD10123E7
:100D600005494B61936130BD28100020008004408C
:100D7000AC5D0020B15D002000A00440094B0A4A90
:100D80005869127800F001000AB108B9704738B903
:100D9000586A064B1B88984234BF002001207047D8
:100DA0000120704700800440B15D0020AC5D002050
:100DB0002DE9F047DFF84491494BD9F80020494F1D
:100DC00002F13C01996002F124037B627B604FF0E9
:100DD0008063DFF82CA101250AF58058C8F864303B
:100DE0004FF40073C8F8643002F580535D6040F63C
:100DF000AA630024536141F205033B4E3B4802F5D0
:100E000000519460D465D3601461D461D464886463
:100E1000C6F89847C6F8B047C6F8A847C6F8A0472E
:100E2000C6F8A447D3609368936000F061F9DAF8DC
:100E300070300821C3F380232B44B0FBF3F24FF44E
:100E4000E11302F5E1425201B2FBF3F2284B203AE2
:100E500003EAC203D9F800202046D3612B460422BE
:100E600001F0ECF92B462A460921204601F0E6F96B
:100E70001423C6F898374FF40023C6F8B0374FF460
:100E80001023042221462846C6F8A8372B4601F035
:100E9000D5F90522D9F800304FF0F0515A610323FB
:100EA0004FF48020134AC8F86430556091601249AD
:100EB0005462946314645465486002301466D465C7
:100EC00017678860A1F50051C2F89040C2F88C40C5
:100ED0004B630223956402F580521361BDE8F087ED
:100EE000746000203460002000C00340FFFF010058
:100EF000F8FF7F00000004400040044084600020B0
:100F000000800040084B586B10F0020006D002220F
:100F10009A6203F5005301205A637047DB6A9B070E
:100F2000FBD40222014BF6E70000044000200440FD
:100F300070B54E1E7E2E0446154622D8FFF7E2FFFE
:100F400010B32046124B214410F8012B884203F8BD
:100F5000012BF9D10F4B1A8866F30E121A800E4A34
:100F6000C2F8A030022393640DB9002070BDFFF7D2
:100F7000C9FF0028FBD0094B1A6893699B06FCD572
:100F8000F3E741F20310F1E741F20620EEE700BF7C
:100F9000B25D0020746000200000044084600020E6
:100FA000014608B5FFF7AEFF0028FBD0054B1B68D4
:100FB0009A695006FCD5D9639A699206FCD500203F
:100FC00008BD00BF846000200E4A0F4B106840F23D
:100FD0000112DB6E934205D190B10023C0F5007081
:100FE0001844704740F2022293420EBF4FF48073C0
:100FF000064A9B1A984202D0F0D2181A7047002075
:10100000704700BF2C10002000000440325E00201A
:101010002DE9F843089D04460E461746F3B9FFF73D
:10102000D3FFB04228BF304600214FF001084FF0F7
:1010300002091D4A054604EB000C1368DFF870E056
:101040001A4864451CD101B1136007B13D6041F2FB
:101050000420AE4298BF0020BDE8F8832DB1FFF711
:1010600041FE00212846FFF763FEFFF7ADFFB042C7
:10107000D5D2002DF9D0FFF781FE0028F5D0CEE7BC
:101080001EF803100133B3F5007F04F8011B04D1EF
:101090000023C0F810900121D3E7B3F5807F08BF8B
:1010A000C0F81080F7E700BF2C10002000100440AB
:1010B000325E002010B10222094B9A6271B1012206
:1010C0000020074B07499A624A6307491967074995
:1010D00008609A64022203F580531A610020704769
:1010E0000000044000200440346000202C10002048
:1010F00030B51C4B87B001AA03F1100514461868DF
:101100005968083303C4AB422246F7D11B782370D9
:10111000154B1B6F03F00703032B1FD04FF48022E6
:10112000124B5A66124A9368C3F30443102B17D824
:1011300018336B440F4913F8143C4B430E498B4250
:1011400003D19268C2F30162D340074A106FC0F323
:1011500003300130B3FBF0F007B030BD074BF4E7CC
:10116000074BF2E714400008008000400090004068
:101170000000014040420F0000093D0000F049021C
:10118000C0EA21010A4B186830B9B1F5205F0DD8CB
:10119000012208481A607047012806D1B1F5005FA6
:1011A00003D8022204481A6070470020704700BF2D
:1011B00030100020AC350020AC15002031B1044ABD
:1011C0001368002BC4BF03F1FF331360704700BFE7
:1011D0003010002002232DE9F04F884616460027E4
:1011E0008BB0DFF8C490DFF8C4A005908DF81F30F5
:1011F0009DF81F20022A07D0002E48D041F202316C
:10120000012A18BF0F4642E0D9F80010234DC1F55E
:1012100040730893DAF80030214809930DF11F0359
:1012200002930023019309AB009308AA1D4B2944A4
:1012300002F026FB9DF81F3038BB63B3089BD9F83A
:10124000004029461C4424F0030B43465A460598A7
:1012500000F07EF914F00304074605D02246284624
:1012600005EB0B0102F037FDDAF800200999C9F807
:1012700000408A42A2EB010404D90A4822460144F4
:1012800002F029FDCAF80040B2E741F203373846C0
:101290000BB0BDE8F08F41F20237F8E7A81000204C
:1012A00034100020AC130020A4100020A81300204C
:1012B00008B570220021064802F027FD0122002017
:1012C000044B1A70044B1860044B186008BD00BF33
:1012D0003410002032600020A4100020A813002049
:1012E0002DE9F84399465B6806468846144643B3A1
:1012F0001E4B1D78A5B100221A7051F8043B05223F
:1013000003661B4B1B4800F077F860BB194802F0DE
:10131000A4F9D6F88C50184B9D4214BF11251925FD
:10132000164F641B3B68C3F50073A3420CD33E68A1
:1013300013482246304408EB0501264402F0EDFC38
:101340003E600020BDE8F883002249463046FFF7A2
:1013500041FF0028F6D13B68C3F50073A342E6D2F3
:1013600041F20430EEE741F20530EBE73260002055
:101370008C60002034100020F80C0CF8A81300201A
:10138000AC130020436D3BB9D0F88C00034B98425E
:1013900014BF11201920704701207047F80C0CF879
:1013A0004B6870B505460C46E3B10122FFF712FF0A
:1013B000C8B90D4B186888B10C4E0428C0F104025E
:1013C0004FF0FF0188BF0022304402F09EFC23460C
:1013D00004223146284600F0BBF820B904490548EC
:1013E00002F0CAFA002070BDA4100020A81000204E
:1013F0008C600020341000202DE9FF41E8460446AF
:1014000040461E4602F0C4FA054660BB32464146DD
:10141000204602F090FA054628BB039AB2F1804FAD
:1014200025D240F6FF731649B2F5800F28BF0B4650
:101430009F1827EA03076169974238BF174611B121
:10144000A36ABB4215D030467368984700233946DB
:101450006361304633689847606150B93146204631
:1014600002F060FA0225284604B0BDE8F081054B81
:10147000DEE798E80F00A76284E80F00F3E700BFFB
:10148000FFFF0F00FFFF3F000068024BC31A5842E6
:1014900058417047FD0707FD034A044B90420CBFBB
:1014A00018460020704700BFFD0707FD28400008D0
:1014B00030B5024600230C25054905FB03F46018EE
:1014C0000C59944203D001330D2BF6D1002030BDCE
:1014D0003C400008F0B50023082787B0CDE9013370
:1014E00015463B46009704AA044602F094FA41F2DE
:1014F00003039842064623D194F8433053B13A4649
:10150000E06C04A902F035FB04AA3B461146A06C2E
:1015100002F01EFB059A049B6A6094F843202B603E
:1015200052B9094A934207D0084A934204D008228C
:10153000E06C04A902F01DFB6B6823650023636562
:10154000304607B0F0BD00BFF70A0AF7FC0404FC00
:101550002DE9F04799465B6804460F469046002BFC
:101560003FD08B0740D14FF000639B6A006E1B6930
:1015700081181D1DA9421BD31C33984218D2A842C2
:10158000024638BF2A46994294BFC2EB010AC2EB19
:10159000030A101A3E18C5F168001044314652463D
:1015A000204402F0BAFB5246FF21304602F0ADFB68
:1015B000226E0F4B9A420BD80E4902EB080088426C
:1015C00006D39B1AFA58C4F880204FF0FF32FA5025
:1015D000D9E9003542463946206EA847236E434478
:1015E00023660020BDE8F08741F20200FAE700BF61
:1015F00004800008088000082DE9F04100254FF024
:10160000FF3704468846164603F0200380F8423030
:101610001822FF21C0E91855A0F8405080F8435027
:10162000A0F8445080F84650C0F88870683002F046
:101630006CFB88222946C4E91286C4F88070C4F87D
:10164000847004F1900002F060FB084BC4F8207134
:10165000C4E9463584F824512EB1304600F084FCAC
:101660002846BDE8F08141F20B00FAE700010101D4
:101670002DE9F04F9DB0CDE90923059300230446E1
:101680000E464FF00109269D0B930B9A059B9A423B
:1016900001D300202CE194F84630142BF6D8DFE873
:1016A00013F0BF000601B900920079007601DD0158
:1016B0007900D501790037007900D5011C03970323
:1016C00015006C01CD02CD02600295030027636D09
:1016D0000F2B00F2A380102320460093CDE9019741
:1016E00040230CAA09A902F096F941F2030398429B
:1016F00040F0AA80D4F8488000F082FC80230221C8
:10170000CDE900030DAA0123404600F081FBDEE78E
:10171000DFF8ECA3636D072B00F2468138234FF00E
:1017200008080DEB03022046CDE90199CDF80080B1
:1017300009A902F070F941F20303984240F0848055
:10174000337843F0040333700F9BB36273785B0705
:101750001CD50020236DCDF830A0C4F8843094F857
:101760004530606643F0020384F84530EF686FB19E
:1017700004222B680CA9B847606E2B684246EF68BC
:101780000EA94044B847636E103363660B2384F898
:101790004630BFE74FF00108D4E914739F423DD9AA
:1017A000FF1ADDE90A329B1A94F84020032F1344F4
:1017B00040F25881032B00F28881204609A902F0EB
:1017C00009F9002040E00127636D072B00F2EC804F
:1017D000082320460093CDE9017740230CAA09A9EC
:1017E00002F019F941F2030398422DD1337843F006
:1017F000020333700C9B7360236D083B73620D9B77
:10180000B3F1006F00F00281142384F8463041F2F6
:10181000010019E00027636D072B1DD901231AE190
:1018200020460CAA09A9FFF755FE41F2030398428E
:101830000AD10D9B0C9A236500236365AE4B9A4237
:10184000E2D1022384F8463041F203030790079A5D
:101850009A423FF41AAF4AE0082320460093CDE9AC
:10186000019740230CAA09A902F0D5F841F203031D
:101870009842E9D10C9B03F07F43B3F1407F05D040
:10188000142341F2090084F84630DDE70D9AD007B1
:1018900042BF94F8423043F0010384F84230D1054E
:1018A000B9D4142341F20A0084F84630CCE720462C
:1018B0000CAA09A9FFF70EFE41F2030398428046E5
:1018C00009D10C98FFF7F4FD0746A0B9142341F2A3
:1018D000080884F8463041F20303CDF81C80079ACB
:1018E0009A423FF4D2AE079B0BB10023F3700798E6
:1018F0001DB0BDE8F08F437994F824219A4205D9B0
:10190000142341F20E0884F84630E4E701687B4A6C
:10191000914205D00289D20748BF013384F82431AF
:1019200094F84230D8070DD53A8994F8433091079E
:1019300006D53BB1142384F8463041F20108CAE7CA
:10194000002BF7D00CA8FFF79FFD18B93B7984F85E
:101950004630C0E70C98C4F88C00FFF79DFD94F862
:1019600042309A06F2D50028F0D04368002BEDD023
:10197000204698470028E9D0DFE7226D0123A265C1
:10198000002284F84330E26584F846307DE6002189
:101990003C220DA80C91012702F0B7F9D4E91432CA
:1019A000934204D884F8467041F203004CE7009358
:1019B00020464023CDE901770CAA09A902F02BF8B3
:1019C00041F2030398427FF43FAF06F1080E7346DD
:1019D0000DF1300C0DF14808624603CA424518600B
:1019E0005960944603F10803F6D110681860337803
:1019F000704643F00103337000F081FE0028CDD122
:101A0000142341F20C0084F846301DE7042384F8C7
:101A1000463094F8453043F0010384F84530002304
:101A20006366D1E6042320460093CDE90177402385
:101A30000CAA09A901F0EFFF41F2030398427FF4D9
:101A400003AF226D0C9B042A01D923660127636D25
:101A5000032BE7D9092384F84630A5E70023636602
:101A6000072391E79F423FF6A8AE9F4228BF1F463B
:101A700040232046CDE9018800970CAA09A901F06E
:101A8000CAFF41F2030398427FF4DEAE94F846B0F9
:101A9000BBF1070F22D0042FC7F1040A88BF4FF013
:101AA000000A0CAB5246FF21D81902F02EF9BBF107
:101AB000090FBA4426D12B46524620460CA9FFF7FF
:101AC00047FD00283FF468AEBEE6402F28BF402700
:101AD0009F4228BF1F4627F00307C9E7D5F808A093
:101AE000BAF1000FD7D02B683A46606E0CA9D047E8
:101AF000636E3B4463664FE6EB17A603F90707F9ED
:101B0000EB17A65EBBF1040F1FD173789F077FF51B
:101B100043AEEB68002B3FF43FAE626E042A0BD855
:101B20000AEB0203062B07D90DAB9B1A1A68C4F8FF
:101B300084204FF0FF321A60EF682B685246606EC7
:101B40000CA9B847636E5344D4E7BBF10B0F7FF485
:101B500023AE737858077FF51FAEEF68002FECD1E6
:101B60001AE694F8427017F0200707D0D4F88C00DA
:101B7000FFF792FC074600283FF449AE4FF0010AF8
:101B800041E0002B58D0002F56D03B69002B53D09A
:101B900020469847DDE90A329B1A94F84020134406
:101BA0008342FFF40AAED4E91421A2EB0108B8F194
:101BB000400F28BF4FF04008984528BF9846204660
:101BC0004023CDE901AACDF800800CAA09A901F0B3
:101BD00022FF41F2030398427FF436AE94F842307C
:101BE000990610D5002F3FF412AED7F808B0BBF11C
:101BF000000F3FF40CAE2B46424620460CA9D847B6
:101C000000287FF421AED4E9142194F842309142A7
:101C100003F02003B5D3002B3FF400AE002F3FF4B8
:101C2000FDADFB68002B3FF4F9AD294620469847EF
:101C300000283FF4F3AD07E60120ABE74FF0006169
:101C40008A6A496B1269503A91423FF6E0AD112B16
:101C50000AD194F81831002B7FF4E0AD142341F23F
:101C6000060084F84630EFE594F84430002B7FF40A
:101C7000D5ADCDE901334023204600930CAA09A934
:101C800001F0C9FE41F2030398427FF4DDADE06C40
:101C900001F071FF94F818316BB104F1B4030093B3
:101CA000E06C04F1940314AA0CA900F0DDF878B1FB
:101CB0000023F370D2E7D4F84C8000F065F90746B2
:101CC00000F080F93B46009014AA40460CA9ECE7CE
:101CD0000123F37084F84430A0E500234FF004089A
:101CE000CDE9013320464023CDF800800CAA09A994
:101CF00001F091FE41F20303984209D1D4F8882003
:101D0000354B9A4206D0142341F2050084F8463040
:101D10000790ECE594F8443033B9F370142341F2A2
:101D2000060084F84630F3E7F378002B47D094F8A8
:101D30004530DA0707D5EF682FB1424640462B6899
:101D400004F18401B84794F845309B0707D5EF6844
:101D50002FB104222B68104604F18401B847236E8A
:101D60006BB36F685FB34FF0FF3304F18008042258
:101D7000414608A8089301F09EFF20B10422414685
:101D80002B681648B84704F168090422494608A898
:101D900001F091FF98B14FF000639B6A1422D3F8D1
:101DA000108004F16C0108F10800D5E90037B8474C
:101DB000D5E900370422494608EB0200B847012361
:101DC000B3700E23002084F84630A1E70023F3709F
:101DD00041F207008CE500BFE320BBDE0480000871
:101DE00030B50824094B00255C66012403F5FE2369
:101DF0005C6001449D601A61DC60884201D1586AD0
:101E000030BD10F8012B1A62F7E700BF00900040C8
:101E10002DE9F04116464FF480621D46114B00F14A
:101E2000200804469A6640460F4601F025FFDDE98A
:101E30000612404601F024FF002384F858706364C2
:101E40003368C4F859307368C4F85D30B368C4F8B7
:101E500061302B0C6DBA84F86530A4F86650BDE88B
:101E6000F08100BF009000402DE9F04315464FF48B
:101E700080621C46364B9BB0DDF888900E460746C4
:101E80009A66002861D000295FD0002D5DD0002C1B
:101E900058D0304B304AB9F1000F14BF98469046E5
:101EA0002022002112A801F030FF2C4B414611A83E
:101EB000119301F0B3FF202111A801F0AFFF01221F
:101EC000274B029403920493CDF814900692079343
:101ED00054B1B9F1000F07D002A911A801F0C2FE58
:101EE00005A911A801F0BEFE089701271C4C08A9FE
:101EF00011A809970A9401F0B5FE0BA911A80B9639
:101F00000C970D940E950F97109401F0ABFE0EA94F
:101F100011A801F0A7FE11A801F089FF114B019350
:101F20004FF098435A6CD202FCD55B6D40F20460CE
:101F300003F470230193019B002B08BF00201BB00A
:101F4000BDE8F083DFF81080AAE740F20160F6E711
:101F5000009000401F2400801F24FC840000010624
:101F600020000020785634124FF4806210B50446E9
:101F7000044B9A6601F002FE2046BDE810400021A5
:101F800001F000BE009000404FF4806200B50B4BA2
:101F90009BB09A6600212822684601F0B6FE4023D5
:101FA000002168460AAA00F04DFA20F0100001282E
:101FB000034818BF00201BB05DF804FB00900040F0
:101FC0004CE307084FF4806200B50B4B9BB09A6658
:101FD00000212822684601F098FE4023002168462F
:101FE0000AAA00F02FFA20F010000128034818BFB9
:101FF00000201BB05DF804FB009000406CE3070874
:102000000048704786E207082DE9F3471446DDE9EA
:102010000A920D461F4600284DD14CB313683F2B42
:102020002AD8516851B32549002F14BFB8468846B5
:1020300003F03F061B19136022BF5368013353603E
:10204000FEB93F2C0ED9A3092A46009341463B46D0
:10205000002000F083F824F03F031D4404F03F0407
:1020600034B100262246294609EB060001F055FE50
:10207000002002B0BDE8F087B846D9E7DFF83C8021
:10208000D6E7C6F1400A5445ECD32946524609EB3F
:10209000060001F042FE0123264400934A463B46D7
:1020A00041460020A6F1400400F058F83F2C55446A
:1020B000D6D9B846C7E70248DBE700BF1841000899
:1020C00080AFFFFF2DE9F0411746146886B01E4629
:1020D000E3008DF80F3063098DF80E30630B8DF837
:1020E0000D30630D8DF80C3053680546DA0002EBB5
:1020F00054728DF80B2004F03F045A09372C8DF8E8
:102100000A204FEA53324FEA53538DF8092088468C
:1021100094BFC4F13802C4F17802CDE900178DF8FC
:1021200008300D4903460020FFF76EFF08222B46BA
:102130000020CDE900870DEB0201FFF765FF28467F
:1021400005F1200350F8042B984246F8042BF9D1EE
:10215000002006B0BDE8F081D8400008F0B5174671
:102160004FF480621D46264B93B09A6624220E4699
:10217000044600210DEB020001F0C7FD01204FF0E5
:1021800000520097019002920396049005920695E2
:1021900007900892002C2FD1189C1A4BA4012146BD
:1021A00009A8099301F03AFE029B03A91C4302947B
:1021B000059B09A843F020030593089B43F02003E7
:1021C000089301F04FFD694609A801F04BFD06A9EF
:1021D00009A801F049FE09A801F029FE4FF0984333
:1021E0005A6CD202FCD55B6D13F4702F14BF6FF0E4
:1021F0006F00002013B0F0BD6FF07100FAE700BF70
:102200000090004000040103430905D0012B0CD0CD
:10221000022B084B18BF002300F01F0039B103F553
:102220008053012282401A607047034BF4E703F5A4
:102230000053F6E768800040648000402DE9F041DB
:1022400005460F461E4690464AB101233022194CDE
:102250008B4002FB004436B304F5825423600F2107
:10226000072F05EB450388BFA7F108044FEA0313C6
:10227000114895BFBC00A40004330C3308FA04F2E3
:10228000A140184401F097FCB8F1000F09D10123D7
:102290003021084ABB4001FB05223EB102F58252C3
:1022A0001360BDE8F08104F50154D7E702F501524F
:1022B000F6E700BF00C0034030C00340F0B5114A4C
:1022C000114C124E00F00105E3695F0713D40DB9FC
:1022D000334213D103EA00078F4207D10B4A1A4059
:1022E000002A0CBF00206FF00100F0BD013AEBD1D5
:1022F0006FF00200F9E74FF0FF30F6E76FF00100F2
:10230000F3E700BF80969800000003400200010040
:102310004FF4803238B50E4B0E4C9A66E56941F6A3
:10232000713315400122E3630B4B0021DA60022375
:10233000606121202361FFF7C1FF10B92120FFF761
:10234000BDFF0122054BDA600DB10023E36338BD08
:1023500000900040000003400010034000200340B4
:102360002DE9F04F01264FF430258400DFF8C4C07A
:1023700004F1402404F58024CCF804606560302525
:1023800000244FF48037DFF8B0E0DFF8B09005FBB1
:1023900000E5EC652C662C67214CDFF8A4A0A7664D
:1023A00041F671341F4F06FA00F0D7F81C80FC6329
:1023B0001D4CE66043B901211C4A18F4803FD160EE
:1023C00029D10020BDE8F08F01F5005404EA09048A
:1023D000641A9C4228BF1C467961D7F81CB0A60835
:1023E0001BF0040F19D1013E360146F060566E66AF
:1023F000AA66C5F86CA0CCF82400DEF83460304240
:10240000FBD00B4E214470630426CCF828002244F4
:102410003E611B1BCEE7FB63D3E74FF0FF30D1E7F4
:1024200000900040000003400010034000200340E3
:1024300000200440001004400000044000E0FFFFC2
:10244000180003401FB5044660B35AB3402B29D18E
:10245000930727D1042925D8DFE801F0031A2422A5
:102460001E004FF4807310490B4323600023C4E91E
:10247000013323620123019202930C4B204601A9F0
:10248000039301F0F1FC204601F066FC04B010BD9E
:102490004FF400730449E7E705494FF48063E3E72D
:1024A0000149FAE72120F1E7010008FF4000002080
:1024B000000008FF2DE9F041012905460E4690462F
:1024C0001F4692B04AD8046824F04003802B02D003
:1024D000B4F5807F45D1202200210AA801F015FC27
:1024E000234A244B0121012E08BF134609932B1DBB
:1024F0000093E408204B44F00054019109A8029491
:10250000CDF80C80049105930697079169460893CE
:1025100001F0A8FB03A909A801F0A4FB06A909A8DA
:1025200001F0A2FC296809A8C90801F077FC102174
:1025300009A801F073FC01F0FDFBA8B909A801F09E
:1025400076FC4FF098435A6CD202FCD55C6D01F0DA
:10255000FBFB04F4702012B0BDE8F0816FF02000A6
:10256000F9E76FF07100F6E74FF0FF30F3E700BFD7
:102570000001000400010104100000202DE9F04FCB
:10258000074689469846164699B082B115683B6859
:1025900023F04002802A03D0B3F5807F40F0A6806C
:1025A00000244C4505D306B1356000207BE015467C
:1025B000EDE75DB1239B229A1B5D525D01355340CF
:1025C000249A05F00F0513550134EAE7A9EB040A34
:1025D000BAF10F0F0BD8239B03EB040A249B1C4476
:1025E000239B03EB090BDA4560D14C46D9E7202247
:1025F000294610A801F089FB3E4B3A680F933B1D1A
:1026000000930123D20842F00052019302923A4A09
:10261000CDF80C8004930592CDF8188007930892AA
:10262000239A249922442AF00F0A099221444AF05D
:1026300000520A930FA80B920C9169460D930E92CB
:1026400001F010FB03A90FA801F00CFB09A90FA8CA
:1026500001F008FB0CA90FA801F006FC06A90FA8C1
:1026600001F002FC39680FA8C90801F0D7FB5146F8
:102670000FA801F0D3FB01F05DFB90B90FA801F0AA
:10268000D6FB4FF098435A6CD202FCD5586D544497
:1026900000F4702B01F058FBBBF1000F9BD05846A3
:1026A00001E04FF0FF3019B0BDE8F08F55B1229A2C
:1026B0001AF8013B525D0135534004F8013B05F027
:1026C0000F0590E7424601213846229BFFF7F2FEB4
:1026D0000028E8D108F1100212F8013D0133DBB205
:1026E0001370002BE3D19045F6D1E0E76FF01F00A7
:1026F000D9E700BF0303000410000020FEE738B54F
:102700004FF000639B6A05461A69546BA24201D3DD
:10271000012038BD5B69A342FAD92046FEF74AF88A
:102720000028F5D0236913F0FE000ED16A68236AF1
:102730009A42EED9102204F1280105F10C0001F0B3
:10274000BAFAB0FA80F04009E3E70020E1E700F0D0
:1027500012B8FDF721BE704710B50446FEF720FC05
:10276000182C07D12046FEF71BFC2046BDE8104080
:10277000FEF716BC10BDFEF71BBBC0F30C032DE922
:10278000F04105460F4616460BB9FEF775FA05F5FA
:10279000005424F4FF5424F01F0405EB0608A04560
:1027A00007D8324639462846BDE8F0410223FEF7F5
:1027B00071BA2046FEF760FA04F50054EFE770B4F2
:1027C0004FF00065AD6A03462E69864206D86C69F3
:1027D00013449C4202D370BCFFF7CFBF70BC70475C
:1027E000036913F0FE0F0CBF01200020704738B5BD
:1027F00004460D46FDF7DEFF38B16369012B07D1B2
:102800002046FFF7EDFF10B1A46901202C6038BD10
:102810000020FCE74FF000639B6A986870474FF018
:10282000FF3313B5044601A80193FEF7DBF820B18E
:10283000019BA3422CBF0020012002B010BD00204C
:1028400070470020704703461846016881F30888E6
:1028500081F3098840688746FEE74FF40170FEF770
:10286000E1B9B1F50D7F10B504460FD34FF40D72E9
:10287000002101F04AFA04F5DE7204F5AA7104F1B0
:102880002C000023BDE81040FEF7B6BE40F2052044
:1028900010BD13B50446009101462C30FEF7E8FE4A
:1028A000C4F8300218B141F20703984204D1A3786A
:1028B00023B1E07800F2022002B010BD40F2012006
:1028C000FAE72DE9F04387B00DF1080904460E46FA
:1028D00017460021102248461D46DDF8388001F0D9
:1028E00014FA00211C22C8F80010284601F00DFA45
:1028F00032463B462146CDF8009004F12C00FEF70D
:10290000B7FE23789A0744BF6268C8F80020DB0747
:1029100009D504F1080304F1240253F8041B93427F
:1029200045F8041BF9D1237840F20640002B18BF6C
:10293000002007B0BDE8F0834FF40D70704701230D
:1029400007B5002200911946FEF762FB03B05DF85F
:1029500004FB826CF0B5531EB3F5887F18D8D0E91C
:10296000093CD0E90B47C91A914228BF1146456975
:10297000866B2FB9C768A7EB040E8E4598BF076317
:102980000C44521AC462826419448B4201D14362DE
:10299000F0BDB34234BF644600249A1B2A44125D42
:1029A000EA540133F1E72DE9F04F95B008910D920B
:1029B000036B416A0793C36A0193079B002B40F0A6
:1029C000AA80019AC3689B1A089A521A9A4240F246
:1029D000A2800B444FF0FF37D0E90DBA8568099308
:1029E00007FA05F5ED430E954568C36BAF40FD430F
:1029F0000F9500250293036C04690393436C0B95B8
:102A00000493036804F668250C93119504F2646539
:102A1000436912950C9D0593C5F10805836A026A06
:102A200013950693D0E906360E9D019FB6F1807F7F
:102A300005EA070808EB0B1C3CBF13F8015B3602E4
:102A400034F81C7038BF45EA0222F50A7D439542EE
:102A50004FEA0B1E40F2C380C7F5006607EB56161F
:102A600024F81C60019F079E04F66C6C3E4312D054
:102A70003E460F9F37400C9E07FA06FE00294CD1B8
:102A8000069E013E059FBE5D139F3E414FF4C06709
:102A9000764407FB06CC019EBBF1060F06F101064A
:102AA000019647D80126BBF1030F94BFABEB0B0B8C
:102AB000ABF1030B0096009EB5F1807F38BF13F891
:102AC00001EB4FEA460638BF2D023CF8067038BFCE
:102AD0004EEA02224FEAD52E07FB0EFE96450096DF
:102AE0000CEB06081BD9C7F5006507EB5515AFB20F
:102AF0007546009EA8F80070FF2EDCD9059E009F49
:102B000077542E460131099D8D4240F236830D9D4A
:102B10009D4289D831E3089B5CE74E1EB2E7009ED8
:102B2000A7EB57170136A5EB0E05A2EB0E02BFB2BD
:102B30000096DEE7069FA1EB0A06514528BF002755
:102B4000BE46059FBBF10A0F3E4416F80E9034BFF7
:102B500003260626ABEB060B01264FF48078009681
:102B60004FEA4909009E09EA08070A9708EB060799
:102B70000A9EB5F1807F38BF13F801EB37440CEBA8
:102B8000470638BF2D023CF8177038BF4EEA0222C4
:102B90004FEAD52E07FB0EFE1096009E96454FEA93
:102BA000460600960ED9C7F5006507EB5515AFB27E
:102BB0000A9D28EA05087546109E3780009EFF2E64
:102BC000CED99BE7009EA7EB57170136DDF828808A
:102BD000A5EB0E05A2EB0E02BFB20096ECE7761B4A
:102BE000A7EB5717B6F1807F24F81C70A2EB050203
:102BF0000BF1C0093CBF13F8015B360234F81970C1
:102C000038BF45EA0222F50A7D4395424FEA490C56
:102C100040F20581C7F5006607EB561624F81960E7
:102C2000049E129F0A96039E0BF10C0B0496029EC3
:102C3000CDE902A6B5F1807F3CBF13F8016B2D02F0
:102C4000B7F800C038BF46EA0222EE0A0CFB06F6CF
:102C5000964240F2A3814FF0000ECCF500650CEBDC
:102C600055153D8007EB081704374FF008094FF062
:102C7000010CB6F1807F38BF13F8018B4FEA4C0C82
:102C800038BF360237F80C5038BF48EA02224FEA04
:102C9000D62805FB08F8904507EB0C0A40F2AE81F8
:102CA000C5F5006605EB5616B5B24646CC45AAF802
:102CB0000050DED3AEEB090E0EEB0C05BBF10B0F93
:102CC000009540F2B382032D94BF4FEAC51E4FF426
:102CD0009C6E4FF0010598BF0EF5587EB6F1807FCF
:102CE0004FEA450538BF13F801CB05EB0E0838BF96
:102CF000360234F8087038BF4CEA02224FEAD62C6C
:102D000007FB0CFC944540F28381C7F5006607EB96
:102D10005616B7B266463F2D24F80870DED9403DFE
:102D2000032D3FD905F0010C0D2D4FEA55074CF04E
:102D3000020C00F283814FF00108013FC5F1004E03
:102D40000CFA07FC0EF2AF2EE6444FEA4E050B9547
:102D5000C24665460A970B9FB6F1807F4FEA480846
:102D600038BF13F8019B07EB080E38BF360234F862
:102D70000EC038BF49EA02224FEAD6290CFB09F9F6
:102D8000914540F24E81CCF500660CEB56161FFAC9
:102D900086FC4E460A9F24F80EC0013F4FEA4A0ABD
:102DA0000A97D8D1079F05F1010A002F40F03C8215
:102DB000019FAF4240F25782BBF1130F34BF4FF077
:102DC000070B4FF00A0B009F099D0237B5EB010C72
:102DD000B84600F04882BC4528BFBC46069FA1EB20
:102DE0000A05514528BF00273D44019F67440197CC
:102DF000A8EB0C070B97069F7F1BBC45059F0F4454
:102E000000F21C82A5EB0108059D614405EB010C55
:102E100017F808E007F801EBBC45F9D173E6A7EB1A
:102E20005717761B521B24F81970079D019F3D43CD
:102E300003D1012015B0BDE8F08FB6F1807F38BF17
:102E400013F8015B0CF1180938BF360234F8097029
:102E500038BF45EA0222F50A7D43954250D9C7F5AD
:102E6000006607EB5616B5F1807F24F809600EF175
:102E7000F00E38BF13F8016BC64438BF2D0234F88A
:102E80001E7038BF46EA0222EE0A7E4396421FD9E0
:102E9000C7F5006507EB5515069F24F81E505145F0
:102EA00028BF0027BC46059FA1EB0A053D4415F845
:102EB0000C50BBF1060F7D54019D88BF4FF00B0BEA
:102EC00005F1010598BF4FF0090B013101951AE694
:102ED000AD1B921B029ECDF808A0B246A7EB571778
:102EE00024F81E70049EBBF1060F0A96039E8CBF49
:102EF0004FF00B0B4FF0080BCDE903A6119F99E69D
:102F0000761BA7EB5717B6F1807F24F80970A2EB68
:102F100005020CF1300E3CBF13F8015B360234F8A9
:102F20000E7038BF45EA0222F50A7D43954206D964
:102F3000C7F5006607EB561624F80E60D2E7761B3D
:102F4000A7EB5717B6F1807F24F80E70A2EB0502AD
:102F50000CF1480C3CBF13F8015B360234F80C70DE
:102F600038BF45EA0222F50A7D4395420AD9C7F5E2
:102F7000006607EB561624F80C60DDE9026702973D
:102F80000396AFE7A7EB571724F80C70049F521B6A
:102F9000751B029E0297039F0497F1E7AD1BACEBF4
:102FA0005C1CB5F1807FA7F800C0A2EB06023CBF15
:102FB00013F8016B2D02B7F802C038BF46EA0222AF
:102FC000EE0A0CFB06F696420BD9CCF500650CEB2D
:102FD000551507EB08187D804FF0080E08F582772D
:102FE00043E6ACEB5C1C921BA7F802C04FF0100E3E
:102FF0004FF4807907F50177AE1B38E6A5EB551540
:10300000A6EB0806A2EB0802ADB20CF1010C4DE6EE
:10301000A7EB5717A6EB0C06A2EB0C02BFB20135CB
:1030200079E6ACEB5C1CA6EB0906A2EB09021FFAE1
:103030008CFC08F1010845EA0A05ABE6053FB6F14C
:10304000807F3EBF13F8015B360245EA0222760814
:10305000921BD51705F1010E013F05EA06050EEB9F
:103060004C0C2A44EBD1B6F1807F3CBF13F8017BB6
:1030700036024FEA0C15B4F846C638BF47EA0222BA
:10308000F70A0CFB07F7974204F2446E40F2AC805B
:10309000CCF500660CEB56161FFA86FC0226B7F13B
:1030A000807FA4F846C63EF816A04FEA460C0EEB09
:1030B00046093EBF13F8016B3F0246EA0222FE0AB0
:1030C0000AFB06F6964240F29980CAF500680AEBC0
:1030D00058181FFA88F8A9F80080B6F1807F3CBF25
:1030E00013F8017B36023EF81CA038BF47EA0222E3
:1030F000F70A0AFB07F797424FEA4C080EEB4C0918
:1031000040F28780CAF5006C0AEB5C1C1FFA8CFC4D
:10311000B7F1807FA9F800C038BF13F8016B3EF803
:1031200018903CBF3F0246EA0222FE0A09FB06F65F
:1031300096424FEA480C87BFC9F5006809EB58185A
:10314000A9EB591845F008058FBF1FFA88F8921BA4
:103150001FFA88F8BE1B6F1C2EF80C807FF422AE7D
:10316000009CABF10C0B04F589740B94DDE902A40F
:103170000294049C03940A9C0494B6F1807F3CBFA3
:1031800013F8014B3602C0E906360B9B38BF44EA00
:1031900002228364019B0262C362029B4162C36399
:1031A000039BC0F838A00364049BC0F834B04364A8
:1031B000036B23B9C368019A934298BF03630899CC
:1031C000FFF7C7FB436A089A9342836C07D2826970
:1031D0000D998A4203D2B3F5897FFFF4E9ABB3F5C9
:1031E000897F3CD8002025E6ACEB5C1CD21B1FFA83
:1031F0008CFCF71B45F00105032650E7AAEB5A1893
:10320000921B1FFA88F80CF1010C45F00205BE1B59
:1032100061E7AAEB5A1CD21B1FFA8CFC08F10108CB
:1032200045F00405F71B73E7079FC2E5DDE902A53A
:103230000295049D03950A9D0495C4E5B9460CEBDF
:10324000070E059F17F80580069F09F8018B0135C9
:10325000AF4208BF0025CE45F3D1614453E44FF49B
:1032600089738364BEE74162E3E52DE9F047D0E965
:10327000075301278468D0F82C80A740D0F834C0C9
:10328000013F066907EA080707EB0C1EB5F1807FCE
:1032900036F81E900A4407D2914280F0DC8111F882
:1032A000014B2D0244EA0323EC0A09FB04F4A34278
:1032B00078D2056B06F66C6658EA050519D0D0E998
:1032C00000E70125BD40013D05EA080505FA0EF7B6
:1032D000456AD0F8148005B9856A013D18F8055093
:1032E000CEF1080E45FA0EF53D444FF4C06707FBDA
:1032F0000566BCF1060F20D801204000B4F1807FA4
:10330000375A07D2914280F0A68111F8015B24025E
:1033100045EA0323E50A7D43AB4229BF01302C4631
:10332000641B5B1BFF28E8D90120B4F1807F80F08B
:103330002281914228BF00201DE1876BD0F824C074
:103340004569BC45ACEB070E2CBF0027876A05EB2F
:103350000E0010F807C001204FF480774FEA4C0CA4
:1033600007EA0C0E3D187544B4F1807F36F81580DD
:1033700007D2914280F06F8111F8015B240245EA87
:103380000323E50A08FB05F54000AB422BBF0130E3
:103390002C46774627EA0E0724BF641B5B1BFF28D9
:1033A000DCD9C1E7281B0CF1C00CB0F1807FA3EB86
:1033B00004034FEA4C0436F81CC007D2914280F057
:1033C0004A8111F8015B000245EA0323C50A0CFBA0
:1033D00005F5AB4280F0A08002204FF0000E06F20F
:1033E000646CB5F1807FBCF8008007D2914280F018
:1033F000328111F8014B2D0244EA0323EC0A08FB49
:1034000004F4A34280F0EB800CEB071C00270CF1C6
:10341000040C4FF008094FF001084FEA4808B4F1D6
:10342000807F3CF808A007D2914280F0148111F807
:10343000015B240245EA0323E50A0AFB05F5AB42DA
:1034400029BF08F101082C46641B5B1BC845E4D367
:10345000BEF1030F3FF669AFA7EB09074744032FFF
:1034600088BF4FF49C674FF001059CBFFF0107F533
:1034700058776D0006EB050CB4F1807F3CF807E04F
:1034800007D2914280F0E78011F801CB24024CEA88
:1034900003234FEAD42C0EFB0CFC634529BF0135F6
:1034A0006446A4EB0C04A3EB0C033F2DE1D9403D93
:1034B000032D7FF63AAF0D2D4FEA550700F2B1808C
:1034C00005F0010C013F4CF0020CC5F100450CFA6F
:1034D00007FC05F2AF25654406EB45064FF0010CED
:1034E0004FEA4C0CB4F1807F36F80CE007D29142E1
:1034F00080F0B18011F8015B240245EA0323E50A5C
:103500000EFB05F5AB4231BF2C46641B5B1B0CF177
:10351000010C013FE4D108E7401B3444B0F1807F47
:10352000B4F818C0A3EB050307D2914280F0938052
:1035300011F8015B000245EA0323C50A0CFB05F5FF
:10354000AB4222D20EF1F00EB5F1807F36F81E406C
:1035500006D291427FD211F8010B2D0240EA0323DB
:10356000E80A6043834208D2B0F1807F71D2914271
:1035700034BF03200020BDE8F0872D1A1B1A03205A
:103580004FF00C0E06F6682C2BE7401BB0F1807F45
:10359000B4F830C0A3EB050306D291425BD211F818
:1035A000015B000245EA0323C50A0CFB05F5AB42AB
:1035B000E5D3401BB0F1807FB4F84840A3EB05038E
:1035C00006D2914247D211F8015B000245EA03237B
:1035D000C50A6543AB4224BF5B1B451BCFE72D1BD0
:1035E000B5F1807FBCF80280A3EB040306D29142C0
:1035F00031D211F8014B2D0244EA0323EC0A08FBF7
:1036000004F4A34205D20CEB071707F5827C0827C8
:10361000FFE61B1B10274FF480790CF5017C2C1B57
:10362000F9E6053FB4F1807F06D2914213D211F83A
:10363000015B240245EA032364081D1BED0F013DD5
:103640002540013FA3EB0503ECD1042706F24466B5
:1036500044E703208FE700208DE700230122C0E923
:103660000B33C0E9123243628365026570472DE96E
:10367000F74F9846002704469DF83030D8F8006090
:10368000C8F8007000938B461546FFF762F90D9B52
:103690001F70A36CB3F5897F09D1236A13B9012385
:1036A0000D9A1370206A003818BF01201EE0E36CE9
:1036B0008BB1A36D5EB3042B1BD994F85C30002B47
:1036C00040F0D780D4F85D20E36412BA22624FF054
:1036D000FF32A365E261636A5B4555D3A36CD3B93E
:1036E000236AF3B9042300200D9A137003B0BDE8D8
:1036F000F08F5A1CA26515F8012B234483F85C2037
:10370000D8F80030013E0133C8F80030D1E7042B6F
:10371000D3D80323E7E7009B002B40F0A7800223C8
:10372000E1E7009B002BFAD00123226D9AB1D4E986
:10373000002111444FF440728A400021206902F2B6
:1037400036728A4222D80122C4E91022C4E90E222C
:10375000002262632265A76D002F68D1132E1BD94A
:1037600043B3324629462046FFF77FFDF0B9324683
:10377000294604F15C0000F0D0FAA665D8F80030C4
:103780003344C8F80030C4E70023CEE74FF4806725
:1037900020F811700131D4E73246294620460193C2
:1037A000FFF763FD019B0028E1D00BB102285DD13A
:1037B0002A4602E0A6F114022A4459462046A56191
:1037C000FFF7F1F8002854D1A369D8F800205D1B59
:1037D0002A44C8F80020761B1D465AE715F8091040
:1037E0000137D15509F10109132F25D9A76504F136
:1037F0005C0A93BB524659462046C4F818A0FFF70E
:10380000D2F8B0BBA369A3EB0A039F4236D3FA1ADE
:10381000914533D3D8F8001009EB0302D31B1944A8
:103820003744C8F800102B44BE1AA065D4E74FF007
:10383000000904F15B02D7E7B145CFD104F15C0A7E
:103840003A4651462046A7650193FFF70EFD019BBE
:1038500088B9D8F800304B4493E73A4651462046A1
:10386000FFF703FD0028F4D00228C3D002230D9AED
:10387000137001203AE7002BBCD0F5E70B2035E7A9
:103880002DE9F04F89B0DDF848809A469DF84C301C
:1038900004460493D8F800308B4602930023164662
:1038A00017681360C8F80030029B149A0793D4E994
:1038B00009318B4204BF00236362656A20464B1BBB
:1038C000BB4232BF0023049B7919CDE90032524636
:1038D00007ABFFF7CCFE079A029B61699B1A029324
:1038E000D8F8003003901344C8F80030636A584693
:1038F000A3EB0509294492444A46059300F00DFACA
:10390000059BCB44ED1A33682F444B443360039B33
:1039100023B9B9F1000F01D0002FC5D1039809B028
:10392000BDE8F08F10B504464B68084621699847FA
:103930000023236110BD70B54FF440751646D1E9E0
:10394000003213449D400369044605F2367513B1F5
:10395000436DAB420ED031462046FFF7E3FF3046C1
:103960003368690098472061B0FA80F040096565C6
:10397000400070BD0020FCE738B504460D46FFF757
:10398000D1FF6B682846616998470023636138BDA1
:10399000042A01D804207047D1F80130B3F5805FC4
:1039A00038BF4FF48053C3600A78E02AF2D8092365
:1039B000B2FBF3F303EBC301521AD2B20260052249
:1039C000B3FBF2F2826002EB82029B1ADBB243602D
:1039D0000020704770B5D1E90152AA4205D290F893
:1039E00040302B449B1A402B10D9002012E00A686B
:1039F00090F84040D65C90F841200133224402F018
:103A00003F02013486548B6080F840408B689D42B1
:103A1000EDD8012070BD2DE9F84390F840C017465D
:103A20009E46D1E90123089DD21A6244954204467C
:103A30000E469DF824909DF828800AD9FFF7CAFF0A
:103A4000002867D1142341F2020084F84630BDE813
:103A5000F883754555D8002394F840200AB19D425B
:103A600035D1D6E90121914201D29D4241D89D42F2
:103A70004DD129463846D4F88820FEF7B1F9C4F86C
:103A80008800B9F1000F04D02A463946E06C00F0F6
:103A900070F894F84330B8F1000F06D08BB12B4684
:103AA0003A463946A06C00F053F894F8433043B1DD
:103AB000E36DA26D2B449342E36524BF002384F899
:103AC0004330636D41F203002B446365BFE794F814
:103AD0004120A25CFA5494F841200133013202F0F3
:103AE0003F0284F8412094F84020013A84F84020B5
:103AF000B2E73268525CFA54B26801330132B26004
:103B0000AFE741F20100142384F846309FE741F209
:103B10000200F8E700209AE749BA89B24840C0F3AA
:103B20000312424013B283EA0233580100F4FF50FB
:103B30009BB25840704738B5044645181046AC4211
:103B400000D138BD014614F8010BFFF7E5FFF6E799
:103B50001FB50C46194600F14803CDE90142009318
:103B600000F1440200F158032030FEF707FD04B0D5
:103B700010BD00F00CB8014600F016B86822002114
:103B800000F0C3B803460020C3E90000704707B542
:103B900000F128030190009300F108030020FEF7D4
:103BA00033FA03B05DF804FB02460B4600F128012E
:103BB0000830FEF787BA70B5054614460E4600F089
:103BC000FBF82B685C4034405C402C60BDE87040E2
:103BD00000F0EDB8036BDA0702D503695B06F9D490
:103BE000704710B5FFF7F6FF0122044600F50053B9
:103BF0001A63236B9B07FCD40B794A881B0243EAA8
:103C000082438A7A13434A7843EA8213CA7A43EAA0
:103C1000C2130A7B43EA42134A7B43EA02138A7BBC
:103C200043EAC203CA7B43EAC2238A7943EA0243D6
:103C3000CA7943EA42430122636004F580531A6360
:103C40000A780AB90223E360002363624B79087A99
:103C50001B01497A43EA80030B43A3600AB10123A5
:103C6000E36010BD436813B9416070475B685A68F0
:103C7000012AFBD1596070472422002100F045B889
:103C800070B515460E4624220021044600F03DF88A
:103C900025F04003802B02D0B5F5807F08D1204667
:103CA000314640F8045BEA0800F037F8002070BDA8
:103CB0006FF01F00FBE70139024410B5904201D1BB
:103CC000002005E0037811F8014FA34201D0181B32
:103CD00010BD0130F2E7884210B501EB020402D9B1
:103CE0008442234607D8431EA14208D011F8012B75
:103CF00003F8012FF8E7024401468A4200D110BDC3
:103D000013F8014D02F8014DF7E7024403469342D0
:103D100000D1704703F8011BF9E70A44431E9142A2
:103D200000D1704710B511F8014B914203F8014FD3
:103D3000F9D110BD4FF48062024B9A66BFF34F8FEA
:103D400000207047009000404FF48062014B00203B
:103D50009A66704700A0004008B5C0B14FF4806279
:103D60000C4B9A66BFF34F8F00F061F84FF0984309
:103D70005A6CD202FCD54FF48062586D064B10F499
:103D800070209A6604D0BDE8084000F019B82120E0
:103D900008BD00BF0090004000A000404FF09843D5
:103DA0005A6CD202FCD5586D00F47020704710B9DF
:103DB00062B6BFF36F8F7047EFF3108072B6704733
:103DC000B0F5802F22D010D8B0F5003F20D007D812
:103DD00018B3B0F5803F08BF482018BF01207047D6
:103DE000B0F5403F08BF2C20F7E7B0F5302F11D0D9
:103DF00007D8B0F5E02F0FD0B0F5202F08BF102066
:103E0000EBE7B0F57F0F08BF0620E6E74B207047D1
:103E10002A2070471120704721207047036A042B25
:103E20009FBF00EB83020133D16003627047036AD6
:103E3000052B14D84FF09842116CC902FCD50433FD
:103E40009B0013650168103B11604168116050F8D8
:103E5000081F11604FF098420344984200D1704708
:103E600050F8041F1160F8E7836813B98160704748
:103E70005B685A68012AFBD1596070470000000056
:103E8000F8B500BFF8BC08BC9E467047F8B500BF47
:103E9000F8BC08BC9E46704700000000BF27000821
:103EA000000000006D0700080D0A4765636B6F2076
:103EB000426F6F746C6F616465722076582E595929
:103EC0002E5A5A0D0A312E2075706C6F616420676E
:103ED000626C0D0A322E2072756E0D0A332E20652B
:103EE000626C20696E666F0D0A424C203E20000D08
:103EF0000A4661696C656420746F20626F6F740D8F
:103F00000A000D0A66696C65206572726F72203056
:103F100078000D0A626C6F636B206572726F72209D
:103F20003078000D0A53657269616C2075706C6F92
:103F300061642061626F727465640D0A000D0A533A
:103F4000657269616C2075706C6F616420636F6D60
:103F5000706C6574650D0A000D0A626567696E20F4
:103F600075706C6F61640D0A00B814B6F1E0CFF3A0
:103F7000ADB7DD25C9FA79B71300000013B779FA98
:103F8000C925DDB7ADF3CFE0F1B614B801020000EA
:103F900000000000AC4100004000000001000103EF
:103FA0000000000000000000000000000000000011
:103FB0000000000000000000000000000000000001
:103FC00000000000000000000000000007B0CD5E0F
:103FD0000200000001000103B04100000060000881
:103FE00000000808F10410003F28000843280008DA
:103FF000010800086328000893280008000000005A
:10400000C328000839290008000000003D0A000804
:10401000350A00080400000700000D1013001A20E4
:104020002630384050000000FD0707FDB11200089F
:10403000E1120008A113000885130008EB17A6037E
:104040000201000003000000FA0606FA0F04000057
:1040500003000000F40A0AF4050500000100000056
:10406000EB17A65E0A06000001000000F50909F53D
:104070000307000001000000F60808F6060800002B
:1040800000000000FE0101FE080800000000000022
:10409000FD0303FD0C08000000000000FD0707FD04
:1040A0001308000000000000F90707F910090000DC
:1040B00002000000F30B0BF3110A000003000000E4
:1040C000F70A0AF7120B000003000000FC0404FCCE
:1040D0000D0C000003000000800000000000000044
:1040E00000000000000000000000000000000000D0
:1040F00000000000000000000000000000000000C0
:1041000000000000000000000000000000000000AF
:1041100000000000000000006A09E667BB67AE858A
:104120003C6EF372A54FF53A510E527F9B05688C99
:104130001F83D9AB5BE0CD194441000834600020F7
:104140001A000000F00F100300000000325E002093
:10415000130000000900000000010000020200003E
:1041600013000000F00F100300000000325F002079
:10417000130000000900000000020000010100001F
:10418000D3FFFFFFF07F1030B25D00200000000081
:104190000000000000C00540290000008511000853
:0C41A000BD11000815020008ED01000828
:1060000008040020E7C40008F3A80008F3A800086B
:10601000F9660008F3A80008F3A80008F3A8000830
:10602000F3A80008F3A80008F3A800089D010308DE
:10603000F3A800083C330308410103087721030853
:1060400021030108F3A80008F3A80008F3A800083A
:10605000F3A80008F3A80008F3A80008F3A80008B4
:10606000F3A800089D400208F3A80008F3A8000860
:10607000F3A80008F3A80008F3A80008F3A8000894
:10608000F3A80008F3A8000825900008F3A800086A
:10609000F3A80008F3A800087DFA0108F3A8000897
:1060A000F3A80008F3A8000875A9000851A9000882
:1060B000F3A80008F3A80008EDCE0208A9D9020849
:1060C000A1F602089DF602085DD10208B7F60208A3
:1060D000A5F6020879D90208A9F602080DDA020825
:1060E00045DA0208F3A80008F3A80008F3A800089E
:1060F000F3A800088D770008F3A80008F3A80008AB
:10610000F3A80008F3A80008F3A80008F3A8000803
:10611000F3A80008F3A80008993E0208F3A80008B5
:10612000F3A80008F3A80008F3A80008F3A80008E3
:10613000F3A80008F3A80008F3A80008F3A80008D3
:10614000F3A80008F3A80008F3A80008E57B0008FE
:10615000F3A80008F3A80008F3A8000831B7020864
:10616000F3A80008F3A8000891F6020897F60208C1
:10618000F0B5114A114C124E00F00105E3695F07AA
:1061900013D40DB9334213D103EA00078F4207D15C
:1061A0000B4A1A40002A0CBF00206FF00100F0BD1E
:1061B000013AEBD16FF00200F9E74FF0FF30F6E75C
:1061C0006FF00100F3E700BF8096980000000350D5
:1061D000020001002DE9F84F16464FF48032274B9C
:1061E000274D9A66EB69074603EA020841F67133C8
:1061F0000122EB63234BDFF89490DA600EB930464E
:1062000029E007F5005404EA09046F61E41BEB6917
:10621000B44228BF34465B072DD48B465BF8043B61
:1062200001EB040AAB61D3450ED1042300212120E8
:106230002B61FFF7A5FF70B92120FFF7A1FF50B92F
:1062400059462744361BD9E708210846FFF798FF2F
:1062500068B104232B6101220B4BDA60B8F1000F07
:1062600003D00022A3F50053DA63BDE8F88F5BF892
:10627000043BAB61D7E74FF0FF30ECE700900050F4
:1062800000000350001003500020035000E0FFFF07
:1062900000000000000000000000000000000000FE
:1062A00022000000C17E010819000000A9BA0108FF
:1062B0001500000009C801081000000085C701088A
:1062C00012000000699E010813000000D19501082A
:1062D00011000000B9A301080E000000DDB901089B
:1062E0000D00000041C9010805000000D1AF010800
:1062F0000400000061B001080F000000D97C010813
:106300001A00000099D901080B000000E58301087C
:106310000A000000E1B60108090000009DA701087D
:106320000800000069D7010803000000A5CB0108A0
:1063300002000000D9830108060000007DF2010878
:106340000700000045E601080100000079F201089D
:106350002300000069F201082800000053F2010840
:106360002700000051F2010826000000D583010833
:106370002000000045C701081F00000021CB0108D4
:10638000160000007DB30108280000005FF201083C
:106390002700000055F2010826000000D7830108FD
:1063A0002A000000F77C010802000000DF830108DA
:1063B00029000000F57C010823000000798801080D
:1063C000010000007BF2010803000000F37C0108DB
:1063D00000000000F17C0108D8000000ADC30008F7
:1063E000D700000055C30008DF000000C9D3000833
:1063F000DE000000A5D30008BF000000F1A80008DF
:10640000A8000000EFA8000849000000EDA800085F
:106410000A000000EBA800086B000000E9C20008B9
:106420006A00000005E200086900000025D30008AA
:10643000D6000000A9E100083C00000069E800085F
:1064400027000000D1BA00081C000000A5C2000807
:1064500098000000FDD20008650000009FC20008FF
:10646000D400000099C20008D30000004DB100081C
:10647000D200000071C20008BD000000E9D200088F
:106480000B00000089E2000808000000A1BA000823
:106490000600000059B30008600000007DD200082B
:1064A0000500000025E60008E800000045E80008B7
:1064B000E70000006DD20008DD00000065BA0008AA
:1064C000DC000000E9E70008DB00000061C2000812
:1064D000DA00000055E70008C00000001BC20008F9
:1064E0000200000099E60008A50000000BC20008A9
:1064F000A600000041E10008BE000000F5D1000840
:10650000A4000000C5E00008A000000065BD000870
:10651000A20000008DD100080300000091BF000818
:106520000900000009B300081500000055BF00086D
:106530009300000011E00008920000005DDF0008F9
:106540009000000029BA00088000000011BF000878
:106550006300000055D1000862000000C9DE000899
:106560006100000045DE000856000000D9B20008B6
:1065700054000000C1D00008570000004DD00008B2
:1065800055000000CDCF00085800000029CF0008BA
:106590005100000095CE00084700000025CE0008FD
:1065A0004F0000008DCD00084600000011CD00080E
:1065B0005F000000D9CC00085E000000A1CC0008FC
:1065C0005000000045DD00084D000000C5B900087E
:1065D0003F00000069B900084B00000029B900081D
:1065E0004A000000FDBB00084200000075B800082A
:1065F00041000000D5BE000868000000F1DC000882
:106600004800000045DC0008530000004DCC0008A5
:10661000280000004FBE00082A0000006BDA0008C6
:106620002C00000031DA000829000000E9A8000869
:106630003D0000002DBE00082E000000F3BD000844
:1066400024000000EDCB00082300000007DA00085A
:1066500022000000CDCB000821000000D5D90008A1
:106660002000000091B200086C00000011BB00087F
:10667000AC00000001CB0008AB000000A5C9000879
:10668000A9000000FDC800081600000029B8000895
:106690001400000049C8000813000000BDC700082E
:1066A0001200000049C7000810000000DDDB0008F0
:1066B0003A00000035B200083900000015C7000894
:1066C0003B00000001BB000838000000ADB100082D
:1066D00037000000D9B70008D9000000ADC6000897
:0866E0000700000095B300085B
:1066F000013800D0FCE77047BFF34F8F0549064BC8
:10670000CA6802F4E0621343CB60BFF34F8F00BF4F
:10671000FDE700BF00ED00E00400FA056FF01B008C
:1067200070477047064B1B684BB11B78032B01BFAA
:10673000044AD2F8243143F00043C2F824317047B0
:1067400094130020000003507047704738B5174B72
:106750000546D3F820010C4600F0070006281FD894
:10676000DFE800F0040A0E2112161A00012305B119
:10677000286004B1236038BD0D4B18680523F6E787
:106780000C4B18680323F2E729F0E2FB0723EEE73E
:10679000074B18680623EAE7064B18680423E6E768
:1067A00000231846E3E702230348E0E70080005097
:1067B0007494002078940020002D310108B538B180
:1067C0002BF004FE002814BF6FF01D00002008BD50
:1067D0006FF01B00FBE7034B4FF48071D3F8040507
:1067E0002BF02EBADC5400200CF012B92DE9F34145
:1067F000264DD5F80A45B5F8087524BA631E03334B
:106800000AD905F20A501BF0F9FE0121044605F2EF
:106810000A5012F047FD01271D4EA5F80875C5F86E
:106820001845A5F816750CF075F973684FF48002D9
:1068300093F800800023A5F82075C5F82445CDE91C
:106840000023F06829F045F895F85035012B0BD15D
:10685000FF21F06829F0CDFA55222146F06802B0F8
:10686000BDE8F04129F0D3BA3946F06829F0C1FA01
:1068700073681B78012BEFD042463946204619F049
:106880005DFDF568024621462846E8E7DC54002015
:1068900004950020AAE7002307B50193104B114A85
:1068A0005B68FE28C3F308030CBF4FF480414FF42C
:1068B0000051D2F8040523B903B05DF804EB2BF0C6
:1068C000BFB901AA2BF004FB019B2BB14FF0E023D1
:1068D0004FF08052C3F8042D03B05DF804FB00BFF5
:1068E00000ED00E0DC540020002307B501380193DF
:1068F00007280CD8DFE800F0190B040B160B0B1C53
:10690000012101AA0C4BD3F804052BF0E1FA019BFD
:106910002BB14FF0E0234FF08052C3F8042D03B0A9
:106920005DF804FB402101AAECE7042101AAE9E794
:106930004FF4004101AAE5E7DC540020002307B52D
:1069400002380193052818D8DFE800F01C171E173D
:10695000031520210D4B01AAD3F804052BF0B8FA3A
:10696000019B2BB14FF0E0234FF08052C3F8042D70
:1069700003B05DF804FB1021ECE7054B054A5A62B1
:1069800019F046FF0221E5E70821E3E7DC54002087
:106990000000085001001D0308B5024A024B5A626C
:1069A00019F036FF02001D0300000850074B93F852
:1069B000543513F0300F07D1B0F57A6F04D80122A7
:1069C000022110461EF032BB704700BFDC5400208D
:1069D0000CF06EB808B500200DF09CFA044B4FF493
:1069E0000071D3F80405BDE808402BF029B900BFB9
:1069F000DC54002001200DF08DBA02200DF08ABA7F
:106A000008B51AF0F3F91BF065FDBDE80840022057
:106A10000DF080BA37B5294CE06828F0C9FFC307EC
:106A2000054602D5E06828F0E2FF15F4881F42D041
:106A30004FF0FF33CDE90033214B93F8553503F088
:106A4000FF0543B100201AF08AF80022E0681146E1
:106A500029F0B0F90125D4E9021029F0B1F9237821
:106A60000A3B012B08D80022E068114628F058FEA6
:106A70006946E06827F0B4FA00220121E06828F0B6
:106A80004FFE01A9E06827F0ABFA00980D4B1860A3
:106A9000019959601AF0D0F900201AF060F855B148
:106AA000636818781BF0D3FC0122E068114629F0D6
:106AB00081F91DF067FC03B030BD00BF04950020D4
:106AC000DC5400200000085037B51F4DD5F858059C
:106AD00058B10378DA060AD500217F2381731A465C
:106AE00001900093084613F0FFFF03B030BD4489C6
:106AF00063051DD5837BDBB1013B83731AF082F9FB
:106B0000A0B14FF47A72114B5B689B88B3FBF2F330
:106B100003339BB2B5F85C150D48C1F1C801C91A21
:106B200089B203B0BDE830401CF0ACB90323F1E7F3
:106B300024F48C63438100210DF0D2FAD5F8583546
:106B400024F480645C81D0E7DC54002004950020AC
:106B50003C5A00202DE9F04F664E8FB014220021E0
:106B600003A828F0A1F80221F06803AA28F05BFF2F
:106B70000446002846D0604D05F2A157D5F84435AB
:106B800013B19A6801329A601822002108A8BDF852
:106B90000EA028F089F82146F06808AA28F045FFE1
:106BA000F8B995F8A0259DF83310B36802EB4200C0
:106BB000C2EB801007F800A00B44197E9146032910
:106BC00007EB000821D80131C9B203291FD00429DD
:106BD0000CBFBE2140215FFA8AF38B4219D90023F2
:106BE0003B544FF000082146F06828F022FF0221B4
:106BF000F06803AA28F017FF0446B8F1000F72D11D
:106C00000028BBD10FB0BDE8F08F4021E3E7AA21F7
:106C1000E1E70132D2B2032A28BF002285F8A0257D
:106C200000220092214608F10102F06828F013FFCB
:106C30009DF83330FE2B04BF337C8DF8333019F0D0
:106C4000E0FF9DF833B05845CBD9B3682B4A5B447D
:106C50001B7E5846032B8EBF00230133DBB202F8A4
:106C6000393002EBC90A1AF061F873688AF801003A
:106C70001B7863B1012B0AD0022B32D1BBF1020F7A
:106C800094BF4FF0000B4FF0010B4FEA4B038AF813
:106C900002309DF82E30D5F824258AF80330089B61
:106CA000CAF80430D8F801301BBA934211D0D5F895
:106CB000443513B15A6901325A610338C3B2012B0A
:106CC00007D8182303FB0050D0F804380133C0F86C
:106CD000043841465046D5F84C3598474FF00108E6
:106CE00081E70223D3E700288CD00120D5F8343582
:106CF000984787E704950020DC540020BA5C002008
:106D0000034B5A6812B19A6A002AFAD1704700BF41
:106D100000400650044BD3F88420D206FBD4D3F8AD
:106D20008400C0F38110704700400050430905D033
:106D3000012B0CD0022B084B18BF002300F01F00C2
:106D400039B103F58053012282401A607047034B2A
:106D5000F4E703F50053F6E76880005064800050C4
:106D6000014B5874704700BF04950020014B93F904
:106D7000110070470495002038B5164B0546D3F82E
:106D800028310C4603F00703013B052B04D8DFE84C
:106D900003F00A161E120E1A0023184605B12860C9
:106DA00004B1236038BD0C4B18680523F6E70A4B85
:106DB00018680623F2E729F0CBF80723EEE7074B24
:106DC00018680323EAE7054B18680423E6E7022363
:106DD0000348E3E70080005074940020789400207A
:106DE000002D31010E4BD3F8403103F00303022B89
:106DF0000DD0032B0FD0012B0BBF0A2301234FF41F
:106E00000042002200B1026001B10B60704709230B
:106E10004FF40042F6E70B234FF47A72F2E700BF1B
:106E2000008000504FF48032104B10B59A66A3F5E5
:106E300080531B6FC3F3033303FB00000C4BDC696F
:106E4000144041F67132DA635A6822F4401259B99B
:106E50000849884294BF00200120000502435A607F
:106E60000CB10022DA6310BD0349F2E70090005034
:106E700000000350005A6202002D310110B50C4C85
:106E800002201FF0A1F9236F0A4AC3F380230133C4
:106E90000021094882F82838FFF7C4FF236F43F424
:106EA000806323674FF4803304F58054236710BD5B
:106EB00000800050DC54002000B4C404024A536B2C
:106EC0000342FCD1704700BF004009504FF0004220
:106ED0000F4B70B55D6E03F580535A664AF6CD339D
:106EE00004460C4980204E6C0B64FFF7E7FF0B6AE9
:106EF00023F4F85343EA04230B62F30744BF064B21
:106F00000B64002DA2BF4FF00042044B5A6670BDC7
:106F100000800050004009503254FFFF00A0005094
:106F20000123F0B5C4B2214DA340D1F800C08F7A3F
:106F3000CC7A0E7B2B65850005F1A04505F58825EB
:106F4000C5F804C030256843240591F80DC044EA13
:106F5000074400F1A04000F5802044EA465422F0A6
:106F60000302C0F860C0C4650267EFF3118485F3C3
:106F700011880F4A087A536500B11364487A00B14A
:106F8000936308798A7942EA0042084882614D7920
:106F9000CA79074942EA05428A61064A4363936413
:106FA00084F31188BFF36F8FF0BD00BF0020045041
:106FB00000100450000004500123C0B28340EFF3DE
:106FC0001181302282F31188074AD06A184209D110
:106FD000526B93430CBF0120002081F31188BFF353
:106FE0006F8F70470020F8E700000450114321F034
:106FF000F8014904034B490C41F44021063043F8A1
:107000002010704700800350021E30B54FF0000082
:107010000CBF0C25042547F60774084952B9831D97
:1070200051F82330234023B101308542F6D14FF08F
:10703000FF3030BD00F11203F2E700BF00800350C3
:107040003AB122F0030202F1A04202F5603209B91E
:10705000106070470002FBE74FF48032064B5A661F
:1070600003F5E6239B69C3F38512827003F03F02A8
:107070001B0B427003707047009000500020704757
:1070800047F6FF739A42F0B569D0092969D8364BA3
:107090005B5C032B65D8354DDE0005EBC30415F8AA
:1070A0003330A178012B13D10025E078401A8542B6
:1070B00002D30844C0B2F0BD431B6668A0EB530383
:1070C00036F913609642D4BF1D4603F1FF30EEE758
:1070D00060680028EFD0B0F90040A24204DCB0F9AB
:1070E00002409442B8BF144683883544FF2B19BF31
:1070F000C8232827B0F90630B0F90870A3EB0403C1
:107100000CBF0122002293FBF7F36E7813441BB2ED
:107110009E4201DD002B01DA731E1BB24FF47A7C14
:1071200000EBC305EA88AD685F1C14FB02521D46E4
:1071300022EAE2723BB25C329E42B2FBFCF204DD18
:1071400000EBC307BF88BA42EAD900EBC5039888B1
:10715000904228BF1046884238BF0846AAE7FF2061
:10716000A9E70020A7E700BF98360308441B0020CA
:107170000929F0B555D82C4B585C032851D82B4C15
:1071800004EBC00114F830004B6801280FD1C87817
:107190008C78904294BFC4EB0001C4EB0201001B49
:1071A000CAB28242C8BF002233F91200F0BD002BE0
:1071B00037D08878904202D3B3F90200F6E7CC7852
:1071C000B3F900009442F1D94C789988013CA1F1BF
:1071D000FF06714203F10405E4B2714103F10C07AB
:1071E000CEB2B44216D805EBC1014FF47A756A43AA
:1071F000B1F902404968521A04EBD47102EB610202
:1072000092FBF4F29042D1DBB3F902009042CDDC64
:1072100010B2CBE737F831C04E1C9445E3D331466A
:10722000DEE70348C2E700BF98360308441B00208E
:107230000080FFFF0028ACBF00F16040064B4FEA22
:107240000111C9B2ABBF00F5614000F00F0080F83A
:1072500000131954704700BF14ED00E02DE9F74FFB
:10726000002800F0EE807849D1F84048D1F844E891
:10727000EFF3118B302383F3118810F8086C30F88A
:1072800006CCF30702D5BCF1000F07D18BF31188B0
:10729000BFF36F8F012003B0BDE8F08FD1F8343811
:1072A000D1F83C98A3EBCC0330F8048C0093C1F8E0
:1072B000343809F10103A0F108050CF10102C1F80D
:1072C0003C38B8F1000F3BD0A5EBC803DF88B3F81A
:1072D00002A001971F7806F00206FF0725D42EBBF7
:1072E000019EA6EB0A06012E2AD1009E0CF1020295
:1072F000A6F108075244C1F83C98C1F8347830F838
:10730000028CB8F1000F1DD110F8085C20F8068C33
:1073100068F3000500F8085C013A5A801A7868F3AF
:1073200000021A700022DA8041E04EB110F8086CB9
:1073300042446FF3410600F8086C00269E80DEE7A9
:107340002B46DCE7D1F82C68D1F8307805EBC8097A
:107350003744B9450ED310F8085C013A6FF30005C5
:1073600000F8085C002520F8065C5A801A7865F35E
:107370000002D6E715F838504E4615F0010532D018
:1073800010F8085C013A6FF3000500F8085C00256E
:1073900092B220F8065C5A801A7865F300021A70DF
:1073A000C3F107023244C2F3CF02DA80B280002C6C
:1073B00045D09C4243D86288002A08BF1C46BEF1D3
:1073C000000F06D09E4504D3BEF80220002A18BF45
:1073D0007346C1F84048C1F844388BF31188BFF3B5
:1073E0006F8F002057E7A8EB0C08B8F1010FC7D149
:1073F000B9F80270A9F802501744B9F80620E2B1B2
:1074000009EBC2060025D1F83C28013AC1F83C2816
:10741000D1F83428083AC1F8342810F8082C20F89C
:10742000065C6FF3000200F8082C1A785F8065F3A1
:1074300000021A70002EB3D174E71646E2E71C462C
:10744000BDE7222027E700BFDC540020FEE7002331
:1074500007B5084601A901931AF076FA019803B01E
:107460005DF804FB0846F9E6002313B501936AB101
:1074700061B102FB01F401A920461AF065FA014648
:1074800020B9019810B1224627F00EFC019802B0F5
:1074900010BD002303604360704730B5D0E9054557
:1074A00053B394420FD0E2B9046974B9036983B34A
:1074B000002918BF0D462B78DB0714D5AB8843B3E2
:1074C000A5EBC305F7E704698CB141B904682378DB
:1074D000DB070CD5E3884BB104EBC304F7E70C469C
:1074E000F5E79542E2D0C0E9054530BD1C4695421E
:1074F000DCD0002ADAD0F6E7944208D08C4228BFCC
:107500000C46954207D08D4238BF0D46EBE70C463E
:10751000F7E71D46E7E70D46E5E700232DE9F347CA
:107520008B4E0193D6F830380C469A42104604D25E
:1075300039B912B101A91AF007FA019802B0BDE8F1
:10754000F0871AB90846FFF789FEF6E7EFF31187CF
:10755000302383F3118834F8063C07304FEAC30820
:1075600020F00705A845A1F108017ED234F8020CED
:10757000002868D0C21A012A65D101EBC00211F8B7
:107580003000C0075FD4B2F802C0A8EB050919EBC0
:10759000CC0958D4B9F11F0F38DDC5F3CF036119F9
:1075A00024F8063C0133084624F8023CFFF771FF3B
:1075B00034F8020C4FEAD9038880D0884B8010B38E
:1075C000B2F802C0A0EB0C0C1CFA83F39BB202EBE6
:1075D000C000CB80838000235E48FFF75EFF10462B
:1075E000FFF757FFD6F83438D6F838282B44A3EBEA
:1075F000080393420194C6F8343833D887F31188CE
:10760000BFF36F8F99E70023CB80E4E7D6F83C08FF
:1076100001330138C6F83C08D088634424F8063C9E
:1076200068B1B2F802C0A0EB0C0C1CFA83F39BB259
:1076300002EBC00024F8023C83800123CCE7002346
:1076400024F8023CF9E7284601A91AF07DF9002840
:10765000D4D142462146019828F03AFA2046FFF755
:10766000FDFDCBE7C6F83838C8E76ED934F8020C10
:10767000A8EB050900F1FF3AAAEB030A002839D06C
:1076800011F8303001EBC002DB0734D4BAF1000F3F
:1076900031D1C5F3CF03611924F8063C0133084604
:1076A00024F8023CFFF7F5FE508800EBD90334F8CC
:1076B000020C4B808880D088D0B1B2F802C0A0EB19
:1076C0000C0C1CFA83F39BB202EBC000CB808380CE
:1076D00020480023FFF7E1FE1046FFF7DAFED6F858
:1076E000343801941D44A5EB0805C6F8345885E7E5
:1076F000C880EDE70246B9F1270FF0D9C5F3CF03F3
:10770000611924F8063C0133084624F8023CFFF7CF
:10771000C0FE34F8020C09F1FF33DB084B8088808F
:107720008AB10AF1010A1AFA83F39BB2CB809380E3
:10773000D6F83C3807480133C6F83C3800231A46CF
:10774000FFF7ABFECBE7CA80F2E7019456E700BF34
:10775000DC540020085D0020BFF35F8F074B5A6A9E
:1077600022F480325A62D3F8942022F00102C3F846
:107770009420BFF34F8FBFF36F8F704700ED00E091
:107780000122014B1A707047DC540020364B70B553
:107790001D6F15F001013CD0012203F50053334C5D
:1077A0001A6794F8683813B328F0DCFDD4F86C3805
:1077B000C01AC4F87008D4F870380BB1D4F8701837
:1077C000C4F870184FF41671D4F87038284BD4F8F8
:1077D00070281B684B43274903F5742303F23F23AA
:1077E000B3FBF1F3934220D2002384F8683894F875
:1077F000753873B194F876385BB128F057FD0023E3
:1078000084F8763884F87738012384F8783884F857
:10781000793815F000521CBF174B1A67002DBEBFF8
:107820004FF00042144B1A6770BD94F87438134837
:10783000D4F8701850F82320114E511A3268521A99
:10784000D4F87018326040F823100A210932B2FBD4
:10785000F1F20C480133DBB20260B3FBF1F201FB41
:10786000123384F87438BFE70040005ADC5400201B
:107870005017002040420F000060005A5C170020A3
:10788000581700205417002013B5044628F06AFD4D
:107890000D4AD2F88038D2F888189C4228BF1C467E
:1078A000D2F88438421A63439A4238BFC9184FF05D
:1078B000000334BF091A0121CDE90033034A04480B
:1078C00028F02CFD02B010BDDC540020097D00081A
:1078D000685D002010B5044628F026FB0C4BA0F58F
:1078E0007A729A4212D84FF47A73B0FBF3F05C4389
:1078F000084BB3FBF0F3B4FBF3F0022806D9BDE864
:1079000010400323B0FBF3F0FEF7F2BE10BD00BF42
:10791000FFC99A3B40420F0013460A4601460248FF
:10792000006819F009B800BF0814002013460A4681
:1079300001460248006819F0A5B800BF08140020ED
