:020000040800F2
:10600000080400203FC40008B7A80008B7A800088B
:10601000F9660008B7A80008B7A80008B7A80008E4
:10602000B7A80008B7A80008B7A8000871080308B7
:10603000B7A80008E84A0308150803084B28030816
:1060400051090108B7A80008B7A80008B7A80008B8
:10605000B7A80008B7A80008B7A80008B7A80008A4
:10606000B7A800086D470208B7A80008B7A800083D
:10607000B7A80008B7A80008B7A80008B7A8000884
:10608000B7A80008B7A80008E98F0008B7A800085B
:10609000B7A80008B7A8000821010208B7A800089F
:1060A000B7A80008B7A8000839A9000815A9000872
:1060B000B7A80008B7A80008BDD5020879E0020813
:1060C00071FD02086DFD02082DD8020887FD020847
:1060D00075FD020849E0020879FD0208DDE00208CA
:1060E00015E10208B7A80008B7A80008B7A800087B
:1060F000B7A80008C9770008B7A80008B7A8000823
:10610000B7A80008B7A80008B7A80008B7A80008F3
:10611000B7A80008B7A8000869450208B7A8000892
:10612000B7A80008B7A80008B7A80008B7A80008D3
:10613000B7A80008B7A80008B7A80008B7A80008C3
:10614000B7A80008B7A80008B7A80008217C000875
:10615000B7A80008B7A80008B7A8000801BE020841
:10616000B7A80008B7A8000861FD020867FD02088B
:10618000F0B5114A114C124E00F00105E3695F07AA
:1061900013D40DB9334213D103EA00078F4207D15C
:1061A0000B4A1A40002A0CBF00206FF00100F0BD1E
:1061B000013AEBD16FF00200F9E74FF0FF30F6E75C
:1061C0006FF00100F3E700BF8096980000000350D5
:1061D000020001002DE9F84F16464FF48032274B9C
:1061E000274D9A66EB69074603EA020841F67133C8
:1061F0000122EB63234BDFF89490DA600EB930464E
:1062000029E007F5005404EA09046F61E41BEB6917
:10621000B44228BF34465B072DD48B465BF8043B61
:1062200001EB040AAB61D3450ED1042300212120E8
:106230002B61FFF7A5FF70B92120FFF7A1FF50B92F
:1062400059462744361BD9E708210846FFF798FF2F
:1062500068B104232B6101220B4BDA60B8F1000F07
:1062600003D00022A3F50053DA63BDE8F88F5BF892
:10627000043BAB61D7E74FF0FF30ECE700900050F4
:1062800000000350001003500020035000E0FFFF07
:1062900000000000000000000000000000000000FE
:1062A0002200000065850108190000004DC10108A9
:1062B00015000000ADCE01081000000029CE010835
:1062C000120000000DA5010813000000759C0108D4
:1062D000110000005DAA01080E00000081C0010845
:1062E0000D000000E5CF01080500000075B60108AB
:1062F0000400000005B701080F0000007D830108BD
:106300001A0000003DE001080B000000898A010826
:106310000A00000085BD01080900000041AE010827
:10632000080000000DDE01080300000049D201084A
:10633000020000007D8A01080600000021F9010822
:1063400007000000E9EC0108010000001DF9010848
:10635000230000000DF9010828000000F7F80108EB
:1063600027000000F5F8010826000000798A0108DE
:1063700020000000E9CD01081F000000C5D1010880
:106380001600000021BA01082800000003F90108E6
:1063900027000000F9F80108260000007B8A0108A8
:1063A0002A0000009B83010802000000838A010884
:1063B0002900000099830108230000001D8F0108B7
:1063C000010000001FF90108030000009783010885
:1063D0000000000095830108D800000005C30008F4
:1063E000D7000000ADC20008DF0000000DD6000895
:1063F000DE000000D1D50008BF000000B5A80008ED
:10640000A8000000B3A8000849000000B1A80008D7
:106410000A000000AFA800086B00000041C200089D
:106420006A00000079E40008690000004DD500080A
:10643000D60000001DE400083C0000008DEE0008BE
:106440002700000045B800081C000000FDC100083E
:106450009800000025D5000865000000F7C100087D
:10646000D4000000F1C10008D300000039AE0008DC
:10647000D2000000C9C10008BD00000011D500080D
:106480000B00000001E500080800000015B8000836
:1064900006000000CDAF000860000000A5D4000891
:1064A0000500000045EB0008E80000004DEE000884
:1064B000E700000095D40008DD000000D9B700080F
:1064C000DC000000F1ED0008DB000000B9C10008AD
:1064D000DA000000F5EC0008C000000073C10008FD
:1064E00002000000B9EB0008A500000063C100082D
:1064F000A600000095E30008BE0000001DD40008BF
:10650000A400000019E30008A0000000B1BB0008CF
:10651000A2000000B5D3000803000000E9BE000897
:10652000090000007DAF0008150000006DBE0008E6
:106530009300000065E2000892000000ADE1000851
:10654000900000009DB700088000000025BE0008F4
:106550006300000079D300086200000015E1000824
:10656000610000008DE00008560000001DB1000829
:1065700054000000E1D200085700000069D2000872
:1065800055000000E9D100085800000041D1000882
:1065900051000000A9D000084700000035D00008D5
:1065A0004F00000099CF00084600000019CF0008F6
:1065B0005F000000E1CE00085E000000A9CE0008E8
:1065C000500000008DDF00084D00000039B70008C2
:1065D0003F000000D9B600084B00000099B6000843
:1065E0004A00000071B9000842000000E5B500084B
:1065F00041000000D1BD00086800000039DF00083C
:106600004800000089DE00085300000055CE000855
:10661000280000009BBC00082A000000AFDC000836
:106620002C00000075DC000829000000ADA800085F
:106630003D00000079BC00082E0000003FBC0008AF
:1066400024000000F5CD0008230000004BDC00080A
:1066500022000000D5CD00082100000019DC000850
:1066600020000000A5B000086C00000085B80008FC
:10667000AC00000009CD0008AB000000A9CB000869
:10668000A900000001CB00081600000099B5000821
:10669000140000004DCA000813000000BDC9000826
:1066A0001200000045C900081000000021DE0008AB
:1066B0003A00000021AF00083900000011C90008AD
:1066C0003B00000075B800083800000099AE0008D3
:1066D0003700000049B50008D9000000A9C800082B
:0866E000070000001DB00008D6
:1066F000013800D0FCE77047BFF34F8F0549064BC8
:10670000CA6802F4E0621343CB60BFF34F8F00BF4F
:10671000FDE700BF00ED00E00400FA056FF01B008C
:1067200070477047064B1B684BB11B78032B01BFAA
:10673000044AD2F8243143F00043C2F824317047B0
:1067400094130020000003507047704738B5174B72
:106750000546D3F820010C4600F0070006281FD894
:10676000DFE800F0040A0E2112161A00012305B119
:10677000286004B1236038BD0D4B18680523F6E787
:106780000C4B18680323F2E729F04CFF0723EEE7D0
:10679000074B18680623EAE7064B18680423E6E768
:1067A00000231846E3E702230348E0E70080005097
:1067B000D8940020DC940020002D310108B538B1B8
:1067C0002CF06EF9002814BF6FF01D00002008BDEA
:1067D0006FF01B00FBE7034B4FF48071D3F8040507
:1067E0002BF098BDDC5400200CF064BC2DE9F34183
:1067F000264DD5F80A45B5F8087524BA631E03334B
:106800000AD905F20A501CF061FA0121044605F28A
:106810000A5013F099F801271D4EA5F80875C5F820
:106820001845A5F816750CF0C7FC73684FF4800284
:1068300093F800800023A5F82075C5F82445CDE91C
:106840000023F06829F0ADFB95F85035012B0BD1F2
:10685000FF21F06829F035FE55222146F06802B08C
:10686000BDE8F04129F03BBE3946F06829F029FE29
:1068700073681B78012BEFD04246394620461AF048
:10688000AFF8F568024621462846E8E7DC540020C8
:1068900068950020AAE7002307B50193104B114A21
:1068A0005B68FE28C3F308030CBF4FF480414FF42C
:1068B0000051D2F8040523B903B05DF804EB2BF0C6
:1068C00029BD01AA2BF06EFE019B2BB14FF0E023F6
:1068D0004FF08052C3F8042D03B05DF804FB00BFF5
:1068E00000ED00E0DC540020002307B501380193DF
:1068F00007280CD8DFE800F0190B040B160B0B1C53
:10690000012101AA0C4BD3F804052BF04BFE019B8F
:106910002BB14FF0E0234FF08052C3F8042D03B0A9
:106920005DF804FB402101AAECE7042101AAE9E794
:106930004FF4004101AAE5E7DC540020002307B52D
:1069400002380193052818D8DFE800F01C171E173D
:10695000031520210D4B01AAD3F804052BF022FECC
:10696000019B2BB14FF0E0234FF08052C3F8042D70
:1069700003B05DF804FB1021ECE7054B054A5A62B1
:106980001AF098FA0221E5E70821E3E7DC54002039
:106990000000085001001D0308B5024A024B5A626C
:1069A0001AF088FA02001D0300000850074B93F804
:1069B000543513F0300F07D1B0F57A6F04D80122A7
:1069C000022110461EF09ABE704700BFDC54002022
:1069D0000CF0C0BB08B500200DF0EEFD044B4FF4E9
:1069E0000071D3F80405BDE808402BF093BC00BF4C
:1069F000DC54002001200DF0DFBD02200DF0DCBDD5
:106A000008B51AF045FD1CF0CDF8BDE8084002209D
:106A10000DF0D2BD37B5294CE06829F031FBC30732
:106A2000054602D5E06829F04AFB15F4881F42D0DC
:106A30004FF0FF33CDE90033214B93F8553503F088
:106A4000FF0543B100201AF0DCFB0022E06811468C
:106A500029F018FD0125D4E9021029F019FD237849
:106A60000A3B012B08D80022E068114629F0C0F942
:106A70006946E06827F01CFE00220121E06829F049
:106A8000B7F901A9E06827F013FE00980D4B1860D4
:106A9000019959601AF022FD00201AF0B2FB55B19D
:106AA000636818781CF03BF80122E068114629F071
:106AB000E9FC1DF0CFFF03B030BD00BF689500209A
:106AC000DC5400200000085037B51F4DD5F858059C
:106AD00058B10378DA060AD500217F2381731A465C
:106AE00001900093084614F051FB03B030BD448977
:106AF00063051DD5837BDBB1013B83731AF0D4FCA6
:106B0000A0B14FF47A72114B5B689B88B3FBF2F330
:106B100003339BB2B5F85C150D48C1F1C801C91A21
:106B200089B203B0BDE830401CF014BD0323F1E787
:106B300024F48C63438100210DF024FED5F85835F0
:106B400024F480645C81D0E7DC5400206895002048
:106B50003C5A00202DE9F04F664E8FB014220021E0
:106B600003A828F009FC0221F06803AA29F0C3FA5F
:106B70000446002846D0604D05F2A157D5F84435AB
:106B800013B19A6801329A601822002108A8BDF852
:106B90000EA028F0F1FB2146F06808AA29F0ADFA12
:106BA000F8B995F8A0259DF83310B36802EB4200C0
:106BB000C2EB801007F800A00B44197E9146032910
:106BC00007EB000821D80131C9B203291FD00429DD
:106BD0000CBFBE2140215FFA8AF38B4219D90023F2
:106BE0003B544FF000082146F06829F08AFA022150
:106BF000F06803AA29F07FFA0446B8F1000F72D1B9
:106C00000028BBD10FB0BDE8F08F4021E3E7AA21F7
:106C1000E1E70132D2B2032A28BF002285F8A0257D
:106C200000220092214608F10102F06829F07BFA67
:106C30009DF83330FE2B04BF337C8DF833301AF0CF
:106C400032FB9DF833B05845CBD9B3682B4A5B442F
:106C50001B7E5846032B8EBF00230133DBB202F8A4
:106C6000393002EBC90A1AF0B3FB73688AF80100E5
:106C70001B7863B1012B0AD0022B32D1BBF1020F7A
:106C800094BF4FF0000B4FF0010B4FEA4B038AF813
:106C900002309DF82E30D5F824258AF80330089B61
:106CA000CAF80430D8F801301BBA934211D0D5F895
:106CB000443513B15A6901325A610338C3B2012B0A
:106CC00007D8182303FB0050D0F804380133C0F86C
:106CD000043841465046D5F84C3598474FF00108E6
:106CE00081E70223D3E700288CD00120D5F8343582
:106CF000984787E768950020DC540020BA5C0020A4
:106D0000202A0B681EBF4FF0FF3191408B4359087A
:106D100001F055315B1A03F033319B0803F0333334
:106D20000B44017803EB13130A444FF0013103F0D5
:106D30000F334B43A2EB136202707047034B5A6848
:106D400012B19A6A002AFAD1704700BF004006507B
:106D5000044BD3F88420D206FBD4D3F88400C0F3CC
:106D60008110704700400050430905D0012B0CD022
:106D7000022B084B18BF002300F01F0039B103F5A8
:106D80008053012282401A607047034BF4E703F5F9
:106D90000053F6E76880005064800050014B58743F
:106DA000704700BF68950020014B93F911007047B0
:106DB0006895002038B5164B0546D3F828310C46A7
:106DC00003F00703013B052B04D8DFE803F00A16A4
:106DD0001E120E1A0023184605B1286004B1236064
:106DE00038BD0C4B18680523F6E70A4B18680623D4
:106DF000F2E729F017FC0723EEE7074B1868032397
:106E0000EAE7054B18680423E6E702230348E3E7B3
:106E100000800050D8940020DC940020002D310127
:106E20000E4BD3F8403103F00303022B0DD0032B9C
:106E30000FD0012B0BBF0A2301234FF40042002285
:106E400000B1026001B10B60704709234FF40042AA
:106E5000F6E70B234FF47A72F2E700BF0080005090
:106E60004FF48032104B10B59A66A3F580531B6F18
:106E7000C3F3033303FB00000C4BDC69144041F601
:106E80007132DA635A6822F4401259B908498842CB
:106E900094BF00200120000502435A600CB100227B
:106EA000DA6310BD0349F2E7009000500000035080
:106EB000005A6202002D310110B50C4C02201FF067
:106EC000EBFC236F0A4AC3F38023013300210948F6
:106ED00082F82838FFF7C4FF236F43F480632367E9
:106EE0004FF4803304F58054236710BD00800050B8
:106EF000DC54002000B4C404024A536B0342FCD1AA
:106F0000704700BF004009504FF000420F4B70B572
:106F10005D6E03F580535A664AF6CD3304460C493C
:106F200080204E6C0B64FFF7E7FF0B6A23F4F853E5
:106F300043EA04230B62F30744BF064B0B64002DA6
:106F4000A2BF4FF00042044B5A6670BD0080005053
:106F5000004009503254FFFF00A000500123F0B55B
:106F6000C4B2214DA340D1F800C08F7ACC7A0E7BF9
:106F70002B65850005F1A04505F58825C5F804C0F9
:106F800030256843240591F80DC044EA074400F118
:106F9000A04000F5802044EA465422F00302C0F8E5
:106FA00060C0C4650267EFF3118485F311880F4A4E
:106FB000087A536500B11364487A00B19363087985
:106FC0008A7942EA0042084882614D79CA790749C4
:106FD00042EA05428A61064A4363936484F3118856
:106FE000BFF36F8FF0BD00BF0020045000100450AD
:106FF000000004500123C0B28340EFF3118130221E
:1070000082F31188074AD06A184209D1526B934320
:107010000CBF0120002081F31188BFF36F8F7047F0
:107020000020F8E700000450114321F0F801490462
:10703000034B490C41F44021063043F820107047BF
:1070400000800350021E30B54FF000000CBF0C252D
:10705000042547F60774084952B9831D51F82330B7
:10706000234023B101308542F6D14FF0FF3030BDCF
:1070700000F11203F2E700BF008003503AB122F0A2
:10708000030202F1A04202F5603209B910607047B4
:107090000002FBE74FF48032064B5A6603F5E62305
:1070A0009B69C3F38512827003F03F021B0B427091
:1070B00003707047009000500020704747F6FF7340
:1070C0009A42F0B569D0092969D8364B5B5C032B2D
:1070D00065D8354DDE0005EBC30415F83330A178D3
:1070E000012B13D10025E078401A854202D30844D1
:1070F000C0B2F0BD431B6668A0EB530336F91360C2
:107100009642D4BF1D4603F1FF30EEE760680028C9
:10711000EFD0B0F90040A24204DCB0F90240944242
:10712000B8BF144683883544FF2B19BFC8232827CE
:10713000B0F90630B0F90870A3EB04030CBF0122CC
:10714000002293FBF7F36E7813441BB29E4201DDDD
:10715000002B01DA731E1BB24FF47A7C00EBC305DF
:10716000EA88AD685F1C14FB02521D4622EAE272F7
:107170003BB25C329E42B2FBFCF204DD00EBC30783
:10718000BF88BA42EAD900EBC5039888904228BF6D
:107190001046884238BF0846AAE7FF20A9E700202A
:1071A000A7E700BF444E0308441B00200929F0B59F
:1071B00055D82C4B585C032851D82B4C04EBC001FC
:1071C00014F830004B6801280FD1C8788C789042B1
:1071D00094BFC4EB0001C4EB0201001BCAB282429F
:1071E000C8BF002233F91200F0BD002B37D08878D9
:1071F000904202D3B3F90200F6E7CC78B3F900006D
:107200009442F1D94C789988013CA1F1FF06714272
:1072100003F10405E4B2714103F10C07CEB2B442AC
:1072200016D805EBC1014FF47A756A43B1F90240F3
:107230004968521A04EBD47102EB610292FBF4F23A
:107240009042D1DBB3F902009042CDDC10B2CBE723
:1072500037F831C04E1C9445E3D33146DEE703488E
:10726000C2E700BF444E0308441B00200080FFFF1C
:107270000028ACBF00F16040064B4FEA0111C9B2D3
:10728000ABBF00F5614000F00F0080F80013195407
:10729000704700BF14ED00E02DE9F74F002800F023
:1072A000EE807849D1F84048D1F844E8EFF3118BEB
:1072B000302383F3118810F8086C30F806CCF307FC
:1072C00002D5BCF1000F07D18BF31188BFF36F8F8C
:1072D000012003B0BDE8F08FD1F83438D1F83C98E4
:1072E000A3EBCC0330F8048C0093C1F8343809F1D7
:1072F0000103A0F108050CF10102C1F83C38B8F116
:10730000000F3BD0A5EBC803DF88B3F802A00197BC
:107310001F7806F00206FF0725D42EBB019EA6EBC0
:107320000A06012E2AD1009E0CF10202A6F10807DE
:107330005244C1F83C98C1F8347830F8028CB8F166
:10734000000F1DD110F8085C20F8068C68F30005CA
:1073500000F8085C013A5A801A7868F300021A7043
:107360000022DA8041E04EB110F8086C42446FF31D
:10737000410600F8086C00269E80DEE72B46DCE71D
:10738000D1F82C68D1F8307805EBC8093744B945F5
:107390000ED310F8085C013A6FF3000500F8085CA2
:1073A000002520F8065C5A801A7865F30002D6E7BB
:1073B00015F838504E4615F0010532D010F8085C2B
:1073C000013A6FF3000500F8085C002592B220F83E
:1073D000065C5A801A7865F300021A70C3F107023E
:1073E0003244C2F3CF02DA80B280002C45D09C42F6
:1073F00043D86288002A08BF1C46BEF1000F06D0A1
:107400009E4504D3BEF80220002A18BF7346C1F877
:107410004048C1F844388BF31188BFF36F8F0020C8
:1074200057E7A8EB0C08B8F1010FC7D1B9F8027003
:10743000A9F802501744B9F80620E2B109EBC206D8
:107440000025D1F83C28013AC1F83C28D1F834286D
:10745000083AC1F8342810F8082C20F8065C6FF3BD
:10746000000200F8082C1A785F8065F300021A7099
:10747000002EB3D174E71646E2E71C46BDE7222092
:1074800027E700BFDC540020FEE7002307B50846CD
:1074900001A901931AF0AAFD019803B05DF804FB5D
:1074A0000846F9E6002313B501936AB161B102FB06
:1074B00001F401A920461AF099FD014620B901986E
:1074C00010B1224627F058FF019802B010BD0023EA
:1074D00003604360704730B5D0E9054553B394422B
:1074E0000FD0E2B9046974B9036983B3002918BFE6
:1074F0000D462B78DB0714D5AB8843B3A5EBC3054A
:10750000F7E704698CB141B904682378DB070CD52F
:10751000E3884BB104EBC304F7E70C46F5E795426B
:10752000E2D0C0E9054530BD1C469542DCD0002ABA
:10753000DAD0F6E7944208D08C4228BF0C46954238
:1075400007D08D4238BF0D46EBE70C46F7E71D46E6
:10755000E7E70D46E5E700232DE9F3478B4E01935E
:10756000D6F830380C469A42104604D239B912B1D6
:1075700001A91AF03BFD019802B0BDE8F0871AB9E5
:107580000846FFF789FEF6E7EFF31187302383F310
:10759000118834F8063C07304FEAC30820F007058D
:1075A000A845A1F108017ED234F8020C002868D069
:1075B000C21A012A65D101EBC00211F83000C007E0
:1075C0005FD4B2F802C0A8EB050919EBCC0958D476
:1075D000B9F11F0F38DDC5F3CF03611924F8063C5C
:1075E0000133084624F8023CFFF771FF34F8020C1F
:1075F0004FEAD9038880D0884B8010B3B2F802C01C
:10760000A0EB0C0C1CFA83F39BB202EBC000CB8006
:10761000838000235E48FFF75EFF1046FFF757FFA9
:10762000D6F83438D6F838282B44A3EB0803934215
:107630000194C6F8343833D887F31188BFF36F8FBD
:1076400099E70023CB80E4E7D6F83C080133013802
:10765000C6F83C08D088634424F8063C68B1B2F808
:1076600002C0A0EB0C0C1CFA83F39BB202EBC0002F
:1076700024F8023C83800123CCE7002324F8023C59
:10768000F9E7284601A91AF0B1FC0028D4D14246F6
:107690002146019828F084FD2046FFF7FDFDCBE749
:1076A000C6F83838C8E76ED934F8020CA8EB0509DB
:1076B00000F1FF3AAAEB030A002839D011F8303064
:1076C00001EBC002DB0734D4BAF1000F31D1C5F3AE
:1076D000CF03611924F8063C0133084624F8023C24
:1076E000FFF7F5FE508800EBD90334F8020C4B800D
:1076F0008880D088D0B1B2F802C0A0EB0C0C1CFA84
:1077000083F39BB202EBC000CB8083802048002330
:10771000FFF7E1FE1046FFF7DAFED6F834380194A1
:107720001D44A5EB0805C6F8345885E7C880EDE789
:107730000246B9F1270FF0D9C5F3CF03611924F838
:10774000063C0133084624F8023CFFF7C0FE34F83B
:10775000020C09F1FF33DB084B8088808AB10AF103
:10776000010A1AFA83F39BB2CB809380D6F83C3897
:1077700007480133C6F83C3800231A46FFF7ABFE32
:10778000CBE7CA80F2E7019456E700BFDC54002043
:10779000085D0020BFF35F8F074B5A6A22F48032E6
:1077A0005A62D3F8942022F00102C3F89420BFF368
:1077B0004F8FBFF36F8F704700ED00E00122014B48
:1077C0001A707047DC540020364B70B51D6F15F0F1
:1077D00001013CD0012203F50053334C1A6794F8A1
:1077E000683813B329F028F9D4F86C38C01AC4F8F3
:1077F0007008D4F870380BB1D4F87018C4F8701849
:107800004FF41671D4F87038284BD4F870281B68E0
:107810004B43274903F5742303F23F23B3FBF1F3F2
:10782000934220D2002384F8683894F8753873B1F5
:1078300094F876385BB129F0A3F8002384F8763801
:1078400084F87738012384F8783884F8793815F08B
:1078500000521CBF174B1A67002DBEBF4FF00042ED
:10786000144B1A6770BD94F874381348D4F8701824
:1078700050F82320114E511A3268521AD4F8701859
:10788000326040F823100A210932B2FBF1F20C48B1
:107890000133DBB20260B3FBF1F201FB123384F877
:1078A0007438BFE70040005ADC5400205017002015
:1078B00040420F000060005A5C170020581700205B
:1078C0005417002013B5044629F0B6F80D4AD2F833
:1078D0008038D2F888189C4228BF1C46D2F88438D9
:1078E000421A63439A4238BFC9184FF0000334BFAD
:1078F000091A0121CDE90033034A044829F078F838
:1079000002B010BDDC540020457D0008685D0020F9
:1079100010B5044628F072FE0C4BA0F57A729A421C
:1079200012D84FF47A73B0FBF3F05C43084BB3FB0F
:10793000F0F3B4FBF3F0022806D9BDE810400323AE
:10794000B0FBF3F0FEF7D4BE10BD00BFFFC99A3BF9
:1079500040420F0013460A4601460248006819F0EB
:107960003DBB00BF0814002013460A4601460248EA
:10797000006819F0D9BB00BF08140020EFF305839D
:107980000F2B84BF034A9B5C4FF0E023D3F80C3DE0
:10799000704700BFF0E300E0002307B50193054BFB
:1079A0005B692AF040FF019B002BFCD003B05DF81F
:1079B00004FB00BF6895002010B598B1016E21F05E
:1079C00001042AF0E4FE68B901290BD9204628F009
:1079D000BBFE28F0B9FE94F846301BB9BDE8104054
:1079E0002AF077BF10BD2DE9F0473B4C09F008FCA9
:1079F000D4F8C4582AF0CBFE002847D1002D45D03A
:107A0000364F3B689D421AD029F080FAD5F828A05D
:107A1000D4F8B8986E69D4F8BC8829F0B5FA04F1A6
:107A20005C039A450BD04E4509D0464507D004F17A
:107A30007C039E4224D1AB6A0BB995F85C302E1DB5
:107A400029F064FA30462BF0BBF8AB6A1BB105F1A4
:107A500018002BF0B5F8D4F8DC380133C4F8DC3862
:107A60003B689D42D4F8B03812D0A36F013BA367A6
:107A700029F070F929F088FA28462AF035FF1EE02F
:107A800004F6C8039E4201D0002ED8D1BDE8F0878D
:107A9000002BEAD0D4F8CC389A68AB60EA60566024
:107AA0009E600F4B6B61D4F8C8380133C4F8C838F6
:107AB000D4F8E0380133C4F8E03829F065FAD4F896
:107AC000B038002BE2D03B689D42DFD1BDE8F047E3
:107AD000044B1B682AF086BEDC5400206412002090
:107AE000A45D00200C1400202DE9F74F0121856BC7
:107AF00090F83030286A994029F05CF803680269F0
:107B00000B4303600023DFF81091414C00F10C0897
:107B10000193904503680FD1019A23EA02030360A1
:107B200029F076FA012195F82C30286B994003B0A2
:107B3000BDE8F04F2AF0EEBBD2E900C72CF07F4140
:107B40001CF0806F01EA030E04D1BEF1000F03D1D7
:107B50003A46DEE77145FBD11CF0807F18BF019EDD
:107B600043F002431CBF0E430196D9F80010D2E93E
:107B7000031CDCF8046013609368B242BB605F6072
:107B800008BFCCF8043000231361DCF80030013B5F
:107B9000CCF8003029F0DEF8D1E9023E4A69C3F89A
:107BA00008E0CEF80430536801F1040C6345136813
:107BB00008BFC2F804E0013B1360CA6AD4F89030F1
:107BC0009A424FF0140302FB03F304EB030EDEF8BA
:107BD00098A088BFC4F89020DAF808B0C1F808A0CF
:107BE000C1F80CB0CBF804C0CAF808C0DFF82CC04C
:107BF00063444B61DEF894300133CEF89430054B8A
:107C00001B68DB6A9A4284BF01232367A0E700BF99
:107C1000DC540020641200200C1400207055002059
:107C20004FF098435B6C13B5D9021CD529F026F8A8
:107C30000238012817D8174BD3F844499CB12AF0D1
:107C4000A6FD0346F8B10023204601A9019329F0BF
:107C50006BF9012807D1019B2BB14FF0E0234FF0C6
:107C60008052C3F8042D4FF098435A6CD202FCD5D1
:107C70005B6D094A03F4702393610822074BC3F834
:107C8000882102B010BD02460146204629F07CFA48
:107C9000E9E700BFDC5400206895002000E100E027
:107CA00070B5064628F0EAFF02280C46154610D0AB
:107CB00021464FF0604318482544A94212D10024C0
:107CC00028F0DCFF022802D1306829F03DFB204675
:107CD00070BD30682AF06EFA0028E9D00630E7D08F
:107CE0000124F4E7D3F8802ED20712D511F8014B06
:107CF000D0F8FC2042F08072C0F8FC20D3F8002EAF
:107D000042F00102C3F8002E1A68002AF0D01C705D
:107D1000D3E71124D4E700BF00ED00E007B5074B1F
:107D200007480193C0F84C39002301A91A46D0F83E
:107D3000500929F029FA03B05DF804FBE994010821
:107D4000DC5400202DE9F84328F076FE80462AF026
:107D50006AFD114E074696F87C4A6CB9D6F88858E9
:107D6000D6F88498A8EB05034B450AD20CB12AF04B
:107D700039FD0120FFF7A6FD3846BDE8F8432AF09B
:107D80005DBD28F0F9FF4D44044314BF01240024D5
:107D9000C6F88858E2E700BFDC540020EFF31480F7
:107DA00010F0010F14BF002001207047EFF3148082
:107DB00040F0010080F31488704710B5044650B1BC
:107DC00050238065C36518442AF0FAFD2066B0FA96
:107DD00080F0400910BD0120FCE7EEE7334B2DE9B0
:107DE000F3419B6928F04AFF0128074630D92AF061
:107DF000E3FC061E04DA0124204602B0BDE8F0814F
:107E00002B4890F87D3A002B4CD100F52860FFF705
:107E1000D4FF0446B0B90023254DC5F8E438C5F8B1
:107E2000E838502305F6F401C5F8EC18C5F8F03829
:107E30002AF0ADFC0446C0B100230124C5F8443942
:107E4000012FD9D930462AF022FD0028D4DAD2E712
:107E5000174890F87D3A3BBB00F52860FFF7ADFF6F
:107E600004460028C8D10646D5E7032302460093FE
:107E70000B46014601202AF04FFC80460028DBD04B
:107E8000D5F8E41809B128F041FC01214320C5F8D8
:107E90004489FFF7EDF90822064B9A60012385F823
:107EA0007D3ACDE70024CDE70024A5E768950020C2
:107EB000DC54002000E100E0F8B50D4E0D4C0E4DF5
:107EC00033680E48984767782B680C4898473368A2
:107ED0000B489847022F08D12478E31F5C425C418D
:107EE0002B68074898472046F8BD0024F8E700BFF4
:107EF000FC940020B4180020009500204C180020AD
:107F0000E817002003681BB1406800B11847184704
:107F1000704703461A68084622B15B680BB11846E1
:107F200010471047704759B1E8290AD80139C1F301
:107F3000CC02012301F007018B40815C0B43835489
:107F40007047A1F5807189B2B1F5806FF8D2CA0887
:107F5000EFE710B569B160B1E8290BD80139C1F379
:107F6000CC040122035D01F007018A4023EA0203E9
:107F7000035510BDA1F5807189B2B1F5806FF8D2BB
:107F8000CC08EEE7C0B14B1E9BB2E72B07D8DA084E
:107F9000805C03F00703184100F001007047A1F571
:107FA000807189B2B1F5806F05D2CB08C05C01F059
:107FB00007010841F0E7002070470A46002127F03A
:107FC000DBB903460144002030B58B4200D130BDFF
:107FD000002413F8012B651C12B92044C0B2F4E749
:107FE000541E22402C46F6E7E72801D9002008E07D
:107FF000C308CB5C00F0070213410130DB0780B2FD
:10800000F2D5704710B5044680B1006870B1002306
:1080100029F0BAF8012801460AD1A06808B9002061
:1080200010BD237999402AF075F9F8E70220F7E7A7
:108030000120F5E770B5C46A0546ACB128F066FFCB
:1080400094F8286028F0A0FFAB6B95F830401D6ACB
:1080500028F05CFF2D6828F097FF012000FA04F457
:108060002C4200D1304070BD2046FCE7F8B5046AD0
:10807000054628F04BFF2668012706F07F43236062
:1080800028F082FF002495F82430A34200D8F8BDE0
:1080900007FA04F3334205D0AB6A53F82400C36BEC
:1080A00003B198470134EEE70048DFE7A41200204F
:1080B00038B5056A0C4628F029FF012303FA04F1BC
:1080C0002B6823EA01032B60BDE8384028F05CBF31
:1080D0002DE9F347D1F8388005460C4616461F4671
:1080E000B8F1000F40D190F8243090F825209A4242
:1080F0003CD9172B3AD82C230193019B019B0223D7
:10810000DFF86CA0DFF86C9081F828300EB329F00E
:108110000FFB0123C4E9063894F82830C4F800A006
:1081200043F00403C4F82090C4F8148084F8283085
:108130000020C4E90E57E46295F8243084F830300A
:10814000AA6A42F82340013385F8243002B0BDE822
:10815000F08729F0EDFA0123C4F800A0C4E906363F
:10816000C4F820906661E3E70220EFE70120EDE725
:1081700065540308E97A000838B5264CD4F8583518
:10818000002B44D140B194F85535012B02D0012089
:108190001CF076FC012038BD19F07AF9D4F80455AA
:1081A0000DB91D4B1D6828F0B1FE95F85C30022B0F
:1081B00004BF002385F85C3028F0E6FED4F80405FF
:1081C00001212AF031F9D4F8040504212AF02CF910
:1081D000D4F8040540212AF027F9D4F80405022137
:1081E0002AF022F9D4F8040508212AF01DF9D4F860
:1081F000040510212AF018F9D4F8040520212AF0EA
:1082000013F90CF06AF900201BF035FCC2E70020DE
:10821000C1E700BFDC5400206412002028B9074BDE
:1082200093F8542512F0300204D0002202210120DC
:108230001DF064BA022101201CF00FBEDC540020A6
:108240002DE98048AA4BAB4C1B68C3B0C4F8043579
:1082500005461AF03FFE0023C4F8E43AC4F8E83AB1
:10826000C4F8EC3A94F8F03A0BB91AF033FE002354
:10827000A14AA24952F8040B884206D0002840F0D7
:10828000AB8004EB8303C3F8F41A0021D4F80C0B81
:10829000042308AAC4F8100B089118F09FFE089B4D
:1082A000002800F09E801AF0DBFD0026DFF86882CF
:1082B0003346C146924FD4F810AB07F1680B1693C2
:1082C000BAF1000F00F0E8805046396816AA18F09D
:1082D0007FFF0023002840F0E2807968169A9142DF
:1082E0001CBF032001260837BB4509F8010BE6D166
:1082F000002E40F0D780002716230421814AD4F8AD
:10830000100B18F06BFE1D2305217F4AD4F8100BCB
:1083100018F064FE1D230B217C4AD4F8100B18F0D2
:108320005DFE80230C217A4AD4F8100B18F056FE1B
:108330004FF4A072FF21774827F01EF84FF0FF336B
:108340004FF4A0593E46DFF8C481C4F81B3DC4F881
:108350001F3D08F19D0B1FFA87FA0AF101039BB23A
:10836000194640460293FFF70DFE48B9029B41466D
:108370001846FFF739FE48B307F10803984225DC99
:10838000A319304683F81B9D11F038F906EB8602DD
:1083900050234946D4F8100B0BEB021218F01EFEC6
:1083A000002800F0BB8001230AEB0301404689B29C
:1083B0000293FFF7CEFD029B0133092BF4D11D235D
:1083C00042460B21D4F8100B18F0AEFE0837E82F08
:1083D00009F10109BFD1A6E00133062B7FF44AAFB2
:1083E00053E7B3F1A06FBFF460AF1CF0F9FB4FF49B
:1083F00080474FF0B00A0026B022FF2116A826F0D1
:10840000BBFFB1464FF0160B0AFB07F8A8F5301872
:10841000162200210DA826F0AFFFCDF800B00321F1
:10842000D4F8100B06EB08030DAA1CF08DFBC8B99D
:108430009DF83430B3B116AB0DAA33440DF1440EA0
:108440009446BCE80300F44518605960624603F1A5
:108450000803F5D14FF00109DCF800001860BCF802
:1084600004209A801636B02ED2D1B9F1000F06D072
:1084700033463946D4F8100B16AA18F055FE44F2CC
:10848000080301379F42B6D10321D4F8100B1AF02C
:10849000B1FB1AF0A3FB08E70126304623E70220D0
:1084A000012620E74FF0000901264F46144B53F8F0
:1084B00039A018F8013B022B0DD126B100215046FE
:1084C00011F098FA064606F0010609F10109B9F122
:1084D0000D0FEBD10FE7032BF7D15146D4F8100B5A
:1084E00016AA169718F074FE002EECD01699E6E73F
:1084F00064120020DC540020D05F0020A44E03084A
:10850000AC4E030884950020FD5F00201A60002017
:1085100037600020B7600020F05F00200136F6B21F
:10852000042E7FF453AF1D230621A64AD4F8100B66
:1085300018F054FD1D230721A34AD4F8100B18F09E
:108540004DFD1D230821A14AD4F8100B18F046FD5B
:108550001D2309219E4AD4F8100B18F03FFD1D235E
:108560000A219C4AD4F8100B18F038FD1D23202155
:10857000994AD4F8100B18F031FD1D232121974A98
:10858000D4F8100B18F02AFD80232221944AD4F845
:10859000100B18F023FD80232321924AD4F8100BEE
:1085A00018F01CFD1D2200218F4826F0E5FE8C22CC
:1085B000002116A826F0E0FE0026012700234FEA3E
:1085C000860B0DF1580A1FFA8BFB0BEB07091FFAFC
:1085D00089F94846029311F065FD029B804680B1FF
:1085E0003BB98C23D4F8100B16AA06F5007118F0CD
:1085F000F5FC9AF80210484601F0010110F0EEFF78
:1086000043460137052F0AF1230ADED101363A2EFF
:10861000D3D17649764BD5F808A00B630C334B6663
:108620004FF40051A4F8341F7249D4F8043501F115
:108630003400C4F8380FC4F8403F0720202300223C
:10864000012684F83C0F0793081D079B84F80B2F25
:10865000C4F8102F84F80C6F2AF053F8C4F8301FB8
:1086600084F82C6F0BF039FFDAF808301B7813EA26
:10867000060106D1980600F1A28013F0100118BF80
:1086800003215D4FDAF80C20F869137AC4F80A0563
:10869000388C8DF85910A4F80805002097F831108F
:1086A000FF2B08BF0023091A18BF01218DF85B10AA
:1086B0000421524E8DF85830C4F8C46F504E8DF8D6
:1086C0005C10CDF87D00CDF879002090C4F8C80F7B
:1086D000C4F8D00FC4F8CC6F107803F0FD038DF808
:1086E0005D005088092BADF85E009088ADF8600001
:1086F000D088ADF862004348199043481A90434827
:108700001B9043481C9043481D90507A8DF8780088
:10871000927A8DF8802097F830208DF85A200ED16B
:10872000013A012A0BD90123D4F8100B8DF85A30E5
:1087300087F8303007F11C02162318F0F5FC16A854
:1087400010F0C0FE00228DF85C00114632481AF08D
:1087500046FE324B1F939DF8583003F0FD03092B62
:1087600004D19DF85B300BB11BF05EFE2C4827F066
:108770005AFB142200210EA826F0FEFD294B2A4E9A
:108780000D932A4B00221B882948ADF844304FF442
:108790008063ADF846304FF48073ADF84830254B18
:1087A0000DA91B681393A6F1B803149306F5527331
:1087B000159325F031FD804600283DD0FEE70221CB
:1087C0005FE700BFFF6100201C62002039620020CB
:1087D000566200207362002090620020AD6200208B
:1087E000CA6200204A630020CA630020B416002039
:1087F0009C950020EC63002068950020F12301087F
:10880000D1310108E96800083D690008D169000814
:1088100097680008B0640020DC640020053501087A
:10882000690345ECF54E0208D46500208CB30308BB
:108830007495002090B30308DFF82CC40DF1580E96
:10884000BEE80F00ACE80F00BEE80F00ACE80F0078
:108850009EE80700DFF814948CE807000121F8680F
:108860001EF056F9B9F8D03008A9F868ADF82030F4
:1088700027F07DFB08A9F86827F08FFB0122F86834
:10888000114627F0B1FBF6A3D3E90023CDE900237D
:10889000F8684FF0FF324FF0FF3327F082FB41467C
:1088A0004FF0FF3094F848B527F0E9FD28B9BBF147
:1088B000000F40F0F08186F848B494F8283594F819
:1088C0002905D1490293B4F92E35DFF8A483B4F910
:1088D00030250593023894F82C35A1F1280C012895
:1088E00088BF6146D8F80C000492039326F004FD7B
:1088F0008346002855D1049A059BDFF81893D221AE
:10890000D8F80C00A9F84A24A9F84C34A9F84E3438
:1089100026F0BEFDD8F80C001EF0E4F8C728D4BF3E
:108920008C22C822B4F9323559469342A8BF134667
:108930005846A7F84C20A4F8323518F0F3FCDDE9CE
:10894000020118F05DFDD7E9021027F0A1FD18F033
:1089500071FD7B689A88A7F856205A8887F85320BB
:1089600018781AF0DCF8A94BA94A5B6823F0404359
:1089700023F440031B0C1B04934212D0322708A897
:108980008DF820701CF0AAF89DF82030B3FBF7F2A8
:1089900007FB1233B9F84A243A4452FA83F3A9F890
:1089A0004A34D8F80430002718781AF0B8F80122B1
:1089B000D8F80C00114627F065FDDFF8B89209F1F0
:1089C000040B18F070FC87424FF00003C0F08A815E
:1089D000904FD4F8F83407F58C60C7F85C341CF07D
:1089E0007DF80122DAF80810DAF8000087F861242F
:1089F00015F0E3F813F0B0FA00230DA9B4F8080558
:108A00000D938DF8383011F0A1FED8F804209DF8B0
:108A1000363012789907A2F1020200F16981012A29
:108A20000CD843F00203B4F808050DA98DF83630D0
:108A300012F07AF940F2FF4012F01EFDFDF7D6FE6B
:108A40000AF088FB94F85435D80702D50120FFF7C7
:108A500093FB092287F8622400226F4B87F8632476
:108A60002B62A3F6C423AB626C4B87F864246C4A78
:108A7000EB6202332B636A620AF0F6FB94F814256A
:108A800000280CBF2E239623510700F037810C3BA2
:108A90009BB2A4F81C3594234FF00008A6F8663466
:108AA000604BF82103F150020520CDF8008029F039
:108AB00033FE5D4B5D4FD3F800900923C6F894094F
:108AC000C6F8980986F89C39C6F8A0992F61A821A4
:108AD00007F10C0307F15C020220CDF8008029F0B9
:108AE0001BFE0A2386F8483B07F5D673C6F8440BED
:108AF000AB61C6F84C9B882107F5DC7307F5027261
:108B00000420CDF8008029F007FE2A686B79C6F8AA
:108B1000C00DC6F8C40DC6F8CC2D86F8C83DE86176
:108B2000E02107F5876307F591620220CDF8008008
:108B300029F0F2FD2B792A6886F8E83FAB6AC6F87F
:108B4000EC2FC6F8F43F96F8F83F394A102B4FF057
:108B5000100387BFC6F8FC2F86F8F83FC6F8FC2F35
:108B600086F8F83FC6F8E00FC6F8E40FC6F8F05FE5
:108B7000002668612F4D304B3146304AA5F1F40094
:108B80001E601AF02CFC31462D4AA5F1B4001AF0F3
:108B900026FC31462B4AA5F174001AF020FC94F80B
:108BA000543545E90D66DB0710D505220221304614
:108BB0001CF0A4FD0121A5F12C00234A1AF00FFCA2
:108BC0004FF47A71A5F12C001AF0C4FC00240020A7
:108BD000FFF724FB1D4B214645F8343C1C4B1D4A36
:108BE000D3F8F8341C4845F8304C6C61AB611AF08E
:108BF000F6FBFF231694194C8DF834300421012321
:108C000020680DAA38E000BF7C4E03080080E00F0A
:108C100000001703D4650020B06400203A6A0020E9
:108C20002C4F0308406A0020641200206C6F002063
:108C3000344F0308CC760020D47500200D3502088F
:108C4000753A020891390208E9670008D7670008F9
:108C5000DC540020A5350208E8760020941300209B
:108C6000088D015522020000045A0020444E0308DA
:108C700068950020246A002018F0B0F99DF834307F
:108C8000FF2B42D0FDF74EFD2C4B2D4C5B68204650
:108C900019F016FFFBE70DF1200E09F1D40CBCE82A
:108CA0000F00AEE80F00DCF800304FF0FF30CEF8D8
:108CB000003008A927F0E0FB20B10020214B83F809
:108CC0004804FAE506214FF0FF3027F003F90028A9
:108CD000F3D101214FF0FF3027F0D1FBB0FA80F043
:108CE0004009EBE709F8013B2BF8023B013768E646
:108CF000012A7FF6A3AE23F0020394E612067FF565
:108D0000C8AE143B9BB25B00C2E620210E4819F0AE
:108D10007EFF19F061FF202302210B4A206818F022
:108D200003FA20230321094A206818F0FDF90123E2
:108D30000421206816AA18F0F7F9A3E70080E00FD5
:108D4000CC750020D46500202877002048770020CB
:108D5000034B4FF48051D3F8040529F0DBBA00BF70
:108D6000DC5400200A4BD3F8E42A32B1D3F8E82AC5
:108D70004AB1D3F8EC2A42B9022203EB8203C3F8CA
:108D8000E40A012070470122F7E70020704700BF86
:108D9000DC54002030B40446EFF3108072B625682E
:108DA00085EA02030B406B40236030BC29F06BBCAA
:108DB00070B5184CFF28A66A2AD8A36D4FF08071B1
:108DC00013F4803F18BF4FF48032134B18BF9A62E0
:108DD0009962124AA36992F9115023F47F03054462
:108DE00023F47F4343EA002385F3080543EA054360
:108DF000A36132460A48FFF7CDFFA36DDB0305D51B
:108E000032464FF480310648FFF7C4FF002070BDA2
:108E10002120FCE70040005A0050005A68950020CD
:108E20002840005A70B5104C4FF08071A66AA36DAF
:108E30000E4813F4803F18BF4FF480320C4B18BF1C
:108E40009A6299623246A569FFF7A4FFA36DC5F344
:108E50000725DB0305D532464FF480310348FFF781
:108E600099FF284670BD00BF0040005A2840005AB4
:108E70000050005A4FF4803310481149826A8B62C7
:108E8000836D03F00303032BFAD14FF080730D4879
:108E90008B620A4B996D30EA0101FBD10120084930
:108EA0000865996D8907FCD4044B996D8807FCD53A
:108EB000996D8907FCD5044904486BE70040005AC6
:108EC0000050005A03000100000001012840005A30
:108ED00008B538B129F0C5FD002814BF6FF01D009A
:108EE000002008BD6FF01B00FBE703464160EFF375
:108EF000108072B6034AD2F854181960C2F8543878
:108F000029F0C1BBDC5400207FB54FF06042D2F89D
:108F1000003E134C43F00103C2F8003E04F1A003ED
:108F200002935023002503930E4B6846009301954E
:108F300029F046FD0C4B04F19C06C4F89C001E6011
:108F4000EFF3108072B6C4F8F03029F09CFB04F106
:108F5000F4000649FFF7C9FF284604B070BD00BF02
:108F6000CC760020414B030844950020C495002096
:108F70000146EFF3108072B6084AD2F8543802F670
:108F800054022BB1994205D10B68136000230B608A
:108F900029F079BB1A461B68F3E700BFDC540020B8
:108FA0000246EFF3108072B60E4991F8FD30FF2BA8
:108FB00002D1A2B129F067BB1BB9002AFAD0012265
:108FC00003E0002A0CBFFF2201221344DBB281F828
:108FD000FD30B3FA83F35B0981F8FE30EAE71A4605
:108FE000F3E700BFCC7600202DE9F84FEFF31187AF
:108FF000302383F31188584B58495B6903F0010211
:1090000013F0020F03F003034B6110D14AB1544A2D
:10901000D2F838310133C2F8383127F0AFFD28F0EB
:10902000CDFD87F31188BFF36F8FBDE8F88F4AB18C
:109030004B4AD2F838310133C2F8383127F09EFD5F
:1090400028F0BCFDEFF3118A302585F311884FF02D
:10905000000B27F093FD5E46DFF8FC90414B9C68C7
:109060000CB16369B3B100223D4B012E83F83C2162
:1090700004D11BF0020F18BF83F83C6128F09EFD5D
:10908000222802BF0222354B9A618AF31188BFF36E
:109090006F8FC6E723465A693AB91A792179914206
:1090A00088BF1C469B68002BF5D18AF31188BFF35B
:1090B0006F8FD4F810B0BBF1000F1BD0D9F820206F
:1090C000A369A2EB030A4FEAEA72DA4572F10002E1
:1090D00011DB5B44A361E36813B120462168984724
:1090E000B4F806B00136EFF3118A85F3118827F042
:1090F00045FDB3E7DA46EFF3118885F31188204682
:1091000027F0E6FA88F31188BFF36F8F2369002BED
:10911000E1D0A38BBBEB0A0133B1E28B13449BB2CA
:10912000B3F57A7F10D2E383EFF3118A85F31188C8
:10913000204628F0FDFCA36922691344A3618AF349
:109140001188BFF36F8FC6E7A3F57A73E383A36932
:109150000139013BA361E7E700400650006006507B
:10916000CC760020DC5400200CB42DE9F3470AAB88
:1091700053F8048B274F01937B18274E93F834A1A3
:10918000264B8146D3F8F834254A0D463046C8218F
:1091900025F040FE5346C0F1C8010446214A30186C
:1091A00025F038FE0444C4F1C8014B461E4A30196C
:1091B00025F030FE0444C4F1C80130194246019B39
:1091C00026F08CF80444002C1EDD0A22554307F5D6
:1091D0009C7303EB05085B5DB3B114490422404660
:1091E00027F01BF9124D07F59871002818BF41466A
:1091F000686827F037F938B92B682BB15D681DB165
:10920000224631461868A84702B0BDE8F04702B0D0
:10921000704700BF444E030809780020DC5400204A
:10922000544B03085B4B0308614B0308674B03086F
:10923000549500202DE9F04F254B85B01B78C3B322
:10924000244BDFF89890D3F8F864002133461420BB
:10925000214AC9F85060FFF787FF12270025DFF881
:109260008080DFF880B0A8F12F0A18F8013FEBB139
:109270005AF82540E36A039343B127F047FE039B66
:1092800093F82830DB0717D427F07EFE4FF0FF3429
:109290002B465A4600211420CDE90044FFF764FF15
:1092A000FB1C1F2B98BF49F82340013701350C2DBB
:1092B000DBD105B0BDE8F08F27F066FEE36A5C689D
:1092C000A642A4EB060488BF04F1FF34E0E700BF28
:1092D00044130020DC5400206C4B030800000850AD
:1092E00007130020994B030837B5044690F8303037
:1092F000104A00211420FFF737FFFFF79BFF94F877
:1093000030300D4D03F11C0255F822207AB1009245
:1093100000211420094AFFF727FF204694F8303037
:109320001C3355F8233003B0BDE83040184703B074
:1093300030BD00BFC24B0308A4120020EF4B03084E
:109340002DE9F04FBBB0E022002102A826F014F86E
:10935000904B914E1F68914D86E09DF808402A463B
:10936000002117208E4B0094FFF7FEFE822C71D84F
:10937000230640F18480822C00F0A180812C73D1DF
:10938000884A9DF8D48092F80090BDF8DE10B9F1BB
:10939000020F9DF8DE40BDF8DC209DF8DC0086F869
:1093A000008073D14FF0060A090A120A7170B47076
:1093B000F27030719DF8D350CAF1A804AA2D28BFCD
:1093C000AA25E4B2A54228BF254606EB0A002A4694
:1093D0005FFA85FB0DF1290100F801BC26F0E0FEE3
:1093E00018F0080F59D00AEB0B04E4B2C4F1A8033B
:1093F000DBB21D2B4FD8C4F1A70414F0FF040AD030
:10940000621E55447255013503A9701926F0C8FE35
:10941000A3445FFA8BF49DF8E02006EB0A03B9F150
:10942000020F1A550ED19DF8E110621CD2B2995468
:10943000A21C9DF8E410D2B2995403349DF8E520A3
:10944000E4B21A550AF10103E118C9B2A82019F0D3
:10945000D7FA80E7842C07D0234602211720524AEE
:10946000FFF782FE862C35D0786802A929F056FBDA
:10947000012882463FF471AF3BB0BDE8F08F234630
:1094800002211720484AFFF76FFEEDE74FF0040A6C
:109490007470B0708EE71E24B2E7AC429EBFCAF172
:1094A000A704E4B225464FF00003554488BF0BF1F2
:1094B000010BEDB288BF5FFA8BF47355ABE79DF8F3
:1094C0001030BDF80E109DF80C000DF1110204F0E3
:1094D000BBF840E79DF8B930072B58D19DF80E40F6
:1094E0009C2C54D82F4BBDF80C201B782A4D022BF6
:1094F00018BF53469DF80C1008BF120A03F1010073
:1095000006BF69702A70297022465FFA80FA0DF151
:109510000F0155FA80F09DF8C190EC5426F040FE02
:10952000072304EB0A01C9B26B54DDF8BA004B1CE7
:10953000DAB2A850BDF8BE2055FA83F39A809DF8A0
:10954000C0201A489A7101F10803DBB2C9F300097F
:1095500005F8039001F1090290F80532D2B2AB543C
:10956000FF22B3FBF2F2C2EB02229B1A01330A3153
:1095700080F80532C9B26C2019F042FA103001218E
:109580000B4B8140D3F8040528F0C4FEE3E610201D
:10959000F5E700BF5C1200201F1000201F4C0308DD
:1095A000A44F0308A4940020354C0308CC76002077
:1095B000DC540020F0B5A9B08822002106A825F0CF
:1095C000DBFE824B824D1F68824E05F11C04F86859
:1095D00006A929F0A3FA012801D029B0F0BD9DF811
:1095E00018303246009300212B461720FFF7BCFDB0
:1095F0009DF81830C62B0BD8BF2B55D9A3F1C0024C
:10960000062A51D8DFE802F02750500B0B444C00DB
:10961000D72B04D003F12602D2B2012A44D89DF8F8
:10962000183032460093002123460120FFF79CFDAD
:109630009DF81830DB2BCAD8D02B37D8C32B51D08C
:10964000C42B5BD0C02BC2D1234600210120624A2B
:10965000FFF78AFDBBE72B46002117205E4AFFF784
:1096600083FD9DF820302BB9022117205B4AFFF7BC
:109670007BFDD4E7564B00211720594AFFF774FDB4
:10968000079B002BCBD09DF8210009A99847C6E77E
:109690009DF81C30534A02211720FFF765FDBEE7F5
:1096A0009DF81C30504AF6E7504AF4E7D13B0A2BAC
:1096B0008DD801A252F823F093970008CF950008A7
:1096C000CF950008CF950008CF950008CF950008EA
:1096D00061970008CF950008CF9500083B970008D8
:1096E00011970008234600210120414AFFF73CFD65
:1096F0009DF81C103F48FEF70CFC68E7234600214C
:1097000001203D4AFFF730FD3C48FEF7FBFB5EE7DA
:10971000234600213A4A0120FFF726FD394B9DF8E8
:109720001C101A78002A3FF452AF374B632059704F
:1097300002211A7019F098F949E723460021334AAB
:109740000120FFF711FD324B9DF81C101A78002AFA
:109750003FF43DAF2C4B612059701A700221E9E7AC
:109760002346002101202B4AFFF7FEFC9DF8203004
:1097700003A88DF80C30BDF821305BBAADF80E307F
:109780009DF823308DF8143009AB049301F044FEAA
:109790001DE72346002101201F4AFFF7E5FC1F4B70
:1097A0009DF820C01878BDF82110BDF823200028AE
:1097B0003FF40DAF144B49BA52BA18709970A420F7
:1097C000042183F801C0DA70B4E700BF5C12002006
:1097D000B54F03084E4C03086B4C0308884C030834
:1097E000A54C0308BE4C0308E44C0308074D0308CE
:1097F000284D030810140020544D03086413002062
:109800007A4D0308DE1300201F100020AB4D030823
:1098100018140020DB4D0308084E0308191400201B
:109820001FB50023B0F5807F019300F041816AD815
:10983000002800F001812038602877D8602875D88A
:10984000DFE810F0FA000801FA000801170117011B
:10985000170117011701080124017F00B300470118
:109860007F0008010801080174007400740074008E
:10987000740074007400B300080108010801A0011D
:1098800066010801740074007400740074007400B0
:109890007400740074007400740074007201170185
:1098A000FA00FA00FA0057017F007F007601E1001C
:1098B0009600F100F10074007400740074007400EC
:1098C00074007400740074007400740074007400F8
:1098D00074007400740074007400740074007400E8
:1098E00074007400740074007400740074007400D8
:1098F00074007400740074007400740074007400C8
:1099000074007400F600B0F5F06F00F03B8151D8A0
:10991000B0F5607F00F0A5801ED8B0F5007F00F0A4
:109920008E8007D8B0F5C07F00F08680019805B022
:109930005DF804FBB0F5207F00F08C80B0F5407F2F
:10994000F4D126F05BFE964B1B6FC3F380230133EB
:10995000B0FBF3F040086DE0B0F5B06F00F096801A
:1099600018D8B0F5806F00F08480B0F5A06FDDD11D
:1099700000218B4B0391D3F8203203F00703042B13
:1099800006D8022B7ED8012B78D0022B00F0E6807F
:10999000039B97E0B0F5D06F00F09B80B0F5E06FCF
:1099A00000F0B680B0F5C06FC0D1002101A8FDF76E
:1099B00037FABBE7B0F5206F00F0BA801BD8B0F5DE
:1099C000106F00F09680B0F5186F00F0AD80B0F524
:1099D000086FABD1724BD3F8003103F00303022BB5
:1099E00000F0D780032B00F0D780012B40F0D68009
:1099F0006C4B1B6866E0B0F5306F00F0B5800CD89A
:109A0000B0F5286F92D10021654B0391D3F87032E5
:109A100003F00303012BBBD19CE0B0F5386FC4D039
:109A2000B0F5406F82D1002101A8FDF7C3F97DE7B1
:109A300026F0C4FD019079E726F0E0FDFAE726F074
:109A4000BDFD574BD3F89030C3F304630133B0FB33
:109A5000F3F0EFE726F0D2FD514B1B6FC3F38023E9
:109A6000F4E726F0ABFD4E4BD3F88030C3F301137F
:109A7000ECE7002101A8FCF769FE57E703A8FDF712
:109A800099F985E74FF40043039381E70021444BA4
:109A90000391D3F8803103F00303022B62D0032B30
:109AA0005CD0012B7FF474AF03A8FCF74FFE6FE787
:109AB00002934FF0E0231B695A0705D526F09EFD5F
:109AC0000290029B019331E703A902A8FDF7A8F9D0
:109AD000F7E7334BD3F8003203F00700032812D026
:109AE0005B070AD4013801288CBF00200120C00385
:109AF000A0E72B4BD3F80832EEE7042806D126F076
:109B00007DFD800A96E74FF47A7093E7002091E795
:109B1000234BD3F8403203F00303032B36D0003B32
:109B200018BF0123DB03CDE71D4BD3F85032F2E71A
:109B3000002303931A4BD3F8603203F00703013B71
:109B4000032B3FF625AFDFE803F002040D090021E7
:109B5000AAE7002103A8FDF763F919E726F062FDE3
:109B6000039015E7104B8FE70D4AD2F8902202F0D0
:109B70000302012A04D0022AC8D126F053FD59E776
:109B8000094857E7064BD3F86031C4E74FF47A73BE
:109B900098E74FF4004395E7044B93E7002391E7E0
:109BA00000800050DC940020002D310180D543025C
:109BB00008B58020FFF734FE034B98429EBF4FF458
:109BC0008032024B1A6708BD005A620200A00050A2
:109BD00008B54FF4C070FFF723FE0649064A8842D5
:109BE00094BF00200120136F23F4806343EA802395
:109BF000136708BD80F0FA020080005038B50546B2
:109C000026F0FCFC0446FDF7A3F80128D4BF01218F
:109C100000212046FDF724F900201CF071FE25B13B
:109C2000FFF7D6FFBDE83840C2E70649064A0B6F8A
:109C300092F8282823F48063013A43EA82230B67D1
:109C4000F0E700BF00800050DC5400202DE9F04117
:109C5000EFF31187302383F311882F4E96F80632E5
:109C6000002B53D12D4A2E48C2F8AC389360C6F869
:109C7000383128F0B4FF2B494B680BB1FDF75EF883
:109C80000122294B5A604C6814F00204FBD10322D4
:109C90000125254B25488C604C6245609A615A61CC
:109CA000FDF74CF80223CB600C62FDF747F8CD605E
:109CB000FDF744F8CD60FDF741F84FF480221C4BCE
:109CC000C3F880211A608561EFF31188302383F394
:109CD00011884FF4F060FFF7A3FD024688F3118866
:109CE000BFF36F8F134B186030B987F31188BFF340
:109CF0006F8F2320BDE8F081234640F2E7310E4804
:109D000024F0F8FE86F80652C6F8080287F3118898
:109D1000BFF36F8F0020EDE7CC760020DC540020ED
:109D200000500308004006500060065000500650E6
:109D300000E100E05017002018FCFFFF00232DE990
:109D40008048B448B44AB54C121A89B0C4F82C08FB
:109D5000C4F8302884F84838C4F85038C4F84008AB
:109D6000C4F84408FDF7B3FB0123013AD20842804E
:109D7000C4F83C3808234FF48030A949A94AC4F8F4
:109D80003438C4F838384B6E5066486E4FF0004196
:109D90004AF6CD355166A44903F480334A6C0D640C
:109DA00002F001024D6BEE07FCD401259F494D6086
:109DB000A1F500510D6BED07FCD50AB19C4A0A6470
:109DC0000028A2BF4FF000419A4A51661BB94FF4D8
:109DD0008032984B5A66984828F001FF26F02CFEF6
:109DE000964B1860EFF31183302282F31188944D63
:109DF00095F80C22002A40F07C83012285F80C2281
:109E000083F31188BFF36F8F6FF0040210460132A5
:109E1000052152B2FDF72CFA4C2AF7D14FF000433E
:109E2000804F07227B664AF6CD337F4E0B20D6F853
:109E300044803364834BDA63FDF75EF87368002077
:109E400023F4F87343F48073736040F20913B36032
:109E500040F2031333611AF029FB18F0010F18BF09
:109E6000734B4FF0800018BF33646D4B596E4FF049
:109E700000437B664AF6CD33776C3364FDF73CF8DC
:109E8000336AFF0723F00F0343F00603336248BF32
:109E9000674B6D4848BF33640029A2BF4FF00042B2
:109EA000644B5A6628F09BFE684AD2F84C3113F492
:109EB000802300F023834FF07E6292F89C3092F969
:109EC0009C20002AB8BF26234FF40001554A0220E7
:109ED00051664FF4D15102F5B83251625C494F2BB3
:109EE000486028BF4F23012001F58051DBB2486054
:109EF000116911F48031FBD143F48073536140F256
:109F000001439360514B5160D3F84C21100340F151
:109F1000F882A3F5FE431F88B7F5807F28BF6A2724
:109F20004C4BDFF850A1DFF85081CAF800303C4BB1
:109F300098F911901B6FB94403F00703032B89F3C1
:109F4000080901D126F05AFB17F0D0FF032852D0A0
:109F50004FF48012334B404E5A6645F60E034FF0D5
:109F6000A062C6F880303D4B9A624FF4803203F510
:109F700080539A62B36DD903FCD4B36D5A00FCD4FC
:109F8000374B4FF400623361B3694FF4406103F023
:109F9000004343EA094343EA072343F0007343F0D5
:109FA0003C03B3612F48FEF7F5FE336A2E4923F0D8
:109FB0000F033362B26A2D4B134043F48033264AB9
:109FC000B362936D31EA0303FBD14FF080712348F4
:109FD0008162136923F4700343F4401313614FF05B
:109FE00000434FF480328361214B99629A621A4A8E
:109FF000936D5B00FCD44FF4C022144BD3F89860EF
:10A00000084B5A6603F598335A68012A00F07D829E
:10A0100034E000BF8897002000000120DC540020BD
:10A02000008000500090005000400950006009502E
:10A030003254FFFF00A00050005003086495002038
:10A04000CC76002000400050045003080080E00F50
:10A0500000100250C01753020040005A0050005A2E
:10A060002008C00B3840005A03000100C7FFFEFE65
:10A070000060005ADC9400206895002017F036FF3D
:10A0800005280CD10021C548FCF7EAFEC44A136F2D
:10A0900043F4806313674FF48032C24B1A67C24F98
:10A0A000C24BD7F8009026F04076994502D8BB48BD
:10A0B0001CF026FCBE4BDA6812F0060FFBD19A6842
:10A0C0009E6099684E4016F4F81F0DBFB34E9A601B
:10A0D0004E463E6017F00AFF05280FD126F08EFA93
:10A0E0000746FCF735FE0128D4BF01210021384680
:10A0F000FCF7B6FEFFF76CFDFFF75AFD4E4502D8A0
:10A1000000201CF0FDFB4FF40022AA4BA54ED3F813
:10A11000C03072664FF0B442A14F23F04073936099
:10A12000A54828F05CFDFCF7C7FE3B6F002023F03C
:10A13000070343F003033B67FFF760FD3B6F23F426
:10A1400074433B679D4BD3F8FC2012F0807240F0C3
:10A15000E281C6F88020924B4FF48031D3F8202161
:10A16000974822F0070242F00202C3F82021D3F8F8
:10A17000282122F0070242F00202C3F82821D3F876
:10A18000802122F0030242F00102C3F88021D3F8BB
:10A19000902222F0030242F00102C3F89022D3F889
:10A1A000402122F0030242F00202C3F84021D3F81A
:10A1B000602122F0030242F00202C3F86021D3F8CA
:10A1C000402222F0030242F00202C3F84022D3F8F8
:10A1D000002222F0070242F00202C3F80022D3F864
:10A1E000082222F0070242F00202C3F80822D3F844
:10A1F000502222F0030242F00202C3F85022D3F8A8
:10A20000702222F0030242F00102C3F87022D3F858
:10A21000202222F0070242F00102C3F82022614A04
:10A220005E6E5166426A22F001024262F0035CBF38
:10A23000644A51664FF0E0210A6942F004020A6163
:10A24000D3F8602222F0070242F00102C3F8602234
:10A25000EFF3108972B65C4828F0C1FC95F80D3216
:10A260005A4E002B40F07A81FFF7F0FC0746002899
:10A2700000F06181484628F006FAFFF7E7FCFDF799
:10A2800089FA4E4A5249D2F8C03023F0FF0343F016
:10A29000A003C2F8C0304F4B99424F4940F0FD81B6
:10A2A0000B684E48C2F89830C2F89C004C48C2F87F
:10A2B000A00001330B60BFF35F8F05223F4BC3F853
:10A2C00094205A6A42F480325A62BFF34F8FBFF330
:10A2D0006F8FBFF34F8FBFF36F8F28F058FA40B9DD
:10A2E00026F0BAFC012804D1D6F8B4380BB9C6F868
:10A2F000B4080023059328F04AFA074600BB4FF440
:10A30000805028F038FB0546D0B1602028F033FBA0
:10A310000446002800F0E2816022394625F02CF83E
:10A3200005AB2563019336232E4800934FF48062DA
:10A330003B462D49029427F06FFF204627F080F915
:10A34000059BC6F8C43828F022FA0446002840F0DD
:10A35000CF8026F081FC012840F0CA80D6F8B438BE
:10A36000012B40F0C5800223C6F8B43805AB19466E
:10A370001E4A12F8015B03F8015B002DF9D11C4F56
:10A38000A02207F16003CDE900531A482B4602973B
:10A3900028F0C4FA002800F0A9802DE000B4C4041D
:10A3A0000080005000900050D8940020FFB3C404F7
:10A3B000000001500080E00F0850030800ED00E0AD
:10A3C00000C0075000A00050CC480308DC54002017
:10A3D00000940020E0920020D81400200300002008
:10A3E00001000120E779000865540308374E03088F
:10A3F000E47800208120030827F09AF9D6F87C3908
:10A40000002B73D007F538730293372307F5507785
:10A410000093A0222B46B849B848019728F07EFA4D
:10A42000002863D028F0FFF94FF0FF33C6F8F4346A
:10A4300001234FF07F42C6F8B0384FF0E023C6F852
:10A44000F8540595C3F81C2DD3F81C3D1B0E8DF850
:10A4500013309DF813309DF813309DF8133013F02E
:10A46000800F059B40F03E81082B18BF059CA44B34
:10A4700018BFC4F10704240204F4E064C3F8D84709
:10A480004FF0E023D3F8202D002442F47F02C3F8DC
:10A49000202DD3F8202D214642F07F42C3F8202DF5
:10A4A0004FF47A726FF00400C3F81C4DFCF7E0FE25
:10A4B000944B1B6803F2E733B3FBF2F34FF0FF3228
:10A4C000C6F88438B2FBF3F30A3BC6F8803826F0AE
:10A4D000B3FAC6F888080120FDF7F4F9C8F814406B
:10A4E00026F004FD26F06EFBFDF756FAD8F868302A
:10A4F000FEE783F31188BFF36F8F8FE4D2F850210A
:10A50000E2E4D3F85071FFB20AE57F494A605A6825
:10A510009707FCD4B2E5D3F8FC2022F08072C3F890
:10A52000FC200022C6F88020D3F8FC2042F0807284
:10A53000C3F8FC200FE6AFF30080724BC5F8007142
:10A540001B68C4F85478C5F81032704B5A6F42F04B
:10A5500001025A67DA6E22F03002DA664FF0000B21
:10A56000584685F814B21CF0CBF998F86430D5F849
:10A5700010728BB1654962684B6F23F440734B676F
:10A58000BB01634903F5742303F23F23B3FBF1F3EB
:10A590001344636088F864B04FF480125D49D1F8C9
:10A5A00000315D4B5A664FF400325A660B6F5B4ABE
:10A5B00003F00703C4F85C389269032B02F0020031
:10A5C000C2F3400284F859280BD0D1F8203103F0AF
:10A5D0000703022B05D0D1F8283103F00703022B23
:10A5E0001FD10123237040BBD5F810324849C3EB7B
:10A5F000431202F5742202F23F22B2FBF1F26068CC
:10A60000024462604FF4C872534303F5742303F2AB
:10A610003F23B3FBF1F3C5F80831012385F80D3270
:10A6200028E6002323700028DED0D1F8003103F0A3
:10A6300003035A1E534253412370364BD3F8003163
:10A6400003F00303022B23D0032B24D0012BCBD107
:10A65000DAF80020002AC7D0304BDFF8B4A0DB685E
:10A66000501EC3F30B0C002319460CF1010C0CEB2C
:10A670008C0CECFB0A0124F03DFA784300F57420C1
:10A6800000F23F20B0FBFAF0736818447060ABE74B
:10A690004FF40042E0E7224ADEE723F01F03203BAD
:10A6A000B3F1005F0BD308681E4CC2F8980043F06A
:10A6B00001030130C2F89C40C2F8A03008601A4A79
:10A6C0000B681A4822F01F0242F00302C0F89830CB
:10A6D000C0F89C20164AC0F8A020EAE5284628F0D9
:10A6E000F8F82DE6013305939DF813305B00DBB2DB
:10A6F0008DF81330B1E600BF3C4E030889170308FC
:10A70000CC7600205017002000E00150004000509F
:10A7100040420F00008000500090005000C00150E7
:10A7200080D54302030000201F94002000ED00E0CC
:10A73000E1FF00200348044B834202D0034B03B1E6
:10A74000184770478497002084970020000000007D
:10A75000064B0749C91A891048BF0131491003D077
:10A76000044B0BB101481847704700BF8497002085
:10A77000849700200000000010B5064C237843B9F0
:10A78000FFF7D8FF044B13B10448AFF30080012357
:10A79000237010BDA892002000000000C8B4030878
:10A7A00008B5054B1BB105490548AFF30080BDE86E
:10A7B0000840FFF7CDBF00BF000000008853002015
:10A7C000C8B40308A3F5803A704700BF174B002BAD
:10A7D00008BF134B9D46FFF7F5FF00218B460F4640
:10A7E0001348144A121A24F0C7FD0E4B002B00D058
:10A7F00098470D4B002B00D0984700200021040003
:10A800000D000D48002802D00C48AFF3008000F086
:10A8100029F820002900FFF791FA00F011F800BF95
:10A8200000000800000000000000000008040020F4
:10A8300008040020E092002000000000000000005A
:10A8400008B5064B044613B10021AFF30080044B5A
:10A850001B6803B19847204604F04FFB000000003E
:10A86000D854002070B50D4D00260D4C641BA4106B
:10A87000A64209D10B4D00260B4C28F0C1F9641BF0
:10A88000A410A64205D170BD55F8043B0136984787
:10A89000EEE755F8043B01369847F2E77C97002035
:10A8A0007C9700207C97002080970020704770479D
:10A8B000704770477047FEE72DE9F04104460C26CB
:10A8C0004FF00108124D0CB314F001000BD0002022
:10A8D00024F0010406FB00525768002FF3D0916862
:10A8E000C0B2B847EFE72246013020284FEA5202B3
:10A8F00001D0D307F8D508FA00F20F2824EA0204A1
:10A90000E8D9103806FB0052B432E5E7BDE8F08123
:10A9100008040020074BD3F82404D3F8202403F5BF
:10A920000053104000F0553020F05020C3F82004B0
:10A93000C2E700BF00C00350074BD3F82404D3F88C
:10A94000202403F50053104000F0AA3020F0A0208E
:10A95000C3F82004B0E700BF00C0035010B503786F
:10A96000CBB15A1ED2B2022A14D80C4931F81220A7
:10A970004078C240D2070DD5EFF31184302282F324
:10A98000118801215343064A8140D15084F3118834
:10A99000BFF36F8F10BD40F2FF72E9E77843030801
:10A9A00040F0035002461378002030B50BB3591E17
:10A9B000C9B2022918D8104C34F811105478E1406B
:10A9C000C90711D5EFF31185302181F311884B436D
:10A9D00003F1A04303F570331B6CE34003F0010067
:10A9E00085F31188BFF36F8F93780BB980F0010066
:10A9F00030BD40F2FF71E1E7784303084369426CE0
:10AA0000D91C143AB1FBF2F103EBC1000330B0FBE7
:10AA1000F2F00230704738B505460C46FFF7EEFFFE
:10AA20006A6CE31D143AB3FBF2F3013304EBC30485
:10AA300002FB004038BD73B506460D460024F36B9B
:10AA400001225B6901A928199847019B013309D1AB
:10AA5000736C043462196A405B421A42EFD020469C
:10AA600002B070BD0024FAE72DE9F341154690F8D5
:10AA700042201E46012A0CBF022304235D43CF7DE2
:10AA80002C1D844605F00205BFB915B1012724F03D
:10AA90000304486808342044DCF83C30012A5B6930
:10AAA00027D101A9984717B1BDF806300193BDF829
:10AAB0000430336002B0BDE8F08155B124F00304E6
:10AAC00000230D7E01F1200ED8B2854203D800206C
:10AAD000E2E72F46F4E73EF8330003F10108A04215
:10AAE00004D901EBC303D8690834D4E74346241AD8
:10AAF000EAE70122314602B0BDE8F0411847D01E16
:10AB0000009B42424241187E824211D11A688A4219
:10AB10000ED85A688A420BD35A6901325A61D3E976
:10AB2000030282423FBF986840F8221001321A6146
:10AB30000120704700234FF0FF3230B544689C423B
:10AB400002D10023037230BD016801EBC30541F857
:10AB500033206A600133F2E70023F0B545689D4277
:10AB600010D00468DF0054F8332004EBC306B2F1C0
:10AB7000FF3F08D0C2F31302914204D14FF0FF33DC
:10AB8000E3517360F0BD0133E9E710B5032A029C7D
:10AB900007D1A26A5340626C5242134201D1FFF7BF
:10ABA000DBFF012010BD0023F0B545689D4202D1B6
:10ABB0004FF0FF300EE00468DE0054F83340671CAD
:10ABC00009D0C4F31307B94205D1240D14700368EA
:10ABD00033445868F0BD0133E8E773B5164600F119
:10ABE00008040D46204609680DF10702FFF7DBFF58
:10ABF000032E05D16B68834202D12046FFF7ACFFDC
:10AC0000012002B070BD00BF2DE9F043466886B355
:10AC1000056898464FF0000CA946AE4655F83C40F2
:10AC20000CF1010CC4F31307013401D0B94217D061
:10AC300066450EF1080EF1D12F46002403E0A6422E
:10AC400007F1080712D055F8343001340133F6D13A
:10AC5000C1F3130141EA0851C7E90012BDE8F083CE
:10AC600041EA0851CEE90012BDE8F083B8F1030FC4
:10AC700003D101230372BDE8F083002303E09E4269
:10AC800009F10809F5D055F833400133C4F30754EE
:10AC9000032CF4D1C1F3130343EA0853C9E900328A
:10ACA000BDE8F08308B508301346D1E90012FFF77C
:10ACB000ABFF012008BD00BF2DE9F041064640680A
:10ACC00082B0C0B10F4690460024336853F8345028
:10ACD00003EBC403C5F30752C5F31301013504F1B7
:10ACE000010406D05B683046CDF80080B84710B14B
:10ACF00070688442E9D302B0BDE8F0814FF480323D
:10AD0000064B00209A6641F6713203F51C33DA6374
:10AD1000012203F50053DA60704700BF0090005035
:10AD200041F671320121064BDA6303F50052D1601E
:10AD30000022DA634FF48032A3F518339A66704725
:10AD400000000350704737B5054601F10C04436914
:10AD500001A9012220469847BDF804300122009342
:10AD600069462046AB69984703B030BD38B520220C
:10AD700004460D460C30002124F0FEFA4FF0FF335C
:10AD8000C4E90035A36038BD38B5064D04462B78BC
:10AD9000834206D0044B0421D3F8680127F0BAFAA5
:10ADA0002C7038BD5C940020080400200B4A92F8F7
:10ADB0006E3183B1013B82F86E3192F86C31013310
:10ADC000DBB2082B28BF002382F86C31002301205E
:10ADD00082F8BF36D8E792F86D31F5E70804002015
:10ADE0000B4A92F8C23683B1013B82F8C23692F820
:10ADF000C0360133DBB2082B28BF002382F8C036EF
:10AE00000023012082F8BF36BEE792F8C136F5E78D
:10AE10000804002010B5074CC378084484F8133C9C
:10AE20000379012084F8143CFFF7AEFF002384F877
:10AE3000153C10BD08040020094B5A69002A09DBA3
:10AE40005A6AD207FCD40122064B5A60044A53685E
:10AE50009B07FCD40022044B012083F8162C93E7B7
:10AE60000040005B0060005B0804002008B5131E72
:10AE700040F2FF7218BF0A4601211BF0AFFDBDE88A
:10AE80000840022080E7034B024603F6174193F87F
:10AE90009F0DEBE708040020204BD3F8542E1269D5
:10AEA0009169080E83F8170C080C83F8180C83F8C6
:10AEB0001A1C080AD16983F8190C080E83F81B0CB8
:10AEC000080C83F81C0C83F81E1C080A116A83F80E
:10AED0001D0C080E83F81F0C080C83F8200C83F857
:10AEE000221C080A516A83F8210C926A080E83F822
:10AEF000230C080C83F8240C83F8261C080A110E76
:10AF000083F8271C110C83F8250C83F8281C1420C7
:10AF1000110A83F8291C83F82A2CB4E708040020BE
:10AF2000154BD3F8542E12691168090A83F8171CBF
:10AF3000116883F8181C5168080A83F81A1C916874
:10AF400083F8190C83F81C1C080AD16883F81B0CC1
:10AF500083F81E1C080A1169526983F81D0C080A3F
:10AF600083F81F0C83F8201C0C20110A83F8211C85
:10AF700083F8222C87E700BF08040020114BD3F888
:10AF8000542E03F61D435269917903F8061CD178BB
:10AF900003F8051C1179527903F8041C03F8032CFB
:10AFA000AB2203F8022CCD2203F8012C064A02F151
:10AFB000100152F8040B8A4243F8040BF9D1162011
:10AFC00061E700BF080400207E4303080A210D4BFF
:10AFD000D3F80C2DB2FBF1F283F8172CD3F8542DD3
:10AFE000B2FBF1F283F8182C027902EB82025200D4
:10AFF000C3F80C2D4279022002EB82025200C3F802
:10B00000542D40E70804002000210120014B024A92
:10B01000FEF7AAB8A6430308282C0308F7B50126B3
:10B02000194A1A4D1A49AA4221D31A4B1A491A6BC6
:10B030000024B2F5803F88BF9A7B174D84BF42F051
:10B0400020029A73C0782822FFF710FF134F144E86
:10B0500015F8013B3246CDE9004300213B46012073
:10B060000134FEF781F8282CF2D103B0F0BD12F8BC
:10B07000083B013BDC100F5D03F0070306FA03F306
:10B080003B430B55CFE700BFD8630008E8660008D4
:10B09000659400205C9400205D940020B843030870
:10B0A0003F2C030873B5184C0021D4F8543E0120FE
:10B0B0009B69164A9D68DE88154B0095FEF754F88B
:10B0C00001200021124B134A0096FEF74DF82B0E7B
:10B0D00084F8173C2B0C84F8183C2B0A84F8193C94
:10B0E0000D4B84F81A5C93F84830022B09BF0520F9
:10B0F0000420330A84F81B3C0444013084F8176CA4
:10B1000002B0BDE87040BEE608040020632C0308CE
:10B11000EC4303087B2C03085C94002037B50F4DEB
:10B120000021D5F8543E01209B690D4A5C880D4BE7
:10B130000094FEF719F80C4B93F84800E3B202288C
:10B1400011BF0120240A85F8174C85F8183C18BF58
:10B1500085F8173C03B0BDE8304094E608040020B1
:10B16000972C0308124403085C940020384C8FB5D8
:10B17000054601224FF4967004F65861FCF7EAFB8D
:10B1800094F8583E022B03D884F8593E19F0D8F9A8
:10B19000304ED4F85C7E304BA02200213046C4F8FB
:10B1A0006871C4F8607EC4F8545EC4F8983E24F018
:10B1B000E3F80C2384F8C13E06F13403C4F8C43E1E
:10B1C000052384F8C83E20230025C4F8CC7E01273F
:10B1D000301D0393039B84F83C5F27F092FA2A46C4
:10B1E00029462846C4F8BC6E84F8B87E1AF086FA60
:10B1F00029462A4638461AF081FA94F8403F00253D
:10B20000062B4FF00603154A284687BF84F8403FB7
:10B21000C4F8442FC4F8442F84F8403FC4F8485F72
:10B22000FFF7B2FD294601200D4B0E4AFDF79CFFAA
:10B230000D4E0B4D0D4C304617F042FC0028FAD055
:10B2400000902B46224600210120FDF78DFFF2E7FA
:10B2500008040020A4120020A89400204044030801
:10B2600058440308B22C030848130020DA2C0308C2
:10B27000054B022193F84C2F83F8180C122083F809
:10B28000172C17F0F1BB00BF0804002010B4304C9D
:10B2900084F8182C94F84D2F84F8171C002A54D0E9
:10B2A000002B52D00A211A68B2FBF1F2120A84F87C
:10B2B000192C1A68B2FBF1F284F81A2C1A791A21A7
:10B2C00084F81B2C5A7984F81C2C9A7984F81D2C4C
:10B2D000DA7984F81E2C1A7A84F81F2C5A7A84F8AA
:10B2E000202C9A7A84F8212CDA7A84F8222C1A7B82
:10B2F00084F8232C5A7B84F8242C9A7B84F8252C00
:10B30000DA7B84F8262C1A7C84F8272C5A7C84F863
:10B31000282C9A7C84F8292CDA7C84F82A2C1A7D33
:10B3200084F82B2C5A7D84F82C2C9A7D84F82D2CB3
:10B33000DA7D84F82E2C1A7E5B7E84F82F2C84F81C
:10B34000303C5DF8044B17F08FBB0221F9E700BFDA
:10B35000080400200B460349024691F84E1F1320B3
:10B3600094E700BF080400200B460349024691F809
:10B370004E1FA9208AE700BF080400200B4603499E
:10B38000024691F84F1FAC2080E700BF0804002060
:10B39000054B022193F8512F83F8180C142083F8E1
:10B3A000172C17F061BB00BF08040020054B0221D9
:10B3B00093F8512F83F8180CAB2083F8172C17F053
:10B3C00053BB00BF08040020054B022193F8522F05
:10B3D00083F8180C482083F8172C17F045BB00BFE2
:10B3E00008040020054B022193F8532F83F8180C12
:10B3F000682083F8172C17F037BB00BF0804002023
:10B40000044B012193F8542F422083F8172C17F096
:10B410002BBB00BF0804002070B4224B93F8142CFF
:10B42000002A3CD0017883F8172C83F8151C1E499C
:10B43000027891F8481083F8182C02290CBF0124D7
:10B4400000244288017A03BF120A83F8192C42882B
:10B4500083F8192C08BF83F81A2CC4F1A402D2B2C5
:10B46000914288BF0272027A1D1985F81A2C42682F
:10B470009AB9017A93F8130C04312144C9B270BC13
:10B4800017F0F2BA46680131B65C2A4482F81B6CA8
:10B49000067ACAB29642F5D8EBE70021F8E770BC0D
:10B4A000704700BF080400205C9400201FB5094BC2
:10B4B0008DF80400D3F8543E01A89B69DB88ADF8F1
:10B4C0000630002302938DF80C30FFF7A5FF05B07E
:10B4D0005DF804FB08040020054B022193F8552F6A
:10B4E00083F8180C572083F8172C17F0BDBA00BF4B
:10B4F00008040020054B022193F8562F83F8180CFE
:10B50000542083F8172C17F0AFBA00BF08040020AE
:10B51000054B022193F8572F83F8180CA22083F8CB
:10B52000172C17F0A1BA00BF08040020054B022118
:10B5300093F8582F83F8180CBE2083F8172C17F0B7
:10B5400093BA00BF0804002000B5ABB0A8220021C8
:10B55000684623F011FF68238DF800300A4B4FF442
:10B56000FA72D3F8543E69469868FCF74BFD28B14F
:10B5700002210120054B064AFDF7F6FD0122054B8D
:10B580001A702BB05DF804FB08040020684403081F
:10B59000F92C03085C94002000B5ABB0A822002170
:10B5A000684623F0E9FE45238DF800300A4B4FF43E
:10B5B000FA72D3F8543E69469868FCF723FD28B127
:10B5C00002210120054B064AFDF7CEFD01202BB0DC
:10B5D0005DF804EBFFF7D8BB0804002076440308AD
:10B5E000202D030810B5174C0379AAB084F8543FF6
:10B5F00013B30023C4F8603F134BC4F85C3FA82288
:10B600000021684623F0B8FE44238DF80030D4F8BA
:10B61000543E4FF4FA7269469868FCF7F3FC28B17F
:10B6200002210120094B0A4AFDF79EFD01202AB0A4
:10B63000BDE81040FFF7A8BBC4F85C3FC4F8603F0A
:10B64000DDE700BF0804002001B4000884440308BB
:10B65000502D030870B5AAB0054616460C46A82220
:10B660000021684623F088FE5A2301968DF80030A9
:10B670008DF8085024B17223ADF80A408DF80030DF
:10B68000044B0022D3F8543E69469868FCF7BAFC94
:10B690002AB070BD0804002038B50D4D044695F859
:10B6A000153C023B022B04D8BDE838400120FFF7CF
:10B6B0006BBB0121FFF7AEFB95F8143C054A002B4C
:10B6C000207908BF0022BDE838400021C2E700BF52
:10B6D0000804002019B4000870B5144B054693F80F
:10B6E00048304479022B0FD10121B0F8054064BAEB
:10B6F000A4B20F4E96F8153C023B022B06D8BDE8CB
:10B7000070400120FFF740BB0021F2E728460231DC
:10B71000FFF780FB96F8143C2146002B054A287958
:10B7200008BF0022BDE8704094E700BF5C94002091
:10B730000804002019B4000870B5164C054694F8AA
:10B74000153CAAB0023B022B05D801202AB0BDE867
:10B750007040FFF719BB0121FFF75CFB94F8143C24
:10B76000A822002B4FF0000168462E790A4D08BF31
:10B77000002523F001FE67238DF80030D4F8543EF5
:10B7800000226946986801958DF80860FCF73AFC3C
:10B790002AB070BD0804002019B4000810B5AAB082
:10B7A0000479A8220021684623F0E6FD50238DF895
:10B7B0000030084B0022D3F8543E694698688DF853
:10B7C0000440FCF71FFC01202AB0BDE81040FFF741
:10B7D000DBBA00BF0804002030B50D4BABB00579D3
:10B7E000A82200216846D3F8544E23F0C5FD7923E2
:10B7F0004FF4FA726946A0688DF800308DF8045055
:10B80000FCF700FC01202BB0BDE83040FFF7BCBACC
:10B810000804002000B5ABB0A8220021684623F040
:10B82000ABFD70238DF80030054B0022D3F8543E59
:10B8300069469868FCF7E6FB2BB05DF804FB00BF97
:10B840000804002000B5ABB0A8220021684623F010
:10B8500093FD71238DF80030054B0022D3F8543E40
:10B8600069469868FCF7CEFB2BB05DF804FB00BF7F
:10B870000804002008B516F0AFFFBDE8084004201A
:10B88000FFF701BB02232DE9F041274FBAB097F82B
:10B890004F2F8DF8073003799A4242D14379821DA8
:10B8A0008DF8073002AC00F11E0325461068516880
:10B8B000083203C59A422C46F7D1106828609DF8DB
:10B8C0000730052B27D109AC02AD0FCD0FC495E889
:10B8D000070084E80700A822002110A897F8508FDD
:10B8E0009DF8076023F048FD8B23F6B28DF8456084
:10B8F00012AD09AE8DF840300FCE0FC594E80700A9
:10B90000D7F8543E85E807000022986810A98DF802
:10B910004480FCF777FB01203AB0BDE8F041FFF727
:10B9200033BA3AB0BDE8F0810804002010B40F4BE0
:10B9300093F8642F83F8180C83F8172C93F84D2F85
:10B940008AB181B103F6194201F11C0051F8044B90
:10B95000814242F8044BF9D11E2193F8650F5DF83E
:10B96000044B17F081B80221F7E700BF080400205C
:10B970002DE9F0414F4D044695F8153CACB0023B23
:10B98000022B10D8037903F00F03052B0BD00021F5
:10B990000120494B494AFDF7E7FB01202CB0BDE8E7
:10B9A000F041FFF7F1B901212046FFF733FA23797F
:10B9B00003F00F02082A2BD1002101203E4B404A00
:10B9C000FDF7D2FB95F8143CA822002B4FF00001A4
:10B9D00002A894F804803B4E08BF002623F0CCFC5C
:10B9E00064238DF80830D4F806300396CDF8113072
:10B9F000D4F80A308DF81080CDF81530D5F8543EC3
:10BA00000022986802A9FCF7FDFA2CB0BDE8F0818D
:10BA100000930021284B01202B4AFDF7A5FB237939
:10BA2000013B092B43D8DFE803F005272A2D3033EB
:10BA300036393C3F204B254A00210120FDF794FB7D
:10BA4000637900210120224A00931B4BFDF78CFBF8
:10BA500095F8143CA822002B4FF0000102A826798B
:10BA6000184C08BF002423F087FC592303948DF859
:10BA700008308DF81060C1E70F4B164ADCE70E4B1B
:10BA8000154AD9E70C4B154AD6E70B4B144AD3E7B6
:10BA9000094B144AD0E7084B134ACDE7064B134A2B
:10BAA000CAE7054B124AC7E7034B124AC4E7024BE9
:10BAB000114AC1E7080400208F4403087A2D0308C7
:10BAC000F62D030819B40008392E03085B2E03086D
:10BAD0007B2F0308702E03088C2E0308A32E030867
:10BAE000BD2E0308D32E0308F02E03080A2F0308E7
