S02600007A776176655F6E63705F73657269616C5F6170695F636F6E74726F6C6C65722E733337E6
S3150800600008040020B7C60008F3A80008F3A800088B
S31508006010F9660008F3A80008F3A80008F3A8000822
S31508006020F3A80008F3A80008F3A80008C90703089E
S31508006030F3A80008AC4803086D070308A32703085C
S315080060401D090108F3A80008F3A80008F3A800082A
S31508006050F3A80008F3A80008F3A80008F3A80008A6
S31508006060F3A80008C5460208F3A80008F3A8000824
S31508006070F3A80008F3A80008F3A80008F3A8000886
S31508006080F3A80008F3A8000825900008F3A800085C
S31508006090F3A80008F3A8000879000208F3A8000886
S315080060A0F3A80008F3A8000875A9000851A9000874
S315080060B0F3A80008F3A8000815D50208D1DF0208DE
S315080060C0C9FC0208C5FC020885D70208DFFC0208DD
S315080060D0CDFC0208A1DF0208D1FC020835E002085F
S315080060E06DE00208F3A80008F3A80008F3A8000862
S315080060F0F3A800088D770008F3A80008F3A800089D
S31508006100F3A80008F3A80008F3A80008F3A80008F5
S31508006110F3A80008F3A80008C1440208F3A8000879
S31508006120F3A80008F3A80008F3A80008F3A80008D5
S31508006130F3A80008F3A80008F3A80008F3A80008C5
S31508006140F3A80008F3A80008F3A80008E57B0008F0
S31508006150F3A80008F3A80008F3A8000859BD020828
S31508006160F3A80008F3A80008B9FC0208BFFC020857
S31508006180F0B5114A114C124E00F00105E3695F079C
S3150800619013D40DB9334213D103EA00078F4207D14E
S315080061A00B4A1A40002A0CBF00206FF00100F0BD10
S315080061B0013AEBD16FF00200F9E74FF0FF30F6E74E
S315080061C06FF00100F3E700BF8096980000000350C7
S315080061D0020001002DE9F84F16464FF48032274B8E
S315080061E0274D9A66EB69074603EA020841F67133BA
S315080061F00122EB63234BDFF89490DA600EB9304640
S3150800620029E007F5005404EA09046F61E41BEB6909
S31508006210B44228BF34465B072DD48B465BF8043B53
S3150800622001EB040AAB61D3450ED1042300212120DA
S315080062302B61FFF7A5FF70B92120FFF7A1FF50B921
S3150800624059462744361BD9E708210846FFF798FF21
S3150800625068B104232B6101220B4BDA60B8F1000FF9
S3150800626003D00022A3F50053DA63BDE8F88F5BF884
S31508006270043BAB61D7E74FF0FF30ECE700900050E6
S3150800628000000350001003500020035000E0FFFFF9
S3150800629000000000000000000000000000000000F0
S315080062A022000000BD84010819000000A5C00108ED
S315080062B01500000005CE01081000000081CD010878
S315080062C01200000065A4010813000000CD9B010818
S315080062D011000000B5A901080E000000D9BF010889
S315080062E00D0000003DCF010805000000CDB50108EE
S315080062F0040000005DB601080F000000D582010801
S315080063001A00000095DF01080B000000E18901086A
S315080063100A000000DDBC01080900000099AD01086B
S315080063200800000065DD010803000000A1D101088E
S3150800633002000000D58901080600000079F8010866
S315080063400700000041EC01080100000075F801088B
S315080063502300000065F80108280000004FF801082E
S31508006360270000004DF8010826000000D189010821
S315080063702000000041CD01081F0000001DD10108C2
S315080063801600000079B90108280000005BF801082A
S315080063902700000051F8010826000000D3890108EB
S315080063A02A000000F382010802000000DB890108C8
S315080063B029000000F182010823000000758E0108FB
S315080063C00100000077F8010803000000EF820108C9
S315080063D000000000ED820108D80000007DC5000815
S315080063E0D700000025C50008DF000000E1D5000839
S315080063F0DE000000A5D50008BF000000F1A80008CF
S31508006400A8000000EFA8000849000000EDA8000851
S315080064100A000000EBA800086B000000B9C40008D9
S315080064206A00000051E400086900000021D5000850
S31508006430D6000000F5E300083C00000065EE000801
S315080064402700000059BB00081C00000075C400089E
S3150800645098000000F9D40008650000006FC4000821
S31508006460D400000069C40008D30000004DB100083C
S31508006470D200000041C40008BD000000E5D40008B1
S315080064800B000000D9E400080800000029BB00083A
S3150800649006000000E1B200086000000079D4000898
S315080064A0050000001DEB0008E800000025EE0008C6
S315080064B0E700000069D40008DD000000EDBA000816
S315080064C0DC000000C9ED0008DB00000031C400084C
S315080064D0DA000000CDEC0008C0000000EBC300089D
S315080064E00200000091EB0008A5000000DBC30008CD
S315080064F0A60000006DE30008BE000000F1D3000806
S31508006500A4000000F1E20008A000000029BE00086F
S31508006510A200000089D300080300000061C100083A
S315080065200900000091B2000815000000E5C0000847
S31508006530930000003DE200089200000085E1000893
S3150800654090000000B1BA0008800000009DC0000855
S31508006550630000004DD3000862000000EDE000086B
S315080065606100000065E000085600000031B400082C
S3150800657054000000B5D20008570000003DD20008BC
S3150800658055000000BDD100085800000015D10008CC
S31508006590510000007DD000084700000009D000081F
S315080065A04F0000006DCF000846000000EDCE000841
S315080065B05F000000B5CE00085E0000007DCE000832
S315080065C05000000065DF00084D0000004DBA0008C5
S315080065D03F000000EDB900084B000000ADB9000807
S315080065E04A00000085BC000842000000F9B800080F
S315080065F04100000049C000086800000011DF0008DB
S315080066004800000061DE00085300000029CE00089B
S315080066102800000013BF00082A00000087DC0008D5
S315080066202C0000004DDC000829000000E9A800083D
S315080066303D000000F1BE00082E000000B7BE0008AD
S3150800664024000000C9CD00082300000023DC000850
S3150800665022000000A9CD000821000000F1DB000897
S3150800666020000000B9B300086C00000099BB0008C0
S31508006670AC000000DDCC0008AB0000007DCB0008B4
S31508006680A9000000D5CA000816000000ADB8000829
S315080066901400000021CA00081300000091C9000870
S315080066A01200000019C9000810000000F9DD0008F2
S315080066B03A00000035B2000839000000E5C80008B5
S315080066C03B00000089BB000838000000ADB1000897
S315080066D0370000005DB80008D90000007DC8000832
S30D080066E00700000031B30008B1
S315080066F0013800D0FCE77047BFF34F8F0549064BBA
S31508006700CA6802F4E0621343CB60BFF34F8F00BF41
S31508006710FDE700BF00ED00E00400FA056FF01B007E
S3150800672070477047064B1B684BB11B78032B01BF9C
S31508006730044AD2F8243143F00043C2F824317047A2
S3150800674094130020000003507047704738B5174B64
S315080067500546D3F820010C4600F0070006281FD886
S31508006760DFE800F0040A0E2112161A00012305B10B
S31508006770286004B1236038BD0D4B18680523F6E779
S315080067800C4B18680323F2E729F0F8FE0723EEE717
S31508006790074B18680623EAE7064B18680423E6E75A
S315080067A000231846E3E702230348E0E70080005089
S315080067B0D8940020DC940020002D310108B538B1AA
S315080067C02CF01AF9002814BF6FF01D00002008BD30
S315080067D06FF01B00FBE7034B4FF48071D3F80405F9
S315080067E02BF044BDDC5400200CF010BC2DE9F3411D
S315080067F0264DD5F80A45B5F8087524BA631E03333D
S315080068000AD905F20A501CF00DFA0121044605F2D0
S315080068100A5013F045F801271D4EA5F80875C5F866
S315080068201845A5F816750CF073FC73684FF48002CA
S3150800683093F800800023A5F82075C5F82445CDE90E
S315080068400023F06829F059FB95F85035012B0BD138
S31508006850FF21F06829F0E1FD55222146F06802B0D3
S31508006860BDE8F04129F0E7BD3946F06829F0D5FDC5
S3150800687073681B78012BEFD04246394620461AF03A
S315080068805BF8F568024621462846E8E7DC5400200E
S3150800689068950020AAE7002307B50193104B114A13
S315080068A05B68FE28C3F308030CBF4FF480414FF41E
S315080068B00051D2F8040523B903B05DF804EB2BF0B8
S315080068C0D5BC01AA2BF01AFE019B2BB14FF0E02391
S315080068D04FF08052C3F8042D03B05DF804FB00BFE7
S315080068E000ED00E0DC540020002307B501380193D1
S315080068F007280CD8DFE800F0190B040B160B0B1C45
S31508006900012101AA0C4BD3F804052BF0F7FD019BD6
S315080069102BB14FF0E0234FF08052C3F8042D03B09B
S315080069205DF804FB402101AAECE7042101AAE9E786
S315080069304FF4004101AAE5E7DC540020002307B51F
S3150800694002380193052818D8DFE800F01C171E172F
S31508006950031520210D4B01AAD3F804052BF0CEFD13
S31508006960019B2BB14FF0E0234FF08052C3F8042D62
S3150800697003B05DF804FB1021ECE7054B054A5A62A3
S315080069801AF044FA0221E5E70821E3E7DC5400207F
S315080069900000085001001D0308B5024A024B5A625E
S315080069A01AF034FA02001D0300000850074B93F84A
S315080069B0543513F0300F07D1B0F57A6F04D8012299
S315080069C0022110461EF046BE704700BFDC54002068
S315080069D00CF06CBB08B500200DF09AFD044B4FF483
S315080069E00071D3F80405BDE808402BF03FBC00BF92
S315080069F0DC54002001200DF08BBD02200DF088BD6F
S31508006A0008B51AF0F1FC1CF079F8BDE80840022038
S31508006A100DF07EBD37B5294CE06829F0DDFAC307CD
S31508006A20054602D5E06829F0F6FA15F4881F42D023
S31508006A304FF0FF33CDE90033214B93F8553503F07A
S31508006A40FF0543B100201AF088FB0022E0681146D2
S31508006A5029F0C4FC0125D4E9021029F0C5FC2378E5
S31508006A600A3B012B08D80022E068114629F06CF988
S31508006A706946E06827F0C8FD00220121E06829F090
S31508006A8063F901A9E06827F0BFFD00980D4B18606F
S31508006A90019959601AF0CEFC00201AF05EFB55B138
S31508006AA0636818781BF0E7FF0122E068114629F0B1
S31508006AB095FC1DF07BFF03B030BD00BF6895002034
S31508006AC0DC5400200000085037B51F4DD5F858058E
S31508006AD058B10378DA060AD500217F2381731A464E
S31508006AE001900093084614F0FDFA03B030BD4489BE
S31508006AF063051DD5837BDBB1013B83731AF080FCEC
S31508006B00A0B14FF47A72114B5B689B88B3FBF2F322
S31508006B1003339BB2B5F85C150D48C1F1C801C91A13
S31508006B2089B203B0BDE830401CF0C0BC0323F1E7CE
S31508006B3024F48C63438100210DF0D0FDD5F8583537
S31508006B4024F480645C81D0E7DC540020689500203A
S31508006B503C5A00202DE9F04F664E8FB014220021D2
S31508006B6003A828F0B5FB0221F06803AA29F06FFAFA
S31508006B700446002846D0604D05F2A157D5F844359D
S31508006B8013B19A6801329A601822002108A8BDF844
S31508006B900EA028F09DFB2146F06808AA29F059FAAC
S31508006BA0F8B995F8A0259DF83310B36802EB4200B2
S31508006BB0C2EB801007F800A00B44197E9146032902
S31508006BC007EB000821D80131C9B203291FD00429CF
S31508006BD00CBFBE2140215FFA8AF38B4219D90023E4
S31508006BE03B544FF000082146F06829F036FA022196
S31508006BF0F06803AA29F02BFA0446B8F1000F72D1FF
S31508006C000028BBD10FB0BDE8F08F4021E3E7AA21E9
S31508006C10E1E70132D2B2032A28BF002285F8A0256F
S31508006C2000220092214608F10102F06829F027FAAD
S31508006C309DF83330FE2B04BF337C8DF833301AF0C1
S31508006C40DEFA9DF833B05845CBD9B3682B4A5B4476
S31508006C501B7E5846032B8EBF00230133DBB202F896
S31508006C60393002EBC90A1AF05FFB73688AF801002B
S31508006C701B7863B1012B0AD0022B32D1BBF1020F6C
S31508006C8094BF4FF0000B4FF0010B4FEA4B038AF805
S31508006C9002309DF82E30D5F824258AF80330089B53
S31508006CA0CAF80430D8F801301BBA934211D0D5F887
S31508006CB0443513B15A6901325A610338C3B2012BFC
S31508006CC007D8182303FB0050D0F804380133C0F85E
S31508006CD0043841465046D5F84C3598474FF00108D8
S31508006CE081E70223D3E700288CD00120D5F8343574
S31508006CF0984787E768950020DC540020BA5C002096
S31508006D00034B5A6812B19A6A002AFAD1704700BF33
S31508006D1000400650044BD3F88420D206FBD4D3F89F
S31508006D208400C0F38110704700400050430905D025
S31508006D30012B0CD0022B084B18BF002300F01F00B4
S31508006D4039B103F58053012282401A607047034B1C
S31508006D50F4E703F50053F6E76880005064800050B6
S31508006D60014B5874704700BF68950020014B93F992
S31508006D70110070476895002038B5164B0546D3F8BC
S31508006D8028310C4603F00703013B052B04D8DFE83E
S31508006D9003F00A161E120E1A0023184605B12860BB
S31508006DA004B1236038BD0C4B18680523F6E70A4B77
S31508006DB018680623F2E729F0E1FB0723EEE7074BFD
S31508006DC018680323EAE7054B18680423E6E7022355
S31508006DD00348E3E700800050D8940020DC940020A4
S31508006DE0002D31010E4BD3F8403103F00303022B7B
S31508006DF00DD0032B0FD0012B0BBF0A2301234FF411
S31508006E000042002200B1026001B10B6070470923FD
S31508006E104FF40042F6E70B234FF47A72F2E700BF0D
S31508006E20008000504FF48032104B10B59A66A3F5D7
S31508006E3080531B6FC3F3033303FB00000C4BDC6961
S31508006E40144041F67132DA635A6822F4401259B98D
S31508006E500849884294BF00200120000502435A6071
S31508006E600CB10022DA6310BD0349F2E70090005026
S31508006E7000000350005A6202002D310110B50C4C77
S31508006E8002201FF0B5FC236F0A4AC3F3802301339F
S31508006E900021094882F82838FFF7C4FF236F43F416
S31508006EA0806323674FF4803304F58054236710BD4D
S31508006EB000800050DC54002000B4C404024A536B1E
S31508006EC00342FCD1704700BF004009504FF0004212
S31508006ED00F4B70B55D6E03F580535A664AF6CD338F
S31508006EE004460C4980204E6C0B64FFF7E7FF0B6ADB
S31508006EF023F4F85343EA04230B62F30744BF064B13
S31508006F000B64002DA2BF4FF00042044B5A6670BDB9
S31508006F1000800050004009503254FFFF00A0005086
S31508006F200123F0B5C4B2214DA340D1F800C08F7A31
S31508006F30CC7A0E7B2B65850005F1A04505F58825DD
S31508006F40C5F804C030256843240591F80DC044EA05
S31508006F50074400F1A04000F5802044EA465422F098
S31508006F600302C0F860C0C4650267EFF3118485F3B5
S31508006F7011880F4A087A536500B11364487A00B13C
S31508006F80936308798A7942EA0042084882614D7912
S31508006F90CA79074942EA05428A61064A4363936405
S31508006FA084F31188BFF36F8FF0BD00BF0020045033
S31508006FB000100450000004500123C0B28340EFF3D0
S31508006FC01181302282F31188074AD06A184209D102
S31508006FD0526B93430CBF0120002081F31188BFF345
S31508006FE06F8F70470020F8E700000450114321F026
S31508006FF0F8014904034B490C41F44021063043F893
S315080070002010704700800350021E30B54FF0000074
S315080070100CBF0C25042547F60774084952B9831D89
S3150800702051F82330234023B101308542F6D14FF081
S31508007030FF3030BD00F11203F2E700BF00800350B5
S315080070403AB122F0030202F1A04202F5603209B910
S31508007050106070470002FBE74FF48032064B5A6611
S3150800706003F5E6239B69C3F38512827003F03F029A
S315080070701B0B427003707047009000500020704749
S3150800708047F6FF739A42F0B569D0092969D8364B95
S315080070905B5C032B65D8354DDE0005EBC30415F89C
S315080070A03330A178012B13D10025E078401A8542A8
S315080070B002D30844C0B2F0BD431B6668A0EB530375
S315080070C036F913609642D4BF1D4603F1FF30EEE74A
S315080070D060680028EFD0B0F90040A24204DCB0F99D
S315080070E002409442B8BF144683883544FF2B19BF23
S315080070F0C8232827B0F90630B0F90870A3EB0403B3
S315080071000CBF0122002293FBF7F36E7813441BB2DF
S315080071109E4201DD002B01DA731E1BB24FF47A7C06
S3150800712000EBC305EA88AD685F1C14FB02521D46D6
S3150800713022EAE2723BB25C329E42B2FBFCF204DD0A
S3150800714000EBC307BF88BA42EAD900EBC5039888A3
S31508007150904228BF1046884238BF0846AAE7FF2053
S31508007160A9E70020A7E700BF084C0308441B002036
S315080071700929F0B555D82C4B585C032851D82B4C07
S3150800718004EBC00114F830004B6801280FD1C87809
S315080071908C78904294BFC4EB0001C4EB0201001B3B
S315080071A0CAB28242C8BF002233F91200F0BD002BD2
S315080071B037D08878904202D3B3F90200F6E7CC7844
S315080071C0B3F900009442F1D94C789988013CA1F1B1
S315080071D0FF06714203F10405E4B2714103F10C079D
S315080071E0CEB2B44216D805EBC1014FF47A756A439C
S315080071F0B1F902404968521A04EBD47102EB6102F4
S3150800720092FBF4F29042D1DBB3F902009042CDDC56
S3150800721010B2CBE737F831C04E1C9445E3D331465C
S31508007220DEE70348C2E700BF084C0308441B0020FA
S315080072300080FFFF0028ACBF00F16040064B4FEA14
S315080072400111C9B2ABBF00F5614000F00F0080F82C
S3150800725000131954704700BF14ED00E02DE9F74FED
S31508007260002800F0EE807849D1F84048D1F844E883
S31508007270EFF3118B302383F3118810F8086C30F87C
S3150800728006CCF30702D5BCF1000F07D18BF31188A2
S31508007290BFF36F8F012003B0BDE8F08FD1F8343803
S315080072A0D1F83C98A3EBCC0330F8048C0093C1F8D2
S315080072B0343809F10103A0F108050CF10102C1F8FF
S315080072C03C38B8F1000F3BD0A5EBC803DF88B3F80C
S315080072D002A001971F7806F00206FF0725D42EBBE9
S315080072E0019EA6EB0A06012E2AD1009E0CF1020287
S315080072F0A6F108075244C1F83C98C1F8347830F82A
S31508007300028CB8F1000F1DD110F8085C20F8068C25
S3150800731068F3000500F8085C013A5A801A7868F3A1
S3150800732000021A700022DA8041E04EB110F8086CAB
S3150800733042446FF3410600F8086C00269E80DEE79B
S315080073402B46DCE7D1F82C68D1F8307805EBC8096C
S315080073503744B9450ED310F8085C013A6FF30005B7
S3150800736000F8085C002520F8065C5A801A7865F350
S315080073700002D6E715F838504E4615F0010532D00A
S3150800738010F8085C013A6FF3000500F8085C002560
S3150800739092B220F8065C5A801A7865F300021A70D1
S315080073A0C3F107023244C2F3CF02DA80B280002C5E
S315080073B045D09C4243D86288002A08BF1C46BEF1C5
S315080073C0000F06D09E4504D3BEF80220002A18BF37
S315080073D07346C1F84048C1F844388BF31188BFF3A7
S315080073E06F8F002057E7A8EB0C08B8F1010FC7D13B
S315080073F0B9F80270A9F802501744B9F80620E2B1A4
S3150800740009EBC2060025D1F83C28013AC1F83C2808
S31508007410D1F83428083AC1F8342810F8082C20F88E
S31508007420065C6FF3000200F8082C1A785F8065F393
S3150800743000021A70002EB3D174E71646E2E71C461E
S31508007440BDE7222027E700BFDC540020FEE7002323
S3150800745007B5084601A901931AF074FD019803B00F
S315080074605DF804FB0846F9E6002313B501936AB1F3
S3150800747061B102FB01F401A920461AF063FD014639
S3150800748020B9019810B1224627F022FF019802B0D0
S3150800749010BD002303604360704730B5D0E9054549
S315080074A053B394420FD0E2B9046974B9036983B33C
S315080074B0002918BF0D462B78DB0714D5AB8843B3D4
S315080074C0A5EBC305F7E704698CB141B904682378CD
S315080074D0DB070CD5E3884BB104EBC304F7E70C468E
S315080074E0F5E79542E2D0C0E9054530BD1C46954210
S315080074F0DCD0002ADAD0F6E7944208D08C4228BFBE
S315080075000C46954207D08D4238BF0D46EBE70C4630
S31508007510F7E71D46E7E70D46E5E700232DE9F347BC
S315080075208B4E0193D6F830380C469A42104604D250
S3150800753039B912B101A91AF005FD019802B0BDE8E2
S31508007540F0871AB90846FFF789FEF6E7EFF31187C1
S31508007550302383F3118834F8063C07304FEAC30812
S3150800756020F00705A845A1F108017ED234F8020CDF
S31508007570002868D0C21A012A65D101EBC00211F8A9
S315080075803000C0075FD4B2F802C0A8EB050919EBB2
S31508007590CC0958D4B9F11F0F38DDC5F3CF036119EB
S315080075A024F8063C0133084624F8023CFFF771FF2D
S315080075B034F8020C4FEAD9038880D0884B8010B380
S315080075C0B2F802C0A0EB0C0C1CFA83F39BB202EBD8
S315080075D0C000CB80838000235E48FFF75EFF10461D
S315080075E0FFF757FFD6F83438D6F838282B44A3EBDC
S315080075F0080393420194C6F8343833D887F31188C0
S31508007600BFF36F8F99E70023CB80E4E7D6F83C08F1
S3150800761001330138C6F83C08D088634424F8063C90
S3150800762068B1B2F802C0A0EB0C0C1CFA83F39BB24B
S3150800763002EBC00024F8023C83800123CCE7002338
S3150800764024F8023CF9E7284601A91AF07BFC002831
S31508007650D4D142462146019828F04EFD2046FFF730
S31508007660FDFDCBE7C6F83838C8E76ED934F8020C02
S31508007670A8EB050900F1FF3AAAEB030A002839D05E
S3150800768011F8303001EBC002DB0734D4BAF1000F31
S3150800769031D1C5F3CF03611924F8063C01330846F6
S315080076A024F8023CFFF7F5FE508800EBD90334F8BE
S315080076B0020C4B808880D088D0B1B2F802C0A0EB0B
S315080076C00C0C1CFA83F39BB202EBC000CB808380C0
S315080076D020480023FFF7E1FE1046FFF7DAFED6F84A
S315080076E0343801941D44A5EB0805C6F8345885E7D7
S315080076F0C880EDE70246B9F1270FF0D9C5F3CF03E5
S31508007700611924F8063C0133084624F8023CFFF7C1
S31508007710C0FE34F8020C09F1FF33DB084B80888081
S315080077208AB10AF1010A1AFA83F39BB2CB809380D5
S31508007730D6F83C3807480133C6F83C3800231A46C1
S31508007740FFF7ABFECBE7CA80F2E7019456E700BF26
S31508007750DC540020085D0020BFF35F8F074B5A6A90
S3150800776022F480325A62D3F8942022F00102C3F838
S315080077709420BFF34F8FBFF36F8F704700ED00E083
S315080077800122014B1A707047DC540020364B70B545
S315080077901D6F15F001013CD0012203F50053334C4F
S315080077A01A6794F8683813B329F0F2F8D4F86C38E5
S315080077B0C01AC4F87008D4F870380BB1D4F8701829
S315080077C0C4F870184FF41671D4F87038284BD4F8EA
S315080077D070281B684B43274903F5742303F23F239C
S315080077E0B3FBF1F3934220D2002384F8683894F867
S315080077F0753873B194F876385BB129F06DF80023C3
S3150800780084F8763884F87738012384F8783884F849
S31508007810793815F000521CBF174B1A67002DBEBFEA
S315080078204FF00042144B1A6770BD94F87438134829
S31508007830D4F8701850F82320114E511A3268521A8B
S31508007840D4F87018326040F823100A210932B2FBC6
S31508007850F1F20C480133DBB20260B3FBF1F201FB33
S31508007860123384F87438BFE70040005ADC5400200D
S315080078705017002040420F000060005A5C17002095
S31508007880581700205417002013B5044629F080F82D
S315080078900D4AD2F88038D2F888189C4228BF1C4670
S315080078A0D2F88438421A63439A4238BFC9184FF04F
S315080078B0000334BF091A0121CDE90033034A0448FD
S315080078C029F042F802B010BDDC540020097D0008FA
S315080078D0685D002010B5044628F03CFE0C4BA0F568
S315080078E07A729A4212D84FF47A73B0FBF3F05C437B
S315080078F0084BB3FBF0F3B4FBF3F0022806D9BDE856
S3150800790010400323B0FBF3F0FEF7F2BE10BD00BF34
S31508007910FFC99A3B40420F0013460A4601460248F1
S31508007920006819F007BB00BF0814002013460A4672
S3150800793001460248006819F0A3BB00BF08140020DE
S31508007940EFF305830F2B84BF034A9B5C4FF0E023BC
S31508007950D3F80C3D704700BFF0E300E0002307B5FD
S315080079600193054B5B692AF00AFF019B002BFCD0AB
S3150800797003B05DF804FB00BF6895002010B598B108
S31508007980016E21F001042AF0AEFE68B901290BD96F
S31508007990204628F085FE28F083FE94F846301BB969
S315080079A0BDE810402AF041BF10BD2DE9F0473B4C19
S315080079B009F00CFCD4F8C4582AF095FE002847D1E3
S315080079C0002D45D0364F3B689D421AD029F04AFA19
S315080079D0D5F828A0D4F8B8986E69D4F8BC8829F0E8
S315080079E07FFA04F15C039A450BD04E4509D046450B
S315080079F007D004F17C039E4224D1AB6A0BB995F8F3
S31508007A005C302E1D29F02EFA30462BF085F8AB6A2D
S31508007A101BB105F118002BF07FF8D4F8DC380133D8
S31508007A20C4F8DC383B689D42D4F8B03812D0A36F4E
S31508007A30013BA36729F03AF929F052FA28462AF0B9
S31508007A40FFFE1EE004F6C8039E4201D0002ED8D1E0
S31508007A50BDE8F087002BEAD0D4F8CC389A68AB603A
S31508007A60EA6056609E600F4B6B61D4F8C8380133E4
S31508007A70C4F8C838D4F8E0380133C4F8E03829F037
S31508007A802FFAD4F8B038002BE2D03B689D42DFD1FC
S31508007A90BDE8F047044B1B682AF050BEDC540020B2
S31508007AA064120020A45D00200C1400202DE9F74F75
S31508007AB00121856B90F83030286A994029F026F81C
S31508007AC0036802690B4303600023DFF81091414CF9
S31508007AD000F10C080193904503680FD1019A23EA37
S31508007AE00203036029F040FA012195F82C30286B2F
S31508007AF0994003B0BDE8F04F2AF0B8BBD2E900C7F9
S31508007B002CF07F411CF0806F01EA030E04D1BEF110
S31508007B10000F03D13A46DEE77145FBD11CF0807FA2
S31508007B2018BF019E43F002431CBF0E430196D9F8C5
S31508007B300010D2E9031CDCF8046013609368B242B3
S31508007B40BB605F6008BFCCF8043000231361DCF823
S31508007B500030013BCCF8003029F0A8F8D1E9023E04
S31508007B604A69C3F808E0CEF80430536801F1040CFA
S31508007B706345136808BFC2F804E0013B1360CA6A8C
S31508007B80D4F890309A424FF0140302FB03F304EB47
S31508007B90030EDEF898A088BFC4F89020DAF808B07B
S31508007BA0C1F808A0C1F80CB0CBF804C0CAF808C0E0
S31508007BB0DFF82CC063444B61DEF894300133CEF80D
S31508007BC09430054B1B68DB6A9A4284BF01232367FE
S31508007BD0A0E700BFDC540020641200200C1400202B
S31508007BE0705500204FF098435B6C13B5D9021CD52D
S31508007BF028F0F0FF0238012817D8174BD3F8444964
S31508007C009CB12AF070FD0346F8B10023204601A96D
S31508007C10019329F035F9012807D1019B2BB14FF0C3
S31508007C20E0234FF08052C3F8042D4FF098435A6C66
S31508007C30D202FCD55B6D094A03F4702393610822CE
S31508007C40074BC3F8882102B010BD024601462046FC
S31508007C5029F046FAE9E700BFDC54002068950020C1
S31508007C6000E100E070B5064628F0B4FF02280C468D
S31508007C70154610D021464FF0604318482544A942BE
S31508007C8012D1002428F0A6FF022802D1306829F074
S31508007C9007FB204670BD30682AF038FA0028E9D07C
S31508007CA00630E7D00124F4E7D3F8802ED20712D5A0
S31508007CB011F8014BD0F8FC2042F08072C0F8FC2085
S31508007CC0D3F8002E42F00102C3F8002E1A68002AE3
S31508007CD0F0D01C70D3E71124D4E700BF00ED00E014
S31508007CE007B5074B07480193C0F84C39002301A98B
S31508007CF01A46D0F8500929F0F3F903B05DF804FBE9
S31508007D0041940108DC5400202DE9F84328F040FE90
S31508007D1080462AF034FD114E074696F87C4A6CB91F
S31508007D20D6F88858D6F88498A8EB05034B450AD2A6
S31508007D300CB12AF003FD0120FFF7A6FD3846BDE881
S31508007D40F8432AF027BD28F0C3FF4D44044314BF67
S31508007D5001240024C6F88858E2E700BFDC54002056
S31508007D60EFF3148010F0010F14BF002001207047B4
S31508007D70EFF3148040F0010080F31488704710B5C3
S31508007D80044650B150238065C36518442AF0C4FDE3
S31508007D902066B0FA80F0400910BD0120FCE7EEE746
S31508007DA0334B2DE9F3419B6928F014FF0128074658
S31508007DB030D92AF0ADFC061E04DA0124204602B0AA
S31508007DC0BDE8F0812B4890F87D3A002B4CD100F5A0
S31508007DD02860FFF7D4FF0446B0B90023254DC5F83F
S31508007DE0E438C5F8E838502305F6F401C5F8EC1868
S31508007DF0C5F8F0382AF077FC0446C0B10023012400
S31508007E00C5F84439012FD9D930462AF0ECFC0028A8
S31508007E10D4DAD2E7174890F87D3A3BBB00F52860DC
S31508007E20FFF7ADFF04460028C8D10646D5E7032369
S31508007E30024600930B46014601202AF019FC8046AB
S31508007E400028DBD0D5F8E41809B128F00BFC01218D
S31508007E504320C5F84489FFF7EDF90822064B9A60D6
S31508007E60012385F87D3ACDE70024CDE70024A5E770
S31508007E7068950020DC54002000E100E0F8B50D4EBE
S31508007E800D4C0E4D33680E48984767782B680C489A
S31508007E90984733680B489847022F08D12478E31F80
S31508007EA05C425C412B68074898472046F8BD002489
S31508007EB0F8E700BFFC940020B418002000950020C5
S31508007EC04C180020E817002003681BB1406800B171
S31508007ED018471847704703461A68084622B15B6870
S31508007EE00BB1184610471047704759B1E8290AD808
S31508007EF00139C1F3CC02012301F007018B40815CF3
S31508007F000B4383547047A1F5807189B2B1F5806F30
S31508007F10F8D2CA08EFE710B569B160B1E8290BD8FD
S31508007F200139C1F3CC040122035D01F007018A403F
S31508007F3023EA0203035510BDA1F5807189B2B1F594
S31508007F40806FF8D2CC08EEE7C0B14B1E9BB2E72B88
S31508007F5007D8DA08805C03F00703184100F001002F
S31508007F607047A1F5807189B2B1F5806F05D2CB084B
S31508007F70C05C01F007010841F0E7002070470A4697
S31508007F80002127F0A5B903460144002030B58B42ED
S31508007F9000D130BD002413F8012B651C12B920440A
S31508007FA0C0B2F4E7541E22402C46F6E7E72801D96A
S31508007FB0002008E0C308CB5C00F00702134101303B
S31508007FC0DB0780B2F2D5704710B5044680B1006869
S31508007FD070B1002329F084F8012801460AD1A06867
S31508007FE008B9002010BD237999402AF03FF9F8E72F
S31508007FF00220F7E70120F5E770B5C46A0546ACB17B
S3150800800028F030FF94F8286028F06AFFAB6B95F8E3
S3150800801030401D6A28F026FF2D6828F061FF0120F0
S3150800802000FA04F42C4200D1304070BD2046FCE72B
S31508008030F8B5046A054628F015FF2668012706F0F4
S315080080407F43236028F04CFF002495F82430A34290
S3150800805000D8F8BD07FA04F3334205D0AB6A53F8E3
S315080080602400C36B03B198470134EEE70048DFE705
S31508008070A412002038B5056A0C4628F0F3FE012341
S3150800808003FA04F12B6823EA01032B60BDE83840A4
S3150800809028F026BF2DE9F347D1F8388005460C4667
S315080080A016461F46B8F1000F40D190F8243090F8D4
S315080080B025209A423CD9172B3AD82C230193019BA9
S315080080C0019B0223DFF86CA0DFF86C9081F828305A
S315080080D00EB329F0D9FA0123C4E9063894F82830F2
S315080080E0C4F800A043F00403C4F82090C4F8148030
S315080080F084F828300020C4E90E57E46295F8243045
S3150800810084F83030AA6A42F82340013385F82430CF
S3150800811002B0BDE8F08729F0B7FA0123C4F800A039
S31508008120C4E90636C4F820906661E3E70220EFE763
S315080081300120EDE729520308AD7A000838B5264C28
S31508008140D4F85835002B44D140B194F85535012B55
S3150800815002D001201CF040FC012038BD19F044F97A
S31508008160D4F804550DB91D4B1D6828F07BFE95F80B
S315080081705C30022B04BF002385F85C3028F0B0FE83
S31508008180D4F8040501212AF0FBF8D4F804050421E3
S315080081902AF0F6F8D4F8040540212AF0F1F8D4F8C4
S315080081A0040502212AF0ECF8D4F8040508212AF07F
S315080081B0E7F8D4F8040510212AF0E2F8D4F8040503
S315080081C020212AF0DDF80CF034F900201BF0FFFB23
S315080081D0C2E70020C1E700BFDC540020641200207B
S315080081E028B9074B93F8542512F0300204D0002220
S315080081F0022101201DF02EBA022101201CF0D9BD52
S31508008200DC5400202DE98048AA4BAB4C1B68C3B050
S31508008210C4F8043505461AF009FE0023C4F8E43A02
S31508008220C4F8E83AC4F8EC3A94F8F03A0BB91AF0FC
S31508008230FDFD0023A14AA24952F8040B884206D044
S31508008240002840F0AB8004EB8303C3F8F41A00213E
S31508008250D4F80C0B042308AAC4F8100B089118F0DC
S3150800826069FE089B002800F09E801AF0A5FD0026EE
S31508008270DFF868823346C146924FD4F810AB07F14F
S31508008280680B1693BAF1000F00F0E880504639687B
S3150800829016AA18F049FF0023002840F0E280796802
S315080082A0169A91421CBF032001260837BB4509F8D8
S315080082B0010BE6D1002E40F0D780002716230421B3
S315080082C0814AD4F8100B18F035FE1D2305217F4A84
S315080082D0D4F8100B18F02EFE1D230B217C4AD4F877
S315080082E0100B18F027FE80230C217A4AD4F8100BBD
S315080082F018F020FE4FF4A072FF21774826F0E8FF19
S315080083004FF0FF334FF4A0593E46DFF8C481C4F856
S315080083101B3DC4F81F3D08F19D0B1FFA87FA0AF1A9
S3150800832001039BB2194640460293FFF70DFE48B972
S31508008330029B41461846FFF739FE48B307F1080382
S31508008340984225DCA319304683F81B9D11F002F9E3
S3150800835006EB860250234946D4F8100B0BEB0212A3
S3150800836018F0E8FD002800F0BB8001230AEB0301A2
S31508008370404689B20293FFF7CEFD029B0133092BD3
S31508008380F4D11D2342460B21D4F8100B18F078FEC1
S315080083900837E82F09F10109BFD1A6E00133062BFA
S315080083A07FF44AAF53E7B3F1A06FBFF460AF1CF098
S315080083B0C3FB4FF480474FF0B00A0026B022FF21D6
S315080083C016A826F085FFB1464FF0160B0AFB07F8EC
S315080083D0A8F53018162200210DA826F079FFCDF849
S315080083E000B00321D4F8100B06EB08030DAA1CF005
S315080083F057FBC8B99DF83430B3B116AB0DAA334450
S315080084000DF1440E9446BCE80300F4451860596023
S31508008410624603F10803F5D14FF00109DCF80000C4
S315080084201860BCF804209A801636B02ED2D1B9F15D
S31508008430000F06D033463946D4F8100B16AA18F0A2
S315080084401FFE44F2080301379F42B6D10321D4F830
S31508008450100B1AF07BFB1AF06DFB08E70126304675
S3150800846023E70220012620E74FF0000901264F46A0
S31508008470144B53F839A018F8013B022B0DD126B13D
S315080084800021504611F062FA064606F0010609F187
S315080084900109B9F10D0FEBD10FE7032BF7D15146BF
S315080084A0D4F8100B16AA169718F03EFE002EECD03C
S315080084B01699E6E764120020DC540020D05F0020FD
S315080084C0684C0308704C030884950020FD5F002063
S315080084D01A60002037600020B7600020F05F002097
S315080084E00136F6B2042E7FF453AF1D230621A64AA1
S315080084F0D4F8100B18F01EFD1D230721A34AD4F843
S31508008500100B18F017FD1D230821A14AD4F8100BEB
S3150800851018F010FD1D2309219E4AD4F8100B18F0F7
S3150800852009FD1D230A219C4AD4F8100B18F002FDF8
S315080085301D232021994AD4F8100B18F0FBFC1D23A3
S315080085402121974AD4F8100B18F0F4FC8023222135
S31508008550944AD4F8100B18F0EDFC80232321924A94
S31508008560D4F8100B18F0E6FC1D2200218F4826F0DF
S31508008570AFFE8C22002116A826F0AAFE00260127A7
S3150800858000234FEA860B0DF1580A1FFA8BFB0BEBFB
S3150800859007091FFA89F94846029311F02FFD029B35
S315080085A0804680B13BB98C23D4F8100B16AA06F581
S315080085B0007118F0BFFC9AF80210484601F0010154
S315080085C010F0B8FF43460137052F0AF1230ADED11A
S315080085D001363A2ED3D17649764BD5F808A00B63E7
S315080085E00C334B664FF40051A4F8341F7249D4F883
S315080085F0043501F13400C4F8380FC4F8403F0720A9
S3150800860020230022012684F83C0F0793081D079BA8
S3150800861084F80B2FC4F8102F84F80C6F2AF01DF875
S31508008620C4F8301F84F82C6F0BF003FFDAF8083013
S315080086301B7813EA060106D1980600F1A28013F00A
S31508008640100118BF03215D4FDAF80C20F869137A78
S31508008650C4F80A05388C8DF85910A4F808050020C6
S3150800866097F83110FF2B08BF0023091A18BF0121FC
S315080086708DF85B100421524E8DF85830C4F8C46F3B
S31508008680504E8DF85C10CDF87D00CDF8790020901D
S31508008690C4F8C80FC4F8D00FC4F8CC6F107803F02C
S315080086A0FD038DF85D005088092BADF85E009088B3
S315080086B0ADF86000D088ADF8620043481990434889
S315080086C01A9043481B9043481C9043481D90507A83
S315080086D08DF87800927A8DF8802097F830208DF8FA
S315080086E05A200ED1013A012A0BD90123D4F8100BCE
S315080086F08DF85A3087F8303007F11C02162318F027
S31508008700BFFC16A810F08AFE00228DF85C00114600
S3150800871032481AF010FE324B1F939DF8583003F07A
S31508008720FD03092B04D19DF85B300BB11BF028FE25
S315080087302C4827F024FB142200210EA826F0C8FD99
S31508008740294B2A4E0D932A4B00221B882948ADF83F
S3150800875044304FF48063ADF846304FF48073ADF87B
S315080087604830254B0DA91B681393A6F1B80314933B
S3150800877006F55273159325F0FBFC804600283DD07C
S31508008780FEE702215FE700BFFF6100201C620020B0
S315080087903962002056620020736200209062002031
S315080087A0AD620020CA6200204A630020CA63002026
S315080087B0B41600209C950020EC63002068950020E4
S315080087C0BD23010829310108E96800083D69000848
S315080087D0D169000897680008B0640020DC640020AE
S315080087E05D340108690345EC4D4E0208D465002046
S315080087F050B103087495002054B10308DFF830C45B
S315080088000DF1580EBEE80F00ACE80F00BEE80F00E9
S31508008810ACE80F009EE80700DFF818948CE807001C
S315080088200121F8681EF020F9B9F8D03008A9F868CF
S31508008830ADF8203027F047FB08A9F86827F059FB60
S315080088400122F868114627F07BFBF7A3D3E900233A
S31508008850CDE90023F8684FF0FF324FF0FF3327F0D9
S315080088604CFB41464FF0FF3094F848B527F0B3FD6E
S3150800887028B9BBF1000F40F0F28186F848B494F8A5
S31508008880283594F82905D2490293B4F92E35DFF82C
S31508008890A883B4F930250593023894F82C35A1F14C
S315080088A0280C012888BF6146D8F80C000492039367
S315080088B026F0CEFC8346002855D1049A059BDFF89E
S315080088C01C93D221D8F80C00A9F84A24A9F84C34EC
S315080088D0A9F84E3426F088FDD8F80C001EF0AEF83C
S315080088E0C728D4BF8C22C822B4F9323559469342D8
S315080088F0A8BF13465846A7F84C20A4F8323518F0F6
S31508008900BDFCDDE9020118F027FDD7E9021027F0C2
S315080089106BFD18F03BFD7B689A88A7F856205A88A5
S3150800892087F8532018781AF0A6F8AA4BAA4A5B6863
S3150800893023F0404323F440031B0C1B04934212D03C
S31508008940322708A88DF820701CF074F89DF820309E
S31508008950B3FBF7F207FB1233B9F84A243A4452FA42
S3150800896083F3A9F84A34D8F80430002718781AF09F
S3150800897082F80122D8F80C00114627F02FFDDFF8FF
S31508008980BC9209F1040B18F03AFC87424FF0000339
S31508008990C0F08C81914FD4F8F83407F58C60C7F88D
S315080089A05C341CF047F80122DAF80810DAF80000FF
S315080089B087F8612415F0ADF813F07AFA00230DA9AB
S315080089C0B4F808050D938DF8383011F06BFED8F819
S315080089D004209DF8363012789907A2F1020200F1B8
S315080089E06B81012A0CD843F00203B4F808050DA9D7
S315080089F08DF8363012F044F940F2FF4012F0E8FCE8
S31508008A00FDF7F4FE0AF052FB94F85435D80702D560
S31508008A100120FFF793FB092287F862240022704B96
S31508008A2087F863242B62A3F6C423AB626D4B87F8E1
S31508008A3064246D4AEB6202332B636A620AF0C0FB58
S31508008A4094F8142500280CBF2E239623510700F00E
S31508008A5039810C3B9BB2A4F81C3594234FF00008CF
S31508008A60A6F86634614BF82103F150020520CDF8CB
S31508008A70008029F0FDFD5E4B5E4FD3F80090092378
S31508008A80C6F89409C6F8980986F89C39C6F8A099D4
S31508008A902F61A82107F10C0307F15C020220CDF82B
S31508008AA0008029F0E5FD0A2386F8483B07F5D673CA
S31508008AB0C6F8440BAB61C6F84C9B882107F5DC73F6
S31508008AC007F502720420CDF8008029F0D1FD2A6846
S31508008AD06B79C6F8C00DC6F8C40DC6F8CC2D86F855
S31508008AE0C83DE861E02107F5876307F59162022032
S31508008AF0CDF8008029F0BCFD2B792A6886F8E83F76
S31508008B00AB6AC6F8EC2FC6F8F43F96F8F83F3A4A2F
S31508008B10102B4FF0100387BFC6F8FC2F86F8F83FD6
S31508008B20C6F8FC2F86F8F83FC6F8E00FC6F8E40F3B
S31508008B30C6F8F05F00266861304D314B3146314A40
S31508008B40A5F1F4001E601AF0F6FB31462E4AA5F18F
S31508008B50B4001AF0F0FB31462C4AA5F174001AF05D
S31508008B60EAFB94F8543545E90D66DB0710D505226E
S31508008B70022130461CF06EFD0121A5F12C00244A85
S31508008B801AF0D9FB4FF47A71A5F12C001AF08EFC75
S31508008B9000240020FFF724FB1E4B214645F8343CF1
S31508008BA01D4B1E4AD3F8F8341D4845F8304C6C6105
S31508008BB0AB611AF0C0FBFF2316941A4C8DF83430BB
S31508008BC00421012320680DAA3AE000BFAFF3008014
S31508008BD0404C03080080E00F00001703D46500200E
S31508008BE0B06400203A6A0020F04C0308406A00206E
S31508008BF0641200206C6F0020F84C0308CC76002025
S31508008C00D475002065340208CD390208E93802080F
S31508008C10E9670008D7670008DC540020FD3402081D
S31508008C20E876002094130020088D015522020000E2
S31508008C30045A0020084C030868950020246A00207E
S31508008C4018F078F99DF83430FF2B42D0FDF76AFD0D
S31508008C502C4B2D4C5B68204619F0DEFEFBE70DF128
S31508008C60200E09F1D40CBCE80F00AEE80F00DCF8C2
S31508008C7000304FF0FF30CEF8003008A927F0A8FBE7
S31508008C8020B10020214B83F84804F8E506214FF06F
S31508008C90FF3027F0CBF80028F3D101214FF0FF3041
S31508008CA027F099FBB0FA80F04009EBE709F8013B99
S31508008CB02BF8023B013766E6012A7FF6A1AE23F0C0
S31508008CC0020392E612067FF5C6AE143B9BB25B0022
S31508008CD0C0E620210E4819F046FF19F029FF202387
S31508008CE002210B4A206818F0CBF920230321094AF0
S31508008CF0206818F0C5F901230421206816AA18F07F
S31508008D00BFF9A3E70080E00FCC750020D4650020EA
S31508008D102877002048770020034B4FF48051D3F87A
S31508008D20040529F0A3BA00BFDC5400200A4BD3F887
S31508008D30E42A32B1D3F8E82A4AB1D3F8EC2A42B980
S31508008D40022203EB8203C3F8E40A012070470122DA
S31508008D50F7E70020704700BFDC540020814238B591
S31508008D6015D90022174B022983F89C2027D90025FC
S31508008D70154C164BD4F8F82404F6E424DA6454F8AF
S31508008D80043B03B198470135032DF8D10FE00129BB
S31508008D900BD801280B4B04D893F89C3003B151B17A
S31508008DA038BD012283F89C20F9E70229DFD1BDE806
S31508008DB0384018F019BBBDE8384019F09FBEEFD10E
S31508008DC0F5E700BFCC760020DC54002000000850F0
S31508008DD030B40446EFF3108072B6256885EA0203BC
S31508008DE00B406B40236030BC29F0F9BB70B5184CBA
S31508008DF0FF28A66A2AD8A36D4FF0807113F4803F26
S31508008E0018BF4FF48032134B18BF9A629962124A00
S31508008E10A36992F9115023F47F03054423F47F4391
S31508008E2043EA002385F3080543EA0543A36132466E
S31508008E300A48FFF7CDFFA36DDB0305D532464FF48D
S31508008E4080310648FFF7C4FF002070BD2120FCE7EB
S31508008E500040005A0050005A689500202840005AE1
S31508008E6070B5104C4FF08071A66AA36D0E4813F4C6
S31508008E70803F18BF4FF480320C4B18BF9A62996234
S31508008E803246A569FFF7A4FFA36DC5F30725DB03E3
S31508008E9005D532464FF480310348FFF799FF284637
S31508008EA070BD00BF0040005A2840005A0050005AC2
S31508008EB04FF4803310481149826A8B62836D03F040
S31508008EC00303032BFAD14FF080730D488B620A4BCC
S31508008ED0996D30EA0101FBD1012008490865996DB1
S31508008EE08907FCD4044B996D8807FCD5996D8907C9
S31508008EF0FCD5044904486BE70040005A0050005A64
S31508008F0003000100000001012840005A08B538B1E5
S31508008F1029F053FD002814BF6FF01D00002008BD7E
S31508008F206FF01B00FBE703464160EFF3108072B653
S31508008F30034AD2F854181960C2F8543829F04FBBBE
S31508008F40DC5400207FB54FF06042D2F8003E134C47
S31508008F5043F00103C2F8003E04F1A4030293502330
S31508008F60002503930E4B68460093019529F0D4FC1F
S31508008F700C4B04F1A006C4F8A0001E60EFF31080A5
S31508008F8072B6C4F8F43029F02AFB04F1F800064951
S31508008F90FFF7C9FF284604B070BD00BFCC76002095
S31508008FA00549030844950020C49500200146EFF3BF
S31508008FB0108072B6084AD2F8543802F654022BB119
S31508008FC0994205D10B68136000230B6029F007BB93
S31508008FD01A461B68F3E700BFDC5400200246EFF38D
S31508008FE0108072B60E4991F80131FF2B02D1A2B159
S31508008FF029F0F5BA1BB9002AFAD0012203E0002AA3
S315080090000CBFFF2201221344DBB281F80131B3FA07
S3150800901083F35B0981F80231EAE71A46F3E700BFF2
S31508009020CC7600202DE9F84FEFF31187302383F330
S315080090301188584B58495B6903F0010213F0020F77
S3150800904003F003034B6110D14AB1544AD2F83C31BC
S315080090500133C2F83C3127F03DFD28F05BFD87F36C
S315080090601188BFF36F8FBDE8F88F4AB14B4AD2F823
S315080090703C310133C2F83C3127F02CFD28F04AFD7B
S31508009080EFF3118A302585F311884FF0000B27F08E
S3150800909021FD5E46DFF8FC90414B9C680CB1636984
S315080090A0B3B100223D4B012E83F8402104D11BF0B9
S315080090B0020F18BF83F8406128F02CFD222802BF52
S315080090C00222354B9A618AF31188BFF36F8FC6E780
S315080090D023465A693AB91A792179914288BF1C46BA
S315080090E09B68002BF5D18AF31188BFF36F8FD4F8EC
S315080090F010B0BBF1000F1BD0D9F82020A369A2EB52
S31508009100030A4FEAEA72DA4572F1000211DB5B44A0
S31508009110A361E36813B1204621689847B4F806B0FE
S315080091200136EFF3118A85F3118827F0D3FCB3E7EC
S31508009130DA46EFF3118885F31188204627F074FA8A
S3150800914088F31188BFF36F8F2369002BE1D0A38BB7
S31508009150BBEB0A0133B1E28B13449BB2B3F57A7FBA
S3150800916010D2E383EFF3118A85F31188204628F09D
S315080091708BFCA36922691344A3618AF31188BFF3A0
S315080091806F8FC6E7A3F57A73E383A3690139013BB9
S31508009190A361E7E70040065000600650CC76002041
S315080091A0DC5400200CB42DE9F3470AAB53F8048BC2
S315080091B0274F01937B18274E93F834A1264B8146F7
S315080091C0D3F8F834254A0D463046C82125F0CEFD99
S315080091D05346C0F1C8010446214A301825F0C6FD99
S315080091E00444C4F1C8014B461E4A301925F0BEFD99
S315080091F00444C4F1C80130194246019B26F01AF806
S315080092000444002C1EDD0A22554307F59C7303EB24
S3150800921005085B5DB3B114490422404627F0A9F856
S31508009220124D07F59871002818BF4146686827F05F
S31508009230C5F838B92B682BB15D681DB12246314691
S315080092401868A84702B0BDE8F04702B0704700BFEB
S31508009250084C03080D780020DC5400201849030840
S315080092601F490308254903082B490308549500207C
S315080092702DE9F04F254B85B01B78C3B3244BDFF897
S315080092809890D3F8F864002133461420214AC9F887
S315080092905060FFF787FF12270025DFF88080DFF888
S315080092A080B0A8F12F0A18F8013FEBB15AF825400B
S315080092B0E36A039343B127F0D5FD039B93F828305F
S315080092C0DB0717D427F00CFE4FF0FF342B465A461F
S315080092D000211420CDE90044FFF764FFFB1C1F2B77
S315080092E098BF49F82340013701350C2DDBD105B06D
S315080092F0BDE8F08F27F0F4FDE36A5C68A642A4EBAC
S31508009300060488BF04F1FF34E0E700BF44130020D9
S31508009310DC540020304903080000085007130020D9
S315080093205D49030837B5044690F83030104A0021E5
S315080093301420FFF737FFFFF79BFF94F830300D4DE9
S3150800934003F11C0255F822207AB10092002114205C
S31508009350094AFFF727FF204694F830301C3355F8A2
S31508009360233003B0BDE83040184703B030BD00BF16
S3150800937086490308A4120020B34903082DE9F04FD3
S31508009380BBB0E022002102A825F0A2FF904B914E27
S315080093901F68914D86E09DF808402A46002117204F
S315080093A08E4B0094FFF7FEFE822C71D8230640F1FF
S315080093B08480822C00F0A180812C73D1884A9DF884
S315080093C0D48092F80090BDF8DE10B9F1020F9DF82E
S315080093D0DE40BDF8DC209DF8DC0086F8008073D1FD
S315080093E04FF0060A090A120A7170B470F2703071E9
S315080093F09DF8D350CAF1A804AA2D28BFAA25E4B21D
S31508009400A54228BF254606EB0A002A465FFA85FBD1
S315080094100DF1290100F801BC26F06EFE18F0080FC0
S3150800942059D00AEB0B04E4B2C4F1A803DBB21D2B36
S315080094304FD8C4F1A70414F0FF040AD0621E55449D
S315080094407255013503A9701926F056FEA3445FFA32
S315080094508BF49DF8E02006EB0A03B9F1020F1A55C2
S315080094600ED19DF8E110621CD2B29954A21C9DF847
S31508009470E410D2B2995403349DF8E520E4B21A55A3
S315080094800AF10103E118C9B2A82019F065FA80E7C4
S31508009490842C07D0234602211720524AFFF782FE62
S315080094A0862C35D0786802A929F0E4FA0128824684
S315080094B03FF471AF3BB0BDE8F08F23460221172079
S315080094C0484AFFF76FFEEDE74FF0040A7470B07074
S315080094D08EE71E24B2E7AC429EBFCAF1A704E4B2E7
S315080094E025464FF00003554488BF0BF1010BEDB23A
S315080094F088BF5FFA8BF47355ABE79DF81030BDF85B
S315080095000E109DF80C000DF1110204F087F840E7E3
S315080095109DF8B930072B58D19DF80E409C2C54D88D
S315080095202F4BBDF80C201B782A4D022B18BF53462B
S315080095309DF80C1008BF120A03F1010006BF6970F6
S315080095402A70297022465FFA80FA0DF10F0155FA42
S3150800955080F09DF8C190EC5426F0CEFD072304EB6D
S315080095600A01C9B26B54DDF8BA004B1CDAB2A8502E
S31508009570BDF8BE2055FA83F39A809DF8C0201A4894
S315080095809A7101F10803DBB2C9F3000905F80390E3
S3150800959001F1090290F80932D2B2AB54FF22B3FBAB
S315080095A0F2F2C2EB02229B1A01330A3180F8093221
S315080095B0C9B26C2019F0D0F9103001210B4B81404B
S315080095C0D3F8040528F052FEE3E61020F5E700BFBD
S315080095D05C1200201F100020E3490308684D0308A9
S315080095E0A4940020F9490308CC760020DC54002016
S315080095F0F0B5A9B08822002106A825F069FE824B9D
S31508009600824D1F68824E05F11C04F86806A929F0E8
S3150800961031FA012801D029B0F0BD9DF8183032463C
S31508009620009300212B461720FFF7BCFD9DF8183044
S31508009630C62B0BD8BF2B55D9A3F1C002062A51D881
S31508009640DFE802F02750500B0B444C00D72B04D010
S3150800965003F12602D2B2012A44D89DF818303246C0
S315080096600093002123460120FFF79CFD9DF8183042
S31508009670DB2BCAD8D02B37D8C32B51D0C42B5BD001
S31508009680C02BC2D1234600210120624AFFF78AFD7A
S31508009690BBE72B46002117205E4AFFF783FD9DF89E
S315080096A020302BB9022117205B4AFFF77BFDD4E750
S315080096B0564B00211720594AFFF774FD079B002BCC
S315080096C0CBD09DF8210009A99847C6E79DF81C301C
S315080096D0534A02211720FFF765FDBEE79DF81C30A7
S315080096E0504AF6E7504AF4E7D13B0A2B8DD801A237
S315080096F052F823F0CF9700080B9600080B9600083F
S315080097000B9600080B9600080B9600089D97000814
S315080097100B9600080B960008779700084D970008E7
S31508009720234600210120414AFFF73CFD9DF81C1005
S315080097303F48FEF7D0FB68E72346002101203D4A53
S31508009740FFF730FD3C48FEF7BFFB5EE723460021E6
S315080097503A4A0120FFF726FD394B9DF81C101A7866
S31508009760002A3FF452AF374B6320597002211A7012
S3150800977019F026F949E723460021334A0120FFF765
S3150800978011FD324B9DF81C101A78002A3FF43DAFA4
S315080097902C4B612059701A700221E9E723460021F3
S315080097A001202B4AFFF7FEFC9DF8203003A88DF810
S315080097B00C30BDF821305BBAADF80E309DF8233079
S315080097C08DF8143009AB049301F0B0FF1DE723466A
S315080097D0002101201F4AFFF7E5FC1F4B9DF820C01A
S315080097E01878BDF82110BDF8232000283FF40DAFE6
S315080097F0144B49BA52BA18709970A420042183F8F8
S3150800980001C0DA70B4E700BF5C120020794D030886
S31508009810124A03082F4A03084C4A0308694A0308F0
S31508009820824A0308A84A0308CB4A0308EC4A0308F5
S3150800983010140020184B0308641300203E4B03083D
S31508009840DE1300201F1000206F4B03081814002099
S315080098509F4B0308CC4B0308191400201FB500239F
S31508009860B0F5807F019300F041816AD8002800F0A6
S3150800987001812038602877D8602875D8DFE810F08D
S31508009880FA000801FA000801170117011701170164
S315080098901701080124017F00B30047017F00080172
S315080098A008010801740074007400740074007400E0
S315080098B07400B300080108010801A0016601080147
S315080098C074007400740074007400740074007400EA
S315080098D0740074007400740072011701FA00FA002B
S315080098E0FA0057017F007F007601E1009600F1003B
S315080098F0F10074007400740074007400740074003D
S3150800990074007400740074007400740074007400A9
S315080099107400740074007400740074007400740099
S315080099207400740074007400740074007400740089
S315080099307400740074007400740074007400740079
S31508009940F600B0F5F06F00F03B8151D8B0F5607FB6
S3150800995000F0A5801ED8B0F5007F00F08E8007D8ED
S31508009960B0F5C07F00F08680019805B05DF804FB6D
S31508009970B0F5207F00F08C80B0F5407FF4D126F05A
S31508009980E9FD964B1B6FC3F380230133B0FBF3F05D
S3150800999040086DE0B0F5B06F00F0968018D8B0F5C5
S315080099A0806F00F08480B0F5A06FDDD100218B4B6D
S315080099B00391D3F8203203F00703042B06D8022BB1
S315080099C07ED8012B78D0022B00F0E680039B97E027
S315080099D0B0F5D06F00F09B80B0F5E06F00F0B68070
S315080099E0B0F5C06FC0D1002101A8FDF7FBF9BBE7B0
S315080099F0B0F5206F00F0BA801BD8B0F5106F00F0F4
S31508009A009680B0F5186F00F0AD80B0F5086FABD151
S31508009A10724BD3F8003103F00303022B00F0D78012
S31508009A20032B00F0D780012B40F0D6806C4B1B68C7
S31508009A3066E0B0F5306F00F0B5800CD8B0F5286F49
S31508009A4092D10021654B0391D3F8703203F00303DA
S31508009A50012BBBD19CE0B0F5386FC4D0B0F5406F90
S31508009A6082D1002101A8FDF787F97DE726F052FD8E
S31508009A70019079E726F06EFDFAE726F04BFD574B85
S31508009A80D3F89030C3F304630133B0FBF3F0EFE788
S31508009A9026F060FD514B1B6FC3F38023F4E726F0D5
S31508009AA039FD4E4BD3F88030C3F30113ECE70021A0
S31508009AB001A8FCF74BFE57E703A8FDF75DF985E714
S31508009AC04FF40043039381E70021444B0391D3F8F5
S31508009AD0803103F00303022B62D0032B5CD0012BE9
S31508009AE07FF474AF03A8FCF731FE6FE702934FF0DB
S31508009AF0E0231B695A0705D526F02CFD0290029B28
S31508009B00019331E703A902A8FDF76CF9F7E7334B90
S31508009B10D3F8003203F00700032812D05B070AD4F3
S31508009B20013801288CBF00200120C003A0E72B4B79
S31508009B30D3F80832EEE7042806D126F00BFD800A92
S31508009B4096E74FF47A7093E7002091E7234BD3F812
S31508009B50403203F00303032B36D0003B18BF012322
S31508009B60DB03CDE71D4BD3F85032F2E7002303930E
S31508009B701A4BD3F8603203F00703013B032B3FF679
S31508009B8025AFDFE803F002040D090021AAE700214A
S31508009B9003A8FDF727F919E726F0F0FC039015E767
S31508009BA0104B8FE70D4AD2F8902202F00302012AE1
S31508009BB004D0022AC8D126F0E1FC59E7094857E73C
S31508009BC0064BD3F86031C4E74FF47A7398E74FF43D
S31508009BD0004395E7044B93E7002391E70080005084
S31508009BE0DC940020002D310180D5430208B5802081
S31508009BF0FFF734FE034B98429EBF4FF48032024B68
S31508009C001A6708BD005A620200A0005008B54FF452
S31508009C10C070FFF723FE0649064A884294BF002013
S31508009C200120136F23F4806343EA8023136708BD7A
S31508009C3080F0FA020080005038B5054626F08AFC06
S31508009C400446FDF767F80128D4BF01210021204604
S31508009C50FDF7E8F800201CF0FFFD25B1FFF7D6FF59
S31508009C60BDE83840C2E70649064A0B6F92F828282D
S31508009C7023F48063013A43EA82230B67F0E700BFC7
S31508009C8000800050DC5400202DE9F041EFF31187E5
S31508009C90302383F311882F4E96F80A32002B53D1BE
S31508009CA02D4A2E48C2F8AC389360C6F83C3128F0E5
S31508009CB042FF2B494B680BB1FDF722F80122294BCD
S31508009CC05A604C6814F00204FBD103220125254B87
S31508009CD025488C604C6245609A615A61FDF710F818
S31508009CE00223CB600C62FDF70BF8CD60FDF708F890
S31508009CF0CD60FDF705F84FF480221C4BC3F8802190
S31508009D001A608561EFF31188302383F311884FF4C5
S31508009D10F060FFF7A3FD024688F31188BFF36F8F43
S31508009D20134B186030B987F31188BFF36F8F232060
S31508009D30BDE8F081234640F2E7310E4824F086FE5E
S31508009D4086F80A52C6F80C0287F31188BFF36F8F9C
S31508009D500020EDE7CC760020DC540020C44D030833
S31508009D6000400650006006500050065000E100E032
S31508009D705017002018FCFFFF00232DE98048B4483F
S31508009D80B44AB54C121A89B0C4F82C08C4F830285D
S31508009D9084F84838C4F85038C4F84008C4F8440869
S31508009DA0FDF777FB0123013AD2084280C4F83C3814
S31508009DB008234FF48030A949A94AC4F83438C4F8AE
S31508009DC038384B6E5066486E4FF000414AF6CD352E
S31508009DD05166A44903F480334A6C0D6402F001020B
S31508009DE04D6BEE07FCD401259F494D60A1F5005146
S31508009DF00D6BED07FCD50AB19C4A0A640028A2BF80
S31508009E004FF000419A4A51661BB94FF48032984B7D
S31508009E105A66984828F08FFE26F0BAFD964B1860C9
S31508009E20EFF31183302282F31188944D95F81022AE
S31508009E30002A40F07C83012285F8102283F31188DA
S31508009E40BFF36F8F6FF0040210460132052152B23C
S31508009E50FDF7F0F94C2AF7D14FF00043804F07225F
S31508009E607B664AF6CD337F4E0B20D6F844803364A2
S31508009E70834BDA63FDF722F87368002023F4F8733E
S31508009E8043F48073736040F20913B36040F203131E
S31508009E9033611AF0B7FA18F0010F18BF734B4FF079
S31508009EA0800018BF33646D4B596E4FF000437B66D4
S31508009EB04AF6CD33776C3364FDF700F8336AFF074B
S31508009EC023F00F0343F00603336248BF674B6D4820
S31508009ED048BF33640029A2BF4FF00042644B5A665C
S31508009EE028F029FE684AD2F84C3113F4802300F092
S31508009EF023834FF07E6292F89C3092F99C20002AC8
S31508009F00B8BF26234FF40001554A022051664FF484
S31508009F10D15102F5B83251625C494F2B486028BFCF
S31508009F204F23012001F58051DBB24860116911F415
S31508009F308031FBD143F48073536140F2014393604F
S31508009F40514B5160D3F84C21100340F1F882A3F528
S31508009F50FE431F88B7F5807F28BF6A274C4BDFF87A
S31508009F6050A1DFF85081CAF800303C4B98F911909F
S31508009F701B6FB94403F00703032B89F3080901D1C2
S31508009F8026F0E8FA17F05EFF032852D04FF4801245
S31508009F90334B404E5A6645F60E034FF0A062C6F89C
S31508009FA080303D4B9A624FF4803203F580539A62B3
S31508009FB0B36DD903FCD4B36D5A00FCD4374B4FF4B8
S31508009FC000623361B3694FF4406103F0004343EA2A
S31508009FD0094343EA072343F0007343F03C03B361A4
S31508009FE02F48FEF7F5FE336A2E4923F00F03336236
S31508009FF0B26A2D4B134043F48033264AB362936DFD
S3150800A00031EA0303FBD14FF080712348816213695B
S3150800A01023F4700343F4401313614FF000434FF4E5
S3150800A02080328361214B99629A621A4A936D5B006A
S3150800A030FCD44FF4C022144BD3F89860084B5A66E8
S3150800A04003F598335A68012A00F07D8234E000BF90
S3150800A0508897002000000120DC5400200080005072
S3150800A0600090005000400950006009503254FFFF2C
S3150800A07000A00050C44D030864950020CC7600204B
S3150800A08000400050C84D03080080E00F0010025041
S3150800A090C01753020040005A0050005A2008C00B4F
S3150800A0A03840005A03000100C7FFFEFE0060005A50
S3150800A0B0DC9400206895002017F0C4FE05280CD112
S3150800A0C00021C548FCF7AEFEC44A136F43F480630B
S3150800A0D013674FF48032C24B1A67C24FC24BD7F888
S3150800A0E0009026F04076994502D8BB481CF0B4FB90
S3150800A0F0BE4BDA6812F0060FFBD19A689E60996823
S3150800A1004E4016F4F81F0DBFB34E9A604E463E6099
S3150800A11017F098FE05280FD126F01CFA0746FCF71B
S3150800A120F9FD0128D4BF012100213846FCF77AFE43
S3150800A130FFF76CFDFFF75AFD4E4502D800201CF0CC
S3150800A1408BFB4FF40022AA4BA54ED3F8C03072669B
S3150800A1504FF0B442A14F23F040739360A54828F00E
S3150800A160EAFCFCF78BFE3B6F002023F0070343F065
S3150800A17003033B67FFF760FD3B6F23F474433B67BC
S3150800A1809D4BD3F8FC2012F0807240F0E281C6F8AD
S3150800A1908020924B4FF48031D3F82021974822F043
S3150800A1A0070242F00202C3F82021D3F8282122F040
S3150800A1B0070242F00202C3F82821D3F8802122F0D0
S3150800A1C0030242F00102C3F88021D3F8902222F05C
S3150800A1D0030242F00102C3F89022D3F8402122F08C
S3150800A1E0030242F00202C3F84021D3F8602122F0AC
S3150800A1F0030242F00202C3F86021D3F8402222F09B
S3150800A200030242F00202C3F84022D3F8002222F0E9
S3150800A210070242F00202C3F80022D3F8082222F00D
S3150800A220070242F00202C3F80822D3F8502222F0AD
S3150800A230030242F00202C3F85022D3F8702222F039
S3150800A240030242F00102C3F87022D3F8202222F05A
S3150800A250070242F00102C3F82022614A5E6E516687
S3150800A260426A22F001024262F0035CBF644A516608
S3150800A2704FF0E0210A6942F004020A61D3F860222D
S3150800A28022F0070242F00102C3F86022EFF31089B8
S3150800A29072B65C4828F04FFC95F811325A4E002BDE
S3150800A2A040F07A81FFF7F0FC0746002800F061814C
S3150800A2B0484628F094F9FFF7E7FCFDF74DFA4E4AB1
S3150800A2C05249D2F8C03023F0FF0343F0A003C2F886
S3150800A2D0C0304F4B99424F4940F0FD810B684E48BC
S3150800A2E0C2F89830C2F89C004C48C2F8A000013366
S3150800A2F00B60BFF35F8F05223F4BC3F894205A6A61
S3150800A30042F480325A62BFF34F8FBFF36F8FBFF3A9
S3150800A3104F8FBFF36F8F28F0E6F940B926F048FC57
S3150800A320012804D1D6F8B4380BB9C6F8B408002306
S3150800A330059328F0D8F9074600BB4FF4805028F05B
S3150800A340C6FA0546D0B1602028F0C1FA04460028AE
S3150800A35000F0E2816022394624F0BAFF05AB256396
S3150800A360019336232E4800934FF480623B462D49CD
S3150800A370029427F0FDFE204627F00EF9059BC6F845
S3150800A380C43828F0B0F90446002840F0CF8026F0FB
S3150800A3900FFC012840F0CA80D6F8B438012B40F0EB
S3150800A3A0C5800223C6F8B43805AB19461E4A12F80A
S3150800A3B0015B03F8015B002DF9D11C4FA02207F1C0
S3150800A3C06003CDE900531A482B46029728F052FA43
S3150800A3D0002800F0A9802DE000B4C40400800050D5
S3150800A3E000900050D8940020FFB3C4040000015028
S3150800A3F00080E00FCC4D030800ED00E000C00750D8
S3150800A40000A0005090460308DC5400200094002069
S3150800A410E0920020D814002003000020010001204B
S3150800A420AB79000829520308FB4B0308E87800209B
S3150800A430D91F030827F028F9D6F87C39002B73D0E2
S3150800A44007F538730293372307F550770093A02250
S3150800A4502B46B849B848019728F00CFA002863D06B
S3150800A46028F08DF94FF0FF33C6F8F43401234FF086
S3150800A4707F42C6F8B0384FF0E023C6F8F854059581
S3150800A480C3F81C2DD3F81C3D1B0E8DF813309DF810
S3150800A49013309DF813309DF8133013F0800F059B89
S3150800A4A040F03E81082B18BF059CA44B18BFC4F189
S3150800A4B00704240204F4E064C3F8DC474FF0E02301
S3150800A4C0D3F8202D002442F47F02C3F8202DD3F8B8
S3150800A4D0202D214642F07F42C3F8202D4FF47A7290
S3150800A4E06FF00400C3F81C4DFCF7A4FE944B1B68E0
S3150800A4F003F2E733B3FBF2F34FF0FF32C6F88438C2
S3150800A500B2FBF3F30A3BC6F8803826F041FAC6F8E0
S3150800A51088080120FDF7B8F9C8F8144026F092FC1F
S3150800A52026F0FCFAFDF71AFAD8F86830FEE783F346
S3150800A5301188BFF36F8F8FE4D2F85021E2E4D3F885
S3150800A5405071FFB20AE57F494A605A689707FCD4FA
S3150800A550B2E5D3F8FC2022F08072C3F8FC20002272
S3150800A560C6F88020D3F8FC2042F08072C3F8FC209D
S3150800A5700FE6AFF30080724BC5F804711B68C4F888
S3150800A5805478C5F81432704B5A6F42F001025A6774
S3150800A590DA6E22F03002DA664FF0000B584685F87C
S3150800A5A018B21CF059F998F86430D5F814728BB1C2
S3150800A5B0654962684B6F23F440734B67BB01634977
S3150800A5C003F5742303F23F23B3FBF1F313446360EB
S3150800A5D088F864B04FF480125D49D1F800315D4BBC
S3150800A5E05A664FF400325A660B6F5B4A03F007034C
S3150800A5F0C4F85C389269032B02F00200C2F34002E9
S3150800A60084F859280BD0D1F8203103F00703022B20
S3150800A61005D0D1F8283103F00703022B1FD10123F7
S3150800A620237040BBD5F814324849C3EB431202F5F0
S3150800A630742202F23F22B2FBF1F2606802446260C1
S3150800A6404FF4C872534303F5742303F23F23B3FB55
S3150800A650F1F3C5F80C31012385F8113228E60023F9
S3150800A66023700028DED0D1F8003103F003035A1E08
S3150800A670534253412370364BD3F8003103F003039A
S3150800A680022B23D0032B24D0012BCBD1DAF80020C0
S3150800A690002AC7D0304BDFF8B4A0DB68501EC3F3DE
S3150800A6A00B0C002319460CF1010C0CEB8C0CECFB83
S3150800A6B00A0124F0CBF9784300F5742000F23F2014
S3150800A6C0B0FBFAF0736818447060ABE74FF40042C9
S3150800A6D0E0E7224ADEE723F01F03203BB3F1005FE1
S3150800A6E00BD308681E4CC2F8980043F001030130EA
S3150800A6F0C2F89C40C2F8A03008601A4A0B681A488B
S3150800A70022F01F0242F00302C0F89830C0F89C20DD
S3150800A710164AC0F8A020EAE5284628F086F82DE66D
S3150800A720013305939DF813305B00DBB28DF81330C7
S3150800A730B1E600BF004C0308E1160308CC760020FA
S3150800A7405017002000E001500040005040420F0022
S3150800A750008000500090005000C0015080D5430290
S3150800A760030000201F94002000ED00E0E1FF002018
S3150800A7700348044B834202D0034B03B11847704782
S3150800A780849700208497002000000000064B0749A4
S3150800A790C91A891048BF0131491003D0044B0BB1BF
S3150800A7A001481847704700BF849700208497002007
S3150800A7B00000000010B5064C237843B9FFF7D8FF10
S3150800A7C0044B13B10448AFF300800123237010BD76
S3150800A7D0AC920020000000008CB2030808B5054BB7
S3150800A7E01BB105490548AFF30080BDE80840FFF7EF
S3150800A7F0CDBF00BF00000000885300208CB20308BC
S3150800A800A3F5803A704700BF174B002B08BF134BC0
S3150800A8109D46FFF7F5FF00218B460F461348144A5D
S3150800A820121A24F055FD0E4B002B00D098470D4BFD
S3150800A830002B00D098470020002104000D000D4889
S3150800A840002802D00C48AFF3008000F029F8200059
S3150800A8502900FFF791FA00F011F800BF0000080080
S3150800A8600000000000000000080400200804002082
S3150800A870E0920020000000000000000008B5064B2A
S3150800A880044613B10021AFF30080044B1B6803B1E3
S3150800A8909847204604F01DFB00000000D85400200D
S3150800A8A070B50D4D00260D4C641BA410A64209D1A7
S3150800A8B00B4D00260B4C28F053F9641BA410A64236
S3150800A8C005D170BD55F8043B01369847EEE755F8B3
S3150800A8D0043B01369847F2E77C9700207C970020D6
S3150800A8E07C97002080970020704770477047704714
S3150800A8F07047FEE72DE9F04104460C264FF00108A3
S3150800A900124D0CB314F001000BD0002024F0010402
S3150800A91006FB00525768002FF3D09168C0B2B847BB
S3150800A920EFE72246013020284FEA520201D0D3072A
S3150800A930F8D508FA00F20F2824EA0204E8D91038F4
S3150800A94006FB0052B432E5E7BDE8F08108040020B2
S3150800A950074BD3F82404D3F8202403F500531040FA
S3150800A96000F0553020F05020C3F82004C2E700BF9D
S3150800A97000C00350074BD3F82404D3F8202403F56A
S3150800A9800053104000F0AA3020F0A020C3F820049D
S3150800A990B0E700BF00C0035010B50378CBB15A1E0C
S3150800A9A0D2B2022A14D80C4931F812204078C24093
S3150800A9B0D2070DD5EFF31184302282F311880121D5
S3150800A9C05343064A8140D15084F31188BFF36F8FF1
S3150800A9D010BD40F2FF72E9E73C41030840F003501E
S3150800A9E002461378002030B50BB3591EC9B20229A6
S3150800A9F018D8104C34F811105478E140C90711D50D
S3150800AA00EFF31185302181F311884B4303F1A043FD
S3150800AA1003F570331B6CE34003F0010085F31188DE
S3150800AA20BFF36F8F93780BB980F0010030BD40F209
S3150800AA30FF71E1E73C4103084369426CD91C143AAB
S3150800AA40B1FBF2F103EBC1000330B0FBF2F00230C8
S3150800AA50704738B505460C46FFF7EEFF6A6CE31DEE
S3150800AA60143AB3FBF2F3013304EBC30402FB0040D0
S3150800AA7038BD73B506460D460024F36B01225B69A3
S3150800AA8001A928199847019B013309D1736C04342D
S3150800AA9062196A405B421A42EFD0204602B070BD86
S3150800AAA00024FAE72DE9F341154690F842201E46A0
S3150800AAB0012A0CBF022304235D43CF7D2C1D844647
S3150800AAC005F00205BFB915B1012724F0030448684B
S3150800AAD008342044DCF83C30012A5B6927D101A9F7
S3150800AAE0984717B1BDF806300193BDF804303360B6
S3150800AAF002B0BDE8F08155B124F0030400230D7EB1
S3150800AB0001F1200ED8B2854203D80020E2E72F468D
S3150800AB10F4E73EF8330003F10108A04204D901EB3B
S3150800AB20C303D8690834D4E74346241AEAE701225E
S3150800AB30314602B0BDE8F0411847D01E009B42429C
S3150800AB404241187E824211D11A688A420ED85A6842
S3150800AB508A420BD35A6901325A61D3E90302824207
S3150800AB603FBF986840F8221001321A6101207047E9
S3150800AB7000234FF0FF3230B544689C4202D10023CF
S3150800AB80037230BD016801EBC30541F833206A60E2
S3150800AB900133F2E70023F0B545689D4210D00468FA
S3150800ABA0DF0054F8332004EBC306B2F1FF3F08D0A8
S3150800ABB0C2F31302914204D14FF0FF33E35173609D
S3150800ABC0F0BD0133E9E710B5032A029C07D1A26A52
S3150800ABD05340626C5242134201D1FFF7DBFF01205A
S3150800ABE010BD0023F0B545689D4202D14FF0FF30F5
S3150800ABF00EE00468DE0054F83340671C09D0C4F33D
S3150800AC001307B94205D1240D1470036833445868F4
S3150800AC10F0BD0133E8E773B5164600F108040D46A2
S3150800AC20204609680DF10702FFF7DBFF032E05D161
S3150800AC306B68834202D12046FFF7ACFF012002B0C1
S3150800AC4070BD00BF2DE9F043466886B3056898468F
S3150800AC504FF0000CA946AE4655F83C400CF1010CE5
S3150800AC60C4F31307013401D0B94217D066450EF173
S3150800AC70080EF1D12F46002403E0A64207F1080783
S3150800AC8012D055F8343001340133F6D1C1F313012B
S3150800AC9041EA0851C7E90012BDE8F08341EA0851C4
S3150800ACA0CEE90012BDE8F083B8F1030F03D1012302
S3150800ACB00372BDE8F083002303E09E4209F1080908
S3150800ACC0F5D055F833400133C4F30754032CF4D1B7
S3150800ACD0C1F3130343EA0853C9E90032BDE8F08318
S3150800ACE008B508301346D1E90012FFF7ABFF01207B
S3150800ACF008BD00BF2DE9F0410646406882B0C0B1E4
S3150800AD000F4690460024336853F8345003EBC403C7
S3150800AD10C5F30752C5F31301013504F1010406D042
S3150800AD205B683046CDF80080B84710B17068844239
S3150800AD30E9D302B0BDE8F0814FF48032064B00201B
S3150800AD409A6641F6713203F51C33DA63012203F57C
S3150800AD500053DA60704700BF0090005041F6713228
S3150800AD600121064BDA6303F50052D1600022DA634B
S3150800AD704FF48032A3F518339A66704700000350E3
S3150800AD80704737B5054601F10C04436901A901224C
S3150800AD9020469847BDF804300122009369462046AC
S3150800ADA0AB69984703B030BD202A0B681EBF4FF029
S3150800ADB0FF3191408B43590801F055315B1A03F076
S3150800ADC033319B0803F033330B44017803EB131339
S3150800ADD00A444FF0013103F00F334B43A2EB1362E1
S3150800ADE00270704737B5044600251B22011D0DF178
S3150800ADF007008DF80750FFF7D7FF63689DF807200F
S3150800AE00B2EBD36F03D123F0784003B030BD1B22D9
S3150800AE1004F108018DF80750FFF7C6FFA0689DF8F2
S3150800AE200730B3EBD06F0ABFC0434FF0FF3020F0B6
S3150800AE307840EAE74BF29A22036810B5B2EB134F53
S3150800AE40044613D19BB2012B15D1FFF7CBFF013076
S3150800AE5011D04FF6FF72E068B2EB104F4FEA10437D
S3150800AE600BD180B2C01A18BF012010BD013314BF20
S3150800AE7004200320F9E70420F7E70220F5E7F0B5F8
S3150800AE800546002687B0EC69013CB44203D80C4657
S3150800AE90204607B0F0BD01B14C1E6F6C2868EB6BFD
S3150800AEA005225B6901A907FB0400984701A8FFF77B
S3150800AEB0C1FF0128ECD921460136E4E770B5002523
S3150800AEC0044686B00562E369AB4202D8206A06B03A
S3150800AED070BD666C2068E36B05225B6906FB05009E
S3150800AEE001A9984701A8FFF7A5FF012898BF236A7B
S3150800AEF005F101059CBF01332362E4E7F0B504467A
S3150800AF000D46466CE36B006887B005225B6901A9AC
S3150800AF1006FB0500984701A8FFF78CFF012804D80F
S3150800AF2001A8FFF75FFF07B0F0BD29462046FFF7E7
S3150800AF30A6FF0646676C2068E36B05225B6901A9D4
S3150800AF4007FB0600984701A8FFF74CFF431CEAD009
S3150800AF50B54238BF0130E6E72DE9F0430646994683
S3150800AF6089B0036908460F46904698470446002864
S3150800AF7067D1D9F804305B0A012B22464FEA5303FE
S3150800AF8004F10104F8D899F8035099F802302D0312
S3150800AF90DB0203F4006305F480551D43B9F800305D
S3150800AFA04FF00009C3F30A0352032B4492B29D18CB
S3150800AFB0294B0DF107001B2228F0784402A90393B8
S3150800AFC002948DF80790FFF7EFFE9DF807306FEAB9
S3150800AFD0054544EAC36404946FEA08041B2224F076
S3150800AFE0784402A902948DF80790FFF7DDFE9DF8D4
S3150800AFF007306FEA154544EAC3644FF0FF33012270
S3150800B0000594069307A9B369079507F110009847B1
S3150800B01001220446B36905A907F1080098470122E9
S3150800B020484518BF0446B36904A9381D9847012244
S3150800B030484518BF0446B369384603A9984728B156
S3150800B040044639463046FFF79CFE01E0002CF8D14D
S3150800B050204609B0BDE8F08301009AB238B5044627
S3150800B060456C006804F1400305FB0101E06BFFF73E
S3150800B07073FF05462046FFF721FF284638BD38B539
S3150800B080202204460D460C30002124F021F94FF009
S3150800B090FF33C4E90035A36038BD38B5064D04460C
S3150800B0A02B78834206D0054B0421D3F8680127F094
S3150800B0B0DDF82C7038BD00BF5C9400200804002021
S3150800B0C00B4A92F86E3183B1013B82F86E3192F8E1
S3150800B0D06C310133DBB2082B28BF002382F86C31B0
S3150800B0E00023012082F8BF36D7E792F86D31F5E7DD
S3150800B0F0080400200B4A92F8C23683B1013B82F855
S3150800B100C23692F8C0360133DBB2082B28BF0023BB
S3150800B11082F8C0360023012082F8BF36BDE792F8D0
S3150800B120C136F5E70804002010B5074CC378084473
S3150800B13084F8133C0379012084F8143CFFF7ADFF2B
S3150800B140002384F8153C10BD08040020094B5A69F1
S3150800B150002A09DB5A6AD207FCD40122064B5A6038
S3150800B160044A53689B07FCD40022044B012083F849
S3150800B170162C92E70040005B0060005B0804002084
S3150800B18008B5131E40F2FF7218BF0A4601211BF0CC
S3150800B190D1FBBDE8084002207FE7034B024603F6D1
S3150800B1A0174193F89F0DEBE708040020204BD3F8CE
S3150800B1B0542E12699169080E83F8170C080C83F847
S3150800B1C0180C83F81A1C080AD16983F8190C080E9A
S3150800B1D083F81B0C080C83F81C0C83F81E1C080A41
S3150800B1E0116A83F81D0C080E83F81F0C080C83F8E7
S3150800B1F0200C83F8221C080A516A83F8210C926AEB
S3150800B200080E83F8230C080C83F8240C83F8261CF4
S3150800B210080A110E83F8271C110C83F8250C83F8ED
S3150800B220281C1420110A83F8291C83F82A2CB4E751
S3150800B23008040020154BD3F8542E12691168090A20
S3150800B24083F8171C116883F8181C5168080A83F8D4
S3150800B2501A1C916883F8190C83F81C1C080AD16813
S3150800B26083F81B0C83F81E1C080A1169526983F8B7
S3150800B2701D0C080A83F81F0C83F8201C0C20110AE1
S3150800B28083F8211C83F8222C87E700BF08040020D6
S3150800B290114BD3F8542E03F61D435269917903F8DE
S3150800B2A0061CD17803F8051C1179527903F8041C99
S3150800B2B003F8032CAB2203F8022CCD2203F8012C49
S3150800B2C0064A02F1100152F8040B8A4243F8040BAD
S3150800B2D0F9D1162061E700BF08040020424103089F
S3150800B2E00A210D4BD3F80C2DB2FBF1F283F8172C7B
S3150800B2F0D3F8542DB2FBF1F283F8182C027902EB3D
S3150800B30082025200C3F80C2D4279022002EB820217
S3150800B3105200C3F8542D40E70804002000210120FC
S3150800B320014B024AFDF73EBF6A410308882B030812
S3150800B330F7B50126194A1A4D1A49AA4221D31A4BBA
S3150800B3401A491A6B0024B2F5803F88BF9A7B174DBD
S3150800B35084BF42F020029A73C0782822FFF710FFB4
S3150800B360134F144E15F8013B3246CDE90043002130
S3150800B3703B4601200134FDF715FF282CF2D103B016
S3150800B380F0BD12F8083B013BDC100F5D03F0070324
S3150800B39006FA03F33B430B55CFE700BFD863000813
S3150800B3A0E8660008659400205C9400205D940020FF
S3150800B3B07C4103089F2B030873B5184C0021D4F869
S3150800B3C0543E01209B69164A9D68DE88154B0095F8
S3150800B3D0FDF7E8FE01200021124B134A0096FDF7FF
S3150800B3E0E1FE2B0E84F8173C2B0C84F8183C2B0A2C
S3150800B3F084F8193C0D4B84F81A5C93F84830022BF4
S3150800B40009BF05200420330A84F81B3C0444013094
S3150800B41084F8176C02B0BDE87040BEE60804002048
S3150800B420C32B0308B0410308DB2B03085C940020F8
S3150800B43037B50F4D0021D5F8543E01209B690D4ABA
S3150800B4405C880D4B0094FDF7ADFE0C4B93F8480055
S3150800B450E3B2022811BF0120240A85F8174C85F8A3
S3150800B460183C18BF85F8173C03B0BDE8304094E691
S3150800B47008040020F72B0308D64103085C94002033
S3150800B480384C8FB5054601224FF4967004F658617C
S3150800B490FCF742FA94F8583E022B03D884F8593E32
S3150800B4A018F0FAFF304ED4F85C7E304BA02200210B
S3150800B4B03046C4F86871C4F8607EC4F8545EC4F8AF
S3150800B4C0983E23F005FF0C2384F8C13E06F13403A9
S3150800B4D0C4F8C43E052384F8C83E20230025C4F8D2
S3150800B4E0CC7E0127301D0393039B84F83C5F27F02D
S3150800B4F0B4F82A4629462846C4F8BC6E84F8B87EAD
S3150800B5001AF0A8F829462A4638461AF0A3F894F8F5
