:020000040800F2
:10600000080400208BC0000899A4000899A4000887
:10601000F966000899A4000899A4000899A400084A
:1060200099A4000899A4000899A40008F5F80208AA
:1060300099A400084421030899F80208CB18030822
:10604000F1FA000899A4000899A4000899A400088E
:1060500099A4000899A4000899A4000899A400082C
:1060600099A40008E137020899A4000899A400083F
:1060700099A4000899A4000899A4000899A400080C
:1060800099A4000899A400089996000899A400080A
:1060900099A4000899A40008ADF2010899A4000889
:1060A00099A4000899A400081DA50008F9A40008F7
:1060B00099A4000899A40008A1C602085DD10208AD
:1060C00045EE020841EE020811C902085BEE020823
:1060D00049EE02082DD102084DEE0208C1D1020896
:1060E000F9D1020899A4000899A4000899A400080D
:1060F00099A40008ED75000899A4000899A4000867
:1061000099A4000899A4000899A4000899A400087B
:1061100099A4000899A40008DD35020899A4000894
:1061200099A4000899A4000899A4000899A400085B
:1061300099A4000899A4000899A4000899A400084B
:1061400099A4000899A4000899A40008F57A000809
:1061500099A4000899A4000899A40008E5AE0208D3
:1061600099A4000899A4000835EE02083BEE020845
:10618000F0B5114A114C124E00F00105E3695F07AA
:1061900013D40DB9334213D103EA00078F4207D15C
:1061A0000B4A1A40002A0CBF00206FF00100F0BD1E
:1061B000013AEBD16FF00200F9E74FF0FF30F6E75C
:1061C0006FF00100F3E700BF8096980000000350D5
:1061D000020001002DE9F84F16464FF48032274B9C
:1061E000274D9A66EB69074603EA020841F67133C8
:1061F0000122EB63234BDFF89490DA600EB930464E
:1062000029E007F5005404EA09046F61E41BEB6917
:10621000B44228BF34465B072DD48B465BF8043B61
:1062200001EB040AAB61D3450ED1042300212120E8
:106230002B61FFF7A5FF70B92120FFF7A1FF50B92F
:1062400059462744361BD9E708210846FFF798FF2F
:1062500068B104232B6101220B4BDA60B8F1000F07
:1062600003D00022A3F50053DA63BDE8F88F5BF892
:10627000043BAB61D7E74FF0FF30ECE700900050F4
:1062800000000350001003500020035000E0FFFF07
:1062900000000000000000000000000000000000FE
:1062A00022000000ED80010819000000C5B50108BA
:1062B0001500000001BF01081000000079940108DA
:1062C00012000000ED9A0108130000007D93010800
:1062D00011000000959F01080E000000F5B40108B0
:1062E0000D00000041C101080500000079AA010865
:1062F000040000000DAB01080F000000B17D010893
:106300001A000000BDD101080B0000002184010823
:106310000A000000F9B101080900000075A3010896
:10632000080000008DCF010803000000A5C301088C
:10633000020000001584010806000000A9EA010817
:106340000700000065DE010801000000A5EA010861
:106350002300000095EA0108280000007FEA0108F8
:10636000270000007DEA01082600000011840108D2
:1063700020000000B19A01081F00000021C301089D
:106380001600000099AE0108280000008BEA010801
:106390002700000081EA010826000000138401089C
:1063A0002A000000CF7D0108020000001B840108C4
:1063B00029000000CD7D0108230000003986010876
:1063C00001000000A7EA010803000000CB7D0108DE
:1063D00000000000C97D0108D800000051BF00087E
:1063E000D700000015BF0008DF0000007DCE0008C8
:1063F000DE00000059CE0008BF00000097A400088E
:10640000A800000095A400084900000093A400081B
:106410000A00000091A400086B000000A9BE00085B
:106420006A00000095DA000869000000D9CD000874
:10643000D600000039DA00083C000000F9E000084E
:106440002700000091B600081C00000065BE00088F
:1064500098000000B1CD0008650000005FBE000894
:10646000D400000059BE0008D300000095AD00081C
:10647000D200000031BE0008BD0000009DCD000824
:106480000B00000019DB00080800000061B60008DE
:1064900006000000A1AF00086000000031CD000838
:1064A00005000000B5DE0008E8000000D5E00008A7
:1064B000E700000021CD0008DD00000025B600083F
:1064C000DC00000079E00008DB00000021BE0008CD
:1064D000DA000000E5DF0008C0000000DBBD0008B6
:1064E0000200000029DF0008A5000000CBBD000865
:1064F000A6000000D1D90008BE000000A9CC000809
:10650000A400000055D90008A000000025B900082B
:10651000A200000041CC00080300000051BB0008AD
:106520000900000051AF00081500000015BB00086D
:1065300093000000A1D8000892000000EDD70008E9
:1065400090000000E9B5000880000000D1BA000802
:106550006300000009CC00086200000059D7000861
:1065600061000000D5D600085600000021AF0008E9
:106570005400000075CB00085700000001CB000854
:106580005500000081CA000858000000DDC900085D
:106590005100000049C9000847000000D9C80008A0
:1065A0004F00000041C8000846000000C5C70008B1
:1065B0005F0000008DC700085E00000055C700089E
:1065C00050000000D5D500084D00000085B500083A
:1065D0003F00000029B500084B000000E9B40008A6
:1065E0004A000000BDB70008420000004DB400089A
:1065F0004100000095BA00086800000081D500083D
:1066000048000000D5D400085300000001C700086E
:10661000280000000FBA00082A000000FBD2000882
:106620002C000000C1D20008290000008FA400083F
:106630003D000000EDB900082E000000B3B90008CD
:1066400024000000A1C600082300000097D2000823
:106650002200000081C600082100000065D2000869
:1066600020000000D9AE00086C000000D1B6000880
:10667000AC000000B5C50008AB00000059C400081C
:10668000A9000000B1C300081600000019B40008FA
:1066900014000000FDC200081300000071C20008D1
:1066A00012000000FDC10008100000006DD40008B9
:1066B0003A0000007DAE000839000000C9C10008A2
:1066C0003B000000C1B6000838000000F5AD00082E
:1066D00037000000DDB30008D90000007DC10008CC
:0866E00007000000DDAF000817
:1066F000013800D0FCE77047BFF34F8F0549064BC8
:10670000CA6802F4E0621343CB60BFF34F8F00BF4F
:10671000FDE700BF00ED00E00400FA056FF01B008C
:1067200070477047064B1B684BB11B78032B01BFAA
:10673000044AD2F8243143F00043C2F824317047B0
:1067400094130020000003507047704708B538B11B
:106750002BF0E6F9002814BF6FF01D00002008BDE3
:106760006FF01B00FBE7034B4FF48071D3F8040577
:106770002AF010BE3C5500202DE9F04FBBB0E022BE
:10678000002102A827F062FE814B824F1B68824ED7
:106790000193019B02A958682BF000FA012802D04E
:1067A0003BB0BDE8F08F9DF80830822B00F0888068
:1067B000862B00F09080812BEBD1784A9DF8D48015
:1067C00092F80090BDF8DE10B9F1020F9DF8DE409E
:1067D000BDF8DC209DF8DC0086F8008057D14FF032
:1067E000060A090A120A7170B470F27030719DF8CD
:1067F000D350CAF1A804AA2D28BFAA25E4B2A54205
:1068000028BF254606EB0A002A465FFA85FB0DF1F4
:10681000290100F801BC28F02DFD18F0080F3DD02B
:106820000AEB0B04E4B2C4F1A803DBB21D2B33D88E
:10683000C4F1A70414F0FF040AD0621E5544725537
:10684000013503A9701928F015FDA3445FFA8BF4F4
:106850009DF8E02006EB0A03B9F1020F1A550ED19C
:106860009DF8E110621CD2B29954A21C9DF8E4106C
:10687000D2B2995403349DF8E520E4B21A550AF1D6
:106880000103E118C9B2A8201BF006F981E74FF017
:10689000040A7470B070AAE71E24CEE7AC429EBF13
:1068A000CAF1A704E4B225464FF00003554488BF5F
:1068B0000BF1010BEDB288BF5FFA8BF47355C7E79C
:1068C0009DF81030BDF80E109DF80C000DF111026E
:1068D00006F0F2FA5DE79DF8B930072B56D19DF826
:1068E0000E409C2C52D82D4BBDF80C201B782A4D05
:1068F000022B18BF03469DF80C1008BF120A03F1C3
:10690000010006BF69702A70297022465FFA80FA7A
:106910000DF10F0155FA80F09DF8C190EC5428F06C
:10692000A9FC072304EB0A01C9B26B54DDF8BA00D5
:106930004B1CDAB2A850BDF8BE2055FA83F39A80FA
:106940009DF8C020C9F300099A7101F10803DBB278
:1069500005F8039001F1090297F80835D2B2AB545B
:10696000FF22B3FBF2F2C2EB02229B1A0A3101337F
:106970006C20C9B287F808351BF08EF81030012161
:106980008140D7F804052AF005FD02E71020F6E75C
:106990005C1200203C5500201F100020DD930020D9
:1069A0002DE9F341264DD5F80C45B5F80A7524BA02
:1069B000631E03330AD905F20C501BF0CFF90121F5
:1069C000044605F20C5012F043FB01271D4EA5F8BA
:1069D0000A75C5F81845A5F816750BF0D5FF73684C
:1069E0004FF4800293F800800023A5F82075C5F8C5
:1069F0002445CDE90023F06828F03DFB95F850359B
:106A0000012B0BD1FF21F06828F0A0FD5522214673
:106A1000F06802B0BDE8F04128F0A6BD3946F06844
:106A200028F094FD73681B78012BEFD0424639465D
:106A3000204619F09BF8F568024621462846E8E70B
:106A40003C550020E8940020AAE7002307B50193F5
:106A5000104B114A5B68FE28C3F308030CBF4FF4C8
:106A600080414FF40051D2F8040523B903B05DF81A
:106A700004EB2AF08FBC01AA2AF0D4FD019B2BB1B4
:106A80004FF0E0234FF08052C3F8042D03B05DF8BF
:106A900004FB00BF00ED00E03C550020002307B5DB
:106AA0000138019307280CD8DFE800F0190B040B1C
:106AB000160B0B1C012101AA0C4BD3F804052AF07C
:106AC000B1FD019B2BB14FF0E0234FF08052C3F892
:106AD000042D03B05DF804FB402101AAECE704217A
:106AE00001AAE9E74FF4004101AAE5E73C5500207F
:106AF000002307B502380193052818D8DFE800F015
:106B00001C171E17031520210D4B01AAD3F80405ED
:106B10002AF088FD019B2BB14FF0E0234FF080520B
:106B2000C3F8042D03B05DF804FB1021ECE7054B1E
:106B3000054A5A6219F084FA0221E5E70821E3E7E1
:106B40003C5500200000085001001D0308B5024A12
:106B5000024B5A6219F074FA02001D03000008503B
:106B6000074B93F8543513F0300F07D1B0F57A6F17
:106B700004D80122022110461DF032BE704700BF2A
:106B80003C55002008B500200DF06CF9044B4FF483
:106B90000071D3F80405BDE808402AF0FBBB00BF34
:106BA0003C55002001200DF05DB902200DF05AB9CE
:106BB00008B519F033FD1BF03DF8BDE80840022090
:106BC0000DF050B937B5294CE06828F0C3FAC30777
:106BD000054602D5E06828F0DCFA15F4881F42D09B
:106BE0004FF0FF33CDE90033214B93F8553503F0D7
:106BF000FF0543B1002019F0CAFB0022E0681146EE
:106C000028F085FC0125D4E9021028F086FC2378C1
:106C10000A3B012B08D80022E068114628F052F9FF
:106C20006946E06826F0B6FD00220121E06828F000
:106C300049F901A9E06826F0ADFD00980D4B1860F8
:106C40000199596019F010FD002019F0A0FB55B111
:106C5000636818781AF0ACFF0122E068114628F04A
:106C600056FC1CF069FF03B030BD00BFE894002063
:106C70003C5500200000085037B51F4DD5F8580589
:106C800058B10378DA060AD500217F2381731A46AA
:106C90000190009308460DF089F803B030BD448997
:106CA00063051DD5837BDBB1013B837319F0C2FC07
:106CB000A0B14FF47A72114B5B689B88B3FBF2F37F
:106CC00003339BB2B5F85C150D48C1F1C801C91A70
:106CD00089B203B0BDE830401BF084BC0323F1E768
:106CE00024F48C63438100210DF0A2F9D5F85835C6
:106CF00024F480645C81D0E73C550020E8940020B7
:106D00009C5A00202DE9F04F664E8FB014220021CE
:106D100003A827F09BFB0221F06803AA28F055FA8C
:106D20000446002846D0604D05F2A157D5F84435F9
:106D300013B19A6801329A601822002108A8BDF8A0
:106D40000EA027F083FB2146F06808AA28F03FFA3E
:106D5000F8B995F8A0259DF83310B36802EB42000E
:106D6000C2EB801007F800A00B44197E914603295E
:106D700007EB000821D80131C9B203291FD004292B
:106D80000CBFBE2140215FFA8AF38B4219D9002340
:106D90003B544FF000082146F06828F01CFA02210D
:106DA000F06803AA28F011FA0446B8F1000F72D176
:106DB0000028BBD10FB0BDE8F08F4021E3E7AA2146
:106DC000E1E70132D2B2032A28BF002285F8A025CC
:106DD00000220092214608F10102F06828F00DFA25
:106DE0009DF83330FE2B04BF337C8DF8333019F01F
:106DF00020FB9DF833B05845CBD9B3682B4A5B4490
:106E00001B7E5846032B8EBF00230133DBB202F8F2
:106E1000393002EBC90A19F0A1FB73688AF8010046
:106E20001B7863B1012B0AD0022B32D1BBF1020FC8
:106E300094BF4FF0000B4FF0010B4FEA4B038AF861
:106E400002309DF82E30D5F824258AF80330089BAF
:106E5000CAF80430D8F801301BBA934211D0D5F8E3
:106E6000443513B15A6901325A610338C3B2012B58
:106E700007D8182303FB0050D0F804380133C0F8BA
:106E8000043841465046D5F84C3598474FF0010834
:106E900081E70223D3E700288CD00120D5F83435D0
:106EA000984787E7E89400203C5500201A5D0020B1
:106EB00010B5A2B0044688220021684627F0C6FA21
:106EC000DA2368468DF800308DF804401BF036FB5D
:106ED00022B010BD10B5A2B0044688220021684639
:106EE00027F0B4FADB2368468DF800308DF80440B3
:106EF0001BF024FB22B010BD30B5A3B005460C46F4
:106F000088220021684627F0A1FAC0238DF80030BE
:106F10000123684601958DF808308DF809401BF073
:106F20000DFB23B030BD30B5A3B005460C4688221A
:106F30000021684627F08AFAC0238DF8003001232B
:106F4000684601958DF808308DF809401BF0F6FA77
:106F500023B030BD10B5A2B0044688220021684697
:106F600027F074FAD7238DF80030237861688DF804
:106F70000830638803A81A0A8DF80920227A8DF850
:106F80000A308DF80B2028F075F968461BF0D6FA08
:106F900022B010BD70B5A2B00D4614460646882238
:106FA0000021684627F052FAD1238DF800302B0AD1
:106FB0008DF809306846230A8DF808608DF80A506C
:106FC0008DF80B308DF80C401BF0B8FA22B070BD74
:106FD0000929F0B555D82C4B585C032851D82B4CB7
:106FE00004EBC00114F830004B6801280FD1C878B9
:106FF0008C78904294BFC4EB0001C4EB0201001BEB
:10700000CAB28242C8BF002233F91200F0BD002B81
:1070100037D08878904202D3B3F90200F6E7CC78F3
:10702000B3F900009442F1D94C789988013CA1F160
:10703000FF06714203F10405E4B2714103F10C074C
:10704000CEB2B44216D805EBC1014FF47A756A434B
:10705000B1F902404968521A04EBD47102EB6102A3
:1070600092FBF4F29042D1DBB3F902009042CDDC06
:1070700010B2CBE737F831C04E1C9445E3D331460C
:10708000DEE70348C2E700BF8C1F0308B4160020E8
:107090000080FFFF0028ACBF00F16040064B4FEAC4
:1070A0000111C9B2ABBF00F5614000F00F0080F8DC
:1070B00000131954704700BF14ED00E02DE9F74F9D
:1070C000002800F0EE807849D1F83C48D1F840E83B
:1070D000EFF3118B302383F3118810F8086C30F82C
:1070E00006CCF30702D5BCF1000F07D18BF3118852
:1070F000BFF36F8F012003B0BDE8F08FD1F83038B7
:10710000D1F83898A3EBCC0330F8048C0093C1F885
:10711000303809F10103A0F108050CF10102C1F8B2
:107120003838B8F1000F3BD0A5EBC803DF88B3F8BF
:1071300002A001971F7806F00206FF0725D42EBB98
:10714000019EA6EB0A06012E2AD1009E0CF1020236
:10715000A6F108075244C1F83898C1F8307830F8E1
:10716000028CB8F1000F1DD110F8085C20F8068CD5
:1071700068F3000500F8085C013A5A801A7868F351
:1071800000021A700022DA8041E04EB110F8086C5B
:1071900042446FF3410600F8086C00269E80DEE74B
:1071A0002B46DCE7D1F82868D1F82C7805EBC80924
:1071B0003744B9450ED310F8085C013A6FF3000567
:1071C00000F8085C002520F8065C5A801A7865F300
:1071D0000002D6E715F838504E4615F0010532D0BA
:1071E00010F8085C013A6FF3000500F8085C002510
:1071F00092B220F8065C5A801A7865F300021A7081
:10720000C3F107023244C2F3CF02DA80B280002C0D
:1072100045D09C4243D86288002A08BF1C46BEF174
:10722000000F06D09E4504D3BEF80220002A18BFE6
:107230007346C1F83C48C1F840388BF31188BFF35E
:107240006F8F002057E7A8EB0C08B8F1010FC7D1EA
:10725000B9F80270A9F802501744B9F80620E2B153
:1072600009EBC2060025D1F83828013AC1F83828C0
:10727000D1F83028083AC1F8302810F8082C20F846
:10728000065C6FF3000200F8082C1A785F8065F343
:1072900000021A70002EB3D174E71646E2E71C46CE
:1072A000BDE7222027E700BF3C550020FEE7002372
:1072B00007B5084601A9019319F05EFF019803B0D4
:1072C0005DF804FB0846F9E6002313B501936AB1A3
:1072D00061B102FB01F401A9204619F04DFF0146FE
:1072E00020B9019810B1224627F0B0F8019802B0F9
:1072F00010BD002303604360704730B5D0E90545F9
:1073000053B394420FD0E2B9046974B9036983B3EB
:10731000002918BF0D462B78DB0714D5AB8843B383
:10732000A5EBC305F7E704698CB141B9046823787C
:10733000DB070CD5E3884BB104EBC304F7E70C463D
:10734000F5E79542E2D0C0E9054530BD1C469542BF
:10735000DCD0002ADAD0F6E7944208D08C4228BF6D
:107360000C46954207D08D4238BF0D46EBE70C46E0
:10737000F7E71D46E7E70D46E5E700232DE9F3476C
:107380008B4E0193D6F82C380C469A42104604D204
:1073900039B912B101A919F0EFFE019802B0BDE8A8
:1073A000F0871AB90846FFF789FEF6E7EFF3118771
:1073B000302383F3118834F8063C07304FEAC308C2
:1073C00020F00705A845A1F108017ED234F8020C8F
:1073D000002868D0C21A012A65D101EBC00211F859
:1073E0003000C0075FD4B2F802C0A8EB050919EB62
:1073F000CC0958D4B9F11F0F38DDC5F3CF0361199B
:1074000024F8063C0133084624F8023CFFF771FFDC
:1074100034F8020C4FEAD9038880D0884B8010B32F
:10742000B2F802C0A0EB0C0C1CFA83F39BB202EB87
:10743000C000CB80838000235E48FFF75EFF1046CC
:10744000FFF757FFD6F83038D6F834282B44A3EB93
:10745000080393420194C6F8303833D887F3118873
:10746000BFF36F8F99E70023CB80E4E7D6F83808A5
:1074700001330138C6F83808D088634424F8063C44
:1074800068B1B2F802C0A0EB0C0C1CFA83F39BB2FB
:1074900002EBC00024F8023C83800123CCE70023E8
:1074A00024F8023CF9E7284601A919F065FE0028F6
:1074B000D4D142462146019827F0DCFE2046FFF752
:1074C000FDFDCBE7C6F83438C8E76ED934F8020CB6
:1074D000A8EB050900F1FF3AAAEB030A002839D00E
:1074E00011F8303001EBC002DB0734D4BAF1000FE1
:1074F00031D1C5F3CF03611924F8063C01330846A6
:1075000024F8023CFFF7F5FE508800EBD90334F86D
:10751000020C4B808880D088D0B1B2F802C0A0EBBA
:107520000C0C1CFA83F39BB202EBC000CB8083806F
:1075300020480023FFF7E1FE1046FFF7DAFED6F8F9
:10754000303801941D44A5EB0805C6F8305885E78E
:10755000C880EDE70246B9F1270FF0D9C5F3CF0394
:10756000611924F8063C0133084624F8023CFFF771
:10757000C0FE34F8020C09F1FF33DB084B80888031
:107580008AB10AF1010A1AFA83F39BB2CB80938085
:10759000D6F8383807480133C6F8383800231A4679
:1075A000FFF7ABFECBE7CA80F2E7019456E700BFD6
:1075B0003C550020645D0020BFF35F8F074B5A6A83
:1075C00022F480325A62D3F8942022F00102C3F8E8
:1075D0009420BFF34F8FBFF36F8F704700ED00E033
:1075E0000122014B1A7070473C550020364B70B594
:1075F0001D6F15F001013CD0012203F50053334CFF
:107600001A6794F8643813B328F056FAD4F8683837
:10761000C01AC4F86C08D4F86C380BB1D4F86C18E4
:10762000C4F86C184FF41671D4F86C38284BD4F8A1
:107630006C281B684B43274903F5742303F23F234F
:10764000B3FBF1F3934220D2002384F8643894F81A
:10765000713873B194F872385BB128F0D1F9002316
:1076600084F8723884F87338012384F8743884F805
:10767000753815F000521CBF174B1A67002DBEBF9E
:107680004FF00042144B1A6770BD94F870381348DD
:10769000D4F86C1850F82320114E511A3268521A3F
:1076A000D4F86C18326040F823100A210932B2FB7A
:1076B000F1F20C480133DBB20260B3FBF1F201FBE3
:1076C000123384F87038BFE70040005A3C55002060
:1076D0007817002040420F000060005A84170020F5
:1076E000801700207C17002013B5044628F0E4F929
:1076F0000D4AD2F87C38D2F884189C4228BF1C4628
:10770000D2F88038421A63439A4238BFC9184FF002
:10771000000334BF091A0121CDE90033034A0448AC
:1077200028F0A6F902B010BD3C550020C57C000829
:10773000C45D002010B5044627F0A2FF0C4BA0F555
:107740007A729A4212D84FF47A73B0FBF3F05C432A
:10775000084BB3FBF0F3B4FBF3F0022806D9BDE805
:1077600010400323B0FBF3F0FEF7C2BF10BD00BF13
:10777000FFC99A3B40420F0013460A4601460248A1
:10778000006818F0F1BC00BF0814002013460A4638
:1077900001460248006818F08DBD00BF08140020A3
:1077A000EFF305830F2B84BF034A9B5C4FF0E0236C
:1077B000D3F80C3D704700BFF0E300E0002307B5AD
:1077C0000193054B5B692AF06EF8019B002BFCD0FE
:1077D00003B05DF804FB00BFE89400202DE9F84FEA
:1077E0001D4B1B784BB312261C4B1D4DD3F8F87460
:1077F000DFF87080A5F16304C8F85070A5F1330973
:1078000015F8013FB3B1D4F834A0DAF82CB0BBF1CD
:10781000000F07D028F0BAFB9BF82830DB070ED406
:1078200028F0F2FB4FF0FF33F21C1F2A98BF48F8F4
:10783000223001360434A145E2D1BDE8F88F28F0AA
:10784000E3FBDAF82C305B689F42A3EB070388BFA9
:1078500003F1FF33E8E700BF441300203C5500204C
:10786000071300200000085010B50446FFF7B6FFCC
:1078700094F83030044A1C3352F823301BB12046B0
:10788000BDE81040184710BDA412002010B598B1F3
:10789000016E21F0010429F0BAFF68B901290BD962
:1078A000204627F093FF27F091FF94F846301BB94C
:1078B000BDE810402AF04DB810BD2DE9F0473B4C13
:1078C00009F048FAD4F8C05829F0A1FF002847D1A0
:1078D000002D45D0364F3B689D421AD028F056FB0C
:1078E000D5F828A0D4F8B4986E69D4F8B88828F0F0
:1078F0008BFB04F15C039A450BD04E4509D04645FD
:1079000007D004F17C039E4224D1AB6A0BB995F8F1
:107910005C302E1D28F03AFB30462AF091F9AB6A14
:107920001BB105F118002AF08BF9D4F8D8380133CF
:10793000C4F8D8383B689D42D4F8AC3812D0A36F55
:10794000013BA36728F046FA28F05EFB28462AF0A0
:107950000BF81EE004F6C4039E4201D0002ED8D1DD
:10796000BDE8F087002BEAD0D4F8C8389A68AB603D
:10797000EA6056609E600F4B6B61D4F8C4380133E7
:10798000C4F8C438D4F8DC380133C4F8DC3828F043
:107990003BFBD4F8AC38002BE2D03B689D42DFD1F2
:1079A000BDE8F047044B1B6829F05CBF3C55002044
:1079B00064120020005E00200C1400202DE9F74F17
:1079C0000121856B90F83030286A994028F032F90F
:1079D000036802690B4303600023DFF81091414CF8
:1079E00000F10C080193904503680FD1019A23EA36
:1079F0000203036028F04CFB012195F82C30286B22
:107A0000994003B0BDE8F04F29F0C4BCD2E900C7EB
:107A10002CF07F411CF0806F01EA030E04D1BEF10F
:107A2000000F03D13A46DEE77145FBD11CF0807FA1
:107A300018BF019E43F002431CBF0E430196D9F8C4
:107A40000010D2E9031CDCF8046013609368B242B2
:107A5000BB605F6008BFCCF8043000231361DCF822
:107A60000030013BCCF8003028F0B4F9D1E9023EF7
:107A70004A69C3F808E0CEF80430536801F1040CF9
:107A80006345136808BFC2F804E0013B1360CA6A8B
:107A9000D4F890309A424FF0140302FB03F304EB46
:107AA000030EDEF898A088BFC4F89020DAF808B07A
:107AB000C1F808A0C1F80CB0CBF804C0CAF808C0DF
:107AC000DFF82CC063444B61DEF894300133CEF80C
:107AD0009430054B1B68DB6A9A4284BF01232367FD
:107AE000A0E700BF3C550020641200200C140020C9
:107AF000D05500204FF098435B6C13B5D9021CD5CC
:107B000028F0FCF80238012817D8174BD3F8404961
:107B10009CB129F07CFE0346F8B10023204601A960
:107B2000019328F041FA012807D1019B2BB14FF0B6
:107B3000E0234FF08052C3F8042D4FF098435A6C65
:107B4000D202FCD55B6D094A03F4702393610822CD
:107B5000074BC3F8882102B010BD024601462046FB
:107B600028F052FBE9E700BF3C550020E8940020D4
:107B700000E100E070B5064628F0C0F802280C4687
:107B8000154610D021464FF0604318482544A942BD
:107B900012D1002428F0B2F8022802D1306828F06F
:107BA00013FC204670BD306829F044FB0028E9D062
:107BB0000630E7D00124F4E7D3F8802ED20712D59F
:107BC00011F8014BD0F8FC2042F08072C0F8FC2084
:107BD000D3F8002E42F00102C3F8002E1A68002AE2
:107BE000F0D01C70D3E71124D4E700BF00ED00E013
:107BF00007B5074B07480193C0F84839002301A98E
:107C00001A46D0F84C0928F0FFFA03B05DF804FBDF
:107C1000F98B01083C55002038B50B4CD4F8783A64
:107C20001B691D6828F0B2F9AD6B28F0EDF94DB174
:107C30000121064B186894F87C3A9940BDE8384019
:107C400029F0A8BB38BD00BF3C55002064120020BD
:107C5000054A92F87D3A13B1013B82F87D3A002340
:107C600082F87E3AD8E700BF3C55002070B5144634
:107C7000134A064692F87D3A0D46A2B013B1013B75
:107C800082F87D3A88220021684626F0DFFBC02377
:107C90008DF80030012301968DF808308DF80950D9
:107CA00034B10FCC03AD0FC594E8070085E8070099
:107CB00068461AF043FCFFF7AFFF22B070BD00BF6B
:107CC0003C5500202DE9F84327F0F6FE804629F0C8
:107CD000EAFD114E074696F87F4A6CB9D6F88458EB
:107CE000D6F88098A8EB05034B450AD20CB129F0D1
:107CF000B9FD0120FFF7F8FC3846BDE8F84329F04C
:107D0000DDBD28F079F84D44044314BF012400245C
:107D1000C6F88458E2E700BF3C550020EFF314801A
:107D200010F0010F14BF002001207047EFF3148002
:107D300040F0010080F31488704710B5044650B13C
:107D400050238065C365184429F07AFE2066B0FA96
:107D500080F0400910BD0120FCE7EEE7334B2DE930
:107D6000F3419B6927F0CAFF0128074630D929F063
:107D700063FD061E04DA0124204602B0BDE8F0814E
:107D80002B4890F8803A002B4CD100F68420FFF766
:107D9000D4FF0446B0B90023254DC5F8E038C5F836
:107DA000E438502305F50F61C5F8E818C5F8EC383C
:107DB00029F02DFD0446C0B100230124C5F8403947
:107DC000012FD9D9304629F0A2FD0028D4DAD2E714
:107DD000174890F8803A3BBB00F68420FFF7ADFFD0
:107DE00004460028C8D10646D5E70323024600937F
:107DF0000B460146012029F0CFFC80460028DBD04D
:107E0000D5F8E01809B127F0C3FC01214320C5F8DB
:107E10004089FFF73FF90822064B9A60012385F855
:107E2000803ACDE70024CDE70024A5E7E8940020C0
:107E30003C55002000E100E0F8B50D4E0D4C0E4D14
:107E400033680E48984767782B680C489847336822
:107E50000B489847022F08D12478E31F5C425C410D
:107E60002B68074898472046F8BD0024F8E700BF74
:107E70007C940020DC1800208094002074180020DE
:107E80001018002003681BB1406800B1184718475C
:107E9000704703461A68084622B15B680BB1184662
:107EA000104710477047F0B5A7B08822002104A8FA
:107EB00026F0CCFA444B454D1C68454E454FE068D2
:107EC00004A929F06BFE012801D027B0F0BD9DF870
:107ED0001030C02B08D19DF818302BB1059B1BB179
:107EE0009DF8190007A998479DF81030DB2BE6D8BC
:107EF000D02B07D8C32B21D0C42BE0D13648FFF7B5
:107F0000C1FFDCE7D13B0A2BD9D801A252F823F0FC
:107F10009F7F0008BF7E0008BF7E0008BF7E00086C
:107F2000BF7E0008BF7E0008797F0008BF7E000882
:107F3000BF7E0008637F0008497F00089DF8141089
:107F40002648FFF7A6FFBAE73A78002AB7D09DF88F
:107F50001410234B6320597002211A7019F0D0FDC0
:107F6000ADE73278002AAAD09DF814101C4B61208E
:107F700059701A700221F1E79DF8183001A88DF8A8
:107F80000430BDF819305BBAADF806309DF81B30EF
:107F90008DF80C3007AB029303F08AF98FE728784D
:107FA00000288CD0BDF81910BDF81B200C4B9DF893
:107FB00018C049BA52BA18709970A420042183F8E5
:107FC00001C0DA70CAE700BF5C120020191400205B
:107FD00018140020DE130020641300201014002069
:107FE0001F10002059B1E8290AD80139C1F3CC0289
:107FF000012301F007018B40815C0B4383547047E0
:10800000A1F5807189B2B1F5806FF8D2CA08EFE7A7
:1080100010B569B160B1E8290BD80139C1F3CC04BE
:108020000122035D01F007018A4023EA02030355A0
:1080300010BDA1F5807189B2B1F5806FF8D2CC087E
:10804000EEE7C0B14B1E9BB2E72B07D8DA08805C85
:1080500003F00703184100F001007047A1F580719B
:1080600089B2B1F5806F05D2CB08C05C01F0070181
:108070000841F0E7002070470A46002126F0E6B9E3
:1080800003460144002030B58B4200D130BD0024AE
:1080900013F8012B651C12B92044C0B2F4E7541E3A
:1080A00022402C46F6E7E72801D9002008E0C30863
:1080B000CB5C00F0070213410130DB0780B2F2D540
:1080C00070472DE9F04FADF50D7DF82200214EA847
:1080D00026F0BCF9AB4DD5F8783A4EA91B69186863
:1080E00029F03DFD012803D00DF50D7DBDE8F08F91
:1080F000882200210AA826F0A9F9C0238DF828308B
:1081000000239DF8386108ACC4E90033162E00F254
:108110006582DFE816F081006302A3006302630258
:10812000CC001700240034003C004B006F00970186
:1081300013022D02460263025202630260026302CE
:1081400063027E01012385F87E3A8F4B204623602F
:10815000FF2617F0C7FE002840F09681E5E10123D5
:1081600085F87E3A884B2046236017F06DFE003874
:1081700018BF0120002840F08781FF26D5E1834BFE
:10818000204623604F9B636010F018FCEFE77F4BA5
:10819000224623604F9B9DF84211BDF84001636069
:1081A00011F0C9FA003818BF0120E6E0774BBDF89E
:1081B000407123604F9B3846636011F0AFFAB0B94D
:1081C00001231A4685F8E83A02260523002085F89F
:1081D000142B3A4685F8E96ACDE90063CDE902003F
:1081E00004946B4BB5F80A150CF006FDB3E70423B5
:1081F0000022E7E7654B224623604F9B9DF8421122
:108200006360002385F8153B01239DF8400185F844
:10821000163B10F049FCC5E75C4B9DF8401123600C
:108220004F9B0020636001F03703890648BF01219E
:108230009DF8416143F0200348BF85F8141BCDE948
:108240000063CDE902000494BDF8EC21B5F80A15ED
:108250000DF5A1730CF0D0FC02267CE74B4BBDF86A
:10826000EE7123604F9B3846BDF8EC919DF841A11B
:108270009DF84081636010F003FC08B9B5F80A75F9
:1082800018F0200F18BF01224FF0000008F037034C
:1082900043F0200318BF85F8142B3946CDE900A31D
:1082A0004A46CDE9020004940DF5A1739CE79DF8C0
:1082B00041810DF5A1714246364826F0DBFF334B74
:1082C000BDF82CB29DF82E6223604F9B4022002106
:1082D00031489DF84071636085F8C16B26F0B6F8AF
:1082E000584610F0CDFB08B9B5F80AB51EB127F015
:1082F000010747F0020707F03703079343F0200315
:1083000085F8113C002394E80300DFF8949007F00F
:10831000200285F8022CA9F1ED02C5F80C2C1F4AA9
:1083200089E80300CDE92C2385F803BC85F8108C7F
:1083300085F8123C002E35D07BAE09F10F020DF509
:108340000B7C334603CB6345106051601E4602F13F
:108350000802F6D14FF0040AB8F1820F00F2018151
:10836000F80744BF2CAB0093594643465046079A42
:1083700058BFCDF8009018F0F3FA002840F0848040
:10838000EFE000BF3C550020517C00086D7C0008E8
:108390002460002053600020FE6000208D4D010805
:1083A000406100207BAA09F10F030DF5017C164600
:1083B00003CE664518605960324603F10803F6D1D2
:1083C00030687BA91860327900201A71FFF76BFEC4
:1083D0004FF0030AC6B2002EBED0304612F092FC17
:1083E000C30710D40AF028FB18B9B8F1190F00F22E
:1083F000B880304612F056FA00F03800082800F035
:1084000002814FF0020A30467BA9FFF74CFEC6B24C
:10841000E1E77E4BBDF8F42123604F9B9DF84101BD
:1084200063609DF842310494039300230293DDF8C6
:10843000433101939DF848310093B5F80A150DF2C8
:10844000491307E7714BD5F8542C23604F9B9DF8D7
:108450004291636013789DF843A1D9079DF8448148
:1084600062D49DF84071B5F80A05B8421DD168F391
:1084700082031370B9F1000F10D1484610F092FA40
:1084800010F0BAFD85F8589C2368002B00F0B380EB
:1084900095F87D3A013385F87D3AACE010F082FA28
:1084A00010F0AAFD10F0A4F9EEE7384611F05CFDDB
:1084B0000646C8BB384611F0B5FCA8B394E80300E3
:1084C000012285F8E82A122285F8E92A0A2285F88D
:1084D000642C0522BAF1000F85F8B42C18BF0322D2
:1084E0004B4B08F0010883E8030085F8EA9A85F809
:1084F000EB8ACDE90126042246490092CDE90361C9
:108500003A463046B5F80A15A3F5BA730CF074FB79
:108510000028B9D195F8B43CC5F85C0C052BC5F81A
:10852000600C01D110F07EFB062663688DF8316087
:108530000B9301230AA88DF830305AE0334BBDF875
:10854000400123604F9B9DF842116360D5F8543C75
:108550001B78DB0707D5304BB5F80A255B8C9A42B0
:1085600001D00226E1E72246C0B210F0D5FE19E69E
:10857000264B9DF8482123604F9B636022B1519B9D
:108580008DF8B4202C932CAA9DF84931BDF84211E6
:10859000003B18BF0123BDF84001009413F038FCE4
:1085A0005AE61A4B224623604F9B9DF84211BDF8B4
:1085B0004001636013F07AFC4EE6144B9DF84421B1
:1085C00023604F9BBDF842116360BDF84001234614
:1085D00010F0BEFAE6E517F047FEE3E58822002139
:1085E0002CA825F033FFC5238DF8B4608DF8B0308A
:1085F0002CA819F0A3FFD5F8783A4EA91B69186882
:1086000029F0CCFA67E54FF0010AA5E66D7C000879
:1086100098610020C4210308E894002010B50446A6
:1086200080B1006870B1002327F0EEFD01280146FB
:108630000AD1A06808B9002010BD2379994028F01C
:10864000A9FEF8E70220F7E70120F5E770B5C46A54
:108650000546ACB127F09AFC94F8286027F0D4FCCA
:10866000AB6B95F830401D6A27F090FC2D6827F021
:10867000CBFC012000FA04F42C4200D1304070BD44
:108680002046FCE7F8B5046A054627F07FFC26681B
:10869000012706F07F43236027F0B6FC002495F8FD
:1086A0002430A34200D8F8BD07FA04F3334205D0C2
:1086B000AB6A53F82400C36B03B198470134EEE76B
:1086C0000048DFE7A412002038B5056A0C4627F001
:1086D0005DFC012303FA04F12B6823EA01032B60FC
:1086E000BDE8384027F090BC2DE9F347D1F8388039
:1086F00005460C4616461F46B8F1000F40D190F8CB
:10870000243090F825209A423CD9172B3AD82C23B4
:108710000193019B019B0223DFF86CA0DFF86C90B2
:1087200081F828300EB328F043F80123C4E9063855
:1087300094F82830C4F800A043F00403C4F8209053
:10874000C4F8148084F828300020C4E90E57E4628D
:1087500095F8243084F83030AA6A42F82340013377
:1087600085F8243002B0BDE8F08728F021F8012315
:10877000C4F800A0C4E90636C4F820906661E3E7B7
:108780000220EFE70120EDE7DA1C0308BD790008BD
:1087900038B5264CD4F85835002B44D140B194F864
:1087A0005535012B02D001201BF0DCF9012038BD2A
:1087B00017F034FFD4F804550DB91D4B1D6827F090
:1087C000E5FB95F85C30022B04BF002385F85C3094
:1087D00027F01AFCD4F80405012128F065FED4F82E
:1087E0000405042128F060FED4F80405402128F097
:1087F0005BFED4F80405022128F056FED4F80405E7
:10880000082128F051FED4F80405102128F04CFE70
:10881000D4F80405202128F047FE0BF0C1F9002010
:108820001AF071F9C2E70020C1E700BF3C550020F3
:108830006412002028B9074B93F8542512F0300237
:1088400004D00022022101201BF0CABF0221012016
:108850001BF075BB3C550020034B4FF48051D3F8FF
:10886000040528F097BD00BF3C5500200A4BD3F803
:10887000F82C32B1D3F8FC2C4AB1D3F8002D42B910
:10888000022203EB8203C3F8F80C01207047012297
:10889000F7E70020704700BF3C550020814238B503
:1088A00015D90022174B022983F8042D27D900255A
:1088B000144C154BD4F8F82404F6F844DA6454F850
:1088C000043B03B198470135032DF8D10FE001298E
:1088D0000BD801280B4B04D893F8043D03B151B1D8
:1088E00038BD012283F8042DF9E70229DFD1BDE864
:1088F000384017F093BEBDE8384019F09BB9EFD16E
:10890000F5E700BF3C55002000000850F0B5134BC0
:1089100013495B681B78023B012B8CBF03230423A4
:10892000C418002213464D1ECF1D15F9016F16F114
:10893000800F1FBF9B1901321BB2D2B2BD42F4D1CE
:1089400042B193FBF2F300F8013BA04201F10801B0
:10895000E7D1F0BD6FF07F03F5E700BFE89400209A
:10896000416200202DE9F843DFF88C904FF00008B9
:10897000D9F8043080271B781E4D023B012B94BF91
:108980000426032617F030FE4FEAC80450BBB8F1A6
:10899000010F1ED05FFA88F1D9F80C0026F0B9FD5E
:1089A00095F8253D00282C44B8BF03301C448010A6
:1089B00084F8050D08F101085FFA88F39E42E1D8BA
:1089C00095F8253D013303F0070385F8253DBDE803
:1089D000F883D9F804301B7813F0FD0F14BF012180
:1089E0000221D9E795F8253D2C441C4484F8057DE7
:1089F000E0E700BF3C550020E8940020B2E70023E8
:108A00000448202280F8253D802100F6055025F0FD
:108A10001DBD00BF3C5500202DE98048AA4BAB4C42
:108A20001B68C3B0C4F80435054619F09BFA00234F
:108A3000C4F8F83CC4F8FC3CC4F8003D94F8263D6A
:108A40000BB919F08FFA0023A14AA24952F8040B7E
:108A5000884206D0002840F0AB8004EB8303C3F8C3
:108A6000281D0021D4F8400D042308AAC4F8440DA1
:108A7000089117F079FB089B002800F09E8019F000
:108A800037FA0026DFF868823346C146924FD4F8A1
:108A900044AD07F1680B1693BAF1000F00F0E880BF
:108AA0005046396816AA17F059FC0023002840F0F8
:108AB000E2807968169A91421CBF0320012608378C
:108AC000BB4509F8010BE6D1002E40F0D780002706
:108AD00016230421814AD4F8440D17F045FB1D23C9
:108AE00005217F4AD4F8440D17F03EFB1D230B21CE
:108AF0007C4AD4F8440D17F037FB80230C217A4AC6
:108B0000D4F8440D17F030FB4FF4A072FF217748E2
:108B100025F09CFC4FF0FF334FF4A0593E46DFF8A0
:108B2000C481C4F84F3FC4F8533F08F19D0B1FFAAE
:108B300087FA0AF101039BB2194640460293FFF7F8
:108B400080FA48B9029B41461846FFF7ACFA48B391
:108B500007F10803984225DCA319304683F84F9F9C
:108B600010F0C4F806EB860250234946D4F8440DB1
:108B70000BEB021217F0F8FA002800F0BB8001237B
:108B80000AEB0301404689B20293FFF741FA029BC8
:108B90000133092BF4D11D2342460B21D4F8440D97
:108BA00017F088FB0837E82F09F10109BFD1A6E0CB
:108BB0000133062B7FF44AAF53E7B3F1A06FBFF444
:108BC00060AF1BF07FF84FF480474FF0B00A0026EB
:108BD000B022FF2116A825F039FCB1464FF0160B44
:108BE0000AFB07F8A8F53018162200210DA825F079
:108BF0002DFCCDF800B00321D4F8440D06EB08039A
:108C00000DAA1BF013F8C8B99DF83430B3B116ABF8
:108C10000DAA33440DF1440E9446BCE80300F4451C
:108C200018605960624603F10803F5D14FF001095D
:108C3000DCF800001860BCF804209A801636B02ECC
:108C4000D2D1B9F1000F06D033463946D4F8440DDD
:108C500016AA17F02FFB44F2080301379F42B6D142
:108C60000321D4F8440D19F00DF818F0FFFF08E7C0
:108C70000126304623E70220012620E74FF00009B5
:108C800001264F46144B53F839A018F8013B022B2C
:108C90000DD126B10021504610F030FA064606F0FC
:108CA000010609F10109B9F10D0FEBD10FE7032B13
:108CB000F7D15146D4F8440D16AA169717F04EFB7B
:108CC000002EECD01699E6E7641200203C550020F7
:108CD000646200201C22030824220308049500205B
:108CE00091620020AE620020CB6200204B63002026
:108CF000846200200136F6B2042E7FF453AF1D23A8
:108D00000621A64AD4F8440D17F02EFA1D23072198
:108D1000A34AD4F8440D17F027FA1D230821A14ACD
:108D2000D4F8440D17F020FA1D2309219E4AD4F8E7
:108D3000440D17F019FA1D230A219C4AD4F8440D5A
:108D400017F012FA1D232021994AD4F8440D17F088
:108D50000BFA1D232121974AD4F8440D17F004FA89
:108D600080232221944AD4F8440D17F0FDF9802382
:108D70002321924AD4F8440D17F0F6F91D22002160
:108D80008F4825F063FB8C22002116A825F05EFB9E
:108D90000026012700234FEA860B0DF1580A1FFA1F
:108DA0008BFB0BEB07091FFA89F94846029310F079
:108DB0003BFD029B804680B13BB98C23D4F8440D27
:108DC00016AA06F5007117F0CFF99AF80210484676
:108DD00001F001010FF07AFF43460137052F0AF138
:108DE000230ADED101363A2ED3D17648764BD5F818
:108DF00008A003630C3343664FF40050734FD4F85C
:108E00000435A7F8700007F180007867FB6707203A
:108E100020230022012187F87800079307F15000F2
:108E200007F14C06079B87F8481087F84720FA643B
:108E300028F0A7FC87F86810FE660AF0B1FEDAF8A1
:108E400008301B7813F0010106D19A0600F1A380C7
:108E500013F0100118BF03215D4EDAF80C20F06901
:108E6000137AC4F80C05308C8DF85910A4F80A0553
:108E7000002096F83110FF2B08BF0023091A18BFF5
:108E800001218DF85B100421DFF878C18DF858308E
:108E9000C7F800C1DFF870C18DF85C10CDF87D0017
:108EA000CDF879002090C7F80401C7F80C01C7F885
:108EB00008C1107803F0FD038DF85D005088092B80
:108EC000ADF85E009088ADF86000D088ADF8620023
:108ED0004048199040481A9040481B9040481C90C8
:108EE00040481D90507A8DF87800927A8DF8802055
:108EF00096F830208DF85A200ED1013A012A0BD96C
:108F00000123D4F8440D8DF85A3086F8303006F13C
:108F10001C02162317F0CEF916A80FF05BFE0022F4
:108F20008DF85C001146304819F0A1FA2F4B1F93C1
:108F30009DF8583003F0FD03092B04D19DF85B30F8
:108F40000BB11AF0B9FA2A4825F0D7FF14220021F4
:108F50000EA825F07BFA274B1C4F0D93264B0022C1
:108F60001B882648ADF844304FF48063ADF8463096
:108F70004FF48073ADF84830214B0DA91B68139353
:108F800007F5BE73149307F27C53159324F0B6F9DA
:108F90008046D8B3FEE702215EE700BF936400205D
:108FA000B0640020CD640020EA6400200765002042
:108FB00024650020416500205E650020DE650020FC
:108FC0005E660020DC1600201C9500203466002020
:108FD000E89400209D6A0008F16A000831950008B5
:108FE0004B6A00084467002070670020A12B01082D
:108FF000690345ECD93F0208D4840308F4940020A7
:10900000D88403082D1E0108A1290108DFF83CC4FB
:109010000DF1580EBEE80F00ACE80F00BEE80F00DF
:10902000ACE80F009EE80700DFF824948CE8070006
:109030000121F0681CF0DEFDB9F8CC3008A9F06819
:10904000ADF8203025F0FDFF08A9F06826F00FF8F4
:109050000122F068114626F031F8FAA3D3E9002383
:10906000CDE900234FF0FF324FF0FF33F06826F0D8
:1090700002F841464FF0FF3094F848B526F044FA24
:1090800028B9BBF1000F40F0F68187F87CB694F860
:10909000283594F82905D2490293B4F92E35DFF822
:1090A000B483B4F930250593023894F82C35A1F136
:1090B000280C012888BF6146D8F80C00049203935D
:1090C00025F084F98346002855D1049A059BDFF8E2
:1090D0001C93D221D8F80C00A9F87E26A9F8803676
:1090E000A9F8823625F03EFAD8F80C001CF06CFD89
:1090F000C728D4BF8C22C822B4F9323559469342CE
:10910000A8BF13465846A6F84C20A4F8323517F0ED
:10911000CFF9DDE9020117F039FAD6E9021026F09D
:10912000FCF917F04DFA73689A88A6F856205A8809
:1091300086F85320187818F03BFDAA4BAA4A5B68C2
:1091400023F0404323F440031B0C1B04934212D032
:10915000322608A88DF820601AF032FD9DF82030E4
:10916000B3FBF6F206FB1233B9F87E26324452FA0C
:1091700083F3A9F87E36D8F804300026187818F062
:1091800017FD0122D8F80C00114626F0C0F9DFF8CF
:10919000C89209F1040B17F04CF986424FF0000316
:1091A000C0F09081914ED4F8F83406F29460C6F87D
:1091B00090361AF005FD0122DAF80810DAF80000FE
:1091C00086F8952613F0A9FD12F000F90023B4F8F3
:1091D0000A050DA90D938DF8383010F0A7FDD8F8C9
:1091E00004209DF8363012789E07A2F1020200F1A9
:1091F0006F81012A0CD843F00203B4F80A050DA9C7
:109200008DF8363011F02AF840F2FF4011F038FBAB
:10921000FDF7C6FBFFF7F3FB94F85435D80702D5EA
:109220000120FFF7B5FA092284F87C2A002284F88D
:109230007D2A84F87E2A6E4A6E4B6A626E4A2B62E1
:10924000AA6203F2865203F5B1632B63EA6209F066
:10925000F3FB94F8142500280CBF2E239623510706
:1092600000F03C810C3B9BB2A4F81C3594234FF0DA
:109270000008A7F89636614BF82103F1500205204B
:10928000CDF8008028F088FA5D4B5E4ED3F8009050
:1092900009232E61C7F8C40BC7F8C80B87F8CC3B6D
:1092A00006F15C0206F10C03A821C7F8D09B02204E
:1092B000CDF8008028F070FA0A2387F8783D06F58B
:1092C000D673AB61C7F8740D06F5DC7306F5027250
:1092D0008821C7F87C9D0420CDF8008028F05CFA36
:1092E000494E2A686B79E861C7F8F00FC7F8F40FA8
:1092F000C7F8FC2F87F8F83FE021A6F1F803A6F1A4
:10930000A8020220CDF8008028F046FA2B792A68BE
:1093100086F82031AB6A6861C6F8283196F82C319E
:10932000C4F8785A0025102B4FF01003C6F82421FA
:10933000364A29468CBFC6F83021C6F83021C6F817
:109340001801334AC6F81C0132488CBF86F82C310C
:1093500086F82C31C6F8345119F089F829462E4A7E
:109360002E4819F084F829462D4A2E4819F07FF826
:1093700094F85435C6E97E55DB070ED50522022147
:1093800028461BF02DFA01212748284A19F06FF8CA
:109390004FF47A71244819F025F900240020FFF7D2
:1093A00049FA234B2146C6F8F831224B224AD3F81A
:1093B000F8342248C6F8FC41C6F84042C6F84432A8
:1093C00019F055F8FF2316941D4C8DF83430042104
:1093D000012320680DAA16F0C7FE3FE0AFF300801E
:1093E000F42103080080E00F00001703346600201A
:1093F000A4220308446700204C5A0020D06C0020AF
:1094000064120020FC7100202C770020AC2203089D
:109410009D25020864780020052B0208A47800200E
:10942000212A0208E47800202C790020FD89000818
:10943000676700083C550020352602087479002033
:1094400094130020088D015522020000645A002068
:10945000C0210308E8940020B86C00209DF8343047
:10946000FF2B42D0FDF75EF92C4B2D4C5B6820465C
:1094700018F072FBFBE70DF1200E09F1D00CBCE8EF
:109480000F00AEE80F00DCF800304FF0FF30CEF8F0
:10949000003008A926F035F820B10020214B83F8D0
:1094A0007C06F4E506214FF0FF3025F07DFD002815
:1094B000F3D101214FF0FF3026F026F8B0FA80F00A
:1094C0004009EBE709F8013B2BF8023B013662E665
:1094D000012A7FF69DAE23F002038EE612067FF589
:1094E000C3AE143B9BB25B00BDE620210E4818F0D2
:1094F000D6FB18F0B9FB202302210B4A206816F096
:10950000D9FE20230321094A206816F0D3FE012347
:109510000421206816AA16F0CDFEA3E70080E00F14
:109520005878002034660020B4790020D4790020D7
:10953000FFF765BA10B5114C94F87E3A0BB984F870
:109540007D3AD4F8783A00211B69186828F045FB69
:10955000D4F8783A0021D86928F03FFBD4F8783A5B
:109560000021586928F039FBD4F8783A0021BDE889
:1095700010409B69186828F030BB00BF3C550020A4
:1095800008B538B128F0ADFA002814BF6FF01D00FF
:10959000002008BD6FF01B00FBE703464160EFF3BE
:1095A000108072B6034AD2F850181960C2F85038C9
:1095B00028F0A9B83C5500207FB54FF06042D2F8A2
:1095C000003E134C43F00103C2F8003E04F5337330
:1095D00002935023002503930E4B68460093019598
:1095E00028F02EFA0C4B04F53276C4F8C8021E603F
:1095F000EFF3108072B6C4F81C3328F084F804F539
:1096000048700649FFF7C9FF284604B070BD00BF87
:109610002C7700209D210308C4940020449500204D
:109620000146EFF3108072B6084AD2F8503802F5BE
:1096300005622BB1994205D10B68136000230B60C2
:1096400028F061B81A461B68F3E700BF3C550020BC
:109650000246EFF3108072B60E4991F82933FF2BC2
:1096600002D1A2B128F04FB81BB9002AFAD00122CA
:1096700003E0002A0CBFFF2201221344DBB281F871
:109680002933B3FA83F35B0981F82A33EAE71A46F0
:10969000F3E700BF2C7700202DE9F84FEFF3118797
:1096A000302383F31188584B58495B6903F001025A
:1096B00013F0020F03F003034B6110D14AB1544A77
:1096C000D2F864330133C2F8643326F097FA27F0F6
:1096D000B5FA87F31188BFF36F8FBDE8F88F4AB1F1
:1096E0004B4AD2F864330133C2F8643326F086FA69
:1096F00027F0A4FAEFF3118A302585F311884FF093
:10970000000B26F07BFA5E46DFF8FC90414B9C682C
:109710000CB16369B3B100223D4B012E83F868237D
:1097200004D11BF0020F18BF83F8686327F086FA94
:10973000222802BF0222354B9A618AF31188BFF3B7
:109740006F8FC6E723465A693AB91A79217991424F
:1097500088BF1C469B68002BF5D18AF31188BFF3A4
:109760006F8FD4F810B0BBF1000F1BD0D9F82020B8
:10977000A369A2EB030A4FEAEA72DA4572F100022A
:1097800011DB5B44A361E36813B12046216898476D
:10979000B4F806B00136EFF3118A85F3118826F08C
:1097A0002DFAB3E7DA46EFF3118885F311882046E6
:1097B00025F0D0FF88F31188BFF36F8F2369002B4A
:1097C000E1D0A38BBBEB0A0133B1E28B13449BB214
:1097D000B3F57A7F10D2E383EFF3118A85F3118812
:1097E000204627F0E5F9A36922691344A3618AF3AF
:1097F0001188BFF36F8FC6E7A3F57A73E383A3697C
:109800000139013BA361E7E70040065000600650C4
:109810002C7700203C5500202DE9F843EFF3118808
:10982000302383F31188314F97F86933002B56D1D9
:109830002F4A304C3048C2F8A8389360C7F86433D8
:1098400028F00DFA63680BB106F0D4F901222B4B16
:109850005A60656815F00205FBD103220126274BEB
:10986000DFF8A890A5606562C9F804609A615A6142
:1098700006F0C0F90223E360256206F0BBF9E6605A
:1098800006F0B8F9E66006F0B5F94FF480221C4BFB
:10989000C3F880211A60C9F81860EFF311843023EF
:1098A00083F311884FF4F06006F064FB024684F302
:1098B0001188BFF36F8F134B186030B988F311888C
:1098C000BFF36F8F2320BDE8F8832B4640F2E731CA
:1098D0000D4824F081F987F86963C7F86C0388F3B1
:1098E0001188BFF36F8F0020EDE700BF2C770020B9
:1098F0003C55002000400650EC2203080060065052
:1099000000E100E07817002018FCFFFF005006502F
:10991000002380B5B448B54AB54C121A88B0C4F8D3
:109920002808C4F82C2884F84438C4F84C38C4F803
:109930003C08C4F84008FDF7DCFC0123013AD208DA
:109940004280C4F8383808234FF48030A949AA4A25
:10995000C4F83038C4F834384B6E5066486E4FF057
:1099600000414AF6CD355166A44903F480334A6C70
:109970000D6402F001024D6BEE07FCD40125A049F5
:109980004D60A1F500510D6BED07FCD50AB19D4A64
:109990000A640028A2BF4FF000419B4A51661BB9E0
:1099A0004FF48032984B5A66984828F058F926F0C0
:1099B00083F8974B1860EFF31183302282F31188FC
:1099C000944D95F87023002A40F08183012285F898
:1099D000702383F31188BFF36F8F6FF0040210467A
:1099E0000132052152B2FDF755FB4C2AF7D14FF059
:1099F0000043814F07227B664AF6CD337F4E0B2012
:109A0000D6F844803364844BDA6306F015FD73683E
:109A1000002023F4F87343F48073736040F2091359
:109A2000B36040F20313336119F07AFD18F0010FAF
:109A300018BF744B4FF0800018BF33646D4BD3F8E0
:109A400064804FF000437B664AF6CD33776C336415
:109A500006F0F2FC336AFF0723F00F0343F006031E
:109A6000336248BF674B6D4848BF3364B8F1000F9D
:109A7000A2BF4FF00042644B5A6628F0F0F8684AE3
:109A8000D2F84C3113F4802300F026834FF07E622D
:109A900092F89C3092F99C20002AB8BF26234FF4FC
:109AA0000001554A022051664FF4D15102F5B832F7
:109AB00051625C494F2B486028BF4F23012001F5BC
:109AC0008051DBB24860116911F48031FBD143F45D
:109AD0008073536140F201439360514B5160D3F85E
:109AE0004C21100340F1FB82A3F5FE431F88B7F51C
:109AF000807F28BF6A274C4BDFF8509193F9008094
:109B00004A4BB844C9F800303A4B88F308081B6F39
:109B100003F00703032B01D125F0B2FD17F0ACFAD7
:109B2000032852D04FF48012334B414E5A6645F60B
:109B30000E034FF0A062C6F880303E4B9A624FF49D
:109B4000803203F580539A62B36DD903FCD4B36DB0
:109B50005A00FCD4384B4FF400623361B3694FF4C0
:109B6000406103F0004343EA084343EA072343F01C
:109B7000007343F03C03B361304806F045F8336AA4
:109B80002F4923F00F033362B26A2E4B134043F484
:109B90008033274AB362936D31EA0303FBD14FF060
:109BA000807124488162136923F4700343F44013E5
:109BB00013614FF000434FF480328361224B99626E
:109BC0009A621B4A936D5B00FCD44FF4C022144B85
:109BD000D3F89860084B5A6603F598335A68012AFF
:109BE00000F0818234E000BF0897002000000120CF
:109BF0003C5500200080005000900050004009506B
:109C0000006009503254FFFF00A00050EC2203080E
:109C1000E49400202C77002000400050F02203083C
:109C20000080E00F001002505C940020C017530227
:109C30000040005A0050005A2008C00B3840005A1B
:109C400003000100C7FFFEFE0060005A5894002088
:109C500017F012FA05280CD10021C74806F062FB64
:109C6000C64A136F43F4806313674FF48032C44BCA
:109C70001A67DFF85C83C34BD8F8007026F0407693
:109C80009F4202D8BC481BF0ADFEBF4BDA6812F011
:109C9000060FFBD19A689E6099684E4016F4F81F33
:109CA0000BBFB54B9A60C8F80030B84608BF98465D
:109CB00017F0E2F905280FD125F0E2FC064606F080
:109CC00047F80128D4BF01210021304606F02AFBC5
:109CD00006F074FB06F016FBB84502D800201BF016
:109CE00081FE4FF40022A94BA54FD3F8C0307A660D
:109CF0004FF0B442A14E23F040739360A44827F084
:109D0000AEFF06F03BFB336F002023F0070343F068
:109D10000303336706F068FB336F23F47443336740
:109D20009C4BD3F8FC2012F0807240F0E281C7F81F
:109D30008020924B4FF48031D3F82021964822F0B6
:109D4000070242F00202C3F82021D3F8282122F0B2
:109D5000070242F00202C3F82821D3F8802122F042
:109D6000030242F00102C3F88021D3F8902222F0CE
:109D7000030242F00102C3F89022D3F8402122F0FE
:109D8000030242F00202C3F84021D3F8602122F01E
:109D9000030242F00202C3F86021D3F8402222F00D
:109DA000030242F00202C3F84022D3F8002222F05C
:109DB000070242F00202C3F80022D3F8082222F080
:109DC000070242F00202C3F80822D3F8502222F020
:109DD000030242F00202C3F85022D3F8702222F0AC
:109DE000030242F00102C3F87022D3F8202222F0CD
:109DF000070242F00102C3F82022614A5E6E5166FA
:109E0000426A22F001024262F0035CBF634A51667B
:109E10004FF0E0210A6942F004020A61D3F860229F
:109E200022F0070242F00102C3F86022EFF310882B
:109E300072B65B4827F013FF95F87133594E002B2B
:109E400040F07A81FFF7E8FC0746002800F06181C6
:109E5000404627F058FCFFF7DFFCFDF7ADFB4D4A0D
:109E60005149D2F8C03023F0FF0343F0A003C2F8F9
:109E7000C0304E4B99424E4940F0FE810B684D4830
:109E8000C2F89830C2F89C004B48C2F8A0000133D9
:109E90000B60BFF35F8F05223E4BC3F894205A6AD4
:109EA00042F480325A62BFF34F8FBFF36F8FBFF31C
:109EB0004F8FBFF36F8F27F0AAFC40B925F00CFF3E
:109EC000012804D1D6F8B0380BB9C6F8B008002381
:109ED000059327F09CFC074600BB4FF4805027F009
:109EE0008AFD0546D0B1602027F085FD0446002894
:109EF00000F0E3816022394624F0A8FA05AB25631F
:109F0000019336232D4800934FF480623B462C4941
:109F1000029427F0C1F9204626F0D2FB059BC6F833
:109F2000C03827F074FC0446002840F0CF8025F0AC
:109F3000D3FE012840F0CA80D6F8B038012B40F09B
:109F4000C580022305AA11461E48C6F8B03810F88D
:109F5000015B02F8015B002DF9D11B4FA02207F134
:109F60006003CDE9005319482B46029727F016FDF0
:109F7000002800F0A9802DE000B4C4040080005047
:109F800000900050FFB3C404000001500080E00FB7
:109F9000F422030800ED00E000C0075000A00050CC
:109FA000701F03083C550020809300206092002021
:109FB000D81400200300002001000120BB78000815
:109FC000DA1C0308B0210308A87A00200111030855
:109FD0005494002026F0ECFBD6F87839002B73D08F
:109FE00007F538730293372307F550770093A022C3
:109FF0002B46B849B848019727F0D0FC002863D019
:10A0000027F051FC4FF0FF33C6F8F43401234FF032
:10A010007F42C6F8AC384FF0E023C6F8F8540595F7
:10A02000C3F81C2DD3F81C3D1B0E8DF813309DF882
:10A0300013309DF813309DF8133013F0800F059BFB
:10A0400040F03F81082B18BF059CA44B18BFC4F1FA
:10A050000704240204F4E064C3F83C494FF0E02311
:10A06000D3F8202D002442F47F02C3F8202DD3F82A
:10A07000202D214642F07F42C3F8202D4FF47A7202
:10A080006FF00400C3F81C4DFDF704F8944B1B68F7
:10A0900003F2E733B3FBF2F34FF0FF32C6F8803838
:10A0A000B2FBF3F30A3BC6F87C3825F005FDC6F891
:10A0B00084080120FDF718FB8A4B5C6125F056FFF0
:10A0C00025F0C0FDFDF77AFB864B9B6EFEE783F320
:10A0D0001188BFF36F8F8AE4D2F85021DFE4D3F800
:10A0E0005071FFB207E580494A605A689707FCD46F
:10A0F000AEE5D3F8FC2022F08072C3F8FC200022E9
:10A10000C7F88020D3F8FC2042F08072C3F8FC200E
:10A110000FE6AFF30080724BC5F82C731B68C4F8D0
:10A120005078C5F87433714B5A6F42F001025A6788
:10A13000DA6E22F03002DA664FF0000A504685F8F7
:10A1400078A31BF04FFC6749D5F8747391F864301D
:10A150008BB166486268436F23F440734367BB0169
:10A16000634803F5742303F23F23B3FBF0F3134476
:10A17000636081F864A04FF480115E4BD3F8002136
:10A180005D4A51664FF4003151661A6F5B4902F027
:10A190000702C4F858288969032A01F00200C1F3B4
:10A1A000400184F855180BD0D3F8202102F00702A3
:10A1B000022A05D0D3F8282102F00702022A1FD173
:10A1C0000123237040BBD5F874334949C3EB4312D4
:10A1D00002F5742202F23F22B2FBF1F260680244FF
:10A1E00062604FF4C872534303F5742303F23F23B4
:10A1F000B3FBF1F3C5F83433012385F8713327E657
:10A20000002222700028DED0D3F8003103F00303CF
:10A210005A1E534253412370364BD3F8003103F09A
:10A220000303022B23D0032B24D0012BCBD1D9F84D
:10A230000020002AC7D0314BDFF8B490DB68501EF5
:10A24000C3F30B0C002319460CF1010C0CEB8C0C26
:10A25000ECFB090123F0C0FC784300F5742000F208
:10A260003F20B0FBF9F0736818447060ABE74FF41F
:10A270000042E0E7224ADEE723F01F03203BB3F170
:10A28000005F0BD308681F4CC2F8980043F001032D
:10A290000130C2F89C40C2F8A03008601A4A0B682E
:10A2A0001A4822F01F0242F00302C0F89830C0F8AA
:10A2B0009C20174AC0F8A020E9E5284627F049FB72
:10A2C0002CE6013305939DF813305B00DBB28DF86B
:10A2D0001330B0E6B5210308090803082C770020E5
:10A2E00078170020E894002000E001500040005062
:10A2F00040420F00008000500090005000C001500C
:10A3000080D54302030000209F93002000ED00E071
:10A31000E1FF00200348044B834202D0034B03B10A
:10A3200018477047049700200497002000000000A1
:10A33000064B0749C91A891048BF0131491003D09B
:10A34000044B0BB101481847704700BF0497002029
:10A35000049700200000000010B5064C237843B994
:10A36000FFF7D8FF044B13B10448AFF3008001237B
:10A37000237010BD349200200000000010850308F7
:10A3800008B5054B1BB105490548AFF30080BDE892
:10A390000840FFF7CDBF00BF00000000E8530020D9
:10A3A00010850308A3F5803A704700BF174B002BB8
:10A3B00008BF134B9D46FFF7F5FF00218B460F4664
:10A3C0001348144A121A24F041F80E4B002B00D007
:10A3D00098470D4B002B00D0984700200021040027
:10A3E0000D000D48002802D00C48AFF3008000F0AB
:10A3F00029F820002900FFF78BFA00F011F800BFC0
:10A400000000080000000000000000000804002018
:10A4100008040020609200200000000000000000FE
:10A4200008B5064B044613B10021AFF30080044B7E
:10A430001B6803B19847204603F0CBFE00000000E4
:10A440003855002070B50D4D00260D4C641BA4102E
:10A45000A64209D10B4D00260B4C27F011FC641BC2
:10A46000A410A64205D170BD55F8043B01369847AB
:10A47000EEE755F8043B01369847F2E7FC960020DA
:10A48000FC960020FC960020009700207047704743
:10A490007047704770477047FEE72DE9F04104466A
:10A4A0000C264FF00108134D0CB314F001000BD033
:10A4B000002024F0010406FB00525768002FF3D05F
:10A4C0009168C0B2B847EFE72246013020284FEA32
:10A4D000520201D0D307F8D508FA00F20F2824EA77
:10A4E0000204E8D9103806FB0052B432E5E7BDE8B3
:10A4F000F08100BF08040020074BD3F82404D3F8F0
:10A50000202403F50053104000F0553020F0502077
:10A51000C3F82004C1E700BF00C00350074BD3F8C5
:10A520002404D3F8202403F50053104000F0AA308F
:10A5300020F0A020C3F82004AFE700BF00C0035004
:10A5400010B50378CBB15A1ED2B2022A14D80C49E6
:10A5500031F812204078C240D2070DD5EFF31184B4
:10A56000302282F3118801215343064A8140D150A1
:10A5700084F31188BFF36F8F10BD40F2FF72E9E7DB
:10A58000EC1C030840F0035002461378002030B55D
:10A590000BB3591EC9B2022918D8104C34F8111047
:10A5A0005478E140C90711D5EFF31185302181F3CB
:10A5B00011884B4303F1A04303F570331B6CE34058
:10A5C00003F0010085F31188BFF36F8F93780BB907
:10A5D00080F0010030BD40F2FF71E1E7EC1C0308A0
:10A5E0004369426CD91C143AB1FBF2F103EBC10090
:10A5F0000330B0FBF2F00230704738B505460C4628
:10A60000FFF7EEFF6A6CE31D143AB3FBF2F301337C
:10A6100004EBC30402FB004038BD73B506460D468B
:10A620000024F36B01225B6901A928199847019B5B
:10A63000013309D1736C043462196A405B421A42D7
:10A64000EFD0204602B070BD0024FAE72DE9F341B7
:10A65000154690F842201E46012A0CBF022304230F
:10A660005D43CF7D2C1D844605F00205BFB915B1B1
:10A67000012724F00304486808342044DCF83C3007
:10A68000012A5B6927D101A9984717B1BDF80630A7
:10A690000193BDF80430336002B0BDE8F08155B1DC
:10A6A00024F0030400230D7E01F1200ED8B2854270
:10A6B00003D80020E2E72F46F4E73EF8330003F129
:10A6C0000108A04204D901EBC303D8690834D4E7D8
:10A6D0004346241AEAE70122314602B0BDE8F041C0
:10A6E0001847D01E009B42424241187E824211D13F
:10A6F0001A688A420ED85A688A420BD35A690132C4
:10A700005A61D3E9030282423FBF986840F82210A1
:10A7100001321A610120704700234FF0FF3230B53B
:10A7200044689C4202D10023037230BD016801EBF2
:10A73000C30541F833206A600133F2E70023F0B526
:10A7400045689D4210D00468DF0054F8332004EBC4
:10A75000C306B2F1FF3F08D0C2F31302914204D105
:10A760004FF0FF33E3517360F0BD0133E9E710B5FB
:10A77000032A029C07D1A26A5340626C52421342E0
:10A7800001D1FFF7DBFF012010BD0023F0B54568C4
:10A790009D4202D14FF0FF300EE00468DE0054F815
:10A7A0003340671C09D0C4F31307B94205D1240D07
:10A7B0001470036833445868F0BD0133E8E773B59B
:10A7C000164600F108040D46204609680DF10702FF
:10A7D000FFF7DBFF032E05D16B68834202D12046D1
:10A7E000FFF7ACFF012002B070BD00BF2DE9F043C0
:10A7F000466886B3056898464FF0000CA946AE46F9
:10A8000055F83C400CF1010CC4F31307013401D09E
:10A81000B94217D066450EF1080EF1D12F4600243B
:10A8200003E0A64207F1080712D055F8343001348E
:10A830000133F6D1C1F3130141EA0851C7E900120F
:10A84000BDE8F08341EA0851CEE90012BDE8F0838B
:10A85000B8F1030F03D101230372BDE8F083002395
:10A8600003E09E4209F10809F5D055F83340013361
:10A87000C4F30754032CF4D1C1F3130343EA085380
:10A88000C9E90032BDE8F08308B508301346D1E9C4
:10A890000012FFF7ABFF012008BD00BF2DE9F0411A
:10A8A0000646406882B0C0B10F4690460024336827
:10A8B00053F8345003EBC403C5F30752C5F3130137
:10A8C000013504F1010406D05B683046CDF8008004
:10A8D000B84710B170688442E9D302B0BDE8F08196
:10A8E0004FF48032064B00209A6641F6713203F530
:10A8F0001C33DA63012203F50053DA60704700BFAE
:10A900000090005041F671320121064BDA6303F5E5
:10A910000052D1600022DA634FF48032A3F518337D
:10A920009A66704700000350704737B5054601F13D
:10A930000C04436901A9012220469847BDF8043060
:10A940000122009369462046AB69984703B030BDA9
:10A95000202A0B681EBF4FF0FF3191408B435908EE
:10A9600001F055315B1A03F033319B0803F03333A8
:10A970000B44017803EB13130A444FF0013103F049
:10A980000F334B43A2EB13620270704737B5044696
:10A9900000251B22011D0DF107008DF80750FFF760
:10A9A000D7FF63689DF80720B2EBD36F03D123F084
:10A9B000784003B030BD1B2204F108018DF8075028
:10A9C000FFF7C6FFA0689DF80730B3EBD06F0ABF52
:10A9D000C0434FF0FF3020F07840EAE74BF29A2274
:10A9E000036810B5B2EB134F044613D19BB2012B91
:10A9F00015D1FFF7CBFF013011D04FF6FF72E068A1
:10AA0000B2EB104F4FEA10430BD180B2C01A18BFFF
:10AA1000012010BD013314BF04200320F9E70420F6
:10AA2000F7E70220F5E7F0B50546002687B0EC69A8
:10AA3000013CB44203D80C46204607B0F0BD01B13A
:10AA40004C1E6F6C2868EB6B05225B6901A907FB44
:10AA50000400984701A8FFF7C1FF0128ECD921465F
:10AA60000136E4E770B50025044686B00562E36967
:10AA7000AB4202D8206A06B070BD666C2068E36BFA
:10AA800005225B6906FB050001A9984701A8FFF7AD
:10AA9000A5FF012898BF236A05F101059CBF01337A
:10AAA0002362E4E7F0B504460D46466CE36B0068AC
:10AAB00087B005225B6901A906FB0500984701A83C
:10AAC000FFF78CFF012804D801A8FFF75FFF07B04C
:10AAD000F0BD29462046FFF7A6FF0646676C2068B2
:10AAE000E36B05225B6901A907FB0600984701A8F3
:10AAF000FFF74CFF431CEAD0B54238BF0130E6E710
:10AB00002DE9F0430646994689B0036908460F4689
:10AB1000904698470446002867D1D9F804305B0A6C
:10AB2000012B22464FEA530304F10104F8D899F8A7
:10AB3000035099F802302D03DB0203F4006305F49F
:10AB400080551D43B9F800304FF00009C3F30A03E4
:10AB500052032B4492B29D18294B0DF107001B2282
:10AB600028F0784402A9039302948DF80790FFF728
:10AB7000EFFE9DF807306FEA054544EAC36404948C
:10AB80006FEA08041B2224F0784402A902948DF88D
:10AB90000790FFF7DDFE9DF807306FEA154544EAA0
:10ABA000C3644FF0FF3301220594069307A9B369EC
:10ABB000079507F11000984701220446B36905A9DB
:10ABC00007F1080098470122484518BF0446B369B9
:10ABD00004A9381D98470122484518BF0446B369A7
:10ABE000384603A9984728B1044639463046FFF74E
:10ABF0009CFE01E0002CF8D1204609B0BDE8F083AE
:10AC000001009AB238B50446456C006804F140036F
:10AC100005FB0101E06BFFF773FF05462046FFF7D8
:10AC200021FF284638BD4FF480322DE9F843214BEF
:10AC30004FF001089A6641F671331F4D0446EF69E3
:10AC4000EB631E4B0021C3F80C80022368612120B6
:10AC50002B61174027F020F8DFF86890064640B1D6
:10AC6000C9F80C8007B1E96301360CD16E20BDE84C
:10AC7000F883212027F010F8C9F80C8007B1EE63A3
:10AC8000431CF3D008B17120F1E70D4B9A68012302
:10AC90000A3202F01F02934023F0030323449C4234
:10ACA00001D10020E3E754F8042B0132F7D03E2015
:10ACB000DDE700BF0090005000000350001003507B
:10ACC0000080E00F0020035038B5202204460D46D6
:10ACD0000C30002123F0BAFB4FF0FF33C4E90035FC
:10ACE000A36038BD38B5064D04462B78834206D0A4
:10ACF000044B0421D3F8680126F04CFB2C7038BDBE
:10AD0000DC930020080400200B4A92F86E3183B1D6
:10AD1000013B82F86E3192F86C310133DBB2082BC3
:10AD200028BF002382F86C310023012082F8BF364F
:10AD3000D8E792F86D31F5E7080400200B4A92F845
:10AD4000C23683B1013B82F8C23692F8C036013375
:10AD5000DBB2082B28BF002382F8C0360023012075
:10AD600082F8BF36BEE792F8C136F5E70804002046
:10AD700010B5074CC378084484F8133C03790120CC
:10AD800084F8143CFFF7AEFF002384F8153C10BD97
:10AD900008040020094B5A69002A09DB5A6AD207C5
:10ADA000FCD40122064B5A60044A53689B07FCD42A
:10ADB0000022044B012083F8162C93E70040005B2F
:10ADC0000060005B0804002008B5131E40F2FF720B
:10ADD00018BF0A4601211AF073FEBDE808400220A0
:10ADE00080E7034B024603F6174193F89F0DEBE70C
:10ADF00008040020204BD3F8542E12699169080EE4
:10AE000083F8170C080C83F8180C83F81A1C080A2E
:10AE1000D16983F8190C080E83F81B0C080C83F811
:10AE20001C0C83F81E1C080A116A83F81D0C080EFE
:10AE300083F81F0C080C83F8200C83F8221C080AE6
:10AE4000516A83F8210C926A080E83F8230C080CCF
:10AE500083F8240C83F8261C080A110E83F8271C9B
:10AE6000110C83F8250C83F8281C1420110A83F890
:10AE7000291C83F82A2CB4E708040020154BD3F8CA
:10AE8000542E12691168090A83F8171C116883F897
:10AE9000181C5168080A83F81A1C916883F8190C69
:10AEA00083F81C1C080AD16883F81B0C83F81E1C4D
:10AEB000080A1169526983F81D0C080A83F81F0CEF
:10AEC00083F8201C0C20110A83F8211C83F8222C03
:10AED00087E700BF080400200F4BD3F8542E926977
:10AEE000D1889268100E83F8170C100C83F8180C98
:10AEF00083F81A2C100A094A83F8190C5278022A8E
:10AF000009BF052004200A0A83F81B2C03440130E2
:10AF100083F8171C65E700BF08040020DC930020BD
:10AF2000094B0A48D3F8542E4078916902284A8880
:10AF3000897809BF120A012083F8172C83F8181C9E
:10AF400018BF83F8171C4CE708040020DC9300208E
:10AF5000114BD3F8542E03F61D435269917903F82F
:10AF6000061CD17803F8051C1179527903F8041CEA
:10AF700003F8032CAB2203F8022CCD2203F8012C9A
:10AF8000064A02F1100152F8040B8A4243F8040BFE
:10AF9000F9D1162025E700BF08040020F21C0308A1
:10AFA0000A210D4BD3F80C2DB2FBF1F283F8172CCC
:10AFB000D3F8542DB2FBF1F283F8182C027902EB8E
:10AFC00082025200C3F80C2D4279022002EB820269
:10AFD0005200C3F8542D04E708040020F0B4012601
:10AFE0000F4A104D1049AA420DD3104B10491A6B4D
:10AFF000B2F5803F82BFDA7B42F02002DA73C0787C
:10B000002822F0BCE0E612F8083B013BDC100F5DA3
:10B0100003F0070306FA03F33B430B55E3E700BFD6
:10B02000D8630008E8660008E6930020DC9300205F
:10B03000DE9300202F4C83B5054601224FF4967015
:10B0400004F65861FCF798FB94F8583E022B03D89D
:10B0500084F8593E18F0AEFA274ED4F85C7E274BA0
:10B06000A02200213046C4F86871C4F8607EC4F89C
:10B07000545EC4F8983E23F0E9F90C2384F8C13EED
:10B0800006F13403C4F8C43E052384F8C83E2023E7
:10B090000025C4F8CC7E01270193301D019B84F864
:10B0A0003C5F26F06EFB2A462946284684F8B87E87
:10B0B000C4F8BC6E19F094FB2A462946384619F0AC
:10B0C0008FFB94F8403F0020062B4FF006030C4AFC
:10B0D00087BF84F8403FC4F8442FC4F8442F84F855
:10B0E000403FC4F8480FFFF7FDFD064C204616F020
:10B0F00033FDFBE708040020A41200202494002064
:10B100001C1D030848130020054B022193F84C2F07
:10B1100083F8180C122083F8172C16F0F1BC00BF2E
:10B120000804002010B4304C84F8182C94F84D2FEB
:10B1300084F8171C002A54D0002B52D00A211A6818
:10B14000B2FBF1F2120A84F8192C1A68B2FBF1F280
:10B1500084F81A2C1A791A2184F81B2C5A7984F84D
:10B160001C2C9A7984F81D2CDA7984F81E2C1A7A12
:10B1700084F81F2C5A7A84F8202C9A7A84F8212C8F
:10B18000DA7A84F8222C1A7B84F8232C5A7B84F8F0
:10B19000242C9A7B84F8252CDA7B84F8262C1A7CC4
:10B1A00084F8272C5A7C84F8282C9A7C84F8292C43
:10B1B000DA7C84F82A2C1A7D84F82B2C5A7D84F8AA
:10B1C0002C2C9A7D84F82D2CDA7D84F82E2C1A7E76
:10B1D0005B7E84F82F2C84F8303C5DF8044B16F02D
:10B1E0008FBC0221F9E700BF080400200B46034989
:10B1F000024691F84E1F132094E700BF0804002078
:10B200000B460349024691F84E1FA9208AE700BF6A
:10B21000080400200B460349024691F84F1FAC205A
:10B2200080E700BF08040020054B022193F8512F4E
:10B2300083F8180C142083F8172C16F061BC00BF9B
:10B2400008040020054B022193F8512F83F8180CB5
:10B25000AB2083F8172C16F053BC00BF0804002065
:10B26000054B022193F8522F83F8180C482083F8DD
:10B27000172C16F045BC00BF08040020054B022126
:10B2800093F8532F83F8180C682083F8172C16F0C6
:10B2900037BC00BF08040020044B012193F8542F51
:10B2A000422083F8172C16F02BBC00BF08040020A6
:10B2B00070B4214B93F8142C002A3BD0017883F80A
:10B2C000172C83F8151C1D490278497883F8182C2F
:10B2D00002290CBF012400244288017A03BF120A0C
:10B2E00083F8192C428883F8192C08BF83F81A2C8C
:10B2F000C4F1A402D2B2914288BF0272027A1D192F
:10B3000085F81A2C42689AB9017A93F8130C043123
:10B310002144C9B270BC16F0F3BB46680131B65C7B
:10B320002A4482F81B6C067ACAB29642F5D8EBE73B
:10B330000021F8E770BC704708040020DC9300206F
:10B340001FB5094B8DF80400D3F8543E01A89B6942
:10B35000DB88ADF80630002302938DF80C30FFF740
:10B36000A7FF05B05DF804FB08040020054B02218F
:10B3700093F8552F83F8180C572083F8172C16F0E4
:10B38000BFBB00BF08040020054B022193F8562FD5
:10B3900083F8180C542083F8172C16F0B1BB00BFAB
:10B3A00008040020054B022193F8572F83F8180C4E
:10B3B000A22083F8172C16F0A3BB00BF08040020BE
:10B3C000054B022193F8582F83F8180CBE2083F800
:10B3D000172C16F095BB00BF0804002000B5ABB0D9
:10B3E000A8220021684623F031F868238DF8003048
:10B3F000074B4FF4FA72D3F8543E69469868FDF74C
:10B400000DF90122034B1A702BB05DF804FB00BF4D
:10B4100008040020DC93002000B5ABB0A822002176
:10B42000684623F013F845238DF80030064B4FF49F
:10B43000FA72D3F8543E69469868FDF7EFF8012098
:10B440002BB05DF804EB4DE40804002010B5134C5C
:10B450000379AAB084F8543FD3B10023C4F8603F05
:10B460000F4BC4F85C3FA8220021684622F0EEFF93
:10B4700044238DF80030D4F8543E4FF4FA726946F4
:10B480009868FDF7CBF801202AB0BDE8104029E408
:10B49000C4F85C3FC4F8603FE5E700BF0804002043
:10B4A00099B2000870B5AAB0054616460C46A82207
:10B4B0000021684622F0CAFF5A2301968DF8003019
:10B4C0008DF8085024B17223ADF80A408DF8003091
:10B4D000044B0022D3F8543E69469868FDF79EF865
:10B4E0002AB070BD0804002038B50D4D044695F80B
:10B4F000153C023B022B04D8BDE838400120FFF781
:10B50000F1BB0121FFF734FC95F8143C054A002BF0
:10B51000207908BF0022BDE838400021C2E700BF03
:10B5200008040020B1B2000870B5134B05465B78E3
:10B530004479022B0FD10121B0F8054064BAA4B2BE
:10B540000E4E96F8153C023B022B06D8BDE8704023
:10B550000120FFF7C7BB0021F2E728460231FFF7C1
:10B5600007FC96F8143C2146002B054A287908BFB1
:10B570000022BDE8704095E7DC930020080400201D
:10B58000B1B2000870B5164C054694F8153CAAB047
:10B59000023B022B05D801202AB0BDE87040FFF71E
:10B5A000A1BB0121FFF7E4FB94F8143CA822002B77
:10B5B0004FF0000168462E790A4D08BF002522F0A1
:10B5C00045FF67238DF80030D4F8543E00226946C9
:10B5D000986801958DF80860FDF720F82AB070BDD5
:10B5E00008040020B1B2000810B5AAB00479A8225E
:10B5F0000021684622F02AFF50238DF80030084BC6
:10B600000022D3F8543E694698688DF80440FDF74F
:10B6100005F801202AB0BDE81040FFF763BB00BF6A
:10B620000804002030B50D4BABB00579A8220021ED
:10B630006846D3F8544E22F009FF79234FF4FA728A
:10B640006946A0688DF800308DF80450FCF7E6FFDD
:10B6500001202BB0BDE83040FFF744BB08040020B8
:10B6600000B5ABB0A8220021684622F0EFFE70239F
:10B670008DF80030054B0022D3F8543E6946986897
:10B68000FCF7CCFF2BB05DF804FB00BF08040020E2
:10B6900000B5ABB0A8220021684622F0D7FE712386
:10B6A0008DF80030054B0022D3F8543E6946986867
:10B6B000FCF7B4FF2BB05DF804FB00BF08040020CA
:10B6C00008B516F0D5F8BDE808400420FFF789BB9F
:10B6D00002232DE9F041274FBAB097F84F2F8DF88C
:10B6E000073003799A4242D14379821D8DF80730A1
:10B6F00002AC00F11E03254610685168083203C5EC
:10B700009A422C46F7D1106828609DF80730052B27
:10B7100027D109AC02AD0FCD0FC495E8070084E82E
:10B720000700A822002110A897F8508F9DF8076005
:10B7300022F08CFE8B23F6B28DF8456012AD09AE77
:10B740008DF840300FCE0FC594E80700D7F8543E6F
:10B7500085E807000022986810A98DF84480FCF75E
:10B760005DFF01203AB0BDE8F041FFF7BBBA3AB047
:10B77000BDE8F0810804002010B40F4B93F8642F4B
:10B7800083F8180C83F8172C93F84D2F8AB181B1E8
:10B7900003F6194201F11C0051F8044B814242F8B2
:10B7A000044BF9D11E2193F8650F5DF8044B16F098
:10B7B000A7B90221F7E700BF080400202DE9F041F6
:10B7C000294D044695F8153CAAB0023B022B0AD835
:10B7D000037903F00F03052B05D001202AB0BDE843
:10B7E000F041FFF77FBA01212046FFF7C1FA267921
:10B7F00006F00F03082B23D195F8143CA822002B48
:10B800004FF000016846194F08BF002722F01EFEC6
:10B8100064238DF80030D4F806300197CDF8093054
:10B82000D4F80A308DF80860CDF80D30D5F8543EC4
:10B83000002269469868FCF7F1FE2AB0BDE8F08165
:10B8400095F8143CA822002B4FF000016846074CE5
:10B8500008BF002422F0FAFD592301948DF800302E
:10B860008DF80860E2E700BF08040020B1B20008CC
:10B870000D4B93F8662F83F8180C83F8172C93F868
:10B880004D2F72B169B103F6194301F11C0251F851
:10B89000040B914243F8040BF9D11E21462016F007
:10B8A0002FB90221FAE700BF080400200D4B93F8DE
:10B8B000672F83F8180C83F8172C93F84D2F72B16B
:10B8C00069B103F6194301F11C0251F8040B9142CE
:10B8D00043F8040BF9D11E214F2016F011B90221B3
:10B8E000FAE700BF080400200D4B93F8682F83F897
:10B8F000180C83F8172C93F84D2F72B169B103F629
:10B90000194301F11C0251F8040B914243F8040B56
:10B91000F9D11E21472016F0F3B80221FAE700BF43
:10B920000804002070B5154D0379067AA5F860303B
:10B9300043790446003B18BF0123232E28BF23264A
:10B9400085F862308379232285F86330C37900213A
:10B9500085F864300A4B85F86860184622F076FD59
:10B96000324604F1090123F085FC05F160032B67E1
:10B970000120BDE87040FFF7B5B900BFDC9300209F
:10B980007113002010B5044644EA010313F00303C9
:10B99000084609D1934201D1002010BD54F823106C
:10B9A00040F823100133F5E72146920023F062FCB2
:10B9B000F2E70D4B07B51B6BB3F5803F05D90120AE
:10B9C00003B05DF804EBFFF78DB900220DF107011C
:10B9D00004308DF8072015F037FD9DF8070003B0FF
:10B9E0005DF804EBFFF7FDB9DC930020002307B5F9
:10B9F00001220DF1070104308DF8073015F024FD08
:10BA00009DF8070003B05DF804EBFFF7EAB910B545
:10BA10004378042B29D903794479232B10D1202C86
:10BA200028BF202403212346114800F61742D0F8EE
:10BA30008C0F14F099FB2046BDE81040FFF7D1B9F8
:10BA4000432B08D1202C28BF20240948234602215B
:10BA500000F61742EBE7702B07D1FF22044B012CB5
:10BA600028BF012483F8172CE5E70024E3E700BF93
:10BA7000080400200246064808B500210423D0F837
:10BA8000900F14F071FBB0FA80F0400908BD00BFC0
:10BA90000804002007B500228DF807200B4A034652
:10BAA00052780079022A08D198889DF8073040BA68
:10BAB0000133DBB280B28DF8073015F091FC07201E
:10BAC00003B05DF804EBFFF78CB900BFDC930020F6
:10BAD00008B50F4B02465B780079022B16D193888C
:10BAE0005BBA98B201231A4491795379003918BF8F
